:020000040800F2
:100000000000032095050008091F00080B1F0008C9
:100010000D1F00080F1F0008111F0008000000003E
:10002000000000000000000000000000D161000896
:10003000131F00080000000061620008F55A000864
:10004000E5050008E5050008E5050008E5050008E8
:10005000E5050008E5050008E5050008E5050008D8
:10006000E5050008E5050008E5050008E5050008C8
:10007000E5050008E5050008E5050008E5050008B8
:10008000E5050008E5050008E5050008E5050008A8
:10009000E5050008E5050008E5050008E505000898
:1000A000E5050008E5050008E5050008E505000888
:1000B000E5050008E5050008E5050008E505000878
:1000C000E5050008E5050008E5050008E505000868
:1000D000E5050008E5050008151F0008E50500080E
:1000E000E5050008E5050008E5050008E505000848
:1000F000E5050008E5050008E5050008E505000838
:10010000E5050008E5050008E5050008E505000827
:10011000E5050008E5050008351F0008E5050008AD
:10012000E5050008E5050008E5050008E505000807
:10013000E5050008E5050008E5050008E5050008F7
:10014000E5050008E5050008E5050008E5050008E7
:10015000E5050008E5050008E5050008E5050008D7
:10016000E5050008E5050008E5050008E5050008C7
:10017000E5050008E5050008E505000800000000A9
:10018000E5050008E5050008E5050008E5050008A7
:10019000E5050008E5050008E5050008E505000897
:0C01A000411F0008E50500084D1F000885
:1001B00010B5054C237833B9044B13B10448AFF3A1
:1001C00000800123237010BD6401002000000000A6
:1001D000DCAB010808B5034B1BB103490348AFF37F
:1001E000008008BD0000000068010020DCAB0108B1
:1001F00001F0FF01102A2BDB10F0070F08D010F8D8
:10020000013B013A8B422DD010F0070F42B3F6D1DB
:10021000F0B441EA012141EA014122F007047FF0F4
:1002200000070023F0E80256083C85EA010586EA4B
:10023000010685FA47F5A3FA87F586FA47F6A5FA87
:1002400087F68EB9EED1F0BC01F0FF0102F0070293
:1002500032B110F8013B013A83EA010313B1F8D13E
:100260000020704701387047002D06BF354603381F
:10027000073815F0010F07D1013015F4807F02BF58
:10028000013015F4C03F0130F0BC0138704700BFA9
:1002900053B94AB9002908BF00281CBF4FF0FF31ED
:1002A0004FF0FF3000F074B9ADF1080C6DE904CEE9
:1002B00000F006F8DDF804E0DDE9022304B0704741
:1002C0002DE9F047089D04468E46002B4DD18A4209
:1002D000944669D9B2FA82F252B101FA02F3C2F13C
:1002E000200120FA01F10CFA02FC41EA030E9440CD
:1002F0004FEA1C48210CBEFBF8F61FFA8CF708FBEE
:1003000016E341EA034306FB07F199420AD91CEBC5
:10031000030306F1FF3080F01F81994240F21C81F7
:10032000023E63445B1AA4B2B3FBF8F008FB10333F
:1003300044EA034400FB07F7A7420AD91CEB040474
:1003400000F1FF3380F00A81A74240F20781644444
:10035000023840EA0640E41B00261DB1D4400023C9
:10036000C5E900433146BDE8F0878B4209D9002D2D
:1003700000F0EF800026C5E9000130463146BDE8B7
:10038000F087B3FA83F6002E4AD18B4202D3824221
:1003900000F2F980841A61EB030301209E46002DD0
:1003A000E0D0C5E9004EDDE702B9FFDEB2FA82F225
:1003B000002A40F09280A1EB0C014FEA1C471FFA83
:1003C0008CFE0126200CB1FBF7F307FB131140EA6A
:1003D00001410EFB03F0884208D91CEB010103F137
:1003E000FF3802D2884200F2CB804346091AA4B2F9
:1003F000B1FBF7F007FB101144EA01440EFB00FECD
:10040000A64508D91CEB040400F1FF3102D2A64531
:1004100000F2BB800846A4EB0E0440EA03409CE7D0
:10042000C6F12007B34022FA07FC4CEA030C20FA7D
:1004300007F401FA06F31C43F9404FEA1C4900FA9D
:1004400006F3B1FBF9F8200C1FFA8CFE09FB18111A
:1004500040EA014108FB0EF0884202FA06F20BD98D
:100460001CEB010108F1FF3A80F08880884240F2DD
:100470008580A8F102086144091AA4B2B1FBF9F021
:1004800009FB101144EA014100FB0EFE8E4508D91C
:100490001CEB010100F1FF346CD28E456AD90238A1
:1004A000614440EA0840A0FB0294A1EB0E01A14286
:1004B000C846A64656D353D05DB1B3EB080261EBF4
:1004C0000E0101FA07F722FA06F3F1401F43C5E9CE
:1004D000007100263146BDE8F087C2F12003D84004
:1004E0000CFA02FC21FA03F3914001434FEA1C4746
:1004F0001FFA8CFEB3FBF7F007FB10360B0C43EA38
:10050000064300FB0EF69E4204FA02F408D91CEBE7
:10051000030300F1FF382FD29E422DD902386344E5
:100520009B1B89B2B3FBF7F607FB163341EA034185
:1005300006FB0EF38B4208D91CEB010106F1FF38D4
:1005400016D28B4214D9023E6144C91A46EA0046CB
:1005500038E72E46284605E70646E3E61846F8E65D
:100560004B45A9D2B9EB020864EB0C0E0138A3E7A6
:100570004646EAE7204694E74046D1E7D0467BE787
:10058000023B614432E7304609E76444023842E7FF
:10059000704700BFDFF834D0002103E00C4B5B58FC
:1005A000435004310B480C4B42189A42F6D30B4A85
:1005B00002E0002342F8043B094B9A42F9D302F0CF
:1005C0006DFD19F0A5FA00F0F7FE7047000003205A
:1005D000E09506080000002064010020640100206E
:1005E0007C280120FEE7704708B500F01DFDBDE83E
:1005F000084000F0A9BC00F019BD704710B50421F7
:10060000044619F00CFA204610BD000038B50C4B1A
:100610000C4C18800C4B822019806368984740F678
:10062000110398420AD1094D23682C608220984713
:100630002B688220DB689847002038BD0120FCE74A
:10064000800100204C000020820100208401002055
:100650004FF4A071F020FFF7D9BF0000F7B52D4D82
:100660002B6804461B698220984780B220800028AE
:1006700043D02B680DF106025B6901A982209847DF
:10068000BDF80620A2F5B47292B20A2A37D90B231C
:10069000B2FBF3F2204B1B889A4201D9013B9AB27C
:1006A000BDF8043040F6B8318B422AD8C3F57163E7
:1006B0000E339BB20F21B3FBF1F3184909888B422B
:1006C00001D94B1E9BB2164E164D30682F688342DF
:1006D00081B28CBF591AC91AB8B2BA428CBF101A6B
:1006E000801A89B280B201440529C8BF33603368DB
:1006F000C8BF2A6063802B68A38003B0F0BD0022CE
:10070000CEE7C3F56D6308339BB20E2BD2D800231E
:10071000D9E700BF84010020820100208001002071
:10072000880100208C01002037B568460D4614462C
:10073000FFF794FFBDF8000030B1BDF802302B6028
:10074000BDF804302360012003B030BD032821D858
:10075000DFE800F0020B12190F4B1A68B2FA82F2AE
:10076000520904210D4802F087BF0B4B5A68B2FAB8
:1007700082F252090821F5E7074B9A68B2FA82F231
:1007800052091021EEE7044BDA68B2FA82F25209FC
:100790002021E7E7704700BF9001002000100240D1
:1007A000032821D8DFE800F0020B12190F4B1A685A
:1007B000003A18BF012204210D4802F05DBF0B4B27
:1007C0005A68003A18BF01220821F5E7074B9A68DA
:1007D000003A18BF01221021EEE7044BDA68003A14
:1007E00018BF01222021E7E7704700BF90010020D9
:1007F0000010024003280DD8DFE800F00206080AC6
:100800000421054802F03DBF0821FAE71021F8E76E
:100810002021F6E7704700BF0010024008B503280A
:1008200011D8DFE800F0020A0C0E0421074802F09C
:100830001DFF431E5842584108BD0821F6E710210C
:10084000F4E72021F2E70020F3E700BF00100240A8
:1008500070B5084D00240126E0B2FFF7DFFF18B1A4
:100860002B68012B18BF2E600134052C05F10405FF
:10087000F2D170BD90010020012380F8741080F83F
:100880007530704700207047034B4164003918BF32
:1008900001211970704700BFD72501200020704743
:1008A000836B0BB10846184770474FF6FF707047CF
:1008B000406803689B69184770477047704700009D
:1008C00070B5044600F080FC2368D3F88850044BD0
:1008D000D4E90F122046AC46BDE87040604700BF27
:1008E000000000D008B503680446D3F8803098476C
:1008F000236820469B6F984700F0ECF82368204659
:100900001B6F9847292000F0CBFF00F0E3F8236825
:1009100020461B6F9847F8E710B5044608F042FAE6
:1009200023682046D3F8AC30BDE81040184700F0EB
:100930003DBC00F041BC00F06DBC00F013BC00F009
:1009400075BC00F07DBC00F017BC07F091BC10B581
:100950007C21044619F063F8204610BD90F87730EA
:100960001BB1406803681B681847184670470000B1
:1009700010B590F8341090F874400C4B8C421A78F3
:1009800009D03AB90A4A0B491488088810800C80AB
:1009900001221A7010BD002AFCD0054A05491488AE
:1009A000088810800C800022F3E700BFD0250120CA
:1009B000CC250120CE25012070B50D46194635B94C
:1009C000094B0A4A0A4840F2D22119F057F8C0E907
:1009D0000F52084B003A18BF01221A700368BDE895
:1009E0007040D3F88C3018474CAC010884AC010837
:1009F000D2AC0108D625012008B5094B1B888B42D3
:100A000003D8084B1B88934205D9074B074A08486F
:100A10009E2119F033F8074B1980074B1A8008BD47
:100A2000CC250120CE25012017AD01087AAD0108A3
:100A3000D2AC0108D2250120D4250120012108B51E
:100A40000022084605F0E5F80A4B186028B90A4B61
:100A50000A4A28210A4819F011F80022042101202D
:100A600005F074F9074B186018B9074B034A2C219D
:100A7000F0E708BDA401002098AE0108E1AE01082E
:100A800010AF0108A001002097AF0108024B4FF002
:100A9000FF31186805F007B9A4010020014B186860
:100AA00005F02CB9A4010020024B0021186805F0C4
:100AB000FAB800BFA4010020FFF7F0BF03480449C3
:100AC000006800231A4605F07CB900BFA001002091
:100AD0000400002013B5084C00231A4601A9206821
:100AE00005F09FF920684FF0FF33002201A905F0BF
:100AF00098F902B010BD00BFA001002003685B6C34
:100B000018470120704703689B6A184782B000238A
:100B100001930D4B1A6B42F400021A631A6B02F434
:100B200000020192019A1A6942F400021A611A69DC
:100B300022F400021A61054B054A1A61054B4FF079
:100B400080629A6002B07047003802406815002049
:100B5000990B000800E100E040F2EF307047000020
:100B6000054B0360054B4FF08062C3F88820BFF34C
:100B70004F8FBFF36F8F704770B1010800E100E045
:100B800010B504464FF45A61FFF7EAFF204618F00B
:100B900046FF204610BD0000024B1B6858680368E2
:100BA0005B691847D825012070B5044625460A4BD5
:100BB0000C30002660602672667245F8203B602289
:100BC000294608F02DFA04F55A63EE602435AB424D
:100BD000FBD1204670BD00BF70B1010808B50B29DC
:100BE0000BD8DFE801F01206100A0A0A0A08080802
:100BF0000808012008BD0520FCE7054B054A06480A
:100C0000662118F03BFF0020F4E70220F2E700BF66
:100C1000D9AF0108F4AF01083EB0010808B50A29B0
:100C200009D8DFE801F010060E08080808060606D5
:100C30000600012008BD054B054A0648872118F02B
:100C40001DFF0020F6E70220F4E700BFD9AF01083E
:100C5000C3B001083EB001082DE9F8434F7F0C46B0
:100C600039468146FFF7BAFF94F81E800546414693
:100C70004846FFF7B3FF414606464846FFF7CEFF1A
:100C8000A18A628B424B521A1A649A61228B521AC1
:100C90001A61E28A586342EA01425A642069626832
:100CA000D863DA60216894F81CC080294FEA0C628E
:100CB00026D010D8202945EA020461D040295FD00F
:100CC00004295DD0324B2A4342F400324745DA61B1
:100CD0005AD0304A40E0B1F5807F07D0B1F5007FAF
:100CE000F0D142F4003242F0090203E042F4003253
:100CF00042F00A02DA61E2681A625E6258612AE032
:100D0000A4682A4342F40032211DD962DA612278B4
:100D10005E62586142B1012A21D01F4B1F4A204810
:100D200040F2111118F0AAFEDA69618822F47F42BC
:100D3000013922F0100242EA0122DA610120144B4B
:100D4000DA6942F02002DA61DA699206FCD41022F4
:100D50009A600028BDD0134A1A60BDE8F883628803
:100D6000D969541E21F47F4222F0100242EA042283
:100D7000BCF1FF0042F0100218BF0120DA61DEE78B
:100D800044F40034DC61B8E740F20122E4E700BF3C
:100D900000B00240010201000EB1010828B10108B3
:100DA0003EB001080102020070B50C46897FFFF7D2
:100DB00035FFA68AE18A628B154B2569586341EAA3
:100DC0000641921B5964DD631A642668E168082EA7
:100DD0000DD19A611A615862207F0E4A42EA006280
:100DE000DA610D4A19625D61DD601A6070BD002232
:100DF000D8611A6148090A0A02F4784200F4FC60DA
:100E00000243C1F3C4010A439A63044AEDE700BFF9
:100E100000B00240090001000102020001020300CB
:100E2000012070470C2070470C2303FB01000830A1
:100E300070470C2303FB0100083070470120704706
:100E40004FF43A7070474FF43A7303FB01000830D7
:100E500070474FF43A7303FB0100083070470120DC
:100E600070471020704700EB01100830704700EB0E
:100E7000011008307047084601F04EBA10B5034B18
:100E80000360044606F049FF204610BD28B2010861
:100E900010B50446FFF7F2FF2046142118F0BFFDFD
:100EA000204610BD10B5034B0360044606F035FF25
:100EB000204610BDF4B1010810B50446FFF7F2FF5B
:100EC00020464FF43C7118F0AAFD204610BD0000EA
:100ED00010B5034B0360044606F01FFF204610BD0B
:100EE000C0B1010810B50446FFF7F2FF20461821F3
:100EF00018F095FD204610BD10B5084B0360044660
:100F000000F54770FFF7BAFF04F12C00FFF7CAFFA6
:100F100004F11400FFF7DCFF204610BD5CB20108AD
:100F200008B50248FFF7E8FF08BD00BFAC0100208C
:100F300010B50446FFF7E0FF20464FF4926118F029
:100F40006EFD204610BD00002DE9F34101F072F85E
:100F5000054601F073F80024014623462846224640
:100F600000940CF06FFF254B254A264D1A60204651
:100F700001F018FD24480CF0CDFE2B78BFF35B8FF9
:100F8000DB0735D4284618F04CFD88B31F4C204BA6
:100F9000236004F54D7604F1140004F12C0804F5E7
:100FA00047776060C4F80880E760266106F0B6FE07
:100FB000184B6361404606F0B1FE174BE3623846BA
:100FC00006F0ACFE154BC4F81C3304F54C7001F070
:100FD00065FD224604F54C71304601F055FD304662
:100FE00001F09AF90E4818F067FD284618F025FD23
:100FF0000C4802B0BDE8F041FFF762BC3426012086
:101000005C140020A801002008000020AC01002092
:101010005CB20108C0B10108F4B1010828B20108AE
:10102000210F0008E0130020704700000148FFF77F
:1010300059BC00BFE013002070B5234C234E244B55
:10104000244D23603046FFF7AFFD284610F004F82A
:10105000214B2248DC60224C03600022F0204FF438
:1010600080712080C3E912121E4C1F492080C3E901
:1010700019121E4C1A864FF080714FF4A0705967F8
:101080000121C3E90422C3E90622C3E90822C3E916
:101090000A22C3E90E22C3E91022C3E91422C3E9DC
:1010A00016221A6683F86C201A67C3E9016583F873
:1010B000781020800E4C83F8341020800D48027088
:1010C0000D4A1A6070BD00BF3C060020400600209B
:1010D0003CAC010860140020E0130020D82501205A
:1010E000CC250120D225012001000001CE250120C0
:1010F000D4250120D0250120C8AD01080148FFF703
:101100002FBD00BF4006002000207047818070473F
:10111000C1807047018170474181704770477047B7
:1011200070477047704710B4C4880368121B8488E6
:101130005B6D091B12B25DF8044B09B218474FF6FC
:10114000FF7383814FF0FF3303621368C361106044
:10115000704790F825201AB190F8242002B1186049
:1011600070470000034B902283F85A2383F85823DA
:10117000704700BF00E100E0094A0A49D3680A4805
:10118000C3F30A03013B9BB20B801169C1F30A014F
:10119000013901801364536B43F0010353637047BB
:1011A00000680140DC140020DA140020014BD3F861
:1011B000AC00704700680140024B0122C3F8AC103C
:1011C0005A6270470068014070B5044607F0A5F800
:1011D00023685D6E09F034FE01462046A847236867
:1011E000054AD3F888502046AC460023BDE870403D
:1011F000A2F51631604700BF00B004D007F074B804
:1012000090F84B3013B1024B01221A7007F078B8F6
:10121000D814002007F032B807F08DB990F82520D7
:1012200012B103685B69184770470000034B4FF029
:1012300080629A604FF080729A60704700E100E02F
:10124000084B4FF08062C3F88820BFF34F8FBFF385
:101250006F8F4FF08072C3F88820BFF34F8FBFF3BA
:101260006F8F704700E100E010B5144C236823B382
:10127000134B144A1B6C11888B4213D1124B1988E3
:1012800002F0E0FF226892F86630013382F866309F
:10129000FFF714FC206807F085FDBDE81040002032
:1012A000FFF754BA02F0CEFF206803681B6A984724
:1012B000BDE810400020FFF773BA10BDD82501200B
:1012C00000680140DC140020DA14002007B5064B4A
:1012D000ADF806001B68054801220DF1060103F078
:1012E0000DFD03B05DF804FB10000020D8160020AF
:1012F00038B5094C094D22680123595D0D290A446E
:1013000003F10103F9D122604FF47A700022EA540C
:1013100004F073FCEFE700BF58150020E81400202C
:1013200030B595B0102200210AA818F033FC142221
:10133000002103A818F02EFC00241D4B01941A6C08
:1013400042F080521A641B6C03F080530193019B9E
:10135000184B02941A6842F440421A601B6803F466
:10136000404302930122029B4FF48033CDE90823CE
:1013700002254FF48003CDE90E5308214FF4A873E2
:10138000CDE9101308A804231393129502F078FFF7
:101390000F23CDE903354FF4A0504FF48053CDE92E
:1013A0000603052103A8059403F048F915B030BDE4
:1013B000003802400070004080B59AB001F07CFE19
:1013C000FFF7AEFF142200210DA8002418F0E2FB65
:1013D000C64B00941A6BC648C64D42F010021A6301
:1013E0001A6B02F010020092009A01941A6B42F0FC
:1013F00020021A631A6B02F020020192019A0294F1
:101400001A6B42F080021A631A6B02F08002029299
:10141000029A03941A6B42F004021A631A6B02F0E8
:1014200004020392039A04941A6B42F001021A63B5
:101430001A6B02F001020492049A05941A6B42F0AE
:1014400002021A631A6B02F002020592059A0694D0
:101450001A6B42F040021A631A6B02F040020692C5
:10146000069A07941A6B42F008021A631B6B03F08A
:101470000803079322463C21079B02F0FDF89E4893
:101480002246042102F0F8F89C4822464FF44051CD
:1014900002F0F2F822469A484FF4C04102F0ECF80C
:1014A00001264FF003083C239148CDF840800DA958
:1014B00002274FF00409CDE90D360F9401F0F0FF3B
:1014C0008D480F940DA9CDE90D96109701F0E8FF16
:1014D0004FF4405389480DA9CDE90D36CDE90F47AA
:1014E00001F0DEFF0DA94FF4C0438548CDE90D366C
:1014F000CDE90F4401F0D4FF8248834B036001F033
:101500006DFE824A824B2C62C5E9002328464FF4C7
:101510008043C5E90434C5E90244C5E9064402F044
:1015200095FA1021284602F0D1FC2146284602F007
:10153000ECFC7848784984624FF48273C0E9001368
:101540004FF400751823C0E906530A23734DC36294
:10155000C0E90244C0E90444C0E9084403F072FB56
:101560006F4B0D974FF0100CC5E900364023C5E9CD
:1015700004C34FF4C073C5E906344FF40063C5E9F2
:1015800008344FF40053AB620DA907232846CDE978
:101590000E39CDE910384FF0080AC5E90249CDE906
:1015A000127703F04FFA4FF6FF7209A92846CDE9EA
:1015B0000AA6089409960C9403F064FA304601F0E8
:1015C000A7FD4FF6FF7209A92846CDE9097ACDE9B2
:1015D0000B6403F057FA4FF6FF7209A92846CDE9CC
:1015E000098ACDE90B9403F04DFA4FF40C7308937C
:1015F000089B0C934FF6FF7209A92846CDE9099A7A
:101600000B9603F03FFA40F26A51284603F058FA6D
:10161000342221460DEB020018F0BCFA414D424B3A
:10162000AC86C5E900340923C5E905361D2340F21F
:101630000D1EC5E9073840F24313C5E909E3284602
:1016400040F2471340F21718C5E90B83C5E902447D
:101650002C6185F8364002F0FDFCFF21F022CDE937
:1016600012144FF4806905214FF4A073CDE90E24C4
:10167000CDE91491CDE916420DA922462846CDE9BF
:1016800010372A4D18930D94ADF864408DF86640DC
:1016900002F0ABFD264B2B601B68DFF8A4A0984737
:1016A0002B68244DDB689847234BC5E90A47C5E9F9
:1016B0000C442846C5E90034C5E9027401F0F4FD84
:1016C000314628461D4D01F0A7FE4FF4E133C5E930
:1016D00000A328460C23C5E90534C5E902442C6162
:1016E000EC6103F053FFFEF77FFF2BE00038024070
:1016F00000100240A815002000080240000C024023
:10170000001802406015002000300240005C0040DC
:10171000A0860100D816002000500140A416002029
:10172000400100A0FC15002000680140E4140020E6
:10173000140000206815002000B00240301700207F
:1017400000440040FEF74FFF2A680B48D36843F07F
:101750002003D3602146094A04F006FA084B094ADF
:1017600018602146084804F0FFF9084B186004F09F
:10177000CFF904F0DFF9FEE7F1120008A4B2010886
:101780005C15002080B20108F7050008E014002075
:10179000054B1B786B2B05D1044801224FF40051F7
:1017A00001F06ABF704700BFE81400200018024033
:1017B000704770477FB5094B8DF817201B6802935F
:1017C0000DF117020123009201930A4601460448D5
:1017D00002F0E4F907B05DF804FB00BF0C00002044
:1017E000A81500207FB500238DF81730084B1B6823
:1017F00002930A4601230DF117010091019301465E
:10180000044802F05BFA9DF8170007B05DF804FB8E
:101810000C000020A81500201FB5084C2468009279
:10182000CDE901340A4601230146054802F046FA93
:10183000003818BF012004B010BD00BF0C0000200C
:10184000A815002001F064BC08B506480022042158
:1018500001F012FFBDE8084002480122042101F016
:101860000BBF00BF0008024038B50B4D04460122F3
:101870000A484FF4005101F0FFFE002204212846DF
:1018800001F0FAFE2046FFF721FD28460122BDE8BF
:101890003840042101F0F0BE00080240000C024074
:1018A00038B50B4D044600220A484FF4005101F0B0
:1018B000E3FE00220421284601F0DEFE2046FFF769
:1018C00005FD28460122BDE83840042101F0D4BEC0
:1018D00000080240000C0240F7B5144E144F0546B4
:1018E0000C4630460022042101F0C6FE00224FF4CF
:1018F0000051384601F0C0FE2846FFF7E7FC0D4BCB
:101900000D481B68224601A903F09AFB38460122C4
:101910004FF40051019C01F0AFFE3046012204213A
:1019200001F0AAFE204603B0F0BD00BF000802404F
:10193000000C024010000020D816002001F0E8BB87
:101940000268034B9A4201D101F0D0BB704700BF3F
:10195000001000407047000082B00E4B0022009241
:10196000596C41F480415964596C01F480410091F3
:1019700000990192196C41F0805119641B6C03F0BD
:1019800080530193019B0F216FF0010002B001F021
:10199000E5BB00BF003802400268094B9A4282B0A2
:1019A0000BD100230193074B1A6B42F480521A6348
:1019B0001B6B03F480530193019B02B0704700BF7F
:1019C000003002400038024007B50F4B02689A42CF
:1019D00016D10022A3F5F0430192196B41F40001E6
:1019E00019631B6B03F40003019305215A20019B2B
:1019F00001F0B4FB5A2003B05DF804EB01F0E0BB4A
:101A000003B05DF804FB00BF00B002402DE9F043D5
:101A1000044689B01422002103A818F0BBF82268FC
:101A2000244B9A4243D1244C244800250095236B33
:101A300043F004032363236B03F004030093009B30
:101A40000195236B43F001032363236B03F0010330
:101A50000193019B4FF012094FF400734FF00108FE
:101A60000327042603A9CDE90339CDE905870796A5
:101A700001F016FD4FF480731148079603A9CDE9D4
:101A80000339CDE9058701F00BFD0295236C43F482
:101A900000032364236C03F400030293029B236A74
:101AA00043F400032362236A23F40003236209B092
:101AB000BDE8F083005C00400038024000080240AE
:101AC00000000240F0B599B004461422002107A896
:101AD00018F060F830220DEB0200002118F05AF8DF
:101AE00022685E4B9A4240F0B78008230C93C023D3
:101AF0001093042312930CA84FF40033159302F0B3
:101B000077FE08B1FFF726FF554B56480024009496
:101B10005A6C42F080625A645A6C02F08062009201
:101B2000009A01941A6B42F020021A631A6B02F0B9
:101B300020020192019A02941A6B42F001021A6388
:101B40001A6B02F001020292029A03941A6B42F09D
:101B500002021A631A6B02F002020392039A0494BF
:101B60001A6B42F040021A631A6B02F040020492B0
:101B7000049A05941A6B42F004021A631A6B02F07D
:101B800004020592059A06941A6B42F008021A6341
:101B90001B6B03F00803069302250E26069B0B968B
:101BA0004FF4806307A9CDE90735CDE9094501F078
:101BB00077FC41F658032C480B9607A9CDE9073569
:101BC0000927CDE9094501F06BFC032327480B9752
:101BD00007A9CDE90735CDE9094501F061FC4FF4CE
:101BE000706322480B9607A9CDE90735CDE9094571
:101BF00001F056FC4FF40C631D480B9607A9CDE984
:101C00000735CDE9094501F04BFCC02319480B9677
:101C100007A9CDE90735CDE9094501F041FC0823C5
:101C200015480B9607A9CDE90735CDE9094501F01F
:101C300037FC4FF4A0530E480B9707A9CDE90735A1
:101C4000CDE9094501F02CFC58202246052101F080
:101C500085FA582001F0B4FA19B0F0BD00680140CF
:101C6000003802400014024000000240000402401C
:101C70000018024000080240000C024010B5044663
:101C800088B01422002103A817F084FF2268144BA7
:101C90009A4223D103F56843002101915A6C1148FF
:101CA00042F480125A645A6C02F480120192019A32
:101CB00002911A6B42F020021A631B6B03F020039F
:101CC0000293029B4FF4607202230321CDE90323A8
:101CD0000523CDE9061303A901F0E2FB08B010BD0E
:101CE0000050014000140240F0B5044689B01422AF
:101CF000002103A817F04EFF2268224B9A423ED1E2
:101D000003F5FA33002400941A6C1F4842F40032A1
:101D10001A641A6C02F400320092009A01941A6B51
:101D200042F001021A631A6B02F001020192019A59
:101D300002941A6B42F008021A631B6B03F008034B
:101D40000293029B022704230326072503A9CDE95A
:101D50000337CDE9066501F0A3FB40230B48079547
:101D600003A9CDE90337CDE9054601F099FB26200B
:101D70002246052101F0F2F9262001F021FA09B0EE
:101D8000F0BD00BF0044004000000240000C0240D3
:101D90002DE9F04186B0002303932B4B1C68002CE7
:101DA0004FD14FF00108C3F80080284B00949A6B84
:101DB000274842EA08029A639B6B03EA08030093F0
:101DC000022703260C25009B01A94FF63F03CDE90E
:101DD0000137CDE9046501F063FB1E48059501A9B3
:101DE000CDE90187CDE9034601F05AFB48F23313F0
:101DF0001948059501A9CDE90137CDE9034601F060
:101E00004FFB4FF683731548059501A9CDE90137BE
:101E1000CDE9034601F044FB4CF2037310480595ED
:101E200001A9CDE90137CDE9034601F039FB602373
:101E30000C48059501A9CDE90137CDE9034601F02C
:101E40002FFB06B0BDE8F081741700200038024077
:101E50000014024000080240001802400010024036
:101E6000000C02400004024070B588B000230293C9
:101E7000204B1A6C42F010021A641B6C03F0100322
:101E80000293054601A903A8029B02F093FC069B5E
:101E90004BBB02F06FFC184E184B336040F2E73337
:101EA000F360174BB0FBF3F3013B73603046002344
:101EB0003361B360B36103F0AFFA044680B93046D2
:101EC00003F064F9044658B9362001F079F90F2D72
:101ED0000DD822462946362001F040F9094B1D60F5
:101EE000204608B070BD02F045FC4000D3E7012455
:101EF000F6E700BF003802407817002000100040CD
:101F000040420F007C0000207047FEE7FEE7FEE73E
:101F1000FEE7704708B5054803F0C8FBBDE8084078
:101F2000034902480A2203F02CBD00BF30170020ED
:101F3000E8140020014803F067B900BF78170020BB
:101F4000014802F0F5B800BFFC150020014801F07F
:101F5000D9B900BF681500200120704708B517F0F7
:101F6000BFFD162303604FF0FF3008BD08B517F022
:101F7000B7FD16230360FEE770B50D4614460E4606
:101F8000731B9C4201DC204670BDAFF3008006F855
:101F9000010BF5E770B50D4614460E46731B9C42C7
:101FA00001DC204670BD16F8010BAFF30080F5E7A9
:101FB0004FF0FF3070474FF400534B6000207047E4
:101FC00001207047002070470A4A116808B503468F
:101FD00009B9094911601068694603448B4206D962
:101FE00017F07EFD0C2303604FF0FF3008BD136037
:101FF000FCE700BFC017002080280120704710B503
:102000000421044617F00BFD204610BD012908B538
:1020100006D0022908D059B900F010FD006808BDAB
:1020200000F00CFD4068FAE700F008FD8068F6E774
:102030000020F4E700487047DCB201080120704737
:1020400013B5002451B1036801948DF8034001AA2F
:102050009C680DF10303A04702B010BD0846FBE7E2
:10206000C0897047008A7047C08870478088704771
:10207000807A00F07F007047807AC009704770470F
:1020800010B50821044617F0CAFC204610BD704761
:10209000704700F598730868496803C37047704734
:1020A0007047416070477047064BC0F84C310023C1
:1020B000C0F8503100F5A273C0F84801C0F84031B3
:1020C000704700BF69210008012303727047704701
:1020D000704710B4C26841685410034601EB6200B7
:1020E000D20748BF0A599B685DF8044B48BFD358D4
:1020F000184743682BB183682BB9C06800F0010012
:102100007047184670470120704710B50C210446EF
:1021100017F085FC204610BD10B51021044617F0BD
:102120007EFC204610BD10B54FF4AE71044617F08A
:1021300076FC204610BD08B508F082FEBDE80840D8
:1021400009F0C6BA10B50446D0F8400158B103688A
:10215000DB68984738B1D4F8400103689B6898471A
:102160000023C4F8403110BD2DE9F14FD0E9555A94
:102170000746A86803681B6A9847B0F53A7F05D2FE
:10218000454B464AA321464817F078FC6868036827
:102190001B6A98470F2803D8424B404AA421F2E714
:1021A000E86803681B6A98470B2803D83E4B3B4AF4
:1021B000A521E8E708F044FEDFF8F490043008F0C9
:1021C00064FED9F8000010B10368DB689847D9F8BD
:1021D000000010B103681B689847DFF8D880D8F872
:1021E000000010B103685B699847D7F83C0110B153
:1021F00003685B689847D8F8000010B103681B6853
:102200009847D7F83C0110B103689B689847E86885
:10221000036800215B6A98474FF0000B234B036073
:102220000446C0F804B080F808B0A86803685946AE
:102230005B6A9847064600F079FC6868036859466F
:102240005B6A98473146054600F04AFCC9F80040F1
:10225000C7F83C51C8F80060E5B12B1DCAF8003042
:102260003368C5F808A03046DB68F56398472B68EB
:1022700028461B689847214630460AF079FA2368B9
:1022800020461B69984723685B69204601B0BDE87A
:10229000F04F18472B46E1E700B301088EB3010861
:1022A00092B40108D9B401087CB501088CB60108C4
:1022B0001826012014260120F8B5044617460E46BC
:1022C00008F080FE104B0025C4E955760F4E1C60C7
:1022D000C4E953550E4B306823600E4BC4E95135A9
:1022E000036801219B68C4E94F559847284600F0D0
:1022F00059FB336893F876200AB1D86C00B9986816
:1023000010F091FC2046F8BD24260120D82501209C
:1023100040B6010828B60108064BC0F84C3100232E
:10232000C0F8503100F5A273C0F84801C0F8403140
:10233000704700BF69210008406A7047806A704793
:1023400070478B88C0690A68DB0A50F82300104484
:10235000704710B5C2B1137BB3B1547BD27A24025B
:1023600004F4E0641443026A98B202EB8402138816
:102370008B4202D192F9020010BD05D8013880B21B
:1023800004320028F3D1F7E70020F5E710B52C213F
:10239000044617F044FB204610BD000030B58BB05A
:1023A0000446BDF860500895BDF85C5007959DF84F
:1023B000505006959DF84C5005959DF84850049551
:1023C0009DF8445003959DF8405002959DF83C506F
:1023D0000195BDF83850009509F024FE064B2360A6
:1023E000159BE361169B2362199B63621A9BA36290
:1023F00020460BB030BD00BFB0B601087047704733
:1024000070477047704730B50368018185B06D46ED
:102410000146D3F8843004462846984795E80700DB
:102420003C3484E8070005B030BD30B50368418115
:1024300085B06D460146D3F8843004462846984757
:1024400095E807003C3484E8070005B030BD002261
:10245000028042808280C280704780F836107047C8
:1024600070B5036804461B6B1546984723682946D8
:1024700020465B6EBDE87040184700207047806CB6
:10248000704770477047704710B54C21044617F0ED
:10249000C6FA204610BD10B54FF43A71044617F045
:1024A000BEFA204610BD08B5FEF7B8FE08BD000014
:1024B000036870B55E6B124B1B6804468DB22BB976
:1024C000104B114A6C21114817F0D8FA1049828D2F
:1024D0000988914203D80F4B0B4A6D21F3E713F89B
:1024E00012200D4B1B6853F8220003681B6B9847A2
:1024F000281A01B233462046BDE87040184700BF95
:102500002826012008B701084AB7010885B7010845
:102510002C260120CCB701083026012000224FF0E4
:10252000FF31C0E900218260704770B5036804463E
:102530001B6B154698472368294620465B6BBDE810
:102540007040184770B504461D46BDF91060FFF78E
:10255000ECFF2368294620469B6B98472368314649
:102560002046DB6BBDE87040184700000022C0E940
:102570000122C0E90322C0E90522C0E907224FF485
:1025800080728284014A0260704700BF50B801081F
:102590002DE9F04F044689B0A046002509F03CFF24
:1025A0005D4BE56348F8403B26222946404617F03C
:1025B000F1FA4046FFF7DAFF04F16C07574B23644A
:1025C000FF2626224FF6FF79294684F866603846B2
:1025D000A566ADF8189017F0DDFA3846FFF7C6FF8C
:1025E0004F4BE366BDF81830A4F89230384684F8B3
:1025F000946006A904F1980606F0F5FE2622294605
:10260000304617F0C7FA3046FFF7B0FF454BC4F825
:10261000C0304FF47F03C4F8CC304FF0FF3A424B48
:10262000A4F8C4904FF4A07B2A46C4F898302946F9
:10263000F0234046C4E936A5C4F8C850A4F8D050E9
:10264000C4F8D450C4F8E050CDF800B0FFF77AFFDA
:1026500004F104094FF07F43A3664146484605F064
:1026600071FB2A4638462946FFF75FFF384606A920
:10267000ADF8185006F0B7FE3946484605F062FB43
:102680002A46F02329463046CDF800B0FFF75AFF1E
:10269000D4F89830C4F8C8A002AF3846D3F88430D4
:1026A000A4F8CC503146984797E8070004F1D403CA
:1026B00083E807001D4B1B6804F1E4072BB91C4B92
:1026C0001C4A60211C4817F0D9F91C4B1B881BB908
:1026D0001B4B184A6121F5E71A4B2946186800F090
:1026E0009DF9194A034640F2011138460BF004FBEC
:1026F0000C4B069306A901233046C4F8E070ADF8F0
:102700001C3006F0A9FD4846314605F01BFB20466B
:1027100009B0BDE8F08F00BF48B9010830BD01081D
:1027200098BD0108F8B20108B8B8010828260120B0
:1027300008B701080AB8010885B701082C2601204E
:10274000CCB701083426012042B8010870470000C8
:1027500030B5164D2C78BFF35B8F14F001048FB0A9
:1027600020D1284617F05DF9E0B13F230993104BC3
:102770000893104B104911480A940122CDE90643F1
:102780000423CDE903320A230093CDE90B44CDE9BC
:1027900001440594FFF702FE094817F08DF9284619
:1027A00017F04BF905480FB030BD00BFC41700202B
:1027B000DCE3010888E5010888DE0108C81700206D
:1027C0004D2700087047000030B5174D2C78BFF337
:1027D0005B8F14F001048FB022D1284617F021F945
:1027E000F0B13F230993114B0893114B0793012339
:1027F000CDE9053304930423CDE9024314230D49A5
:1028000000935F221823CDE90B440B480A940194EE
:10281000FFF7C4FD094817F04FF9284617F00DF9E6
:1028200005480FB030BD00BFF4170020E0E30108F9
:102830008CE5010898DE0108F8170020C52700087C
:102840007047000030B5164D2C78BFF35B8F14F045
:1028500001048FB020D1284617F0E3F8E0B13F2300
:102860000993104B0893104B104911480A94012208
:10287000CDE906430423CDE9033228230093CDE9B3
:102880000B44CDE901440594FFF788FD094817F092
:1028900013F9284617F0D1F805480FB030BD00BF36
:1028A0002418002084E5010890E50108CCE3010824
:1028B0002818002041280008002070470020704799
:1028C0000EB403B503AB002153F8042B019309F0B8
:1028D000D1F902B05DF804EB03B070470CB407B552
:1028E00004AB53F8042B019309F0C4F903B05DF86D
:1028F00004EB02B070470000436C10B5044673B39C
:10290000038F2BB9184B194AC521194817F0B6F88F
:10291000C38E00EB43035B8C0BB30AF03EFC238FAA
:10292000012B03D8134B144ACB21EEE7E28E531C44
:102930009BB2092B194688BFA3F10A0104EB4101A0
:1029400040F63F10498C814209D10A2B04EB420228
:1029500028BF002304EB4303508C58845184204645
:10296000BDE810400AF01CBB74B901087DB901082C
:1029700028BA010872BA010880BA01080AF0D7BA69
:1029800010B586B002AC84E806001A460AAB05937F
:102990000193099B00932146089B07F00FFE06B0A8
:1029A00010BD000038B518BB124B13481B68134903
:1029B000B3B11A689C681A4402605A681A440A60E3
:1029C0001C440F4B00221A8000F038F8054600F036
:1029D00033F80C4B1C600C4B1D600C4B188007E04F
:1029E0000B4B03600B4B0B600B4B1C68002CE8D1AE
:1029F00038BD00BF54180020581800205C18002073
:102A00006018002028260120302601202C260120D5
:102A10009CE5010894E50108B8E50108044B1B6832
:102A200053F82100034B1B6803EB4000704700BFC5
:102A30005C1800205818002002207047004870479A
:102A40006418002010B5FFF7BFFE044C2060FFF7AC
:102A5000F9FE6060FFF77CFEA06010BD64180020E6
:102A6000704710B54FF4AE71044616F0D8FF2046FB
:102A700010BD10B50446D0F8580100F013F82046F8
:102A8000BDE8104008F05EBA10B50446FFF714FC2C
:102A9000014B2360204610BD5CBB01080022026090
:102AA000704700000068024A036811689B68184775
:102AB000F21400207047043870477047C0680368FC
:102AC000DB6A1847A0F10400FFF7F8BF10B510212A
:102AD000044616F0A4FF204610BDA0F10400F5E75F
:102AE00010B500228260044AC16002F10804243259
:102AF0000460426010BD00BFA0BB01087047000029
:102B000010B5034B03600446FFF7BBFC204610BD25
:102B1000D8BB010810B50446FFF7F2FF20464FF47A
:102B20003A7116F07CFF204610BD000010B5044637
:102B3000FFF72EFD014B2360204610BDD8BB0108D6
:102B4000FFF7A0BC10B540F201120446E4300AF0D1
:102B50006CFD04F19800BDE8104009F0B5B9F02013
:102B600070474FF4A07070472920FEF799BE2820C7
:102B7000FEF796BE08B5FEF767FECA20FEF790FE88
:102B8000C320FEF771FE0820FEF76EFE5020FEF710
:102B90006BFECF20FEF784FE0020FEF765FEC1200D
:102BA000FEF762FE3020FEF75FFEED20FEF778FEB6
:102BB0006420FEF759FE0320FEF756FE1220FEF7B2
:102BC00053FE8120FEF750FEE820FEF769FE8520C7
:102BD000FEF74AFE0020FEF747FE7820FEF744FE8F
:102BE000CB20FEF75DFE3920FEF73EFE2C20FEF7DF
:102BF0003BFE0020FEF738FE3420FEF735FE0220B3
:102C0000FEF732FEF720FEF74BFE2020FEF72CFEEB
:102C1000EA20FEF745FE0020FEF726FE0020FEF724
:102C200023FEB120FEF73CFE0020FEF71DFE1B2018
:102C3000FEF71AFEB620FEF733FE0A20FEF714FE5A
:102C4000A220FEF711FEC020FEF72AFE1020FEF79C
:102C50000BFEC120FEF724FE1020FEF705FEC52066
:102C6000FEF71EFE4520FEF7FFFD1520FEF7FCFDDA
:102C7000C720FEF715FE9020FEF7F6FD3620FEF782
:102C80000FFEC820FEF7F0FDF220FEF709FE00203F
:102C9000FEF7EAFDB020FEF703FEC220FEF7E4FDDA
:102CA000B620FEF7FDFD0A20FEF7DEFDA720FEF7A9
:102CB000DBFD2720FEF7D8FD0420FEF7D5FD2A20F6
:102CC000FEF7EEFD0020FEF7CFFD0020FEF7CCFD65
:102CD0000020FEF7C9FDEF20FEF7C6FD2B20FEF712
:102CE000DFFD0020FEF7C0FD0020FEF7BDFD012046
:102CF000FEF7BAFD3F20FEF7B7FDF620FEF7D0FD48
:102D00000120FEF7B1FD0020FEF7AEFD0620FEF724
:102D1000ABFD2C20FEF7C4FDC820FEF70FFE2620D9
:102D2000FEF7BEFD0120FEF79FFDE020FEF7B8FD97
:102D30000F20FEF799FD2920FEF796FD2420FEF7CF
:102D400093FD0C20FEF790FD0E20FEF78DFD09206F
:102D5000FEF78AFD4E20FEF787FD7820FEF784FD02
:102D60003C20FEF781FD0920FEF77EFD1320FEF7D3
:102D70007BFD0520FEF778FD1720FEF775FD11207D
:102D8000FEF772FD0020FEF76FFDE120FEF788FDE3
:102D90000020FEF769FD1620FEF766FD1B20FEF7FA
:102DA00063FD0420FEF760FD1120FEF75DFD0720A6
:102DB000FEF75AFD3120FEF757FD3320FEF754FD94
:102DC0004220FEF751FD0520FEF74EFD0C20FEF7D8
:102DD0004BFD0A20FEF748FD2820FEF745FD2F2079
:102DE000FEF742FD0F20FEF73FFD1120FEF758FDD4
:102DF000C820FEF7A3FD2920FEF752FDBDE80840DC
:102E00002C20FEF74DBD08B5FEF71EFD0321D32093
:102E1000FEF762FD80B208BD10B5C4B202220321E4
:102E20002046FEF7C7FC0A20FEF70CFD20460022D4
:102E30000321FEF7BFFCBDE810400220FEF702BDF3
:102E400038B50446E4B2FEF7B3FC00212046FEF795
:102E5000C9FC012105462046FEF7C4FC40EA0520D6
:102E600080B238BD10B5C4B240212046FEF7BAFC8E
:102E7000030607D54C212046FEF7B4FC003818BFE6
:102E8000012010BD01224B212046FEF793FC204675
:102E900000224B21FEF78EFC0020F2E773B50423DD
:102EA000C4B20E461546D7210DEB03022046FEF7AD
:102EB000B3FC019B1BBA1A0DC3F30B2332802046CF
:102EC0002B8001224B21FEF775FC00224B2120466E
:102ED000FEF770FC02B070BD10B50A4B1A78904234
:102EE00004460DD0597888420AD00AB141B901226E
:102EF0009C54FEF75DFC2046BDE81040FFF78CBFF8
:102F000010BD00BF7018002010B5C4B209212046C2
:102F1000FEF768FC40F00100C2B209212046BDE87E
:102F20001040FEF747BC10B5C4B209212046FEF799
:102F300059FC092100F0FE022046BDE81040FEF7D2
:102F400039BC38B5C4B20D4620460A21FEF74AFC0A
:102F50002843C2B20A212046BDE83840FEF72ABC09
:102F600007B50190FEF725FC01981F21FFF7E9FF47
:102F7000019803B05DF804EBFFF7C6BF38B5C4B2E3
:102F80000D4620460A21FEF72DFC20EA0500C2B2BC
:102F90000A212046BDE83840FEF70CBC10B50446B7
:102FA000FFF7C1FF20461F21BDE81040FFF7E6BF35
:102FB00010B5C0B20C460B21FEF714FC204010BD2A
:102FC0001F21FFF7F5BF0A46C0B20B21FEF7F2BB87
:102FD0001F21FFF7F8BF38B5C4B20D4620461721B0
:102FE000FEF700FC20EA0500C2B217212046BDE82A
:102FF0003840FEF7DFBB70B5C4B206460421204658
:10300000FEF7F0FB042100F0FB0205462046FEF728
:10301000D1FB3046F021FFF7DEFF05F0F802204635
:103020000421FEF7C7FB492220212046FEF7C2FB00
:103030000220FEF707FC204601222121FEF7BAFB01
:1030400020469A224121FEF7B5FB204601224A2163
:10305000FEF7B0FB204601224B21FEF7ABFB2046DA
:1030600000224B21FEF7A6FB204601225621FEF747
:10307000A1FB204601225821FEF79CFB204601229D
:103080004021FEF797FB2046FF220B21FEF792FB23
:10309000BDE870400220FEF7D5BB0000054BD3F819
:1030A000882042F47002C3F888204FF000629A60D2
:1030B000704700BF00ED00E008B50B4B1A6842F402
:1030C00000721A601A6842F480621A601A6842F448
:1030D00080721A60032000F02FF80020FEF7C4FE73
:1030E000FEF73AFC002008BD003C0240034A044BB6
:1030F00011681B780B441360704700BF74180020E0
:1031000078000020014B1868704700BF7418002039
:1031100038B50446FFF7F6FF631C1CBF054B1B7850
:10312000054618BFE418FFF7EDFF431BA342FAD38F
:1031300038BD00BF780000200749CA6822F4E06269
:103140000302120403F4E063120C134343F0BF6361
:1031500043F40033CB60704700ED00E0164B30B510
:10316000DC68C4F30224C4F10705231D042D28BF25
:103170000425062B4FF0FF338CBF033C002403FAD9
:1031800005F521EA0501A34022EA0302A140002837
:1031900041EA0203ACBF00F16040084A4FEA031362
:1031A000B8BF00F00F00DBB2AABF00F561401354B6
:1031B00080F8003330BD00BF00ED00E014ED00E00A
:1031C000002808DB4209012300F01F0003FA00F089
:1031D000014B43F82200704700E100E010B50446BF
:1031E00050B1437903F0FF0213B90271FEF7D4FB2B
:1031F00001236371002010BD0120FCE770B5044677
:10320000866DFFF77FFF94F83530022B054606D018
:1032100080236365002384F83430012070BD236867
:103220001A6822F016021A605A6922F080025A6166
:10323000226C0AB9A26C1AB11A6822F008021A604C
:103240001A6822F001021A6023681B6813F0010358
:103250000AD1E16D3F228A40B260012284F8352014
:1032600084F834301846D9E7FFF74CFF401B052897
:10327000EAD9202363650320002384F8350084F80D
:103280003430CBE790F83530022B03D080234365F0
:10329000012070470268052380F83530136823F059
:1032A000010313600020704710B5044630B390F856
:1032B000393003F0FF021BB980F83820FEF784FB99
:1032C00022686168022384F83930136823F440339C
:1032D0000B431360536BA16823F007030B43536345
:1032E000136CE16823F47F5323F03F030B43136413
:1032F00000200123E06384F8393010BD0120FCE791
:1033000070477047036870B55E681D68F207044631
:1033100014D5E90512D51A6822F480721A60C26BBE
:1033200042F00102C26301229A60042380F839301E
:10333000002380F83830436903B19847B20616D5A8
:10334000AB0414D523681A6822F400521A602022B4
:103350009A60E36B43F00203E363042384F839309B
:10336000002384F8383063690BB120469847300752
:1033700016D5290514D523681A6822F400621A604C
:1033800008229A60E36B43F00403E363042384F8A8
:103390003930002384F8383063690BB120469847F0
:1033A00072070BD56B0509D523681A6822F4806271
:1033B0001A6004229A602046FFF7A2FFB00714D5D6
:1033C000A90512D523681A6822F400721A60022235
:1033D0009A60E36BE363012384F83930002384F8B7
:1033E000383023690BB120469847F20613D5EB0419
:1033F00011D523681A6822F480521A6010229A604C
:10340000E36BE363012384F83930002384F8383018
:103410002046FFF776FF70BDF0B590F83830012BED
:103420004FF002032BD0012280F8393080F8382089
:1034300000EB0113D3E907425D6A184F44EA0242E8
:10344000093C012C9CBF05F07F431A434FEA01164B
:10345000036888BF42EA056299B9596A39400A434C
:103460005A62012C82699A6103D8426A22F07F4233
:103470009A62012380F83930002380F838301846EA
:10348000F0BDD96939400A43DA618219012C926989
:103490001A619CBF25F07F451D62EAE7F0FFFC0042
:1034A0002DE9F74FDFF8C0916D4A00230D68012424
:1034B0009C4004EA050CAC4340F0B9804D6805F02F
:1034C00003044FEA43080326671E06FA08F6012F95
:1034D0006FEA060634D8876807EA060ECF6807FA4F
:1034E00008F747EA0E078760476827EA0C0EC5F31E
:1034F00000179F4047EA0E074760C76807EA060EB5
:103500008F6807FA08F747EA0E07022CC76019D13F
:103510004FEAD30A00EB8A0A03F0070BDAF82070AF
:103520004FEA8B0B4FF00F0E0EFA0BFE27EA0E0E32
:103530000F6907FA0BF747EA0E07CAF8207001E097
:10354000032CDAD1076804FA08F43E40264315F448
:10355000403F06606BD04FF0000ACDF804A0D9F8C8
:103560004460404C46F48046C9F84460D9F8446051
:1035700006F480460196019E23F0030606F180467C
:1035800006F59C3603F0030ED6F808804FEA8E0E3F
:103590000F2707FA0EF7A04228EA07074ED004F5D6
:1035A0008064A0424CD004F58064A0424AD004F567
:1035B0008064A04248D004F58064A04246D004F55F
:1035C0008064A04244D004F58064A04242D004F557
:1035D0008064A04240D004F58064A0423ED004F54F
:1035E0008064A0420CBF09240A2404FA0EF43C4370
:1035F000B46094686FEA0C06EF0254BF34404CEAA2
:1036000004049460D468AF0254BF34404CEA04040C
:10361000D4605468AF0354BF34404CEA040454608F
:103620001468ED0354BF34404CEA040414600133C1
:10363000102B7FF43BAF03B0BDE8F08F5446D4E7C6
:103640000124D2E70224D0E70324CEE70424CCE708
:103650000524CAE70624C8E70724C6E70824C4E708
:10366000003C01400000024000380240036919425A
:1036700014BF0120002070470AB18161704709041E
:10368000FBE7436901EA030221EA030141EA02413F
:103690008161704701684B6913F480634FF0000249
:1036A00010D06FF480634B612023026380F83D30BB
:1036B00080F83E20036C80F83C2043F00403036450
:1036C00001207047184670472DE9F84606460F4618
:1036D00091461D464FEA114A3368BAF1010F0CBFFB
:1036E0005C699C6927EA0404A4B2B4FA84F464090E
:1036F000A14501D0002017E06A1CEED0FFF702FDC3
:10370000089BC01AA84201D8002DE5D10023202231
:10371000336386F83D2086F83E30326C86F83C30C4
:1037200042F0200232640120BDE8F8862DE9F04124
:1037300004460F46164698462568686927EA000041
:1037400080B2B8B16B695A0516D52B6843F4007383
:103750002B606FF480636B6120220023236384F865
:103760003D2084F83E30226C42F00402226484F84A
:103770003C300120BDE8F081731CDED0FFF7C2FCB5
:10378000A0EB0800B04201D8002ED5D100232022A2
:10379000236384F83D2084F83E30226C42F02002FE
:1037A000E4E770B504460D46164621684B6913F0F0
:1037B000400301D0002010E04A69D2060ED56FF018
:1037C00010024A612022236384F83D2084F83E30B1
:1037D000226C226484F83C30012070BDFFF792FC1B
:1037E000801BA84201D8002DDFD1002320222363B3
:1037F00084F83D2084F83E30226C42F02002E8E755
:1038000070B504460D46164623685B695B0701D513
:10381000002070BD2046FFF73DFFA8B96A1CF3D019
:10382000FFF770FC801BA84201D8002DECD10023CB
:103830002022236384F83D2084F83E30226C84F8F3
:103840003C3042F0200222640120E2E770B50446D9
:103850000D46164623685B691B0601D5002070BD26
:103860002046FFF717FFA8B96A1CF3D0FFF74AFC00
:10387000801BA84201D8002DECD100232022236315
:1038800084F83D2084F83E30226C84F83C3042F0CD
:10389000200222640120E2E72DE9F0431546026888
:1038A00085B0DDE90C789946136843F480731360A2
:1038B0000E463B46CDF8008000224FF00111044631
:1038C000FFF702FF236838B11B68DB0502D54FF410
:1038D0000073236403200AE006F0FE061E61194906
:1038E00043463A462046FFF721FF18B1012005B0B4
:1038F000BDE8F083236803905A6903929B690393A0
:10390000424639462046039BFFF7A0FF40B1236C97
:10391000042B01BF2268136843F400731360E5E7CA
:10392000B9F1010F236802D1EDB21D61DFE72A0A68
:103930001A61394642462046FFF788FF0028E6D143
:103940002368F1E7020001002DE9FF479A4603686A
:1039500015461A6842F480621A601A68DDE90C782C
:1039600042F480721A600E463B46CDF80080002279
:103970004FF001110446FFF7A7FE236848B11B680A
:10398000DB0502D54FF400732364032004B0BDE8C7
:10399000F0875FFA86F906F0FE061E612A49434663
:1039A0003A462046FFF7C2FE08B10120EEE7236841
:1039B00003905A6903929B69039342463946204615
:1039C000039BFFF743FF40B1236C042B01BF226828
:1039D000136843F400731360E7E7BAF1010F23683B
:1039E0001AD1EDB21D61424639462046FFF72EFF3F
:1039F0000028E9D12268136843F4807313604FF004
:103A000001110246CDF800803B462046FFF75CFEE0
:103A1000226860B11368B3E72A0A1A613946424640
:103A20002046FFF713FF0028CED12368D9E749F0DD
:103A300001031361044943463A462046FFF776FEE8
:103A4000003818BF0120A1E70200010070B504464C
:103A500008B9012070BD90F83D3003F0FF021BB99A
:103A600080F83C20FDF7D2FF242384F83D30236802
:103A70001A6822F001021A601A6842F400421A60C1
:103A80001A6822F400421A6000F074FE3F4B656829
:103A90009D4294BF3E4B3F4B98428CBF0023012375
:103AA000002BD6D12268394E53683B49B0FBF1F167
:103AB00023F03F030B43B542536088BF4FF4967623
:103AC000136A88BF714323F03F0384BF4FF47A76B3
:103AD000B1FBF6F1013119431162D169431E2B4844
:103AE00021F44F41854221F0FF0132D86D0040F6AC
:103AF000FC70B3FBF5F30133034242D0C3F30B0375
:103B00000B43D361D4E907301168034321F0C001AE
:103B10000B4313609168D4E9030321F40341034389
:103B200021F0FF010B439360D4E90530D1680343D2
:103B300021F0FF010B43D360136843F001031360CE
:103B400000202023206484F83D30206384F83E0068
:103B500080E7A06850B905EB4505B3FBF5F30133E9
:103B6000C3F30B037BB143F40043C9E7192045437A
:103B7000B3FBF5F30133C3F30B0323B143F4404329
:103B8000BEE70423BCE70123BAE700BFA08601001B
:103B90007F841E00FF083D0040420F002DE9F743DF
:103BA000044699460C9E0F469046FFF7ABFA94F8F0
:103BB0003D30202B054603D0022003B0BDE8F08342
:103BC00000903C49192301222046FFF77DFD002883
:103BD000F2D194F83C30012BEED02068012384F818
:103BE0003C300368D9075EBF036843F001030360FC
:103BF000036823F400630360212384F83D304023ED
:103C000084F83E30002323640A9B6362BDF82C30A5
:103C10006385638D2385284BE362CDE900654B46C0
:103C2000424639462046FFF737FE00282AD00120B9
:103C3000C3E7FFF70BFE40B1236C042B01BF2268E2
:103C4000136843F400731360F1E7636A27681A4648
:103C500012F8011B39616262628D218D013A92B2C4
:103C600062857A69481E80B2520720850AD548B11C
:103C70005A783A6102336362638D013B02399BB229
:103C800021856385238D2A4631462046002BD0D1DD
:103C9000FFF7B6FD0028CFD12268136843F4007304
:103CA0001360202384F83D3084F83C0084F83E0003
:103CB00083E700BF020010000000FFFF2DE9F04382
:103CC000044687B09946109F0D469046FFF71AFAB2
:103CD00094F83D30202B064604D00225284607B034
:103CE000BDE8F08300907649192301222046FFF7B2
:103CF000EBFC0028F1D194F83C30012BEDD020688A
:103D0000012384F83C300368DB075EBF036843F09F
:103D100001030360036823F400630360222384F833
:103D20003D30402384F83E30002323640E9B6362C1
:103D3000BDF83C306385638D2385624BE362294681
:103D4000CDE900764B4642462046FFF7FDFD05468D
:103D500008B10125C2E7228D2368B2B902905A69E1
:103D600002929A690292029A1A6842F400721A60E8
:103D7000DFF85481238D002B2CD1202284F83D20A4
:103D800084F83C3084F83E30A8E7012A0AD11A684A
:103D900022F480621A6003905A6903929A6903922E
:103DA000039AE1E7022A0ED11A6822F480621A60AF
:103DB0001A6842F400621A6004905A6904929B697E
:103DC0000493049BD4E705905A6905929B69059377
:103DD000059BCDE7032B56D8012B15D1324639462A
:103DE0002046FFF7DEFC0028B3D123681A69636A16
:103DF0001A70636A01336362238D013B2385638DEF
:103E0000013B9BB26385B5E7022B00963B464FF022
:103E100000024146204619D1FFF756FC002898D1F0
:103E200023681A6842F400721A601A69636A1A7089
:103E3000626A531C6362238D013B2385638D013BC2
:103E40009BB2638523681B695370D2E7FFF73CFC84
:103E500000287FF47EAF23681A6822F480621A601B
:103E60001A69636A1A70636A009601336362238D6C
:103E7000013B2385638D013B9BB2638502463B4634
:103E800041462046C8E7324639462046FFF789FCBE
:103E900000287FF45EAF23681A69636A1A70626A49
:103EA000531C6362238D013B2385638D013B9BB2D1
:103EB00063852368596949077FF55CAFC3E700BF95
:103EC000020010000000FFFF0400010010B590F890
:103ED0003D30202BDCB216D1242380F83D3003681E
:103EE0001A6822F001021A605A6A22F010025A621D
:103EF0005A6A114359621A6842F001021A6080F846
:103F00003D40002010BD0220FCE730B590F83D3068
:103F1000202BDCB216D10268242380F83D301368D0
:103F200023F001031360556A4FF6F0732B400B43E7
:103F30009BB25362136843F00103136080F83D4065
:103F4000002030BD0220FCE70068D1F800C0D2019B
:103F5000843283182DE9F043C6685D684C68D1F857
:103F6000189005F470455D60C5680CF10107C5F354
:103F70000B45C6F30B463D44264445EA06455D60C5
:103F8000C568CE68C5F30A052E449D6805F47045E2
:103F90009D60C7688D68C7F30A0701353D4445EA4F
:103FA00006459D601D690E6925F007051D614FF0EE
:103FB000000E1E619D6991F8327091F83180C3F84E
:103FC00018E091F8305045EA096545EA082545EAC8
:103FD00007459D615D6925F0FF055D614D695D6186
:103FE000DD6925F4E06525F00705DD61D1E90757B6
:103FF0003D43DD619D6A4D6AC3F828E09D621EB3B2
:10400000012E23D0B51E022D22D9072E0CBF02256A
:104010000125DE6A06F0E026DE62A4EB0C048E6A5F
:10402000C96A6C436E43033444EA0644DC621C6B89
:1040300024F4FF6424F007041C631963835843F0DD
:1040400001038350BDE8F0830425E2E70325E0E7A0
:104050000225DEE738B50446002863D090F8A13089
:1040600003F0FF021BB980F8A020FDF72BFD02230F
:1040700084F8A13023689A6922F070429A61D4E9E9
:1040800001200243E06899690243206902430A4320
:104090009A619A68244960690A409A609A6842EA7B
:1040A0000042A06902439A60DA68E0690A40DA6077
:1040B000DA6842EA0042206A0243DA601A69606AFA
:1040C0000A401A611A6942EA0042A06A02431A6170
:1040D0005A69114059615A69E16A42EA0142216B09
:1040E0000A435A61D96A94F8360094F8355001F0C1
:1040F0007F41D962D96A94F834200A4342EA052202
:1041000042EA0042DA625A6B42F006025A639A6946
:1041100042F001029A6100200123C4F8A40084F84F
:10412000A13038BD0120FCE700F800F0704770476F
:10413000036870B59E6B5D6B7207044614D5690702
:1041400012D55A6B22F004025A630422DA63D0F8C3
:10415000A43043F00103C0F8A430002380F8A1206C
:1041600080F8A030FFF7E2FFB20716D5AB0714D5F1
:1041700023685A6B22F002025A630222DA63D4F8EF
:10418000A4301343C4F8A430042384F8A1300023DE
:1041900084F8A0302046FFF7C9FFF00710D5E907E3
:1041A0000ED523685A6B22F001025A630122DA63AA
:1041B000002384F8A12084F8A0302046FDF754F8AD
:1041C000320711D52B070FD523685A6B22F008024E
:1041D0005A630822DA63012384F8A130002384F8AB
:1041E000A0302046FFF7A3FF70BD2DE9F04190F805
:1041F000A030012B06460F4694464FF002001FD018
:104200004FF0010886F8A08086F8A10034240D46FE
:1042100004FB02640FCD38340FC40FCD0FC40FCD93
:104220000FC42B682360304662463946FFF78CFE88
:1042300033680020C3F8248086F8A18086F8A000A7
:10424000BDE8F08190F8A030012B4FF0020312D0AE
:1042500080F8A13003685A6B22F001025A63074AC2
:1042600011645A6B42F001025A63012380F8A130B5
:10427000002380F8A0301846704700BF0068014056
:104280002DE9F341044640B30368DD0710D42368E9
:1042900098075ED423681A0700F1A08023685B07A3
:1042A00000F1C080A069002840F0288100202BE0A8
:1042B0008F4B9A6802F00C02042A07D09A6802F029
:1042C0000C02082A0BD15A68510208D5884B1B688A
:1042D0009A03DCD56368002BD9D1012014E0626811
:1042E000B2F5803F13D11A6842F480321A60FEF7AB
:1042F00009FF7F4E054633689B03C8D4FEF702FFD3
:10430000401B6428F7D9032002B0BDE8F081784D46
:10431000B2F5A02F2B6807D143F480232B602B68C4
:1043200043F480332B60E2E723F480332B602B6867
:1043300023F480232B60002AD9D1FEF7E3FE064642
:104340002B689F03A3D5FEF7DDFE801B6428F7D9F9
:10435000D9E7674B9A6812F00C0F07D09A6802F001
:104360000C02082A11D15B685E020ED4604A136801
:104370009D0702D5E368012BAFD11368216923F0B3
:10438000F80343EAC103136084E7E268594BB2B112
:1043900001221A60FEF7B6FE554D06462B689807B7
:1043A00007D52B68226923F0F80343EAC2032B6088
:1043B00070E7FEF7A7FE801B0228EFD9A3E71A607B
:1043C000FEF7A0FE4A4E0546336899077FF562AFB7
:1043D000FEF798FE401B0228F6D994E76269454B28
:1043E00082B10122C3F8802EFEF78CFE404E0546B6
:1043F000736F9F073FF552AFFEF784FE401B022804
:10440000F6D980E7C3F8802EFEF77CFE384E0546CD
:10441000736F98077FF542AFFEF774FE401B0228CA
:10442000F6D970E7324B1A6C12F0805228D1019203
:104430001A6C42F080521A641B6C03F08053019393
:10444000019B01272C4D2B68D9051BD5A368284D4E
:10445000012B27D12B6F43F001032B67FEF752FE90
:10446000234E054641F28838336F9B0739D5002F1C
:104470003FF418AF1E4A136C23F08053136411E706
:104480000027DFE72B6843F480732B60FEF73AFECA
:1044900006462B68DA05D9D4FEF734FE801B0228C5
:1044A000F7D930E7052B04D12B6F43F004032B67BA
:1044B000D0E72A6F22F001022A672A6F22F0040255
:1044C0002A67002BCAD1FEF71DFE41F28838064646
:1044D0002B6F9807CBD5FEF715FE801B4045F7D90B
:1044E00011E7FEF70FFE401B4045BDD90BE700BFAB
:1044F000003802400000474200700040364DAB6873
:1045000003F00C03082B3DD0344B002202281A661E
:104510002BD1FEF7F7FD06462B6899011FD4D4E98D
:1045200007321343626A43EA8213E26A43EA026390
:10453000A26A5208013A43EA02436B60274B264DB8
:1045400001221A66FEF7DEFD04462B689A013FF54C
:10455000ADAEFEF7D7FD001B0228F6D9D3E6FEF775
:10456000D1FD801B0228D7D9CDE6FEF7CBFD04464E
:104570002B689B017FF59AAEFEF7C4FD001B022855
:10458000F6D9C0E601283FF4BFAE6B68E26903F4D8
:10459000800191427FF4A1AE216A03F03F028A427A
:1045A0007FF49BAE616A47F6C0721A40B2EB811F7E
:1045B0007FF493AEA26A520803F44031013AB1EBA2
:1045C000024F7FF48AAEE26A03F07063B3EB026FCE
:1045D0003FF46CAE81E600BF003802400000474265
:1045E000134908B58B6803F00C03042B1CD0082B6F
:1045F0001CD14A684B68496813F4800314BF0D4806
:104600000D48C1F3881118BF002302F03F02A1FB3F
:104610000001FBF73DFE064B5B68C3F3014301332A
:104620005B00B0FBF3F008BD0248FCE70248FAE784
:104630000038024000127A000024F4002DE9F04115
:104640000D46044610B90120BDE8F081444B1A68BC
:1046500002F00F028A4228D3226897072DD4D00790
:1046600041D43F4B1A6802F00F02AA4266D8226872
:1046700051076CD4130707D53A4A2169936823F48C
:10468000604343EAC1039360FFF7AAFF354B364A04
:104690009B68C3F30313D35CD840344B1860344B8E
:1046A0001868FDF7E1FB0020CEE7CAB21A701B685C
:1046B00003F00F038B42C6D1CEE72A4B12F0040F52
:1046C0001EBF996841F4E0519960160742BF99688E
:1046D00041F4604199602349A0688B6823F0F0039E
:1046E00003438B60BBE762681E4B012A1CD11B6829
:1046F00013F4003FA7D01B4EB36823F0030313430A
:10470000B360FEF7FFFC41F288380746B368626881
:1047100003F00C03B3EB820FA3D0FEF7F3FCC01B36
:104720004045F3D903208FE7911E01291B6802D869
:1047300013F0007FDEE713F0020FDBE7EAB21A7036
:104740001B6803F00F03AB427FF47DAF8FE7054991
:10475000E0688B6823F4E05303438B608AE700BF73
:10476000003C02400038024008BC010874000020F0
:104770007C000020044B054A9B68C3F38223D35C72
:10478000034A1068D84070470038024018BC01083E
:1047900074000020044B054A9B68C3F34233D35C8A
:1047A000034A1068D84070470038024018BC01081E
:1047B000740000200F2303600B4B9A6802F0030281
:1047C00042609A6802F0F00282609A6802F4E05255
:1047D000C2609B68DB0803F4E0530361034B1B6872
:1047E00003F00F030B60704700380240003C0240AA
:1047F000036813F0430FF7B5044640F08C8023683C
:1048000013F00C0F45D08B4B8B4D00221A67FEF72F
:1048100079FC06462B689F0000F1CF8021684E0787
:1048200015D5D4E90403D5F888201B0602F0E04230
:1048300043EA80131343C5F88830D5F88C30226AD8
:1048400023F4F853013A43EA0223C5F88C300D07EC
:1048500014D5794AA369D2F8881020691B0701F0A2
:10486000706143EA80130B43C2F88830D2F88C3071
:10487000616A23F440330B43C2F88C306D4B6E4EAB
:1048800001221A67FEF73EFC05463368980040F1A6
:104890009B8023689B0633D500230193664B674DAD
:1048A0001A6C42F080521A641B6C03F0805301931F
:1048B000019B2B6843F480732B60FEF723FC0646B4
:1048C0002B68D90540F187805B4D2B6F13F4407343
:1048D00040F08880A36A03F44072B2F5407F564AE4
:1048E00040F0A480916823F0704021F4F81120F486
:1048F000407001439160116FC3F30B030B431367C7
:10490000206810F010001FBF4D4B94F82C20C3F806
:10491000E02100204FE0474B474E00229A66FEF709
:10492000F1FB054633681F013FD42168CD0741BF25
:10493000D4E901231B0743EA8213C6F884308807B1
:1049400015D53D4AE368D2F8840065681B0600F07F
:10495000E04043EA85130343C2F88430D2F88C0068
:10496000E36920F01F00013B0343C2F88C30490685
:104970000AD5E36862681B0643EA8213A26843EA29
:1049800002732D4AC2F884302A4B2B4E01229A66BC
:10499000FEF7B8FB054633681A013FF530AFFEF766
:1049A000B1FB401B0228F6D904E0FEF7ABFB401B2D
:1049B0000228B7D9032003B0F0BDFEF7A3FB801B8C
:1049C00002287FF627AFF5E7FEF79CFB401B022885
:1049D0007FF65BAFEEE7FEF795FB801B02287FF6C4
:1049E0006FAFE7E7A26A02F4407293423FF472AFFE
:1049F0002B6F104A0121C2F8401E23F4407300219E
:104A0000C2F8401E2B672B6FDA077FF563AFFEF706
:104A100079FB41F2883706462B6F9B073FF55AAF6B
:104A2000FEF770FB801BB842F6D9C3E7916821F40A
:104A3000F8115FE700004742003802400070004074
:104A40000010474238B50D460446C8B190F82C30E6
:104A500003F0FF021BB980F82D20FDF799F902231E
:104A600084F82C30211D206800F0A3FF62682068C4
:104A7000294600F0D9FF012384F82C30002038BDEE
:104A80000120FCE770B590F82C30022B05460E464D
:104A9000D8B212D000F0FB04012C0FD1022385F80C
:104AA0002C30286800F0F6FF3368022B06BF052380
:104AB00085F82C3085F82C40002070BD0120FCE7E3
:104AC00038B590F82C30022B0446D8B20DD094F8AB
:104AD0002C30012BDDB209D10223206884F82C3060
:104AE00000F0FEFF84F82C50002038BD0120FCE7C8
:104AF0002DE9F3411D46174688460646FEF702FBA0
:104B00003D442C1AFEF7FEFA224B1B68C3F3CB334D
:104B10000546634332680193936838EA030301D082
:104B200000202DE07B1CF7D0FEF7ECFA401BA042E2
:104B300029D333685A6822F0E0025A607268B2F5ED
:104B4000827F0AD1B268B2F5004F02D0B2F5806F11
:104B500003D11A6822F040021A60B26AB2F5005F0F
:104B600007D11A6822F400521A601A6842F40052FF
:104B70001A60012386F85130002386F85030032054
:104B800002B0BDE8F081019B002B019B08BF00240F
:104B9000013BBFE77400002038B513464268B2F508
:104BA000827F04461FD18268B2F5004F02D0B2F571
:104BB000806F07D125682868B2F5806F20F040002B
:104BC000286007D00A4680212046FFF791FF20B9D0
:104BD000002038BD0A460121F6E7636D43F020034B
:104BE00063650320F5E70A460121EEE737B5134672
:104BF000124A1568124AB5FBF2F54FF47A72554322
:104C000042680195B2F5827F04460BD10A468021A5
:104C1000FFF76EFF78B1636D43F0200363650320F7
:104C200003B030BD019B33B1019B013B019323686D
:104C30009B681B06F6D40020F2E700BF740000203A
:104C400000366E0110B50446002855D0436A002B8B
:104C50004ED14268B2F5827F00D0C3610023A362C7
:104C600094F8513003F0FF0223B984F85020204615
:104C7000FDF704F82168A068A269022384F8513086
:104C80000B6823F040030B60636800F4044003F4F6
:104C900082730343E06800F400600343206900F07E
:104CA00002000343606900F00100034302F4007056
:104CB0000343E06900F038000343206A00F08000FD
:104CC0000343A06A00F4005003430B60636A120CB4
:104CD00003F0100302F004021A434A60CB6923F484
:104CE0000063CB6100200123606584F8513010BD62
:104CF0000023C0E90433B1E70120F8E72DE9F341CF
:104D00001E4690F85030012B04460D46174600F021
:104D1000A180012380F85030FEF7F4F994F8513067
:104D2000012B8046D8B240F09380002D5ED0002F3A
:104D30005CD0A2682563032384F85130B2F5004F9C
:104D40004FF000036365C4E91033E786A363A387CC
:104D5000E387A786236807D11A6822F040021A6009
:104D60001A6842F480421A601A68E16852065EBF0F
:104D70001A6842F040021A60B1F5006F626841D1D2
:104D80000AB1012F07D135F8022BDA602563E38ED3
:104D9000013B9BB2E386E38E9BB2A3B94246314608
:104DA0002046FFF723FF00284FD1A36833B90193B2
:104DB0002368DA6801929B680193019B606D00385B
:104DC00018BF012012E022689368980705D5236B6D
:104DD00033F8021BD1602363D9E7FEF793F9A0EB08
:104DE0000800B0420BD3711CD5D00320012384F8F6
:104DF0005130002384F8503002B0BDE8F081002E1D
:104E0000C9D1F2E70AB1012F08D12A781A73236BAE
:104E100001332363E38E013B9BB2E386E38E9BB2B7
:104E2000002BBBD023689A68920702D5226B1278B8
:104E3000ECE7FEF767F9A0EB0800B04202D3731C61
:104E4000ECD0D2E7002EE9D1CFE720236365ACE7B1
:104E50000220CBE70220CFE72DE9F7431E4690F86A
:104E600050300A9F012B04460D46914600F0E68023
:104E7000012380F85030FEF745F994F8513062680C
:104E8000012B8046D9B20AD0B2F5827F40F0D4809F
:104E9000A368002B40F0D080042940F0CD80002D85
:104EA00040D0B9F1000F3DD0002E3BD094F85130E6
:104EB000C4F83890042B1CBF052384F8513000231C
:104EC0006365C4E910332368E687E6861968A68718
:104ED000490658BF1968256358BF41F04001A686AE
:104EE00058BF1960E168B1F5006F52D10AB1012EC7
:104EF00007D135F8022BDA60E38E2563013B9BB2C4
:104F0000E3860125E38E9BB273B9E38F9BB25BB955
:104F1000424639462046FFF769FE002800F08180AE
:104F20002023636501202BE021688B689E070DD547
:104F3000E38E9BB253B14DB1236B33F8022BCA60A1
:104F40002363E38E013B9BB2E38600258A6812F05F
:104F500001020CD0E38F9BB24BB1A36BC96823F85D
:104F6000021BA363E38F013B9BB2E3871546FEF769
:104F7000C9F8A0EB0800B842C4D3781CC2D0032003
:104F8000012384F85130002384F8503003B0BDE889
:104F9000F0830AB1012E08D12A781A73236B0133EA
:104FA0002363E38E013B9BB2E38601252DE022685B
:104FB000936899070ED5E38E9BB25BB155B1236B15
:104FC0001B781373236B01332363E38E013B9BB286
:104FD000E38600252268916811F001010DD0E38F6E
:104FE0009BB253B1A36BD2681A70A36B0133A36356
:104FF000E38F013B9BB2E3870D46FEF783F8A0EBFE
:105000000800B8420AD37B1CB9D1E38E9BB2002BB7
:10501000CDD1E38F9BB2002BC9D179E7002FF4D11A
:10502000ADE7A368002BABD123680190DA68019249
:105030009B680193019BA3E70220A1E70220A5E75B
:105040002DE9F7431D464368B3F5827F0446894640
:1050500017460CD1836853B9042380F851301346A6
:1050600000950A46FFF7F8FE03B0BDE8F08394F818
:105070005030012B00F08680012384F85030FEF779
:1050800041F894F85130012B8046D8B278D1B9F16B
:10509000000F5CD0002F5AD0A268C4F838900026C8
:1050A0000423B2F5004F84F85130C4E910666665F8
:1050B0002368E787A7872663A686E68607D11A684E
:1050C00022F040021A601A6822F480421A601A68BC
:1050D00056065EBF1A6842F040021A60E368F3B1F8
:1050E000E38F9BB2FBB123689A68D20739D5DA689F
:1050F000A36B23F8022BA363E38F013B9BB2E387EF
:10510000EEE723689A68D00718D5A26B1B7B137053
:10511000A36B0133A363E38F013B9BB2E387E38F70
:105120009BB2002BEDD1424629462046FFF734FDC5
:1051300018BB606D003818BF012008E0FDF7E2FFE2
:10514000A0EB0800A84209D3691CE8D00320012382
:1051500084F85130002384F8503085E7002DDED1EB
:10516000F4E7FDF7CFFFA0EB0800A84202D36B1CC9
:10517000B6D0EBE7002DB3D1E8E720236365D8E78D
:105180000220E4E702206FE77047000090F83D300E
:10519000012B30D1022380F83D300368DA6842F0F9
:1051A0000102DA60154A93421AD0B3F1804F17D04A
:1051B000A2F57C42934213D002F5806293420FD055
:1051C00002F5806293420BD002F57842934207D0F9
:1051D00002F57052934203D0A2F59432934204D167
:1051E0009A6802F00702062A03D01A6842F0010208
:1051F0001A60002070470120704700BF0000014086
:10520000704770477047704703681A69910710B577
:1052100004460ED5DA6892070BD56FF002021A61C8
:10522000012202779B699B0777D0FFF7EAFF0023F3
:10523000237723681A69500710D5DA6851070DD50E
:105240006FF004021A61022222779B6913F4407FF7
:10525000204668D0FFF7D5FF0023237723681A691B
:1052600012070FD5DA6810070CD56FF008021A6123
:1052700004222277DB69990720465AD0FFF7C1FF45
:105280000023237723681A69D20610D5DA68D0067E
:105290000DD56FF010021A6108222277DB6913F432
:1052A000407F20464BD0FFF7ACFF002323772368D5
:1052B0001A69D10708D5DA68D20705D56FF001025F
:1052C0001A612046FCF73CFB23681A69100608D5D2
:1052D000DA68110605D56FF080021A61204600F0E9
:1052E000C8F823681A69520608D5DA68500605D549
:1052F0006FF040021A612046FFF785FF23681A69A4
:10530000910622D5DA6892061FD56FF0200220465A
:105310001A61BDE8104000F0ABB8FFF771FF2046FE
:10532000FFF770FF83E7FFF76BFF2046FFF76AFF89
:1053300092E7FFF765FF2046FFF764FFA0E7FFF75E
:105340005FFF2046FFF75EFFAFE710BD304A0368FE
:10535000904212D0B0F1804F0FD0A2F57C42904223
:105360000BD002F58062904207D002F58062904235
:1053700003D002F57842904219D14A6823F07003B5
:105380001343234A904229D0B0F1804F26D0A2F592
:105390007C42904222D002F5806290421ED002F5FB
:1053A000806290421AD002F57842904216D0194A93
:1053B000904213D002F5806290420FD002F58062D5
:1053C00090420BD0A2F59832904207D002F580624D
:1053D000904203D002F58062904203D1CA6823F460
:1053E000407313434A6923F08003134303608B68BF
:1053F000C3620B688362064B984203D003F5806357
:10540000984201D10B69036301234361704700BFD8
:10541000000001400040014010B5044630B390F850
:105420003D3003F0FF021BB980F83C20FFF7ACFED3
:105430000223206884F83D30211DFFF787FF0123F8
:1054400084F84630002084F83E3084F83F3084F8F9
:10545000403084F8413084F8423084F8433084F896
:10546000443084F8453084F83D3010BD0120FCE71D
:1054700070477047026802F10C0353E8003F23F4C1
:1054800090730C3242E8003102680029F2D102F137
:10549000140353E8003F23F0010302F1140C4CE81D
:1054A00000310029F3D1036B012B0BD102F10C0366
:1054B00053E8003F23F0100302F10C0C4CE80031DC
:1054C0000029F3D1202380F83E3000230363704786
:1054D0000268C168136923F440530B4370B513612C
:1054E000054683680069D168034368690343E86936
:1054F00021F4164121F00C0103430B43D36053699F
:10550000A96923F440730B4353611F4B9A4203D0A4
:1055100003F580639A4223D1FFF73CF9EB69192127
:10552000B3F5004FD5E90046A0FB01011BD1B2192C
:105530004FF000035B41FAF7ABFE6421B0FBF1F5DD
:1055400001FB1503DB003233B3FBF1F303F0070279
:105550005B0002EB051203F4F8731344A36070BD03
:10556000FFF708F9DAE7B200B30FFAF791FE642209
:10557000B0FBF2F102FB11031B013233B3FBF2F378
:1055800003EB0113EAE700BF0010014010B5044629
:1055900040B390F83D3003F0FF021BB980F83C2087
:1055A000FCF7A2FB2268242384F83D30D36823F45F
:1055B0000053D3602046FFF78BFF23681A6922F45B
:1055C00090421A615A6922F02A025A61DA6842F45A
:1055D0000052DA6000202023206484F83D3084F8F3
:1055E0003E3010BD0120FCE77047704708B5806B66
:1055F0000023C385C384FFF7F8FF08BD704707B5D4
:105600008168836A0268B1F5805F3ED10169002933
:105610003ED15268C2F3080223F8022B8362C38D85
:10562000013B9BB2C385002B2CD10268D16821F0CD
:105630002001D160D16821F48071D160516921F0DD
:1056400001015161202280F83E20026B012A02688C
:1056500028D1036302F10C0353E8003F23F0100349
:1056600002F10C0C4CE800310029F3D11368DB0681
:1056700005D501911368019353680193019B818DB6
:10568000FFF7BCFF03B05DF804FB39B9016929B924
:105690005268D2B21A70836A0133BFE7526802F0CF
:1056A0007F02F7E7FCF774F8ECE70000036837B512
:1056B0001A68D9685D6912F00F0F04460CD195067F
:1056C00070D58D066ED590F83E30222B64D103B094
:1056D000BDE83040FFF793BF05F0010001F490757D
:1056E00005435FD0D50705D5CB0542BF236C43F0FA
:1056F00001032364550704D518B1236C43F002035A
:105700002364930704D518B1236C43F00403236486
:10571000150707D501F0200303431EBF236C43F098
:1057200008032364236C002B36D0900608D58A0624
:1057300006D594F83E30222B02D12046FFF75FFFBA
:1057400023685B69256C03F0400305F008051D43E1
:10575000204623D0FFF78EFE226853695B0618D5DA
:1057600002F1140353E8003F23F0400302F1140058
:1057700040E800310029F3D1A06B50B1724B0365B2
:10578000FDF780FD40B1A06B036D03B0BDE8304074
:1057900018472046FFF729FF03B030BDFFF725FF6C
:1057A0002564F9E7206B012840F09180D50640F18F
:1057B0008E80C80640F18B80002201921A68019207
:1057C0005A680192019A5A6955064CD5A16B0A682C
:1057D000526892B2002ADFD0A08D9042DCD9E285D7
:1057E000CA69B2F5807F36D003F10C0252E8002F6F
:1057F00022F4807203F10C0040E800210029F3D16B
:1058000003F1140252E8002F22F0010203F1140008
:1058100040E800210029F3D103F1140252E8002FDF
:1058200022F0400203F1140040E800210029F3D1E6
:10583000202284F83E20216303F10C0252E8002F5D
:1058400022F0100203F10C0040E800210029F3D1FE
:10585000A06BFDF7D3FCE38DA18DC91A89B2204658
:10586000FFF7CCFE98E7E18D8AB2E18D89B200297D
:1058700092D0A18D891A89B200298DD003F10C0232
:1058800052E8002F22F4907203F10C0545E8002045
:105890000028F3D103F1140252E8002F22F0010294
:1058A00003F1140545E800200028F3D1202284F8F4
:1058B0003E20206303F10C0252E8002F22F0100278
:1058C00003F10C0545E800200028F3D1C7E71006D6
:1058D00028D50D0626D594F83D20212A7FF45CAF0B
:1058E000A168226AB1F5805F17D12169A9B932F8A0
:1058F000021BC1F3080159602262E28C013A92B2A4
:10590000E284002A7FF448AFDA6822F08002DA608D
:10591000DA6842F04002DA603EE7511C21621278F8
:105920005A60EAE750067FF537AF4A067FF534AF95
:10593000DA6822F04002DA60202384F83D30204605
:10594000FFF752FE28E700BFED550008C28500238F
:1059500082852222036480F83E20026980F83C3070
:10596000816203681AB1DA6842F48072DA605A69B7
:1059700042F001025A61DA6842F02002DA60002047
:10598000704770B490F83E60202E10D161B15AB1CA
:1059900090F83C40012C0AD0012480F83C400024BF
:1059A000046370BCFFF7D2BF012070BC70470220B7
:1059B000FBE72DE9F043D1E907430A68D1F82490C9
:1059C000D1E90158D1E903ECD1E905762343A2B925
:1059D00043EA09022A4342EA0803016843EA0E0344
:1059E00043EA0C033B4321F4FF41334321F07F01A1
:1059F0000B4303600020BDE8F083026843EA09031B
:105A000022F4F8421343036045EA0803426843EA7C
:105A10000E0343EA0C033B4322F4FF42334322F0DC
:105A20007F0213434360E5E7CB6803F1FF3C4B691A
:105A3000F0B50F684C688E680D698969013B1B05DC
:105A4000013C013E013D0139013F240136022D0494
:105A5000090643EA0C335AB93B4323438268334374
:105A60002B430B4302F07042134383600020F0BDD0
:105A7000826822F4700222F470421A43826044EA7F
:105A80000603C2683B432B430B4302F070421343AF
:105A9000C360EBE770B5044615460269D1E90030F2
:105AA0000343C868920D43EA4023920513438A6872
:105AB000013A43EA42132361FDF724FB0646A3693A
:105AC00013F0200301D1184603E06B1CF7D00DB989
:105AD000032070BDFDF716FB801BA842EFD9F7E746
