:020000040800F2
:100000000000032095050008211F0008231F000899
:10001000251F0008271F0008291F000800000000F6
:10002000000000000000000000000000A1620008C5
:100030002B1F000800000000316300087B5B0008F4
:10004000E5050008E5050008E5050008E5050008E8
:10005000E5050008E5050008E5050008E5050008D8
:10006000E5050008E5050008E5050008E5050008C8
:10007000E5050008E5050008E5050008E5050008B8
:10008000E5050008E5050008E5050008E5050008A8
:10009000E5050008E5050008E5050008E505000898
:1000A000E5050008E5050008E5050008E505000888
:1000B000E5050008E5050008E5050008E505000878
:1000C000E5050008E5050008E5050008E505000868
:1000D000E5050008E50500082D1F0008E5050008F6
:1000E000E5050008E5050008E5050008E505000848
:1000F000E5050008E5050008E5050008E505000838
:10010000E5050008E5050008E5050008E505000827
:10011000E5050008E5050008391F0008E5050008A9
:10012000E5050008E5050008E5050008E505000807
:10013000E5050008E5050008E5050008E5050008F7
:10014000E5050008E5050008E5050008E5050008E7
:10015000E5050008E5050008E5050008E5050008D7
:10016000E5050008E5050008E5050008E5050008C7
:10017000E5050008E5050008E505000800000000A9
:10018000E5050008E5050008E5050008E5050008A7
:10019000E5050008E5050008E5050008E505000897
:0C01A000451F0008E5050008511F00087D
:1001B00010B5054C237833B9044B13B10448AFF3A1
:1001C00000800123237010BD6401002000000000A6
:1001D00044AD010808B5034B1BB103490348AFF315
:1001E000008008BD000000006801002044AD010847
:1001F00001F0FF01102A2BDB10F0070F08D010F8D8
:10020000013B013A8B422DD010F0070F42B3F6D1DB
:10021000F0B441EA012141EA014122F007047FF0F4
:1002200000070023F0E80256083C85EA010586EA4B
:10023000010685FA47F5A3FA87F586FA47F6A5FA87
:1002400087F68EB9EED1F0BC01F0FF0102F0070293
:1002500032B110F8013B013A83EA010313B1F8D13E
:100260000020704701387047002D06BF354603381F
:10027000073815F0010F07D1013015F4807F02BF58
:10028000013015F4C03F0130F0BC0138704700BFA9
:1002900053B94AB9002908BF00281CBF4FF0FF31ED
:1002A0004FF0FF3000F074B9ADF1080C6DE904CEE9
:1002B00000F006F8DDF804E0DDE9022304B0704741
:1002C0002DE9F047089D04468E46002B4DD18A4209
:1002D000944669D9B2FA82F252B101FA02F3C2F13C
:1002E000200120FA01F10CFA02FC41EA030E9440CD
:1002F0004FEA1C48210CBEFBF8F61FFA8CF708FBEE
:1003000016E341EA034306FB07F199420AD91CEBC5
:10031000030306F1FF3080F01F81994240F21C81F7
:10032000023E63445B1AA4B2B3FBF8F008FB10333F
:1003300044EA034400FB07F7A7420AD91CEB040474
:1003400000F1FF3380F00A81A74240F20781644444
:10035000023840EA0640E41B00261DB1D4400023C9
:10036000C5E900433146BDE8F0878B4209D9002D2D
:1003700000F0EF800026C5E9000130463146BDE8B7
:10038000F087B3FA83F6002E4AD18B4202D3824221
:1003900000F2F980841A61EB030301209E46002DD0
:1003A000E0D0C5E9004EDDE702B9FFDEB2FA82F225
:1003B000002A40F09280A1EB0C014FEA1C471FFA83
:1003C0008CFE0126200CB1FBF7F307FB131140EA6A
:1003D00001410EFB03F0884208D91CEB010103F137
:1003E000FF3802D2884200F2CB804346091AA4B2F9
:1003F000B1FBF7F007FB101144EA01440EFB00FECD
:10040000A64508D91CEB040400F1FF3102D2A64531
:1004100000F2BB800846A4EB0E0440EA03409CE7D0
:10042000C6F12007B34022FA07FC4CEA030C20FA7D
:1004300007F401FA06F31C43F9404FEA1C4900FA9D
:1004400006F3B1FBF9F8200C1FFA8CFE09FB18111A
:1004500040EA014108FB0EF0884202FA06F20BD98D
:100460001CEB010108F1FF3A80F08880884240F2DD
:100470008580A8F102086144091AA4B2B1FBF9F021
:1004800009FB101144EA014100FB0EFE8E4508D91C
:100490001CEB010100F1FF346CD28E456AD90238A1
:1004A000614440EA0840A0FB0294A1EB0E01A14286
:1004B000C846A64656D353D05DB1B3EB080261EBF4
:1004C0000E0101FA07F722FA06F3F1401F43C5E9CE
:1004D000007100263146BDE8F087C2F12003D84004
:1004E0000CFA02FC21FA03F3914001434FEA1C4746
:1004F0001FFA8CFEB3FBF7F007FB10360B0C43EA38
:10050000064300FB0EF69E4204FA02F408D91CEBE7
:10051000030300F1FF382FD29E422DD902386344E5
:100520009B1B89B2B3FBF7F607FB163341EA034185
:1005300006FB0EF38B4208D91CEB010106F1FF38D4
:1005400016D28B4214D9023E6144C91A46EA0046CB
:1005500038E72E46284605E70646E3E61846F8E65D
:100560004B45A9D2B9EB020864EB0C0E0138A3E7A6
:100570004646EAE7204694E74046D1E7D0467BE787
:10058000023B614432E7304609E76444023842E7FF
:10059000704700BFDFF834D0002103E00C4B5B58FC
:1005A000435004310B480C4B42189A42F6D30B4A85
:1005B00002E0002342F8043B094B9A42F9D302F0CF
:1005C00097FD19F045FB00F01FFF70470000032066
:1005D000483F04080000002064010020640100205E
:1005E0001C2A0120FEE7704708B500F01DFDBDE89C
:1005F000084000F0A9BC00F019BD704710B50421F7
:10060000044619F0ACFA204610BD000038B50C4B7A
:100610000C4C18800C4B822019806368984740F678
:10062000110398420AD1094D23682C608220984713
:100630002B688220DB689847002038BD0120FCE74A
:10064000800100204C000020820100208401002055
:100650004FF4A071F020FFF7D9BF0000F7B52D4D82
:100660002B6804461B698220984780B220800028AE
:1006700043D02B680DF106025B6901A982209847DF
:10068000BDF80620A2F5B47292B20A2A37D90B231C
:10069000B2FBF3F2204B1B889A4201D9013B9AB27C
:1006A000BDF8043040F6B8318B422AD8C3F57163E7
:1006B0000E339BB20F21B3FBF1F3184909888B422B
:1006C00001D94B1E9BB2164E164D30682F688342DF
:1006D00081B28CBF591AC91AB8B2BA428CBF101A6B
:1006E000801A89B280B201440529C8BF33603368DB
:1006F000C8BF2A6063802B68A38003B0F0BD0022CE
:10070000CEE7C3F56D6308339BB20E2BD2D800231E
:10071000D9E700BF84010020820100208001002071
:10072000880100208C01002037B568460D4614462C
:10073000FFF794FFBDF8000030B1BDF802302B6028
:10074000BDF804302360012003B030BD032821D858
:10075000DFE800F0020B12190F4B1A68B2FA82F2AE
:10076000520904210D4802F0B1BF0B4B5A68B2FA8E
:1007700082F252090821F5E7074B9A68B2FA82F231
:1007800052091021EEE7044BDA68B2FA82F25209FC
:100790002021E7E7704700BF9001002000100240D1
:1007A000032821D8DFE800F0020B12190F4B1A685A
:1007B000003A18BF012204210D4802F087BF0B4BFD
:1007C0005A68003A18BF01220821F5E7074B9A68DA
:1007D000003A18BF01221021EEE7044BDA68003A14
:1007E00018BF01222021E7E7704700BF90010020D9
:1007F0000010024003280DD8DFE800F00206080AC6
:100800000421054802F067BF0821FAE71021F8E744
:100810002021F6E7704700BF0010024008B503280A
:1008200011D8DFE800F0020A0C0E0421074802F09C
:1008300047FF431E5842584108BD0821F6E71021E2
:10084000F4E72021F2E70020F3E700BF00100240A8
:1008500070B5084D00240126E0B2FFF7DFFF18B1A4
:100860002B68012B18BF2E600134052C05F10405FF
:10087000F2D170BD90010020012380F8741080F83F
:100880007530704700207047034B4164003918BF32
:1008900001211970704700BF7727012000207047A1
:1008A000836B0BB10846184770474FF6FF707047CF
:1008B000406803689B69184770477047704700009D
:1008C00070B5044600F080FC2368D3F88850044BD0
:1008D000D4E90F122046AC46BDE87040604700BF27
:1008E000000000D008B503680446D3F8803098476C
:1008F000236820469B6F984700F0ECF82368204659
:100900001B6F9847292000F0D7FF00F0E3F8236819
:1009100020461B6F9847F8E710B5044608F0E2FA46
:1009200023682046D3F8AC30BDE81040184700F0EB
:100930003DBC00F041BC00F06DBC00F013BC00F009
:1009400075BC00F07DBC00F017BC07F031BD10B5E0
:100950007C21044619F003F9204610BD90F8773049
:100960001BB1406803681B681847184670470000B1
:1009700010B590F8341090F874400C4B8C421A78F3
:1009800009D03AB90A4A0B491488088810800C80AB
:1009900001221A7010BD002AFCD0054A05491488AE
:1009A000088810800C800022F3E700BF7027012028
:1009B0006C2701206E27012070B50D46194635B908
:1009C000094B0A4A0A4840F2D22119F0F7F8C0E967
:1009D0000F52084B003A18BF01221A700368BDE895
:1009E0007040D3F88C301847B4AD0108ECAD010865
:1009F0003AAE01087627012008B5094B1B888B42C7
:100A000003D8084B1B88934205D9074B074A08486F
:100A10009E2119F0D3F8074B1980074B1A8008BDA7
:100A20006C2701206E2701207FAE0108E2AE01088D
:100A30003AAE01087227012074270120012108B570
:100A40000022084605F027F90A4B186028B90A4B1E
:100A50000A4A28210A4819F0B1F80022042101208D
:100A600005F0BFF9074B186018B9074B034A2C2152
:100A7000F0E708BDA401002000B0010849B001085A
:100A800078B00108A0010020EFB00108024B4FF040
:100A9000FF31186805F049B9A4010020014B18681E
:100AA00005F06EB9A4010020024B0021186805F082
:100AB0003CB900BFA4010020FFF7F0BF0348044980
:100AC000006800231A4605F0C7B900BFA001002046
:100AD0000400002013B5084C00231A4601A9206821
:100AE00005F0EAF920684FF0FF33002201A905F074
:100AF000E3F902B010BD00BFA001002003685B6CE9
:100B000018470120704703689B6A184782B000238A
:100B100001930D4B1A6B42F400021A631A6B02F434
:100B200000020192019A1A6942F400021A611A69DC
:100B300022F400021A61054B054A1A61054B4FF079
:100B400080629A6002B0704700380240FC160020B4
:100B5000990B000800E100E040F2EF307047000020
:100B6000054B0360054B4FF08062C3F88820BFF34C
:100B70004F8FBFF36F8F7047B8B2010800E100E0FC
:100B800010B504464FF45A61FFF7EAFF204618F00B
:100B9000E6FF204610BD0000024B1B685868036842
:100BA0005B6918477827012070B5044625460A4B33
:100BB0000C30002660602672667245F8203B602289
:100BC000294608F0CDFA04F55A63EE602435AB42AD
:100BD000FBD1204670BD00BFB8B2010808B50B2993
:100BE0000BD8DFE801F01206100A0A0A0A08080802
:100BF0000808012008BD0520FCE7054B054A06480A
:100C0000662118F0DBFF0020F4E70220F2E700BFC6
:100C100031B101084CB1010896B1010808B50A29A3
:100C200009D8DFE801F010060E08080808060606D5
:100C30000600012008BD054B054A0648872118F02B
:100C4000BDFF0020F6E70220F4E700BF31B1010844
:100C50000BB2010896B101082DE9F8434F7F0C460D
:100C600039468146FFF7BAFF94F81E800546414693
:100C70004846FFF7B3FF414606464846FFF7CEFF1A
:100C8000A18A628B424B521A1A649A61228B521AC1
:100C90001A61E28A586342EA01425A642069626832
:100CA000D863DA60216894F81CC080294FEA0C628E
:100CB00026D010D8202945EA020461D040295FD00F
:100CC00004295DD0324B2A4342F400324745DA61B1
:100CD0005AD0304A40E0B1F5807F07D0B1F5007FAF
:100CE000F0D142F4003242F0090203E042F4003253
:100CF00042F00A02DA61E2681A625E6258612AE032
:100D0000A4682A4342F40032211DD962DA612278B4
:100D10005E62586142B1012A21D01F4B1F4A204810
:100D200040F2111118F04AFFDA69618822F47F421B
:100D3000013922F0100242EA0122DA610120144B4B
:100D4000DA6942F02002DA61DA699206FCD41022F4
:100D50009A600028BDD0134A1A60BDE8F883628803
:100D6000D969541E21F47F4222F0100242EA042283
:100D7000BCF1FF0042F0100218BF0120DA61DEE78B
:100D800044F40034DC61B8E740F20122E4E700BF3C
:100D900000B002400102010056B2010870B2010821
:100DA00096B101080102020070B50C46897FFFF779
:100DB00035FFA68AE18A628B154B2569586341EAA3
:100DC0000641921B5964DD631A642668E168082EA7
:100DD0000DD19A611A615862207F0E4A42EA006280
:100DE000DA610D4A19625D61DD601A6070BD002232
:100DF000D8611A6148090A0A02F4784200F4FC60DA
:100E00000243C1F3C4010A439A63044AEDE700BFF9
:100E100000B00240090001000102020001020300CB
:100E2000012070470C2070470C2303FB01000830A1
:100E300070470C2303FB0100083070470120704706
:100E40004FF43A7070474FF43A7303FB01000830D7
:100E500070474FF43A7303FB0100083070470120DC
:100E600070471020704700EB01100830704700EB0E
:100E7000011008307047084601F050BA10B5034B16
:100E80000360044606F0E9FF204610BD70B3010878
:100E900010B50446FFF7F2FF2046142118F05FFE5C
:100EA000204610BD10B5034B0360044606F0D5FF85
:100EB000204610BD3CB3010810B50446FFF7F2FF11
:100EC00020464FF43C7118F04AFE204610BD000049
:100ED00010B5034B0360044606F0BFFF204610BD6B
:100EE00008B3010810B50446FFF7F2FF20461821A9
:100EF00018F035FE204610BD10B5084B03600446BF
:100F000000F54770FFF7BAFF04F12C00FFF7CAFFA6
:100F100004F11400FFF7DCFF204610BDA4B3010864
:100F200008B50248FFF7E8FF08BD00BFAC0100208C
:100F300010B50446FFF7E0FF204640F2945118F048
:100F40000EFE204610BD00002DE9F34101F074F8BB
:100F5000054601F075F8002401462346284622463E
:100F600000940DF00FF8254B254A264D1A602046B7
:100F700001F01CFD24480CF06DFF2B78BFF35B8F54
:100F8000DB0735D4284618F0ECFD88B31F4C204B06
:100F9000236004F5876604F1140004F12C0804F5BD
:100FA00047776060C4F80880E760266106F056FF66
:100FB000184B6361404606F051FF174BE362384619
:100FC00006F04CFF154BC4F81C3304F54C7001F0CF
:100FD00069FD224604F54C71304601F059FD30465A
:100FE00001F09CF90E4818F007FE284618F0C5FDE0
:100FF0000C4802B0BDE8F041FFF762BCD4270120E5
:1010000060150020A801002008000020AC0100208D
:10101000A4B3010808B301083CB3010870B3010888
:10102000210F0008E4140020704700000148FFF77A
:1010300059BC00BFE414002070B5234C234E244B50
:10104000244D23603046FFF7AFFD284610F0A4F88A
:10105000214B2248DC60224C03600022F0204FF438
:1010600080712080C3E912121E4C1F492080C3E901
:1010700019121E4C1A864FF080714FF4A0705967F8
:101080000121C3E90422C3E90622C3E90822C3E916
:101090000A22C3E90E22C3E91022C3E91422C3E9DC
:1010A00016221A6683F86C201A67C3E9016583F873
:1010B000781020800E4C83F8341020800D48027088
:1010C0000D4A1A6070BD00BF400700204407002091
:1010D000A4AD010864150020E41400207827012045
:1010E0006C27012072270120010000016E270120DA
:1010F000742701207027012030AF01080148FFF755
:101100002FBD00BF4407002000207047818070473A
:10111000C1807047018170474181704770477047B7
:1011200070477047704710B4C4880368121B8488E6
:101130005B6D091B12B25DF8044B09B218474FF6FC
:10114000FF7383814FF0FF3303621368C361106044
:10115000704790F825201AB190F8242002B1186049
:1011600070470000034B902283F85A2383F85823DA
:10117000704700BF00E100E0094A0A49D3680A4805
:10118000C3F30A03013B9BB20B801169C1F30A014F
:10119000013901801364536B43F0010353637047BB
:1011A00000680140E0150020DE150020014BD3F857
:1011B000AC00704700680140024B0122C3F8AC103C
:1011C0005A6270470068014070B5044607F045F95F
:1011D00023685D6E09F0D4FE01462046A8472368C7
:1011E000054AD3F888502046AC460023BDE870403D
:1011F000A2F51631604700BF00B004D007F014B963
:1012000090F84B3013B1024B01221A7007F018B955
:10121000DC15002007F0D2B807F02DBA90F8252091
:1012200012B103685B69184770470000034B4FF029
:1012300080629A604FF080729A60704700E100E02F
:10124000084B4FF08062C3F88820BFF34F8FBFF385
:101250006F8F4FF08072C3F88820BFF34F8FBFF3BA
:101260006F8F704700E100E010B5144C236823B382
:10127000134B144A1B6C11888B4213D1124B1988E3
:1012800003F00AF8226892F86630013382F866307B
:10129000FFF714FC206807F025FEBDE81040002091
:1012A000FFF754BA02F0F8FF206803681B6A9847FA
:1012B000BDE810400020FFF773BA10BD7827012069
:1012C00000680140E0150020DE15002007B5064B40
:1012D000ADF806001B68054801220DF1060103F078
:1012E00037FD03B05DF804FB100000206C180020EF
:1012F00008B5054905484FF4807204F06CFB642082
:1013000004F0BDFCFBE700BFEC150020C418002072
:101310002DE9F843124DDFF850902868002709F8AE
:1013200001700C4604F0F9FD88B10E4ED6F800802D
:1013300001342246494608F1040019F0F5F82868FE
:10134000C8F800403B463A46314604F085FDBDE80A
:10135000F843054905484FF4807204F03CBB00BFD8
:101360000C19002008190020EC150020C4180020DA
:1013700030B595B0102200210AA818F0ABFC142259
:10138000002103A818F0A6FC00241D4B01941A6C40
:1013900042F080521A641B6C03F080530193019B4E
:1013A000184B02941A6842F440421A601B6803F416
:1013B000404302930122029B4FF48033CDE908237E
:1013C00002254FF48003CDE90E5308214FF4A87392
:1013D000CDE9101308A804231393129502F07AFFA5
:1013E0000F23CDE903354FF4A0504FF48053CDE9DE
:1013F0000603052103A8059403F04AF915B030BD92
:10140000003802400070004080B59AB001F07EFEC6
:10141000FFF7AEFF142200210DA8002418F05AFC9B
:10142000C54B00941A6BC548C54D42F010021A63B3
:101430001A6B02F010020092009A01941A6B42F0AB
:1014400020021A631A6B02F020020192019A0294A0
:101450001A6B42F080021A631A6B02F08002029249
:10146000029A03941A6B42F004021A631A6B02F098
:1014700004020392039A04941A6B42F001021A6365
:101480001A6B02F001020492049A05941A6B42F05E
:1014900002021A631A6B02F002020592059A069480
:1014A0001A6B42F040021A631A6B02F04002069275
:1014B000069A07941A6B42F008021A631B6B03F03A
:1014C0000803079322463C21079B02F0FFF89D4842
:1014D0002246042102F0FAF822469B484FF440517C
:1014E00002F0F4F801264FF003083C239348CDF8AE
:1014F00040800DA902274FF00409CDE90D360F9465
:1015000001F0F8FF8F480F940DA9CDE90D961097C3
:1015100001F0F0FF0DA94FF440538B48CDE90D3693
:10152000CDE90F4701F0E6FF8848894B036001F0E1
:101530007FFE884A884B2C62C5E9002328464FF479
:101540008043C5E90434C5E90244C5E9064402F014
:10155000A7FA1021284602F0E3FC2146284602F0B3
:10156000FEFC7E487E4984624FF48273C0E900131A
:101570004FF400751823C0E906530A23794DC3625E
:10158000C0E90244C0E90444C0E9084403F084FB14
:10159000754B0D974FF0100CC5E900364023C5E997
:1015A00004C34FF4C073C5E906344FF40063C5E9C2
:1015B00008344FF40053AB620DA907232846CDE948
:1015C0000E39CDE910384FF0080AC5E90249CDE9D6
:1015D000127703F061FA4FF6FF7209A92846CDE9A8
:1015E0000AA6089409960C9403F076FA304601F0A6
:1015F000B9FD4FF6FF7209A92846CDE9097ACDE970
:101600000B6403F069FA4FF6FF7209A92846CDE989
:10161000098ACDE90B9403F05FFA4FF40C73089339
:10162000089B0C934FF6FF7209A92846CDE9099A49
:101630000B9603F051FA40F26A51284603F06AFA19
:10164000342221460DEB020018F044FB474D484B75
:10165000AC86C5E900340923C5E905361D2340F2EF
:101660000D1EC5E9073840F24313C5E909E32846D2
:1016700040F2471340F21718C5E90B83C5E902444D
:101680002C6185F8364002F00FFDFF21F022CDE9F4
:1016900012144FF4806905214FF4A073CDE90E2494
:1016A000CDE91491CDE916420DA922462846CDE98F
:1016B0001037304D18930D94ADF864408DF86640A6
:1016C00002F0BDFD2C4B2B601B68DFF8CCA09847C7
:1016D0002B682A4DDB689847294BC5E90A47C5E9BD
:1016E0000C442846C5E90034C5E9027401F006FE41
:1016F0003146284601F0BAFE22484FF4E133C0E9F2
:1017000000A30C23C0E90534C0E902440461C461AC
:1017100003F066FFFEF768FFFEF765FF1A4A4FF415
:101720008471384604F05DFB184B194A1860214655
:10173000184804F05BFA31E0003802400010024023
:101740003C17002000080240000C0240F416002064
:1017500000300240005C0040A08601006C180020B0
:101760000050014038180020400100A090170020D0
:1017700000680140E815002014000020FC1600203D
:1017800000B00240C418002018B401080C19002051
:10179000F4B30108F112000800440040064B074A68
:1017A00018602146064804F021FA064B186004F040
:1017B000F1F904F001FAFEE7F0160020D0B30108B9
:1017C000F7050008E4150020704770477FB5094B06
:1017D0008DF817201B6802930DF117020123009268
:1017E00001930A460146044802F002FA07B05DF888
:1017F00004FB00BF0C0000203C1700207FB5002335
:101800008DF81730084B1B6802930A4601230DF12F
:101810001701009101930146044802F079FA9DF8FE
:10182000170007B05DF804FB0C0000203C170020F7
:101830001FB5084C24680092CDE901340A46012303
:101840000146054802F064FA003818BF012004B0D0
:1018500010BD00BF0C0000203C17002001F082BC2E
:1018600008B506480022042101F030FFBDE8084019
:1018700002480122042101F029BF00BF00080240F4
:1018800038B50B4D044601220A484FF4005101F0CF
:101890001DFF00220421284601F018FF2046FFF713
:1018A00015FD28460122BDE83840042101F00EBF95
:1018B00000080240000C024038B50B4D04460022DF
:1018C0000A484FF4005101F001FF0022042128468C
:1018D00001F0FCFE2046FFF7F9FC28460122BDE896
:1018E0003840042101F0F2BE00080240000C024022
:1018F000F7B5144E144F05460C463046002204211D
:1019000001F0E4FE00224FF40051384601F0DEFE03
:101910002846FFF7DBFC0D4B0D481B68224601A94A
:1019200003F0B8FB384601224FF40051019C01F04E
:10193000CDFE30460122042101F0C8FE204603B04E
:10194000F0BD00BF00080240000C02401000002063
:101950006C18002001F006BC0268034B9A4201D1CA
:1019600001F0EEBB704700BF001000407047000060
:1019700082B00E4B00220092596C41F480415964B0
:10198000596C01F48041009100990192196C41F069
:10199000805119641B6C03F080530193019B0F214C
:1019A0006FF0010002B001F003BC00BF003802403C
:1019B0000268094B9A4282B00BD100230193074B76
:1019C0001A6B42F480521A631B6B03F48053019329
:1019D000019B02B0704700BF003002400038024057
:1019E00007B50F4B02689A4216D10022A3F5F043C7
:1019F0000192196B41F4000119631B6B03F400039E
:101A0000019305215A20019B01F0D2FB5A2003B01B
:101A10005DF804EB01F0FEBB03B05DF804FB00BF12
:101A200000B002402DE9F043044689B014220021A1
:101A300003A818F04FF92268244B9A4243D1244C52
:101A4000244800250095236B43F004032363236B94
:101A500003F004030093009B0195236B43F0010303
:101A60002363236B03F001030193019B4FF01209E1
:101A70004FF400734FF001080327042603A9CDE9B2
:101A80000339CDE90587079601F034FD4FF48073E3
:101A90001148079603A9CDE90339CDE9058701F07F
:101AA00029FD0295236C43F400032364236C03F4A3
:101AB00000030293029B236A43F400032362236A18
:101AC00023F40003236209B0BDE8F083005C00400A
:101AD000003802400008024000000240F0B599B012
:101AE00004461422002107A818F0F4F830220DEB68
:101AF0000200002118F0EEF822685E4B9A4240F096
:101B0000B78008230C93C0231093042312930CA8CE
:101B10004FF40033159302F095FE08B1FFF726FF4E
:101B2000554B5648002400945A6C42F080625A6427
:101B30005A6C02F080620092009A01941A6B42F093
:101B400020021A631A6B02F020020192019A029499
:101B50001A6B42F001021A631A6B02F00102029240
:101B6000029A03941A6B42F002021A631A6B02F093
:101B700002020392039A04941A6B42F040021A6321
:101B80001A6B02F040020492049A05941A6B42F018
:101B900004021A631A6B02F004020592059A069475
:101BA0001A6B42F008021A631B6B03F008030693DA
:101BB00002250E26069B0B964FF4806307A9CDE9FC
:101BC0000735CDE9094501F095FC41F658032C484D
:101BD0000B9607A9CDE907350927CDE9094501F09D
:101BE00089FC032327480B9707A9CDE90735CDE9E1
:101BF000094501F07FFC4FF4706322480B9607A95A
:101C0000CDE90735CDE9094501F074FC4FF40C63CB
:101C10001D480B9607A9CDE90735CDE9094501F027
:101C200069FCC02319480B9607A9CDE90735CDE912
:101C3000094501F05FFC082315480B9607A9CDE97B
:101C40000735CDE9094501F055FC4FF4A0530E4886
:101C50000B9707A9CDE90735CDE9094501F04AFC05
:101C600058202246052101F0A3FA582001F0D2FAAB
:101C700019B0F0BD00680140003802400014024075
:101C80000000024000040240001802400008024028
:101C9000000C024010B5044688B01422002103A8AD
:101CA00018F018F82268144B9A4223D103F56843C0
:101CB000002101915A6C114842F480125A645A6C06
:101CC00002F480120192019A02911A6B42F02002F2
:101CD0001A631B6B03F020030293029B4FF46072A4
:101CE00002230321CDE903230523CDE9061303A92C
:101CF00001F000FC08B010BD00500140001402408B
:101D0000F0B5044689B01422002103A817F0E2FFC1
:101D10002268224B9A423ED103F5FA330024009404
:101D20001A6C1F4842F400321A641A6C02F4003232
:101D30000092009A01941A6B42F001021A631A6B26
:101D400002F001020192019A02941A6B42F0080219
:101D50001A631B6B03F008030293029B0227042300
:101D60000326072503A9CDE90337CDE9066501F070
:101D7000C1FB40230B48079503A9CDE90337CDE903
:101D8000054601F0B7FB26202246052101F010FA96
:101D9000262001F03FFA09B0F0BD00BF004400402A
:101DA00000000240000C02402DE9F04186B0002303
:101DB00003932B4B1C68002C4FD14FF00108C3F844
:101DC0000080284B00949A6B274842EA08029A63E5
:101DD0009B6B03EA08030093022703260C25009B54
:101DE00001A94FF63F03CDE90137CDE9046501F0C4
:101DF00081FB1E48059501A9CDE90187CDE9034680
:101E000001F078FB48F233131948059501A9CDE993
:101E10000137CDE9034601F06DFB4FF6837315489A
:101E2000059501A9CDE90137CDE9034601F062FB33
:101E30004CF203731048059501A9CDE90137CDE9AE
:101E4000034601F057FB60230C48059501A9CDE935
:101E50000137CDE9034601F04DFB06B0BDE8F08146
:101E6000101900200038024000140240000802400F
:101E70000018024000100240000C02400004024022
:101E800070B588B000230293204B1A6C42F0100208
:101E90001A641B6C03F010030293054601A903A802
:101EA000029B02F0B1FC069B4BBB02F08DFC184E6E
:101EB000184B336040F2E733F360174BB0FBF3F39A
:101EC000013B7360304600233361B360B36103F0BC
:101ED000CDFA044680B9304603F082F9044658B979
:101EE000362001F097F90F2D0DD8224629463620CD
:101EF00001F05EF9094B1D60204608B070BD02F08C
:101F000063FC4000D3E70124F6E700BF003802403D
:101F1000141900200010004040420F007C000020F7
:101F20007047FEE7FEE7FEE7FEE77047014803F073
:101F3000E7BB00BFC4180020014803F08FB900BF01
:101F400014190020014802F01DB900BF90170020AD
:101F5000014801F001BA00BFFC16002001207047C3
:101F600008B517F05DFE162303604FF0FF3008BD83
:101F700008B517F055FE16230360FEE770B50D4651
:101F800014460E46731B9C4201DC204670BDAFF325
:101F9000008006F8010BF5E770B50D4614460E46B5
:101FA000731B9C4201DC204670BD16F8010BAFF399
:101FB0000080F5E74FF0FF3070474FF400534B605F
:101FC0000020704701207047002070470A4A1168BE
:101FD00008B5034609B90949116010686946034408
:101FE0008B4206D917F01CFE0C2303604FF0FF3024
:101FF00008BD1360FCE700BF5C190020202A012007
:10200000704710B50421044617F0A9FD204610BD05
:10201000012908B506D0022908D059B900F012FDEF
:10202000006808BD00F00EFD4068FAE700F00AFD08
:102030008068F6E70020F4E70048704744B40108E0
:102040000120704713B5002451B1036801948DF845
:10205000034001AA9C680DF10303A04702B010BD24
:102060000846FBE7C0897047008A7047C088704700
:1020700080887047807A00F07F007047807AC009BE
:102080007047704710B50821044617F068FD2046D8
:1020900010BD7047704700F598730868496803C31E
:1020A000704770477047416070477047064BC0F8F3
:1020B0004C310023C0F8503100F5A273C0F848013C
:1020C000C0F84031704700BF6D2100080123037242
:1020D00070477047704710B4C26841685410034697
:1020E00001EB6200D20748BF0A599B685DF8044BB8
:1020F00048BFD358184743682BB183682BB9C068D1
:1021000000F001007047184670470120704710B575
:102110000C21044617F023FD204610BD10B51021F8
:10212000044617F01CFD204610BD10B54FF4AE71EB
:10213000044617F014FD204610BD08B508F020FF36
:10214000BDE8084009F064BB10B50446D0F8400172
:1021500058B10368DB68984738B1D4F84001036888
:102160009B6898470023C4F8403110BD2DE9F14F1A
:10217000D0E9555A0746A86803681B6A9847B0F526
:102180003A7F05D2454B464AA321464817F016FD33
:10219000686803681B6A98470F2803D8424B404A77
:1021A000A421F2E7E86803681B6A98470B2803D864
:1021B0003E4B3B4AA521E8E708F0E2FEDFF8F49049
:1021C000043008F002FFD9F8000010B10368DB68A2
:1021D0009847D9F8000010B103681B689847DFF8EA
:1021E000D880D8F8000010B103685B699847D7F829
:1021F0003C0110B103685B689847D8F8000010B143
:1022000003681B689847D7F83C0110B103689B68C6
:102210009847E868036800215B6A98474FF0000B15
:10222000234B03600446C0F804B080F808B0A868E7
:10223000036859465B6A9847064600F097FC686851
:10224000036859465B6A98473146054600F068FCCA
:10225000C9F80040C7F83C51C8F80060E5B12B1D33
:10226000CAF800303368C5F808A03046DB68F5636B
:1022700098472B6828461B689847214630460AF045
:1022800017FB236820461B69984723685B69204633
:1022900001B0BDE8F04F18472B46E1E768B40108EC
:1022A000F6B40108FAB5010841B60108E4B6010820
:1022B000F4B70108B8270120B4270120F8B5044677
:1022C00017460E4608F01EFF104B0025C4E9557650
:1022D0000F4E1C60C4E953550E4B306823600E4B03
:1022E000C4E95135036801219B68C4E94F559847FB
:1022F000284600F05BFB336893F876200AB1D86C6F
:1023000000B9986810F02FFD2046F8BDC4270120C1
:1023100078270120A8B7010890B70108064BC0F83C
:102320004C310023C0F8503100F5A273C0F84801C9
:10233000C0F84031704700BF6D210008406A704707
:10234000806A704770478B88C0690A68DB0A50F85A
:1023500023001044704710B5C2B1137BB3B1547B56
:10236000D27A240204F4E0641443026A98B202EBC5
:10237000840213888B4202D192F9020010BD05D865
:10238000013880B204320028F3D1F7E70020F5E7E6
:1023900010B52C21044617F0E2FB204610BD0000CA
:1023A00030B58BB00446BDF860500895BDF85C5060
:1023B00007959DF8505006959DF84C5005959DF851
:1023C000485004959DF8445003959DF8405002955F
:1023D0009DF83C500195BDF83850009509F0C2FEBB
:1023E000064B2360159BE361169B2362199B636276
:1023F0001A9BA36220460BB030BD00BF18B801087D
:102400007047704770477047704730B50368018167
:1024100085B06D460146D3F8843004462846984777
:1024200095E807003C3484E8070005B030BD30B5BE
:102430000368418185B06D460146D3F88430044677
:102440002846984795E807003C3484E8070005B023
:1024500030BD0022028042808280C280704780F8B6
:102460003610704770B5036804461B6B15469847D5
:102470002368294620465B6EBDE87040184700205F
:102480007047806C704770477047704710B54C219B
:10249000044617F064FB204610BD10B54FF43A71A6
:1024A000044617F05CFB204610BD08B5FEF7B6FEEB
:1024B00008BD0000036870B55E6B124B1B680446D4
:1024C0008DB22BB9104B114A6C21114817F076FBD5
:1024D0001049828D0988914203D80F4B0B4A6D2118
:1024E000F3E713F812200D4B1B6853F82200036822
:1024F0001B6B9847281A01B233462046BDE870404E
:10250000184700BFC827012070B80108B2B80108F9
:10251000EDB80108CC27012034B90108D0270120EB
:1025200000224FF0FF31C0E900218260704770B592
:10253000036804461B6B15469847236829462046C6
:102540005B6BBDE87040184770B504461D46BDF989
:102550001060FFF7ECFF2368294620469B6B9847E5
:10256000236831462046DB6BBDE870401847000009
:102570000022C0E90122C0E90322C0E90522C0E926
:1025800007224FF480728284014A0260704700BFC4
:10259000B8B901082DE9F04F044689B0A0460025DE
:1025A00009F0DAFF5E4BE56348F8403B26222946F6
:1025B000404617F08FFB4046FFF7DAFF04F16C0747
:1025C000584B2364FF2626224FF6FF79294684F8CC
:1025D00066603846A566ADF8189017F07BFB384664
:1025E000FFF7C6FF504BE366BDF81830A4F89230F1
:1025F000384684F8946006A904F1980606F093FF23
:1026000026222946304617F065FB3046FFF7B0FF1B
:102610004FF47F03C4F8CC30444BC4F898304FF0EB
:10262000FF33C4E93635DFF828A1A4F8C4904FF48D
:10263000A0732A4600932946F02340464FF07F4B73
:1026400004F10409C4F8C0A0C4F8C850A4F8D050DC
:10265000C4F8D450C4F8E050FFF776FF414648462E
:10266000C4F868B005F00EFC2A4638462946FFF744
:102670005EFF384606A9ADF8185006F054FF3946FB
:10268000484605F0FFFB40F2171310220093142177
:10269000C5233046FFF758FFD4F89830C4F8C8B0C7
:1026A00002AF3846D3F88430A4F8CC50314698476E
:1026B00097E8070004F1D40383E807001C4B1B686C
:1026C00004F1E4072BB91B4B1B4A60211B4817F090
:1026D00075FA1B4B1B881BB91A4B174A6121F5E78A
:1026E000194B2946186800F09DF9184A034640F234
:1026F000011138460BF0A0FB012306A93046C4F8AF
:10270000E070ADF81C30CDF818A006F045FE484644
:10271000314605F0B7FB204609B0BDE8F08F00BF99
:10272000B0BA010898BE010800BF010820BA01082C
:10273000C827012070B8010872B90108EDB8010876
:10274000CC27012034B90108D4270120AAB90108F7
:1027500060B401087047000030B5164D2C78BFF307
:102760005B8F14F001048FB020D1284617F0F9F9DF
:10277000E0B13F230993104B0893104B10491148C7
:102780000A940122CDE906430423CDE903320A234A
:102790000093CDE90B44CDE901440594FFF700FE19
:1027A000094817F029FA284617F0E7F905480FB04D
:1027B00030BD00BF6019002044E50108F0E60108C3
:1027C000F0DF010864190020552700087047000059
:1027D00030B5174D2C78BFF35B8F14F001048FB028
:1027E00022D1284617F0BDF9F0B13F230993114BD0
:1027F0000893114B07930123CDE905330493042378
:10280000CDE9024314230D4900935F221823CDE93B
:102810000B440B480A940194FFF7C2FD094817F0D6
:10282000EBF9284617F0A9F905480FB030BD00BFF5
:102830009019002048E50108F4E6010800E00108CD
:1028400094190020CD2700087047000030B5164DC0
:102850002C78BFF35B8F14F001048FB020D1284691
:1028600017F07FF9E0B13F230993104B0893104B09
:10287000104911480A940122CDE906430423CDE909
:10288000033228230093CDE90B44CDE9014405949C
:10289000FFF786FD094817F0AFF9284617F06DF9E4
:1028A00005480FB030BD00BFC0190020ECE601089C
:1028B000F8E6010834E50108C41900204928000899
:1028C00000207047002070470EB403B503AB002111
:1028D00053F8042B019309F06DFA02B05DF804EB94
:1028E00003B070470CB407B504AB53F8042B019345
:1028F00009F060FA03B05DF804EB02B07047000025
:10290000436C10B5044673B3038F2BB9184B194AA7
:10291000C521194817F052F9C38E00EB43035B8CB5
:102920000BB30AF0DAFC238F012B03D8134B144AA4
:10293000CB21EEE7E28E531C9BB2092B194688BFD0
:10294000A3F10A0104EB410140F63F10498C81429A
:1029500009D10A2B04EB420228BF002304EB4303F6
:10296000508C588451842046BDE810400AF0B8BB12
:10297000DCBA0108E5BA010890BB0108DABB01081E
:10298000E8BB01080AF073BB10B586B002AC84E85E
:1029900006001A460AAB05930193099B0093214652
:1029A000089B07F0ABFE06B010BD000038B518BBA1
:1029B000124B13481B681349B3B11A689C681A4438
:1029C00002605A681A440A601C440F4B00221A80A5
:1029D00000F038F8054600F033F80C4B1C600C4B47
:1029E0001D600C4B188007E00B4B03600B4B0B601A
:1029F0000B4B1C68002CE8D138BD00BFF01900203B
:102A0000F4190020F8190020FC190020C827012023
:102A1000D0270120CC27012004E70108FCE60108AB
:102A200020E70108044B1B6853F82100034B1B6887
:102A300003EB4000704700BFF8190020F419002094
:102A40000220704700487047001A002010B5FFF7B9
:102A5000BFFE044C2060FFF7F9FE6060FFF77CFECC
:102A6000A06010BD001A0020704710B54FF4AE7181
:102A7000044617F074F8204610BD10B50446D0F88F
:102A8000580100F013F82046BDE8104008F0FABAEB
:102A900010B50446FFF712FC014B2360204610BD21
:102AA000C4BC0108002202607047000070B50F4EE0
:102AB0000446306803F02FFAB0B10D4D30680023A2
:102AC0001A46294603F0F8F970B92968231D51F810
:102AD000042B184617F028FD034620680268BDE85D
:102AE000704092681946104770BD00BF0C19002055
:102AF0000C1A00207047043870477047C06803689C
:102B0000DB6A1847A0F10400FFF7F8BF10B51021E9
:102B1000044617F024F8204610BDA0F10400F5E7A4
:102B200010B500228260044AC16002F10804243218
:102B30000460426010BD00BF08BD0108704700007E
:102B400010B5034B03600446FFF79DFC204610BD03
:102B500040BD010810B50446FFF7F2FF20464FF4D0
:102B60003A7116F0FCFF204610BD000010B5044677
:102B7000FFF710FD014B2360204610BD40BD01084A
:102B8000FFF782BC10B5012380F8D1304FF0FF323F
:102B90000023C0E935320446C0F8DC3040F20112AF
:102BA000E4300AF0E2FD04F19800BDE8104009F0BD
:102BB0002BBAF02070474FF4A07070472920FEF721
:102BC0007BBE2820FEF778BE08B5FEF749FECA2076
:102BD000FEF772FEC320FEF753FE0820FEF750FEFC
:102BE0005020FEF74DFECF20FEF766FE0020FEF7D8
:102BF00047FEC120FEF744FE3020FEF741FEED20E7
:102C0000FEF75AFE6420FEF73BFE0320FEF738FE77
:102C10001220FEF735FE8120FEF732FEE820FEF797
:102C20004BFE8520FEF72CFE0020FEF729FE7820C3
:102C3000FEF726FECB20FEF73FFE3920FEF720FEF2
:102C40002C20FEF71DFE0020FEF71AFE3420FEF7B2
:102C500017FE0220FEF714FEF720FEF72DFE2020BF
:102C6000FEF70EFEEA20FEF727FE0020FEF708FE24
:102C70000020FEF705FEB120FEF71EFE0020FEF745
:102C8000FFFD1B20FEF7FCFDB620FEF715FE0A2017
:102C9000FEF7F6FDA220FEF7F3FDC020FEF70CFEC6
:102CA0001020FEF7EDFDC120FEF706FE1020FEF716
:102CB000E7FDC520FEF700FE4520FEF7E1FD1520EB
:102CC000FEF7DEFDC720FEF7F7FD9020FEF7D8FDEA
:102CD0003620FEF7F1FDC820FEF7D2FDF220FEF708
:102CE000EBFD0020FEF7CCFDB020FEF7E5FDC22095
:102CF000FEF7C6FDB620FEF7DFFD0A20FEF7C0FD99
:102D0000A720FEF7BDFD2720FEF7BAFD0420FEF741
:102D1000B7FD2A20FEF7D0FD0020FEF7B1FD002010
:102D2000FEF7AEFD0020FEF7ABFDEF20FEF7A8FD9D
:102D30002B20FEF7C1FD0020FEF7A2FD0020FEF7CC
:102D40009FFD0120FEF79CFD3F20FEF799FDF62038
:102D5000FEF7B2FD0120FEF793FD0020FEF790FD87
:102D60000620FEF78DFD2C20FEF7A6FDC820FEF7FD
:102D7000F1FD2620FEF7A0FD0120FEF781FDE020F9
:102D8000FEF79AFD0F20FEF77BFD2920FEF778FD68
:102D90002420FEF775FD0C20FEF772FD0E20FEF7D5
:102DA0006FFD0920FEF76CFD4E20FEF769FD7820CF
:102DB000FEF766FD3C20FEF763FD0920FEF760FD8F
:102DC0001320FEF75DFD0520FEF75AFD1720FEF7E4
:102DD00057FD1120FEF754FD0020FEF751FDE120C4
:102DE000FEF76AFD0020FEF74BFD1620FEF748FDBA
:102DF0001B20FEF745FD0420FEF742FD1120FEF7E3
:102E00003FFD0720FEF73CFD3120FEF739FD332062
:102E1000FEF736FD4220FEF733FD0520FEF730FDBC
:102E20000C20FEF72DFD0A20FEF72AFD2820FEF7D4
:102E300027FD2F20FEF724FD0F20FEF721FD112096
:102E4000FEF73AFDC820FEF785FD2920FEF734FD88
:102E5000BDE808402C20FEF72FBD08B5FEF700FDA9
:102E60000321D320FEF744FD80B208BD10B5C4B2E3
:102E7000022203212046FEF7A9FC0A20FEF7EEFC01
:102E8000204600220321FEF7A1FCBDE810400220ED
:102E9000FEF7E4BC38B50446E4B2FEF795FC002129
:102EA0002046FEF7ABFC012105462046FEF7A6FCB6
:102EB00040EA052080B238BD10B5C4B2402120469A
:102EC000FEF79CFC030607D54C212046FEF796FC36
:102ED000003818BF012010BD01224B212046FEF70B
:102EE00075FC204600224B21FEF770FC0020F2E723
:102EF00073B50423C4B20E461546D7210DEB030269
:102F00002046FEF795FC019B1BBA1A0DC3F30B2359
:102F1000328020462B8001224B21FEF757FC0022F5
:102F20004B212046FEF752FC02B070BD10B50A4B93
:102F30001A78904204460DD0597888420AD00AB1D6
:102F400041B901229C54FEF73FFC2046BDE81040E9
:102F5000FFF78CBF10BD00BF101A002010B5C4B21F
:102F600009212046FEF74AFC40F00100C2B20921C7
:102F70002046BDE81040FEF729BC10B5C4B20921B7
:102F80002046FEF73BFC092100F0FE022046BDE88A
:102F90001040FEF71BBC38B5C4B20D4620460A21CE
:102FA000FEF72CFC2843C2B20A212046BDE8384077
:102FB000FEF70CBC07B50190FEF707FC01981F2136
:102FC000FFF7E9FF019803B05DF804EBFFF7C6BF18
:102FD00038B5C4B20D4620460A21FEF70FFC20EAA0
:102FE0000500C2B20A212046BDE83840FEF7EEBB1C
:102FF00010B50446FFF7C1FF20461F21BDE8104071
:10300000FFF7E6BF10B5C0B20C460B21FEF7F6FB8A
:10301000204010BD1F21FFF7F5BF0A46C0B20B21AB
:10302000FEF7D4BB1F21FFF7F8BF38B5C4B20D4679
:1030300020461721FEF7E2FB20EA0500C2B2172165
:103040002046BDE83840FEF7C1BB70B5C4B20646A5
:1030500004212046FEF7D2FB042100F0FB020546C6
:103060002046FEF7B3FB3046F021FFF7DEFF05F008
:10307000F80220460421FEF7A9FB49222021204620
:10308000FEF7A4FB0220FEF7E9FB204601222121E6
:10309000FEF79CFB20469A224121FEF797FB204633
:1030A00001224A21FEF792FB204601224B21FEF726
:1030B0008DFB204600224B21FEF788FB2046012293
:1030C0005621FEF783FB204601225821FEF77EFBA6
:1030D000204601224021FEF779FB2046FF220B21EA
:1030E000FEF774FBBDE870400220FEF7B7BB00009E
:1030F000054BD3F8882042F47002C3F888204FF0C3
:1031000000629A60704700BF00ED00E008B50B4B0D
:103110001A6842F400721A601A6842F480621A60F7
:103120001A6842F480721A60032000F02FF8002021
:10313000FEF7A6FEFEF71CFC002008BD003C024086
:10314000034A044B11681B780B441360704700BF9F
:10315000141A002078000020014B1868704700BF47
:10316000141A002038B50446FFF7F6FF631C1CBF95
:10317000054B1B78054618BFE418FFF7EDFF431B0E
:10318000A342FAD338BD00BF780000200749CA68BF
:1031900022F4E0620302120403F4E063120C13430E
:1031A00043F0BF6343F40033CB60704700ED00E0B1
:1031B000164B30B5DC68C4F30224C4F10705231DA7
:1031C000042D28BF0425062B4FF0FF338CBF033C92
:1031D000002403FA05F521EA0501A34022EA0302CF
:1031E000A140002841EA0203ACBF00F16040084A58
:1031F0004FEA0313B8BF00F00F00DBB2AABF00F51F
:103200006140135480F8003330BD00BF00ED00E092
:1032100014ED00E0002808DB4209012300F01F0044
:1032200003FA00F0014B43F82200704700E100E090
:1032300010B5044650B1437903F0FF0213B902718F
:10324000FEF7B6FB01236371002010BD0120FCE7EF
:1032500070B50446866DFFF77FFF94F83530022B7A
:10326000054606D080236365002384F834300120AE
:1032700070BD23681A6822F016021A605A6922F09B
:1032800080025A61226C0AB9A26C1AB11A6822F043
:1032900008021A601A6822F001021A6023681B688B
:1032A00013F001030AD1E16D3F228A40B26001228E
:1032B00084F8352084F834301846D9E7FFF74CFFFE
:1032C000401B0528EAD9202363650320002384F8E6
:1032D000350084F83430CBE790F83530022B03D03A
:1032E00080234365012070470268052380F835304C
:1032F000136823F0010313600020704710B50446E3
:1033000030B390F8393003F0FF021BB980F8382051
:10331000FEF766FB22686168022384F8393013687F
:1033200023F440330B431360536BA16823F007036E
:103330000B435363136CE16823F47F5323F03F0383
:103340000B43136400200123E06384F8393010BD7F
:103350000120FCE770477047036870B55E681D6820
:10336000F207044614D5E90512D51A6822F48072D2
:103370001A60C26B42F00102C26301229A60042308
:1033800080F83930002380F83830436903B198471A
:10339000B20616D5AB0414D523681A6822F400527D
:1033A0001A6020229A60E36B43F00203E363042374
:1033B00084F83930002384F8383063690BB1204633
:1033C0009847300716D5290514D523681A6822F4C2
:1033D00000621A6008229A60E36B43F00403E3631F
:1033E000042384F83930002384F8383063690BB142
:1033F0002046984772070BD56B0509D523681A68D4
:1034000022F480621A6004229A602046FFF7A2FF2D
:10341000B00714D5A90512D523681A6822F40072E2
:103420001A6002229A60E36BE363012384F8393067
:10343000002384F8383023690BB120469847F20600
:1034400013D5EB0411D523681A6822F480521A6050
:1034500010229A60E36BE363012384F83930002380
:1034600084F838302046FFF776FF70BDF0B590F84D
:103470003830012B4FF002032BD0012280F8393075
:1034800080F8382000EB0113D3E907425D6A184F3A
:1034900044EA0242093C012C9CBF05F07F431A43D9
:1034A0004FEA0116036888BF42EA056299B9596A72
:1034B00039400A435A62012C82699A6103D8426AF0
:1034C00022F07F429A62012380F83930002380F88D
:1034D00038301846F0BDD96939400A43DA6182199B
:1034E000012C92691A619CBF25F07F451D62EAE7B5
:1034F000F0FFFC002DE9F74FDFF8C0916D4A002383
:103500000D6801249C4004EA050CAC4340F0B980EE
:103510004D6805F003044FEA43080326671E06FAC8
:1035200008F6012F6FEA060634D8876807EA060E08
:10353000CF6807FA08F747EA0E078760476827EA67
:103540000C0EC5F300179F4047EA0E074760C76897
:1035500007EA060E8F6807FA08F747EA0E07022CFB
:10356000C76019D14FEAD30A00EB8A0A03F0070BB0
:10357000DAF820704FEA8B0B4FF00F0E0EFA0BFEAD
:1035800027EA0E0E0F6907FA0BF747EA0E07CAF88B
:10359000207001E0032CDAD1076804FA08F43E40F9
:1035A000264315F4403F06606BD04FF0000ACDF87B
:1035B00004A0D9F84460404C46F48046C9F8446001
:1035C000D9F8446006F480460196019E23F0030674
:1035D00006F1804606F59C3603F0030ED6F8088007
:1035E0004FEA8E0E0F2707FA0EF7A04228EA0707C8
:1035F0004ED004F58064A0424CD004F58064A04213
:103600004AD004F58064A04248D004F58064A0420A
:1036100046D004F58064A04244D004F58064A04202
:1036200042D004F58064A04240D004F58064A042FA
:103630003ED004F58064A0420CBF09240A2404FA99
:103640000EF43C43B46094686FEA0C06EF0254BF7A
:1036500034404CEA04049460D468AF0254BF344050
:103660004CEA0404D4605468AF0354BF34404CEABD
:10367000040454601468ED0354BF34404CEA04045D
:1036800014600133102B7FF43BAF03B0BDE8F08F23
:103690005446D4E70124D2E70224D0E70324CEE73E
:1036A0000424CCE70524CAE70624C8E70724C6E7B4
:1036B0000824C4E7003C01400000024000380240FA
:1036C0000369194214BF0120002070470AB18161CB
:1036D00070470904FBE7436901EA030221EA030199
:1036E00041EA02418161704701684B6913F48063CC
:1036F0004FF0000210D06FF480634B61202302630F
:1037000080F83D3080F83E20036C80F83C2043F088
:103710000403036401207047184670472DE9F846FA
:1037200006460F4691461D464FEA114A3368BAF1E4
:10373000010F0CBF5C699C6927EA0404A4B2B4FAC7
:1037400084F46409A14501D0002017E06A1CEED082
:10375000FFF702FD089BC01AA84201D8002DE5D151
:1037600000232022336386F83D2086F83E30326CF9
:1037700086F83C3042F0200232640120BDE8F88631
:103780002DE9F04104460F461646984625686869BB
:1037900027EA000080B2B8B16B695A0516D52B68CC
:1037A00043F400732B606FF480636B61202200236D
:1037B000236384F83D2084F83E30226C42F00402FA
:1037C000226484F83C300120BDE8F081731CDED017
:1037D000FFF7C2FCA0EB0800B04201D8002ED5D103
:1037E00000232022236384F83D2084F83E30226C9D
:1037F00042F02002E4E770B504460D461646216803
:103800004B6913F0400301D0002010E04A69D20652
:103810000ED56FF010024A612022236384F83D2008
:1038200084F83E30226C226484F83C30012070BD64
:10383000FFF792FC801BA84201D8002DDFD10023A6
:103840002022236384F83D2084F83E30226C42F02D
:103850002002E8E770B504460D46164623685B690A
:103860005B0701D5002070BD2046FFF73DFFA8B9DA
:103870006A1CF3D0FFF770FC801BA84201D8002D12
:10388000ECD100232022236384F83D2084F83E30CD
:10389000226C84F83C3042F0200222640120E2E7EE
:1038A00070B504460D46164623685B691B0601D5B4
:1038B000002070BD2046FFF717FFA8B96A1CF3D09F
:1038C000FFF74AFC801BA84201D8002DECD1002351
:1038D0002022236384F83D2084F83E30226C84F853
:1038E0003C3042F0200222640120E2E72DE9F0435F
:1038F0001546026885B0DDE90C789946136843F4F3
:10390000807313600E463B46CDF8008000224FF0D6
:1039100001110446FFF702FF236838B11B68DB057D
:1039200002D54FF40073236403200AE006F0FE067C
:103930001E61194943463A462046FFF721FF18B158
:10394000012005B0BDE8F083236803905A69039213
:103950009B690393424639462046039BFFF7A0FF2D
:1039600040B1236C042B01BF2268136843F4007339
:103970001360E5E7B9F1010F236802D1EDB21D61D3
:10398000DFE72A0A1A61394642462046FFF788FFD8
:103990000028E6D12368F1E7020001002DE9FF4786
:1039A0009A46036815461A6842F480621A601A68DB
:1039B000DDE90C7842F480721A600E463B46CDF881
:1039C000008000224FF001110446FFF7A7FE236894
:1039D00048B11B68DB0502D54FF400732364032054
:1039E00004B0BDE8F0875FFA86F906F0FE061E61B6
:1039F0002A4943463A462046FFF7C2FE08B1012055
:103A0000EEE7236803905A6903929B690393424649
:103A100039462046039BFFF743FF40B1236C042B3C
:103A200001BF2268136843F400731360E7E7BAF13B
:103A3000010F23681AD1EDB21D6142463946204676
:103A4000FFF72EFF0028E9D12268136843F4807342
:103A500013604FF001110246CDF800803B4620462E
:103A6000FFF75CFE226860B11368B3E72A0A1A61A7
:103A7000394642462046FFF713FF0028CED123687F
:103A8000D9E749F001031361044943463A46204609
:103A9000FFF776FE003818BF0120A1E70200010001
:103AA00070B5044608B9012070BD90F83D3003F0B0
:103AB000FF021BB980F83C20FDF7B4FF242384F8F3
:103AC0003D3023681A6822F001021A601A6842F435
:103AD00000421A601A6822F400421A6000F074FE74
:103AE0003F4B65689D4294BF3E4B3F4B98428CBF15
:103AF00000230123002BD6D12268394E53683B495D
:103B0000B0FBF1F123F03F030B43B542536088BF94
:103B10004FF49676136A88BF714323F03F0384BF46
:103B20004FF47A76B1FBF6F1013119431162D16994
:103B3000431E2B4821F44F41854221F0FF0132D82A
:103B40006D0040F6FC70B3FBF5F30133034242D045
:103B5000C3F30B030B43D361D4E90730116803436C
:103B600021F0C0010B4313609168D4E9030321F4F1
:103B70000341034321F0FF010B439360D4E9053077
:103B8000D168034321F0FF010B43D360136843F076
:103B90000103136000202023206484F83D3020635B
:103BA00084F83E0080E7A06850B905EB4505B3FBFB
:103BB000F5F30133C3F30B037BB143F40043C9E7CF
:103BC00019204543B3FBF5F30133C3F30B0323B1D2
:103BD00043F44043BEE70423BCE70123BAE700BF38
:103BE000A08601007F841E00FF083D0040420F00B8
:103BF0002DE9F743044699460C9E0F469046FFF781
:103C0000ABFA94F83D30202B054603D0022003B0D8
:103C1000BDE8F08300903C49192301222046FFF7BC
:103C20007DFD0028F2D194F83C30012BEED02068C5
:103C3000012384F83C300368D9075EBF036843F072
:103C400001030360036823F400630360212384F805
:103C50003D30402384F83E30002323640A9B636296
:103C6000BDF82C306385638D2385284BE362CDE955
:103C700000654B46424639462046FFF737FE00288E
:103C80002AD00120C3E7FFF70BFE40B1236C042BC1
:103C900001BF2268136843F400731360F1E7636A9D
:103CA00027681A4612F8011B39616262628D218D04
:103CB000013A92B262857A69481E80B25207208525
:103CC0000AD548B15A783A6102336362638D013B89
:103CD00002399BB221856385238D2A4631462046D1
:103CE000002BD0D1FFF7B6FD0028CFD12268136892
:103CF00043F400731360202384F83D3084F83C00C3
:103D000084F83E0083E700BF020010000000FFFFC0
:103D10002DE9F043044687B09946109F0D46904622
:103D2000FFF71AFA94F83D30202B064604D00225FE
:103D3000284607B0BDE8F083009076491923012298
:103D40002046FFF7EBFC0028F1D194F83C30012B22
:103D5000EDD02068012384F83C300368DB075EBFA8
:103D6000036843F001030360036823F40063036006
:103D7000222384F83D30402384F83E30002323641E
:103D80000E9B6362BDF83C306385638D2385624B77
:103D9000E3622946CDE900764B4642462046FFF7CE
:103DA000FDFD054608B10125C2E7228D2368B2B9A1
:103DB00002905A6902929A690292029A1A6842F42F
:103DC00000721A60DFF85481238D002B2CD1202241
:103DD00084F83D2084F83C3084F83E30A8E7012A7E
:103DE0000AD11A6822F480621A6003905A69039219
:103DF0009A690392039AE1E7022A0ED11A6822F423
:103E000080621A601A6842F400621A6004905A696B
:103E100004929B690493049BD4E705905A69059228
:103E20009B690593059BCDE7032B56D8012B15D134
:103E3000324639462046FFF7DEFC0028B3D123681E
:103E40001A69636A1A70636A01336362238D013BE6
:103E50002385638D013B9BB26385B5E7022B0096FA
:103E60003B464FF000024146204619D1FFF756FC71
:103E7000002898D123681A6842F400721A601A69FF
:103E8000636A1A70626A531C6362238D013B238547
:103E9000638D013B9BB2638523681B695370D2E736
:103EA000FFF73CFC00287FF47EAF23681A6822F4F9
:103EB00080621A601A69636A1A70636A0096013335
:103EC0006362238D013B2385638D013B9BB2638538
:103ED00002463B4641462046C8E732463946204620
:103EE000FFF789FC00287FF45EAF23681A69636AD4
:103EF0001A70626A531C6362238D013B2385638DB4
:103F0000013B9BB263852368596949077FF55CAF24
:103F1000C3E700BF020010000000FFFF0400010023
:103F200010B590F83D30202BDCB216D1242380F858
:103F30003D3003681A6822F001021A605A6A22F0C2
:103F400010025A625A6A114359621A6842F0010219
:103F50001A6080F83D40002010BD0220FCE730B51B
:103F600090F83D30202BDCB216D10268242380F873
:103F70003D30136823F001031360556A4FF6F07368
:103F80002B400B439BB25362136843F00103136051
:103F900080F83D40002030BD0220FCE70068D1F8E9
:103FA00000C0D201843283182DE9F043C6685D68F1
:103FB0004C68D1F8189005F470455D60C5680CF147
:103FC0000107C5F30B45C6F30B463D44264445EABD
:103FD00006455D60C568CE68C5F30A052E449D6838
:103FE00005F470459D60C7688D68C7F30A07013501
:103FF0003D4445EA06459D601D690E6925F00705AB
:104000001D614FF0000E1E619D6991F8327091F8AC
:104010003180C3F818E091F8305045EA096545EA67
:10402000082545EA07459D615D6925F0FF055D614D
:104030004D695D61DD6925F4E06525F00705DD6109
:10404000D1E907573D43DD619D6A4D6AC3F828E019
:104050009D621EB3012E23D0B51E022D22D9072E3C
:104060000CBF02250125DE6A06F0E026DE62A4EB25
:104070000C048E6AC96A6C436E43033444EA0644F6
:10408000DC621C6B24F4FF6424F007041C631963D6
:10409000835843F001038350BDE8F0830425E2E731
:1040A0000325E0E70225DEE738B50446002863D0A3
:1040B00090F8A13003F0FF021BB980F8A020FDF7B3
:1040C0000DFD022384F8A13023689A6922F0704222
:1040D0009A61D4E901200243E068996902432069AA
:1040E00002430A439A619A68244960690A409A60C7
:1040F0009A6842EA0042A06902439A60DA68E0697D
:104100000A40DA60DA6842EA0042206A0243DA6072
:104110001A69606A0A401A611A6942EA0042A06A92
:1041200002431A615A69114059615A69E16A42EAC7
:104130000142216B0A435A61D96A94F8360094F817
:10414000355001F07F41D962D96A94F834200A438E
:1041500042EA052242EA0042DA625A6B42F0060263
:104160005A639A6942F001029A6100200123C4F85F
:10417000A40084F8A13038BD0120FCE700F800F06D
:1041800070477047036870B59E6B5D6B720704469D
:1041900014D5690712D55A6B22F004025A6304221F
:1041A000DA63D0F8A43043F00103C0F8A430002350
:1041B00080F8A12080F8A030FFF7E2FFB20716D503
:1041C000AB0714D523685A6B22F002025A6302220D
:1041D000DA63D4F8A4301343C4F8A430042384F879
:1041E000A130002384F8A0302046FFF7C9FFF00774
:1041F00010D5E9070ED523685A6B22F001025A63E5
:104200000122DA63002384F8A12084F8A03020463C
:10421000FDF72AF8320711D52B070FD523685A6B03
:1042200022F008025A630822DA63012384F8A130DD
:10423000002384F8A0302046FFF7A3FF70BD2DE9CE
:10424000F04190F8A030012B06460F4694464FF0FF
:1042500002001FD04FF0010886F8A08086F8A10068
:1042600034240D4604FB02640FCD38340FC40FCD47
:104270000FC40FCD0FC42B68236030466246394609
:10428000FFF78CFE33680020C3F8248086F8A180F5
:1042900086F8A000BDE8F08190F8A030012B4FF027
:1042A000020312D080F8A13003685A6B22F0010299
:1042B0005A63074A11645A6B42F001025A630123A0
:1042C00080F8A130002380F8A0301846704700BF66
:1042D000006801402DE9F341044640B30368DD075F
:1042E00010D4236898075ED423681A0700F1A080D1
:1042F00023685B0700F1C080A069002840F0288196
:1043000000202BE08F4B9A6802F00C02042A07D0A1
:104310009A6802F00C02082A0BD15A68510208D59B
:10432000884B1B689A03DCD56368002BD9D1012028
:1043300014E06268B2F5803F13D11A6842F480320B
:104340001A60FEF709FF7F4E054633689B03C8D409
:10435000FEF702FF401B6428F7D9032002B0BDE836
:10436000F081784DB2F5A02F2B6807D143F480235C
:104370002B602B6843F480332B60E2E723F4803317
:104380002B602B6823F480232B60002AD9D1FEF701
:10439000E3FE06462B689F03A3D5FEF7DDFE801BD8
:1043A0006428F7D9D9E7674B9A6812F00C0F07D049
:1043B0009A6802F00C02082A11D15B685E020ED4E2
:1043C000604A13689D0702D5E368012BAFD11368DB
:1043D000216923F0F80343EAC103136084E7E2682C
:1043E000594BB2B101221A60FEF7B6FE554D064692
:1043F0002B68980707D52B68226923F0F80343EA56
:10440000C2032B6070E7FEF7A7FE801B0228EFD9DE
:10441000A3E71A60FEF7A0FE4A4E054633689907E7
:104420007FF562AFFEF798FE401B0228F6D994E7AD
:104430006269454B82B10122C3F8802EFEF78CFEE3
:10444000404E0546736F9F073FF552AFFEF784FE5F
:10445000401B0228F6D980E7C3F8802EFEF77CFEC9
:10446000384E0546736F98077FF542AFFEF774FE2E
:10447000401B0228F6D970E7324B1A6C12F08052BA
:1044800028D101921A6C42F080521A641B6C03F01E
:1044900080530193019B01272C4D2B68D9051BD517
:1044A000A368284D012B27D12B6F43F001032B6705
:1044B000FEF752FE234E054641F28838336F9B07C4
:1044C00039D5002F3FF418AF1E4A136C23F08053E8
:1044D000136411E70027DFE72B6843F480732B6038
:1044E000FEF73AFE06462B68DA05D9D4FEF734FE0D
:1044F000801B0228F7D930E7052B04D12B6F43F03E
:1045000004032B67D0E72A6F22F001022A672A6F83
:1045100022F004022A67002BCAD1FEF71DFE41F2E9
:10452000883806462B6F9807CBD5FEF715FE801B03
:104530004045F7D911E7FEF70FFE401B4045BDD9B6
:104540000BE700BF00380240000047420070004007
:10455000364DAB6803F00C03082B3DD0344B0022E2
:1045600002281A662BD1FEF7F7FD06462B68990143
:104570001FD4D4E907321343626A43EA8213E26A22
:1045800043EA0263A26A5208013A43EA02436B60BB
:10459000274B264D01221A66FEF7DEFD04462B68E6
:1045A0009A013FF5ADAEFEF7D7FD001B0228F6D904
:1045B000D3E6FEF7D1FD801B0228D7D9CDE6FEF762
:1045C000CBFD04462B689B017FF59AAEFEF7C4FD38
:1045D000001B0228F6D9C0E601283FF4BFAE6B6885
:1045E000E26903F4800191427FF4A1AE216A03F0F5
:1045F0003F028A427FF49BAE616A47F6C0721A405E
:10460000B2EB811F7FF493AEA26A520803F44031EB
:10461000013AB1EB024F7FF48AAEE26A03F07063B5
:10462000B3EB026F3FF46CAE81E600BF003802408E
:1046300000004742134908B58B6803F00C03042BB4
:104640001CD0082B1CD14A684B68496813F48003BE
:1046500014BF0D480D48C1F3881118BF002302F0A4
:104660003F02A1FB0001FBF713FE064B5B68C3F39F
:10467000014301335B00B0FBF3F008BD0248FCE7E7
:104680000248FAE70038024000127A000024F400E1
:104690002DE9F0410D46044610B90120BDE8F08136
:1046A000444B1A6802F00F028A4228D32268970707
:1046B0002DD4D00741D43F4B1A6802F00F02AA4212
:1046C00066D8226851076CD4130707D53A4A216986
:1046D000936823F4604343EAC1039360FFF7AAFFA2
:1046E000354B364A9B68C3F30313D35CD840344B35
:1046F0001860344B1868FDF7C3FB0020CEE7CAB240
:104700001A701B6803F00F038B42C6D1CEE72A4B09
:1047100012F0040F1EBF996841F4E051996016072A
:1047200042BF996841F4604199602349A0688B6851
:1047300023F0F00303438B60BBE762681E4B012A42
:104740001CD11B6813F4003FA7D01B4EB36823F0A5
:1047500003031343B360FEF7FFFC41F288380746BA
:10476000B368626803F00C03B3EB820FA3D0FEF7CB
:10477000F3FCC01B4045F3D903208FE7911E0129AC
:104780001B6802D813F0007FDEE713F0020FDBE7AF
:10479000EAB21A701B6803F00F03AB427FF47DAFDF
:1047A0008FE70549E0688B6823F4E05303438B608F
:1047B0008AE700BF003C02400038024070BD01089B
:1047C000740000207C000020044B054A9B68C3F362
:1047D0008223D35C034A1068D840704700380240F7
:1047E00080BD010874000020044B054A9B68C3F398
:1047F0004233D35C034A1068D84070470038024007
:1048000080BD0108740000200F2303600B4B9A68E1
:1048100002F0030242609A6802F0F00282609A6835
:1048200002F4E052C2609B68DB0803F4E0530361CA
:10483000034B1B6803F00F030B6070470038024006
:10484000003C0240036813F0430FF7B5044640F004
:104850008C80236813F00C0F45D08B4B8B4D0022BE
:104860001A67FEF779FC06462B689F0000F1CF809F
:1048700021684E0715D5D4E90403D5F888201B0616
:1048800002F0E04243EA80131343C5F88830D5F8BC
:104890008C30226A23F4F853013A43EA0223C5F824
:1048A0008C300D0714D5794AA369D2F88810206995
:1048B0001B0701F0706143EA80130B43C2F8883094
:1048C000D2F88C30616A23F440330B43C2F88C3049
:1048D0006D4B6E4E01221A67FEF73EFC05463368AB
:1048E000980040F19B8023689B0633D500230193F9
:1048F000664B674D1A6C42F080521A641B6C03F0D1
:1049000080530193019B2B6843F480732B60FEF767
:1049100023FC06462B68D90540F187805B4D2B6F41
:1049200013F4407340F08880A36A03F44072B2F538
:10493000407F564A40F0A480916823F0704021F4F3
:10494000F81120F4407001439160116FC3F30B0321
:104950000B431367206810F010001FBF4D4B94F8F5
:104960002C20C3F8E02100204FE0474B474E0022A7
:104970009A66FEF7F1FB054633681F013FD42168B4
:10498000CD0741BFD4E901231B0743EA8213C6F8D0
:104990008430880715D53D4AE368D2F884006568FD
:1049A0001B0600F0E04043EA85130343C2F884305D
:1049B000D2F88C00E36920F01F00013B0343C2F8EA
:1049C0008C3049060AD5E36862681B0643EA821305
:1049D000A26843EA02732D4AC2F884302A4B2B4E58
:1049E00001229A66FEF7B8FB054633681A013FF5C7
:1049F00030AFFEF7B1FB401B0228F6D904E0FEF70A
:104A0000ABFB401B0228B7D9032003B0F0BDFEF773
:104A1000A3FB801B02287FF627AFF5E7FEF79CFB80
:104A2000401B02287FF65BAFEEE7FEF795FB801B8D
:104A300002287FF66FAFE7E7A26A02F44072934262
:104A40003FF472AF2B6F104A0121C2F8401E23F4CD
:104A500040730021C2F8401E2B672B6FDA077FF5E9
:104A600063AFFEF779FB41F2883706462B6F9B0751
:104A70003FF55AAFFEF770FB801BB842F6D9C3E78B
:104A8000916821F4F8115FE70000474200380240C6
:104A9000007000400010474238B50D460446C8B1CA
:104AA00090F82C3003F0FF021BB980F82D20FDF7A1
:104AB0007BF9022384F82C30211D206800F0BCFF14
:104AC00062682068294600F0F2FF012384F82C3048
:104AD000002038BD0120FCE770B590F82C30022B87
:104AE00005460E46D8B212D000F0FB04012C0FD1BF
:104AF000022385F82C30286801F00FF83368022B68
:104B000006BF052385F82C3085F82C40002070BDA9
:104B10000120FCE738B590F82C30022B0446D8B2BF
:104B20000DD094F82C30012BDDB209D1022320687E
:104B300084F82C3001F017F884F82C50002038BD90
:104B40000120FCE72DE9F3411D461746884606463D
:104B5000FEF702FB3D442C1AFEF7FEFA224B1B68BF
:104B6000C3F3CB330546634332680193936838EA55
:104B7000030301D000202DE07B1CF7D0FEF7ECFAF8
:104B8000401BA04229D333685A6822F0E0025A60E1
:104B90007268B2F5827F0AD1B268B2F5004F02D0D6
:104BA000B2F5806F03D11A6822F040021A60B26A2F
:104BB000B2F5005F07D11A6822F400521A601A6831
:104BC00042F400521A60012386F85130002386F81F
:104BD0005030032002B0BDE8F081019B002B019B07
:104BE00008BF0024013BBFE77400002038B513461E
:104BF0004268B2F5827F04461FD18268B2F5004F49
:104C000002D0B2F5806F07D125682868B2F5806FB1
:104C100020F04000286007D00A4680212046FFF798
:104C200091FF20B9002038BD0A460121F6E7636DE7
:104C300043F0200363650320F5E70A460121EEE710
:104C400037B51346124A1568124AB5FBF2F54FF410
:104C50007A72554342680195B2F5827F04460BD1C2
:104C60000A468021FFF76EFF78B1636D43F02003A1
:104C70006365032003B030BD019B33B1019B013B51
:104C8000019323689B681B06F6D40020F2E700BF5F
:104C90007400002000366E0110B50446002855D07F
:104CA000436A002B4ED14268B2F5827F00D0C361C7
:104CB0000023A36294F8513003F0FF0223B984F873
:104CC00050202046FCF7E6FF2168A068A269022375
:104CD00084F851300B6823F040030B60636800F4E4
:104CE000044003F482730343E06800F4006003436C
:104CF000206900F002000343606900F001000343F3
:104D000002F400700343E06900F038000343206AB6
:104D100000F080000343A06A00F4005003430B60DE
:104D2000636A120C03F0100302F004021A434A6093
:104D3000CB6923F40063CB6100200123606584F814
:104D4000513010BD0023C0E90433B1E70120F8E77A
:104D50002DE9F3411E4690F85030012B04460D46D4
:104D6000174600F0A180012380F85030FEF7F4F9D7
:104D700094F85130012B8046D8B240F09380002D3A
:104D80005ED0002F5CD0A2682563032384F85130E5
:104D9000B2F5004F4FF000036365C4E91033E786B6
:104DA000A363A387E387A786236807D11A6822F045
:104DB00040021A601A6842F480421A601A68E16878
:104DC00052065EBF1A6842F040021A60B1F5006FE9
:104DD000626841D10AB1012F07D135F8022BDA60A0
:104DE0002563E38E013B9BB2E386E38E9BB2A3B9BE
:104DF000424631462046FFF723FF00284FD1A368E3
:104E000033B901932368DA6801929B680193019B8F
:104E1000606D003818BF012012E02268936898077F
:104E200005D5236B33F8021BD1602363D9E7FEF766
:104E300093F9A0EB0800B0420BD3711CD5D003202E
:104E4000012384F85130002384F8503002B0BDE8CB
:104E5000F081002EC9D1F2E70AB1012F08D12A78DA
:104E60001A73236B01332363E38E013B9BB2E3860A
:104E7000E38E9BB2002BBBD023689A68920702D5C1
:104E8000226B1278ECE7FEF767F9A0EB0800B0425E
:104E900002D3731CECD0D2E7002EE9D1CFE7202358
:104EA0006365ACE70220CBE70220CFE72DE9F743AB
:104EB0001E4690F850300A9F012B04460D4691463D
:104EC00000F0E680012380F85030FEF745F994F8B1
:104ED00051306268012B8046D9B20AD0B2F5827F88
:104EE00040F0D480A368002B40F0D080042940F02B
:104EF000CD80002D40D0B9F1000F3DD0002E3BD029
:104F000094F85130C4F83890042B1CBF052384F862
:104F1000513000236365C4E910332368E687E686D1
:104F20001968A687490658BF1968256358BF41F01C
:104F30004001A68658BF1960E168B1F5006F52D1F3
:104F40000AB1012E07D135F8022BDA60E38E256312
:104F5000013B9BB2E3860125E38E9BB273B9E38FDD
:104F60009BB25BB9424639462046FFF769FE0028EE
:104F700000F081802023636501202BE021688B688D
:104F80009E070DD5E38E9BB253B14DB1236B33F821
:104F9000022BCA602363E38E013B9BB2E3860025AC
:104FA0008A6812F001020CD0E38F9BB24BB1A36B65
:104FB000C96823F8021BA363E38F013B9BB2E3871D
:104FC0001546FEF7C9F8A0EB0800B842C4D3781C18
:104FD000C2D00320012384F85130002384F85030DC
:104FE00003B0BDE8F0830AB1012E08D12A781A7304
:104FF000236B01332363E38E013B9BB2E3860125E0
:105000002DE02268936899070ED5E38E9BB25BB1C1
:1050100055B1236B1B781373236B01332363E38E2A
:10502000013B9BB2E38600252268916811F00101E3
:105030000DD0E38F9BB253B1A36BD2681A70A36BF0
:105040000133A363E38F013B9BB2E3870D46FEF779
:1050500083F8A0EB0800B8420AD37B1CB9D1E38ED9
:105060009BB2002BCDD1E38F9BB2002BC9D179E746
:10507000002FF4D1ADE7A368002BABD123680190DA
:10508000DA6801929B680193019BA3E70220A1E7E4
:105090000220A5E72DE9F7431D464368B3F5827F5B
:1050A0000446894617460CD1836853B9042380F817
:1050B0005130134600950A46FFF7F8FE03B0BDE8ED
:1050C000F08394F85030012B00F08680012384F89F
:1050D0005030FEF741F894F85130012B8046D8B299
:1050E00078D1B9F1000F5CD0002F5AD0A268C4F873
:1050F000389000260423B2F5004F84F85130C4E9FB
:10510000106666652368E787A7872663A686E68616
:1051100007D11A6822F040021A601A6822F480420D
:105120001A601A6856065EBF1A6842F040021A609A
:10513000E368F3B1E38F9BB2FBB123689A68D207AF
:1051400039D5DA68A36B23F8022BA363E38F013B05
:105150009BB2E387EEE723689A68D00718D5A26B65
:105160001B7B1370A36B0133A363E38F013B9BB2E3
:10517000E387E38F9BB2002BEDD1424629462046C0
:10518000FFF734FD18BB606D003818BF012008E040
:10519000FDF7E2FFA0EB0800A84209D3691CE8D0A4
:1051A0000320012384F85130002384F8503085E730
:1051B000002DDED1F4E7FDF7CFFFA0EB0800A842F9
:1051C00002D36B1CB6D0EBE7002DB3D1E8E7202368
:1051D0006365D8E70220E4E702206FE7704700002C
:1051E00090F83D30012B30D1022380F83D30036828
:1051F000DA6842F00102DA60154A93421AD0B3F13C
:10520000804F17D0A2F57C42934213D002F5806202
:1052100093420FD002F5806293420BD002F57842A0
:10522000934207D002F57052934203D0A2F5943214
:10523000934204D19A6802F00702062A03D01A6842
:1052400042F001021A60002070470120704700BF41
:1052500000000140704770477047704703681A6943
:10526000910710B504460ED5DA6892070BD56FF09A
:1052700002021A61012202779B699B0777D0FFF730
:10528000EAFF0023237723681A69500710D5DA68EC
:1052900051070DD56FF004021A61022222779B6933
:1052A00013F4407F204668D0FFF7D5FF0023237713
:1052B00023681A6912070FD5DA6810070CD56FF04A
:1052C00008021A6104222277DB69990720465AD026
:1052D000FFF7C1FF0023237723681A69D20610D590
:1052E000DA68D0060DD56FF010021A610822227715
:1052F000DB6913F4407F20464BD0FFF7ACFF00235F
:10530000237723681A69D10708D5DA68D20705D54B
:105310006FF001021A612046FCF71EFB23681A6930
:10532000100608D5DA68110605D56FF080021A61FB
:10533000204600F0C8F823681A69520608D5DA68D2
:10534000500605D56FF040021A612046FFF785FF31
:1053500023681A69910622D5DA6892061FD56FF084
:10536000200220461A61BDE8104000F0ABB8FFF7FC
:1053700071FF2046FFF770FF83E7FFF76BFF2046C2
:10538000FFF76AFF92E7FFF765FF2046FFF764FF2C
:10539000A0E7FFF75FFF2046FFF75EFFAFE710BD16
:1053A000304A0368904212D0B0F1804F0FD0A2F57E
:1053B0007C4290420BD002F58062904207D002F509
:1053C0008062904203D002F57842904219D14A6837
:1053D00023F070031343234A904229D0B0F1804F49
:1053E00026D0A2F57C42904222D002F58062904203
:1053F0001ED002F5806290421AD002F578429042A7
:1054000016D0194A904213D002F5806290420FD014
:1054100002F5806290420BD0A2F59832904207D0FC
:1054200002F58062904203D002F58062904203D17F
:10543000CA6823F4407313434A6923F0800313437B
:1054400003608B68C3620B688362064B984203D08B
:1054500003F58063984201D10B6903630123436123
:10546000704700BF000001400040014010B50446F5
:1054700030B390F83D3003F0FF021BB980F83C20B8
:10548000FFF7ACFE0223206884F83D30211DFFF7B2
:1054900087FF012384F84630002084F83E3084F8EA
:1054A0003F3084F8403084F8413084F8423084F84A
:1054B000433084F8443084F8453084F83D3010BDE2
:1054C0000120FCE770477047026802F10C0353E8C3
:1054D000003F23F490730C3242E800310268002947
:1054E000F2D102F1140353E8003F23F0010302F16B
:1054F000140C4CE800310029F3D1036B012B0BD1C4
:1055000002F10C0353E8003F23F0100302F10C0CEE
:105510004CE800310029F3D1202380F83E300023ED
:10552000036370470268C168136923F440530B4357
:1055300070B51361054683680069D16803436869E3
:105540000343E86921F4164121F00C0103430B43A6
:10555000D3605369A96923F440730B4353611F4B14
:105560009A4203D003F580639A4223D1FFF73CF9B6
:10557000EB691921B3F5004FD5E90046A0FB010105
:105580001BD1B2194FF000035B41FAF781FE642191
:10559000B0FBF1F501FB1503DB003233B3FBF1F394
:1055A00003F007025B0002EB051203F4F8731344E7
:1055B000A36070BDFFF708F9DAE7B200B30FFAF79E
:1055C00067FE6422B0FBF2F102FB11031B013233D0
:1055D000B3FBF2F303EB0113EAE700BF0010014055
:1055E00010B5044640B390F83D3003F0FF021BB9FC
:1055F00080F83C20FCF784FB2268242384F83D30AB
:10560000D36823F40053D3602046FFF78BFF236851
:105610001A6922F490421A615A6922F02A025A61E8
:10562000DA6842F40052DA6000202023206484F813
:105630003D3084F83E3010BD0120FCE770477047D4
:10564000704708B5806B0023C385C384FFF7F8FF5C
:1056500008BD07B58168836A0268B1F5805F3ED1F5
:10566000016900293ED15268C2F3080223F8022BD7
:105670008362C38D013B9BB2C385002B2CD1026892
:10568000D16821F02001D160D16821F48071D1600E
:10569000516921F001015161202280F83E20026B06
:1056A000012A026828D1036302F10C0353E8003F8A
:1056B00023F0100302F10C0C4CE800310029F3D167
:1056C0001368DB0605D501911368019353680193B4
:1056D000019B818DFBF71CFE03B05DF804FB39B91B
:1056E000016929B95268D2B21A70836A0133BFE7DF
:1056F000526802F07F02F7E7FFF7A1FFECE7000036
:10570000036837B51A68D9685D6912F00F0F04464F
:105710000CD1950670D58D066ED590F83E30222BB3
:1057200064D103B0BDE83040FFF793BF05F001003E
:1057300001F4907505435FD0D50705D5CB0542BF71
:10574000236C43F001032364550704D518B1236C7F
:1057500043F002032364930704D518B1236C43F08C
:1057600004032364150707D501F0200303431EBF7C
:10577000236C43F008032364236C002B36D090067F
:1057800008D58A0606D594F83E30222B02D1204651
:10579000FFF75FFF23685B69256C03F0400305F0AA
:1057A00008051D43204623D0FFF78EFE226853696B
:1057B0005B0618D502F1140353E8003F23F04003C1
:1057C00002F1140040E800310029F3D1A06B50B180
:1057D000724B0365FDF780FD40B1A06B036D03B014
:1057E000BDE8304018472046FFF72AFF03B030BD20
:1057F000FFF726FF2564F9E7206B012840F0918030
:10580000D50640F18E80C80640F18B8000220192BF
:105810001A6801925A680192019A5A6955064CD544
:10582000A16B0A68526892B2002ADFD0A08D904224
:10583000DCD9E285CA69B2F5807F36D003F10C026B
:1058400052E8002F22F4807203F10C0040E800219E
:105850000029F3D103F1140252E8002F22F00102D3
:1058600003F1140040E800210029F3D103F11402F0
:1058700052E8002F22F0400203F1140040E800211A
:105880000029F3D1202284F83E20216303F10C0289
:1058900052E8002F22F0100203F10C0040E8002132
:1058A0000029F3D1A06BFDF7D3FCE38DA18DC91ABC
:1058B00089B22046FBF72CFD98E7E18D8AB2E18D95
:1058C00089B2002992D0A18D891A89B200298DD080
:1058D00003F10C0252E8002F22F4907203F10C0540
:1058E00045E800200028F3D103F1140252E8002F0C
:1058F00022F0010203F1140545E800200028F3D14D
:10590000202284F83E20206303F10C0252E8002F8D
:1059100022F0100203F10C0545E800200028F3D125
:10592000C7E7100628D50D0626D594F83D20212A74
:105930007FF45CAFA168226AB1F5805F17D121695D
:10594000A9B932F8021BC1F3080159602262E28C46
:10595000013A92B2E284002A7FF448AFDA6822F07A
:105960008002DA60DA6842F04002DA603EE7511CF9
:10597000216212785A60EAE750067FF537AF4A068F
:105980007FF534AFDA6822F04002DA60202384F831
:105990003D302046FFF752FE28E700BF435600087F
:1059A000C285002382852222036480F83E2002699A
:1059B00080F83C30816203681AB1DA6842F4807280
:1059C000DA605A6942F001025A61DA6842F0200254
:1059D000DA600020704773B590F83E60202E0446D0
:1059E00028D111B9012002B070BD002AFAD090F878
:1059F0003C30012B1ED0012380F83C300363FFF7BD
:105A0000CFFF0028EFD1236B012BEBD1226801904F
:105A10001368019353680193019B02F10C0353E84F
:105A2000003F43F0100302F10C0444E80031002968
:105A3000F3D1D8E70220D6E72DE9F043D1E90743B7
:105A40000A68D1F82490D1E90158D1E903ECD1E9F1
:105A500005762343A2B943EA09022A4342EA08032E
:105A6000016843EA0E0343EA0C033B4321F4FF4180
:105A7000334321F07F010B4303600020BDE8F08336
:105A8000026843EA090322F4F8421343036045EA3B
:105A90000803426843EA0E0343EA0C033B4322F443
:105AA000FF42334322F07F0213434360E5E7CB68B4
:105AB00003F1FF3C4B69F0B50F684C688E680D69C7
:105AC0008969013B1B05013C013E013D0139013F54
:105AD000240136022D04090643EA0C335AB93B432C
