:020000040800F2
:100000000000032095050008651E0008671E000813
:10001000691E00086B1E00086D1E0008000000002D
:10002000000000000000000000000000A1650008C2
:100030006F1E00080000000031660008BB5E00086B
:10004000E5050008E5050008E5050008E5050008E8
:10005000E5050008E5050008E5050008E5050008D8
:10006000E5050008E5050008E5050008E5050008C8
:10007000E5050008E5050008E5050008E5050008B8
:10008000E5050008E5050008E5050008E5050008A8
:10009000E5050008E5050008E5050008E505000898
:1000A000E5050008E5050008E5050008E505000888
:1000B000E5050008E5050008E5050008E505000878
:1000C000E5050008E5050008E5050008E505000868
:1000D000E5050008E5050008E5050008E505000858
:1000E000E5050008E5050008E5050008E505000848
:1000F000E5050008E5050008E5050008E505000838
:10010000E5050008E5050008E5050008E505000827
:10011000E5050008E5050008711E0008E505000872
:10012000E5050008E5050008E5050008E505000807
:10013000E5050008E5050008E5050008E5050008F7
:10014000E5050008E5050008E5050008E5050008E7
:10015000E5050008E5050008E5050008E5050008D7
:10016000E5050008E5050008E5050008E5050008C7
:10017000E5050008E5050008E505000800000000A9
:10018000E5050008E5050008E5050008E5050008A7
:10019000E5050008E5050008E5050008E505000897
:0C01A0007D1E0008E5050008891E00080F
:1001B00010B5054C237833B9044B13B10448AFF3A1
:1001C00000800123237010BD6401002000000000A6
:1001D0003CB9010808B5034B1BB103490348AFF311
:1001E000008008BD00000000680100203CB9010843
:1001F00001F0FF01102A2BDB10F0070F08D010F8D8
:10020000013B013A8B422DD010F0070F42B3F6D1DB
:10021000F0B441EA012141EA014122F007047FF0F4
:1002200000070023F0E80256083C85EA010586EA4B
:10023000010685FA47F5A3FA87F586FA47F6A5FA87
:1002400087F68EB9EED1F0BC01F0FF0102F0070293
:1002500032B110F8013B013A83EA010313B1F8D13E
:100260000020704701387047002D06BF354603381F
:10027000073815F0010F07D1013015F4807F02BF58
:10028000013015F4C03F0130F0BC0138704700BFA9
:1002900053B94AB9002908BF00281CBF4FF0FF31ED
:1002A0004FF0FF3000F074B9ADF1080C6DE904CEE9
:1002B00000F006F8DDF804E0DDE9022304B0704741
:1002C0002DE9F047089D04468E46002B4DD18A4209
:1002D000944669D9B2FA82F252B101FA02F3C2F13C
:1002E000200120FA01F10CFA02FC41EA030E9440CD
:1002F0004FEA1C48210CBEFBF8F61FFA8CF708FBEE
:1003000016E341EA034306FB07F199420AD91CEBC5
:10031000030306F1FF3080F01F81994240F21C81F7
:10032000023E63445B1AA4B2B3FBF8F008FB10333F
:1003300044EA034400FB07F7A7420AD91CEB040474
:1003400000F1FF3380F00A81A74240F20781644444
:10035000023840EA0640E41B00261DB1D4400023C9
:10036000C5E900433146BDE8F0878B4209D9002D2D
:1003700000F0EF800026C5E9000130463146BDE8B7
:10038000F087B3FA83F6002E4AD18B4202D3824221
:1003900000F2F980841A61EB030301209E46002DD0
:1003A000E0D0C5E9004EDDE702B9FFDEB2FA82F225
:1003B000002A40F09280A1EB0C014FEA1C471FFA83
:1003C0008CFE0126200CB1FBF7F307FB131140EA6A
:1003D00001410EFB03F0884208D91CEB010103F137
:1003E000FF3802D2884200F2CB804346091AA4B2F9
:1003F000B1FBF7F007FB101144EA01440EFB00FECD
:10040000A64508D91CEB040400F1FF3102D2A64531
:1004100000F2BB800846A4EB0E0440EA03409CE7D0
:10042000C6F12007B34022FA07FC4CEA030C20FA7D
:1004300007F401FA06F31C43F9404FEA1C4900FA9D
:1004400006F3B1FBF9F8200C1FFA8CFE09FB18111A
:1004500040EA014108FB0EF0884202FA06F20BD98D
:100460001CEB010108F1FF3A80F08880884240F2DD
:100470008580A8F102086144091AA4B2B1FBF9F021
:1004800009FB101144EA014100FB0EFE8E4508D91C
:100490001CEB010100F1FF346CD28E456AD90238A1
:1004A000614440EA0840A0FB0294A1EB0E01A14286
:1004B000C846A64656D353D05DB1B3EB080261EBF4
:1004C0000E0101FA07F722FA06F3F1401F43C5E9CE
:1004D000007100263146BDE8F087C2F12003D84004
:1004E0000CFA02FC21FA03F3914001434FEA1C4746
:1004F0001FFA8CFEB3FBF7F007FB10360B0C43EA38
:10050000064300FB0EF69E4204FA02F408D91CEBE7
:10051000030300F1FF382FD29E422DD902386344E5
:100520009B1B89B2B3FBF7F607FB163341EA034185
:1005300006FB0EF38B4208D91CEB010106F1FF38D4
:1005400016D28B4214D9023E6144C91A46EA0046CB
:1005500038E72E46284605E70646E3E61846F8E65D
:100560004B45A9D2B9EB020864EB0C0E0138A3E7A6
:100570004646EAE7204694E74046D1E7D0467BE787
:10058000023B614432E7304609E76444023842E7FF
:10059000704700BFDFF834D0002103E00C4B5B58FC
:1005A000435004310B480C4B42189A42F6D30B4A85
:1005B00002E0002342F8043B094B9A42F9D303F0CE
:1005C000C7F81AF055F900F0E3FE70470000032069
:1005D00084AE0A08000000206401002064010020AD
:1005E000F8260120FEE7704708B500F01BFDBDE8C6
:1005F000084000F0A7BC00F017BD704710B50421FB
:1006000004461AF0BDF8204610BD000038B50C4B6A
:100610000C4C18800C4B822019806368984740F678
:10062000110398420AD1094D23682C608220984713
:100630002B688220DB689847002038BD0120FCE74A
:10064000800100204C000020820100208401002055
:100650004FF4A071F020FFF7D9BF0000F7B52D4D82
:100660002B6804461B698220984780B220800028AE
:1006700043D02B680DF106025B6901A982209847DF
:10068000BDF80620A2F5B47292B20A2A37D90B231C
:10069000B2FBF3F2204B1B889A4201D9013B9AB27C
:1006A000BDF8043040F6B8318B422AD8C3F57163E7
:1006B0000E339BB20F21B3FBF1F3184909888B422B
:1006C00001D94B1E9BB2164E164D30682F688342DF
:1006D00081B28CBF591AC91AB8B2BA428CBF101A6B
:1006E000801A89B280B201440529C8BF33603368DB
:1006F000C8BF2A6063802B68A38003B0F0BD0022CE
:10070000CEE7C3F56D6308339BB20E2BD2D800231E
:10071000D9E700BF84010020820100208001002071
:10072000880100208C01002037B568460D4614462C
:10073000FFF794FFBDF8000030B1BDF802302B6028
:10074000BDF804302360012003B030BD032821D858
:10075000DFE800F0020B12190F4B1A68B2FA82F2AE
:10076000520904210D4803F08BBA0B4B5A68B2FAB8
:1007700082F252090821F5E7074B9A68B2FA82F231
:1007800052091021EEE7044BDA68B2FA82F25209FC
:100790002021E7E7704700BF9001002000100240D1
:1007A000032821D8DFE800F0020B12190F4B1A685A
:1007B000003A18BF012204210D4803F061BA0B4B27
:1007C0005A68003A18BF01220821F5E7074B9A68DA
:1007D000003A18BF01221021EEE7044BDA68003A14
:1007E00018BF01222021E7E7704700BF90010020D9
:1007F0000010024003280DD8DFE800F00206080AC6
:100800000421054803F041BA0821FAE71021F8E76E
:100810002021F6E7704700BF0010024008B503280A
:1008200011D8DFE800F0020A0C0E0421074803F09B
:1008300021FA431E5842584108BD0821F6E710210D
:10084000F4E72021F2E70020F3E700BF00100240A8
:1008500070B5084D00240126E0B2FFF7DFFF18B1A4
:100860002B68012B18BF2E600134052C05F10405FF
:10087000F2D170BD90010020012380F8741080F83F
:100880007530704700207047034B4164003918BF32
:1008900001211970704700BF5324012000207047C8
:1008A000836B0BB10846184770474FF6FF707047CF
:1008B000406803689B69184770477047704700009D
:1008C00070B5044600F07EFC2368D3F88850044BD2
:1008D000D4E90F122046AC46BDE87040604700BF27
:1008E000000000D008B503680446D3F8803098476C
:1008F000236820469B6F984700F0ECF82368204659
:100900001B6F9847292000F0ABFF00F0E3F8236845
:1009100020461B6F9847F8E710B5044608F062FEC2
:1009200023682046D3F8AC30BDE81040184700F0EB
:100930003BBC00F03FBC00F06BBC00F011BC00F011
:1009400073BC00F07BBC00F015BC08F0B1B810B56A
:100950007C21044619F014FF204610BD90F8773032
:100960001BB1406803681B681847184670470000B1
:1009700010B590F8341090F874400C4B8C421A78F3
:1009800009D03AB90A4A0B491488088810800C80AB
:1009900001221A7010BD002AFCD0054A05491488AE
:1009A000088810800C800022F3E700BF4C2401204F
:1009B000482401204A24012070B50D46194635B956
:1009C000094B0A4A0A4840F2D22119F007FFC0E950
:1009D0000F52084B003A18BF01221A700368BDE895
:1009E0007040D3F88C301847ACB90108E4B901085D
:1009F00032BA01085224012008B5094B1B888B42EA
:100A000003D8084B1B88934205D9074B074A08486F
:100A10009E2119F0E3FE074B1980074B1A8008BD91
:100A2000482401204A24012077BA0108DABA0108D3
:100A300032BA01084E24012050240120012108B5BA
:100A40000022084605F0C7FA0A4B186028B90A4B7D
:100A50000A4A28210A4819F0C1FE00220421012077
:100A600005F056FB074B186018B9074B034A2C21B9
:100A7000F0E708BDA4010020F8BB010841BC010853
:100A800070BC0108A0010020E9BC0108024B4FF036
:100A9000FF31186805F0E9BAA4010020014B18687D
:100AA00005F00EBBA4010020024B0021186805F0E0
:100AB000DCBA00BFA4010020FFF7F0BF03480449DF
:100AC000006800231A4605F05EBB00BFA0010020AD
:100AD0000400002013B5084C00231A4601A9206821
:100AE00005F081FB20684FF0FF33002201A905F0DB
:100AF0007AFB02B010BD00BFA001002003685B6C50
:100B000018470120704703689B6A184782B000238A
:100B100001930D4B1A6B42F400021A631A6B02F434
:100B200000020192019A1A6942F400021A611A69DC
:100B300022F400021A61054B054A1A61054B4FF079
:100B400080629A6002B070470038024008140020AA
:100B5000990B000800E100E040F2EF307047000020
:100B6000054B0360054B4FF08062C3F88820BFF34C
:100B70004F8FBFF36F8F7047B4BE010800E100E0F4
:100B800010B504464FF45A61FFF7EAFF204619F00A
:100B9000F7FD204610BD0000024B1B685868036833
:100BA0005B6918475424012070B5044625460A4B5A
:100BB0000C30002660602672667245F8203B602289
:100BC000294608F04DFE04F55A63EE602435AB4229
:100BD000FBD1204670BD00BFB4BE010808B50B298B
:100BE0000BD8DFE801F01206100A0A0A0A08080802
:100BF0000808012008BD0520FCE7054B054A06480A
:100C0000662119F0EBFD0020F4E70220F2E700BFB7
:100C10002BBD010846BD010890BD010808B50A2991
:100C200009D8DFE801F010060E08080808060606D5
:100C30000600012008BD054B054A0648872119F02A
:100C4000CDFD0020F6E70220F4E700BF2BBD010830
:100C500007BE010890BD01082DE9F8434F7F0C46FF
:100C600039468146FFF7BAFF94F81E800546414693
:100C70004846FFF7B3FF414606464846FFF7CEFF1A
:100C8000A18A628B424B521A1A649A61228B521AC1
:100C90001A61E28A586342EA01425A642069626832
:100CA000D863DA60216894F81CC080294FEA0C628E
:100CB00026D010D8202945EA020461D040295FD00F
:100CC00004295DD0324B2A4342F400324745DA61B1
:100CD0005AD0304A40E0B1F5807F07D0B1F5007FAF
:100CE000F0D142F4003242F0090203E042F4003253
:100CF00042F00A02DA61E2681A625E6258612AE032
:100D0000A4682A4342F40032211DD962DA612278B4
:100D10005E62586142B1012A21D01F4B1F4A204810
:100D200040F2111119F05AFDDA69618822F47F420C
:100D3000013922F0100242EA0122DA610120144B4B
:100D4000DA6942F02002DA61DA699206FCD41022F4
:100D50009A600028BDD0134A1A60BDE8F883628803
:100D6000D969541E21F47F4222F0100242EA042283
:100D7000BCF1FF0042F0100218BF0120DA61DEE78B
:100D800044F40034DC61B8E740F20122E4E700BF3C
:100D900000B002400102010052BE01086CBE010811
:100DA00090BD01080102020070B50C46897FFFF773
:100DB00035FFA68AE18A628B154B2569586341EAA3
:100DC0000641921B5964DD631A642668E168082EA7
:100DD0000DD19A611A615862207F0E4A42EA006280
:100DE000DA610D4A19625D61DD601A6070BD002232
:100DF000D8611A6148090A0A02F4784200F4FC60DA
:100E00000243C1F3C4010A439A63044AEDE700BFF9
:100E100000B00240090001000102020001020300CB
:100E2000012070474020704700EB81100830704768
:100E300000EB811008307047012070474FF4D870E4
:100E400070474FF4D87303FB0100083070474FF42C
:100E5000D87303FB01000830704701207047102051
:100E6000704700EB01100830704700EB01100830AC
:100E70007047084601F082BC10B5034B036004467E
:100E800007F033F9204610BD6CBF010810B50446C9
:100E9000FFF7F2FF2046482119F072FC204610BDF2
:100EA00010B5034B0360044607F01FF9204610BD40
:100EB00038BF010810B50446FFF7F2FF20464FF493
:100EC000DC7119F05DFC204610BD000010B5034B2D
:100ED0000360044607F009F9204610BD04BF01086D
:100EE00010B50446FFF7F2FF2046182119F048FC20
:100EF000204610BD10B5084B0360044600F5F270A3
:100F0000FFF7BAFF04F12C00FFF7CAFF04F1140049
:100F1000FFF7DCFF204610BDA0BF010808B502485E
:100F2000FFF7E8FF08BD00BFAC01002010B5044684
:100F3000FFF7E0FF20464FF4637119F021FC2046D3
:100F400010BD00002DE9F34101F012F8054601F053
:100F500013F80024014623462846224600940DF04B
:100F600003FE254B254A264D1A60204601F0F4FF6A
:100F700024480DF061FD2B78BFF35B8FDB0735D480
:100F8000284619F0FFFB88B31F4C204B236004F563
:100F90000C7604F1140004F12C0804F5F27760607B
:100FA000C4F80880E760266107F0A0F8184B636179
:100FB000404607F09BF8174BE362384607F096F877
:100FC000154BC4F8E43104F50B7002F041F82246E9
:100FD00004F50B71304602F031F8304601F0CEFBDB
:100FE0000E4819F019FC284619F0D8FB0C4802B03D
:100FF000BDE8F041FFF764BCB02401205813002085
:10100000A801002008000020AC010020A0BF0108BA
:1010100004BF010838BF01086CBF01081D0F00089C
:10102000DC120020704700000148FFF75BBC00BFE6
:10103000DC12002070B5234C234E244B244D23603A
:101040003046FFF7B1FD284610F098FE214B2248AC
:10105000DC60224C03600022F0204FF4807120807D
:10106000C3E912121E4C1F492080C3E919121E4CFD
:101070001A864FF080714FF4A07059670121C3E9BF
:101080000422C3E90622C3E90822C3E90A22C3E90C
:101090000E22C3E91022C3E91422C3E916221A66FC
:1010A00083F86C201A67C3E9016583F87810208003
:1010B0000E4C83F8341020800D4802700D4A1A60DF
:1010C00070BD00BF380500203C0500209CB9010818
:1010D0005C130020DC12002054240120482401204D
:1010E0004E240120010000014A2401205024012047
:1010F0004C24012028BB01080148FFF731BD00BF87
:101100003C0500200020704781807047C1807047F7
:101110000181704741817047704770477047704741
:10112000704710B4C4880368121B84885B6D091B68
:1011300012B25DF8044B09B218474FF6FF73838172
:101140004FF0FF3303621368C3611060704790F87B
:1011500025201AB190F8242002B1186070470000D1
:10116000034B902283F85A2383F85823704700BF1B
:1011700000E100E0094A0A49D3680A48C3F30A03B8
:10118000013B9BB20B801169C1F30A010139018057
:101190001364536B43F001035363704700680140CD
:1011A000D8130020D6130020014BD3F8AC007047B1
:1011B00000680140024B0122C3F8AC105A6270472C
:1011C0000068014070B5044607F0C7FC23685D6EF7
:1011D0000AF094FC01462046A8472368054AD3F844
:1011E00088502046AC460023BDE87040A2F5163179
:1011F000604700BF00B004D007F096BC90F84B30B9
:1012000013B1024B01221A7007F09ABCD4130020CC
:1012100007F054BC07F0AFBD90F8252012B1036869
:101220005B69184770470000034B4FF080629A607B
:101230004FF080729A60704700E100E0084B4FF079
:101240008062C3F88820BFF34F8FBFF36F8F4FF0DA
:101250008072C3F88820BFF34F8FBFF36F8F704742
:1012600000E100E010B5144C236823B3134B144A7B
:101270001B6C11888B4213D1124B198803F0E6FACC
:10128000226892F86630013382F86630FFF716FC68
:10129000206808F0A7F9BDE810400020FFF756BA13
:1012A00003F0D4FA206803681B6A9847BDE8104031
:1012B0000020FFF775BA10BD5424012000680140DA
:1012C000D8130020D613002007B5064BADF8060052
:1012D0001B68054801220DF1060104F091F903B0E5
:1012E0005DF804FB100000209815002008B564206C
:1012F00004F065FEFBE7000070B5002494B02146C1
:10130000142203A8CDE90B440D9419F0F3FA1E4BF7
:1013100001941A6C42F080521A641B6C03F08053E3
:101320000193019B194B02941A6842F440421A60DF
:101330001B6803F440430293029B05264FF480335D
:10134000CDE90863012302250A934FF480030822A4
:10135000CDE90E534FF4A873CDE9102308A8042358
:101360001393129503F090FA0F23CDE903354FF450
:10137000A0514FF48053CDE9061303A831460594DC
:1013800003F060FC14B070BD0038024000700040F3
:1013900080B59AB002F0EAF9FFF7AEFF14220021FF
:1013A0000DA8002419F0A6FAC64B00941A6BC64883
:1013B000C64D42F010021A631A6B02F0100200923E
:1013C000009A01941A6B42F004021A631A6B02F03D
:1013D00004020192019A02941A6B42F020021A63ED
:1013E0001A6B02F020020292029A03941A6B42F0E6
:1013F00080021A631A6B02F080020392039A04942B
:101400001A6B42F001021A631A6B02F00102049295
:10141000049A05941A6B42F002021A631A6B02F0E6
:1014200002020592059A06941A6B42F040021A6372
:101430001A6B02F040020692069A07941A6B42F069
:1014400008021A631B6B03F00803079322463C2132
:10145000079B02F015FC9E482246042102F010FC76
:1014600022469C484FF4405102F00AFC01264FF0FE
:1014700003083C239448CDF840800DA902274FF083
:101480000409CDE90D360F9402F00EFB90480F943D
:101490000DA9CDE90D96109702F006FB0DA94FF4AA
:1014A00040538C48CDE90D36CDE90F4702F0FCFAE8
:1014B00089488A4B036002F0EBF9894A894B2C6218
:1014C000C5E9002328464FF48043C5E90434C5E943
:1014D0000244C5E9064402F0BDFD1021284602F091
:1014E000F9FF2146284603F014F87F487F498462BB
:1014F0004FF48273C0E900134FF400751823C0E95C
:1015000006530A237A4DC362C0E90244C0E9044489
:10151000C0E9084404F018F8764B0D974FF0100C12
:10152000C5E900364023C5E904C34FF4C073C5E9DB
:1015300006344FF40063C5E908344FF40053AB623E
:101540000DA907232846CDE91038CDE90E394FF013
:10155000080AC5E90249CDE9127703F0F4FE4FF617
:10156000FF7209A92846CDE90AA6089409960C94A9
:1015700003F009FF304602F025F94FF6FF7209A982
:101580002846CDE9097ACDE90B6403F0FCFE4FF65D
:10159000FF7209A92846CDE9098ACDE90B9403F029
:1015A000F2FE4FF40C730893089B0C934FF6FF72F6
:1015B00009A92846CDE9099A0B9603F0E4FE40F20A
:1015C0006A51284603F0FDFE342221460DEB02004D
:1015D00019F090F9484D494BAC86C5E90034092310
:1015E000C5E905361D2340F20D1EC5E9073840F256
:1015F0004313C5E909E340F2171840F247132846A0
:10160000C5E90B83C5E902442C6185F836404FF4E7
:10161000806A03F023F8F02205214FF4A073CDE98E
:101620000E24CDE914A1CDE916420DA922464FF0B2
:10163000FF082846CDE91037314D1893CDE91284C3
:101640000D94ADF864408DF8664003F0D2F82D4B50
:101650002B601B6898472B682B4DDB6898472B4BFA
:10166000C5E90A47C5E90C442846C5E90034C5E97F
:10167000027402F01DF93146284602F0D1F9244DDA
:10168000244BAC61C5E9003428467F23C5E9023804
:10169000C5E9044403F017FD1F4942F210030B8013
:1016A0003246302328468B70C1E9034403F059FDCC
:1016B0001A49222332462846CB700F7081F80190D8
:1016C0002EE000BF00380240001002404814002005
:1016D00000080240000C02400014002000300240CC
:1016E000005C0040A08601009815002000500140D9
:1016F00064150020400100A09C14002000680140F7
:10170000E0130020140000200814002000B0024064
:101710004415002000280040E8130020E4130020B6
:1017200081F8029003F079FDFEF75EFFFEF75BFFA4
:10173000094A0A48214604F0F9FB094B094A186096
:101740002146094804F0F2FB084B186004F0C2FB84
:1017500004F0D2FBFEE700BFE8BF0108ED1200086D
:10176000FC130020C4BF0108F7050008DC130020AB
:10177000704770477FB5094B8DF817201B6802939F
:101780000DF117020123009201930A460146044815
:1017900002F008FD07B05DF804FB00BF0C0000205C
:1017A000481400207FB500238DF81730084B1B68C4
:1017B00002930A4601230DF117010091019301469E
:1017C000044802F07FFD9DF8170007B05DF804FBA8
:1017D0000C000020481400201FB5084C246800921B
:1017E000CDE901340A4601230146054802F06AFDAD
:1017F000003818BF012004B010BD00BF0C0000204D
:101800004814002001F0DEBF08B50648002204217C
:1018100002F036FABDE8084002480122042102F035
:101820002FBA00BF0008024038B50B4D0446012214
:101830000A484FF4005102F023FA002204212846FE
:1018400002F01EFA2046FFF73FFD28460122BDE8C0
:101850003840042102F014BA00080240000C024093
:1018600038B50B4D044600220A484FF4005102F0EF
:1018700007FA00220421284602F002FA2046FFF768
:1018800023FD28460122BDE83840042102F0F8B9C2
:1018900000080240000C0240F7B5144E144F0546F4
:1018A0000C4630460022042102F0EAF900224FF4EF
:1018B0000051384602F0E4F92846FFF705FD0D4BCC
:1018C0000D481B68224601A904F03CF83846012265
:1018D0004FF40051019C02F0D3F93046012204215B
:1018E00002F0CEF9204603B0F0BD00BF0008024070
:1018F000000C0240100000209815002001F062BF8B
:101900000268034B9A4201D101F04ABF704700BF01
:10191000001000407047000082B00E4B0022009281
:10192000596C41F480415964596C01F48041009133
:1019300000990192196C41F0805119641B6C03F0FD
:1019400080530193019B0F216FF0010002B001F061
:101950005FBF00BF003802400268094B9A4282B064
:101960000BD100230193074B1A6B42F480521A6388
:101970001B6B03F480530193019B02B0704700BFBF
:10198000003002400038024007B50F4B02689A420F
:1019900016D10022A3F5F0430192196B41F4000126
:1019A00019631B6B03F40003019305215A20019B6B
:1019B00001F02EFF5A2003B05DF804EB01F05ABF8E
:1019C00003B05DF804FB00BF00B002402DE9F04316
:1019D000044689B01422002103A818F08BFF226866
:1019E000244B9A4243D1244C244800250095236B74
:1019F00043F004032363236B03F004030093009B71
:101A00000195236B43F001032363236B03F0010370
:101A10000193019B4FF012094FF400734FF001083E
:101A20000327042603A9CDE90339CDE905870796E5
:101A300002F03AF84FF480731148079603A9CDE9F4
:101A40000339CDE9058702F02FF80295236C43F4A2
:101A500000032364236C03F400030293029B236AB4
:101A600043F400032362236A23F40003236209B0D2
:101A7000BDE8F083005C00400038024000080240EE
:101A800000000240F0B599B004461422002107A8D6
:101A900018F030FF30220DEB0200002118F02AFF71
:101AA00022685E4B9A4240F0B78008230C93C02313
:101AB0001093042312930CA84FF40033159303F0F2
:101AC0008BF908B1FFF726FF554B564800240094C8
:101AD0005A6C42F080625A645A6C02F08062009242
:101AE000009A01941A6B42F020021A631A6B02F0FA
:101AF00020020192019A02941A6B42F001021A63C9
:101B00001A6B02F001020292029A03941A6B42F0DD
:101B100002021A631A6B02F002020392039A0494FF
:101B20001A6B42F040021A631A6B02F040020492F0
:101B3000049A05941A6B42F004021A631A6B02F0BD
:101B400004020592059A06941A6B42F008021A6381
:101B50001B6B03F00803069302250E26069B0B96CB
:101B60004FF4806307A9CDE90735CDE9094501F0B8
:101B70009BFF41F658032C480B9607A9CDE9073582
:101B80000927CDE9094501F08FFF032327480B976B
:101B900007A9CDE90735CDE9094501F085FF4FF4E7
:101BA000706322480B9607A9CDE90735CDE90945B1
:101BB00001F07AFF4FF40C631D480B9607A9CDE99D
:101BC0000735CDE9094501F06FFFC02319480B9691
:101BD00007A9CDE90735CDE9094501F065FF0823DF
:101BE00015480B9607A9CDE90735CDE9094501F060
:101BF0005BFF4FF4A0530E480B9707A9CDE90735BB
:101C0000CDE9094501F050FF58202246052101F099
:101C1000FFFD582001F02EFE19B0F0BD0068014014
:101C2000003802400014024000000240000402405C
:101C30000018024000080240000C024010B50446A3
:101C40008CB030220021684618F054FE22680A4BFE
:101C50009A420ED12023009368464FF480730A9372
:101C600003F0BAF808B1FFF755FE044B0122C3F8A0
:101C70003C2E0CB010BD00BF0028004000004742C1
:101C800010B5044688B01422002103A818F032FED3
:101C90002268144B9A4223D103F568430021019135
:101CA0005A6C114842F480125A645A6C02F4801241
:101CB0000192019A02911A6B42F020021A631B6B87
:101CC00003F020030293029B4FF46072022303216E
:101CD000CDE903230523CDE9061303A901F0E4FEB2
:101CE00008B010BD00500140001402402DE9F04141
:101CF00086B0002303932B4B1C68002C4FD14FF070
:101D00000108C3F80080284B00949A6B274842EAE8
:101D100008029A639B6B03EA0803009302270326D9
:101D20000C25009B01A94FF63F03CDE90137CDE912
:101D3000046501F0B9FE1E48059501A9CDE90187AA
:101D4000CDE9034601F0B0FE48F23313194805957A
:101D500001A9CDE90137CDE9034601F0A5FE4FF613
:101D600083731548059501A9CDE90137CDE90346EF
:101D700001F09AFE4CF203731048059501A9CDE9D4
:101D80000137CDE9034601F08FFE60230C4805952D
:101D900001A9CDE90137CDE9034601F085FE06B082
:101DA000BDE8F081F0150020003802400014024028
:101DB000000802400018024000100240000C0240DF
:101DC0000004024070B588B000230293204B1A6CC7
:101DD00042F010021A641B6C03F0100302930546D4
:101DE00001A903A8029B02F0D9FF069B4BBB02F09E
:101DF000C5FF184E184B336040F2E733F360174BC2
:101E0000B0FBF3F3013B7360304600233361B360F2
:101E1000B36103F083FF044680B9304603F038FE17
:101E2000044658B9362001F025FD0F2D0DD8224665
:101E30002946362001F0ECFC094B1D60204608B015
:101E400070BD02F09BFF4000D3E70124F6E700BF1E
:101E500000380240F41500200010004040420F00FE
:101E60007C0000207047FEE7FEE7FEE7FEE77047D4
:101E7000014803F04BBE00BFF4150020014802F0FA
:101E80005BBC00BF9C140020014801F03FBD00BFB7
:101E9000081400200120704708B518F0D1FC162363
:101EA00003604FF0FF3008BD08B518F0C9FC1623D9
:101EB0000360FEE770B50D4614460E46731B9C4248
:101EC00001DC204670BDAFF3008006F8010BF5E79A
:101ED00070B50D4614460E46731B9C4201DC20462D
:101EE00070BD16F8010BAFF30080F5E74FF0FF303F
:101EF00070474FF400534B6000207047012070473B
:101F0000002070470A4A116808B5034609B9094913
:101F100011601068694603448B4206D918F090FCA2
:101F20000C2303604FF0FF3008BD1360FCE700BFD7
:101F30003C160020F8260120704710B50421044605
:101F400018F01EFC204610BD012908B506D0022954
:101F500008D059B901F04CF8006808BD01F048F804
:101F60004068FAE701F044F88068F6E70020F4E7FB
:101F70000048704720C001080A20704713B50024AC
:101F800051B1036801948DF8034001AA9C680DF1DA
:101F90000303A04702B010BD0846FBE7C0897047A5
:101FA000008A7047C088704780887047807A00F048
:101FB0007F007047807AC0097047704710B50821CC
:101FC000044618F0DDFB204610BD7047704700F551
:101FD00098730868496803C3704770477047416049
:101FE00070477047064BC0F84C310023C0F85031A1
:101FF00000F5A273C0F84801C0F84031704700BF37
:102000005D220008012303727047704770477047D4
:10201000704710B4C26841685410034601EB620077
:10202000D20748BF0A599B685DF8044B48BFD35894
:10203000184743682BB183682BB9C06800F00100D2
:102040007047184670470120704710B50C210446B0
:1020500018F096FB204610BD10B51021044618F06C
:102060008FFB204610BD10B54FF4AE71044618F03A
:1020700087FB204610BD10B54021044618F080FBB8
:10208000204610BD10B54021044618F079FB2046CB
:1020900010BD08B509F032FDBDE808400AF076B978
:1020A000054B1B7801462BB1406818B103680C3111
:1020B0005B6E1847704700BF53240120054B1B7807
:1020C00001462BB1406818B103680C315B6E1847AC
:1020D000704700BF53240120037A70B50546BBB991
:1020E00040680368DB69984704464CB1A1886B8F50
:1020F000C91A236820461B6B09B29847A469F4E704
:102100006868036805F10C011B6EBDE87040184754
:1021100070BD70B5044690F8390094F8383001303D
:10212000C0B2984284F8390005D9012323720023F4
:1021300084F8393070BDB4F93A2000210BF07CF9F5
:1021400010F0010283B206D04FF6FF710028D8BF0D
:102150000A46981800B2238AC01AA08760680368EC
:10216000DB69984705464DB1A988A38F19442B68B0
:1021700028461B6B09B29847AD69F4E760680368AD
:10218000BDE870405B691847037A70B50546BBB976
:1021900040680368DB69984704464CB1E1886B8F5F
:1021A000C91A236820465B6B09B29847A469F4E713
:1021B0006868036805F10C011B6EBDE870401847A4
:1021C00070BD70B5044690F8390094F8383001308D
:1021D000C0B2984284F8390005D901232372002344
:1021E00084F8393070BDB4F93A2000210BF024F99D
:1021F00010F0010283B206D04FF6FF710028D8BF5D
:102200000A46981800B2638AC01AA08760680368FB
:10221000DB69984705464DB1E988A38F19442B68BF
:1022200028465B6B09B29847AD69F4E760680368BC
:10223000BDE870405B69184710B50446D0F840010E
:1022400058B10368DB68984738B1D4F84001036897
:102250009B6898470023C4F8403110BD2DE9F14F29
:10226000D0E9555A0746A86803681B6A9847B0F535
:10227000D87F05D2454B464AA321464818F0AEFA0E
:10228000686803681B6A98470F2803D8424B404A86
:10229000A421F2E7E86803681B6A98470B2803D873
:1022A0003E4B3B4AA521E8E709F028FCDFF8F49013
:1022B000043009F048FCD9F8000010B10368DB686D
:1022C0009847D9F8000010B103681B689847DFF8F9
:1022D000D880D8F8000010B103685B699847D7F838
:1022E0003C0110B103685B689847D8F8000010B152
:1022F00003681B689847D7F83C0110B103689B68D6
:102300009847E868036800215B6A98474FF0000B24
:10231000234B03600446C0F804B080F808B0A868F6
:10232000036859465B6A9847064600F017FF6868DD
:10233000036859465B6A98473146054600F0C4FE7B
:10234000C9F80040C7F83C51C8F80060E5B12B1D42
:10235000CAF800303368C5F808A03046DB68F5637A
:1023600098472B6828461B689847214630460BF053
:102370005DF8236820461B69984723685B692046FF
:1023800001B0BDE8F04F18472B46E1E7F8C001085F
:1023900086C101088AC20108D1C2010874C30108BC
:1023A000B4C6010894240120902401202DE9F041B5
:1023B0001D460368BDF918701B6B04461646984706
:1023C0002368314620465B6B9847236829462046A0
:1023D0009B6B9847236839462046DB6BBDE8F0418C
:1023E000184700002DE9F74FD0E9555A0746A8686D
:1023F00003681B6A9847B0F5D87F05D2554B564AFB
:10240000A321564818F0EAF9686803681B6A9847E0
:102410000F2803D8524B504AA421F2E7E86803681A
:102420001B6A98473F2803D84E4B4B4AA521E8E743
:1024300009F064FBDFF83C91043009F084FBD9F823
:10244000000010B10368DB689847D9F8000010B1AC
:1024500003681B689847DFF82081D8F8000010B1A6
:1024600003685B699847D7F83C0110B103685B6863
:102470009847D8F8000010B103681B689847D7F850
:102480003C0110B103689B689847E8680368002125
:102490005B6A984706460022334B4260027246F858
:1024A0000C3B0446304607F077FA142323872F4B62
:1024B0001B780022A287002B37D101232372A86842
:1024C000036800215B6A9847064600F047FE68688B
:1024D000036800215B6A98473146054600F0F4FD29
:1024E000C9F80040C7F83C51C8F80060002D2FD053
:1024F0002B1DCAF800303368C5F808A03046DB68E9
:10250000F56398472B6828461B6898472146304654
:102510000AF08CFF236820461B69984723685B6993
:10252000204603B0BDE8F04F1847DFF850B0BBF9C4
:10253000003000930E4B1146B3F900303046FFF7E0
:1025400035FF304607F0A3F9BBF800306387B6E7E4
:102550002B46CEE7F8C0010817C401088AC201085B
:10256000D1C2010874C30108FCC60108532401202C
:102570004824012094240120902401204A24012091
:102580002DE9F74FD0E9555A0746A86803681B6A3A
:102590009847E32805D8564B564AA321564818F0C9
:1025A0001DF9686803681B6A98470F2803D8534BC6
:1025B000504AA421F2E7E86803681B6A98473F285D
:1025C00003D84F4B4B4AA521E8E709F097FADFF80B
:1025D0004091043009F0B7FAD9F8000010B103684F
:1025E000DB689847D9F8000010B103681B6898476A
:1025F000DFF82081D8F8000010B103685B699847C4
:10260000D7F83C0110B103685B689847D8F8000020
:1026100010B103681B689847D7F83C0110B10368F4
:102620009B689847E868036800215B6A98470646FC
:102630000022344B4260027246F80C3B044630469E
:1026400007F0AAF9142323872F4B1B780022A287B7
:10265000002B37D101232372A868036800215B6A2D
:102660009847064600F0C8FD6868036800215B6A69
:1026700098473146054600F09BFDC9F80040C7F871
:102680003C51C8F80060002D2FD02B1DCAF8003037
:102690003368C5F808A03046DB68F56398472B68B7
:1026A00028461B689847214630460AF0BFFE23683B
:1026B00020461B69984723685B69204603B0BDE844
:1026C000F04F1847114BDFF850B0B3F900300093CA
:1026D0001146BBF900303046FFF768FE304607F080
:1026E000D6F8BBF800306387B6E72B46CEE700BFCD
:1026F000F8C001082FC501088AC20108D1C201082B
:1027000074C30108D8C60108532401204A240120BB
:10271000942401209024012048240120F8B5044687
:1027200017460E4609F0ACFA104B0025C4E9557661
:102730000F4E1C60C4E953550E4B306823600E4B9E
:10274000C4E95135036801219B68C4E94F55984796
:10275000284600F001FC336893F876200AB1D86C63
:1027600000B9986811F0F1F82046F8BDA0240120C6
:102770005424012068C6010850C60108064BC0F861
:102780004C310023C0F8503100F5A273C0F8480165
:10279000C0F84031704700BF5D220008064BC0F80A
:1027A0004C310023C0F8503100F5A273C0F8480145
:1027B000C0F84031704700BFE5230008064BC0F861
:1027C0004C310023C0F8503100F5A273C0F8480125
:1027D000C0F84031704700BF81250008406A70474B
:1027E000806A704770478B88C0690A68DB0A50F8B6
:1027F00023001044704710B5C2B1137BB3B1547BB2
:10280000D27A240204F4E0641443026A98B202EB20
:10281000840213888B4202D192F9020010BD05D8C0
:10282000013880B204320028F3D1F7E70020F5E741
:1028300010B52C21044617F0A3FF204610BD000060
:1028400030B58BB00446BDF860500895BDF85C50BB
:1028500007959DF8505006959DF84C5005959DF8AC
:10286000485004959DF8445003959DF840500295BA
:102870009DF83C500195BDF8385000950AF030FAAB
:10288000064B2360159BE361169B2362199B6362D1
:102890001A9BA36220460BB030BD00BF20C70108C1
:1028A0007047704770477047704770477047704770
:1028B000704730B4C26844685510034604EB6200A8
:1028C000D20748BF62599B6830BC48BFD3581847ED
:1028D00043682BB183682BB9C06800F001007047D2
:1028E000184670470120704710B51021044617F0B4
:1028F00047FF204610BD10B54FF4D871044617F0BD
:102900003FFF204610BD38B500F598739942044644
:102910000D4602D10368DB6A984704F5B274A542FC
:1029200005D109F0EBF8BDE83840FFF747BF38BDE7
:1029300070B5036804461B6B154698472368294603
:1029400020465B6BBDE87040184700000022C0E9DC
:102950000122C0E90322C0E90522C0E907224FF4A1
:1029600080728284014A0260704700BF80C70108FC
:102970002DE9F04F044689B0A04600250AF0AAFBD5
:102980006E4BE56348F8403B29462622404617F047
:10299000B1FF4046FFF7DAFF04F16C07684B236490
:1029A000FF264FF6FF792622294684F86660A56641
:1029B0003846ADF8189017F09DFF3846FFF7C6FF70
:1029C000604BE366BDF81830A4F8923006A984F88D
:1029D0009460384604F1980607F063FB04F5987A92
:1029E000304605F00DFD29462622504617F082FF9D
:1029F0005046FFF7ABFF4FF0010304F5B27B84F8BC
:102A00005431514BC4F83031A4F85E91A4F8609170
:102A100084F86291C4F8585184F85C51584607F024
:102A200019FB4A4BC4E96834494BC4E96A354FF491
:102A3000A0732A46009329464046F023FFF7B6FCD0
:102A400004F104094FF07F43A3664146484605F070
:102A500099FD2A4629463846FFF76AFF4FF00103E1
:102A600006A93846ADF8183007F01BFB3946484632
:102A700005F088FD19235122009330466423462136
:102A8000FFF794FC30464FF07F4105F0E7FB314BF8
:102A9000069306A930460327ADF81C5005F0F9FB54
:102AA0003046012105F0FAFC2B462A4629463046DD
:102AB00084F8C77005F0F5FC3146484605F062FD24
:102AC0005046A0224121FFF733FF04F5D0760423BE
:102AD00006AA05A95046ADF81830ADF8147007F0F5
:102AE000E3F851464846C4F8586105F04BFD2A46C4
:102AF0005846B421FFF71CFF0523ADF80C30062320
:102B0000ADF810300823ADF814300723ADF81830B5
:102B100006AB009304AA05AB03A9584607F005FAD3
:102B20004FF005134846C4F89C31C4F88C615946EF
:102B300005F028FD204609B0BDE8F08F00C8010867
:102B400054CF0108A8D00108BCCF0108E8C701088C
:102B500007290008F0C0010870477047704730B47B
:102B6000C26844685510034604EB6200D20748BFB0
:102B700062599B6830BC48BFD358184743682BB193
:102B800083682BB9C06800F0010070471846704791
:102B90000120704710B51021044617F0F1FD2046C2
:102BA00010BD10B5E421044617F0EAFD204610BD23
:102BB0009830884208B505D108F0A0FFBDE808406C
:102BC000FFF7ECBD08BD00002DE9F047044686B0D4
:102BD00026460AF07FFA0025454BE56346F8403B60
:102BE000444B2566C4E910354FF48072FF2304F18D
:102BF0006C080DF1140AA4F8642084F86630A4F877
:102C000090204FF6FF733C4AE26604F19807A4F85F
:102C1000923084F8943051464046C4E91255C4E9D4
:102C20001455C4E91655C4E91C55C4E91E55C4E938
:102C30002055C4E92255A566ADF8143007F031FAE5
:102C4000384607F007FA2D4BC4E935342C4B2A4699
:102C5000C4E9373529463046FFF76AFE3046F02191
:102C6000FEF756FA30464FF4A071FEF753FA04F11E
:102C700004094FF07F43A3663146484605F082FCC5
:102C80002A4629464046FFF753FE51464046ADF8D6
:102C9000145007F006FA4146484605F073FC2A46F0
:102CA00029463846FFF744FE0223ADF80830ADF858
:102CB0000C300923ADF810300723ADF8143003AA07
:102CC00004AB02A93846CDF800A007F02EF94FF06A
:102CD0000513C4F8D03004F1D4034846C4F8C0301A
:102CE000394605F04FFC204606B0BDE8F08700BF2E
:102CF00050C8010854CF0108A8D0010838C80108FD
:102D0000B12B00087047000030B5164D2C78BFF38A
:102D10005B8F14F001048FB020D1284617F032FDEC
:102D2000E0B13F230993104B0893104B1049114811
:102D30000A940122CDE906430423CDE903320A2394
:102D40000093CDE90B44CDE901440594FFF778FDEC
:102D5000094817F061FD284617F020FD05480FB01F
:102D600030BD00BF4016002068DC010874DC01089B
:102D700068DB010844160020052D0008704700009C
:102D800030B5164D2C78BFF35B8F14F001048FB073
:102D900021D1284617F0F6FCE8B13F230993104BE8
:102DA0000893104B104911480A94CDE906430122BB
:102DB0000423CDE90332142300931022CDE90B4400
:102DC000CDE901440594FFF73BFD094817F024FDC8
:102DD000284617F0E3FC05480FB030BD7016002000
:102DE0006CDC010878DC010878DB0108741600202F
:102DF0007D2D00087047000030B5164D2C78BFF3CC
:102E00005B8F14F001048FB020D1284617F0BAFC74
:102E1000E0B13F230993104B0893104B1049114820
:102E20000A940122CDE906430423CDE90332282385
:102E30000093CDE90B44CDE901440594FFF700FD73
:102E4000094817F0E9FC284617F0A8FC05480FB020
:102E500030BD00BFA016002070DC01087CDC01083A
:102E600058DC0108A4160020F52D0008002070474A
:102E7000002070470EB403B503AB002153F8042BB8
:102E8000019309F055FD02B05DF804EB03B0704703
:102E90000CB407B504AB53F8042B019309F048FDBB
:102EA00003B05DF804EB02B070470000436C10B54E
:102EB000044673B3038F2BB9184B194AC52119481F
:102EC00017F08CFCC38E00EB43035B8C0BB30AF052
:102ED000F6FF238F012B03D8134B144ACB21EEE7C7
:102EE000E28E531C9BB2092B194688BFA3F10A013D
:102EF00004EB410140F63F10498C814209D10A2B75
:102F000004EB420228BF002304EB4303508C588497
:102F100051842046BDE810400AF0D4BE7CC80108A8
:102F200085C8010830C901087AC9010888C90108A3
:102F30000AF08FBE10B586B002AC84E806001A46CF
:102F40000AAB05930193099B00932146089B08F067
:102F500093F906B010BD000038B518BB124B1348EA
:102F60001B681349B3B11A689C681A4402605A6816
:102F70001A440A601C440F4B00221A8000F038F8F3
:102F8000054600F033F80C4B1C600C4B1D600C4BDD
:102F9000188007E00B4B03600B4B0B600B4B1C685E
:102FA000002CE8D138BD00BFD0160020D416002078
:102FB000D8160020DC160020A4240120AC24012017
:102FC000A824012084DC010880DC01088CDC0108D5
:102FD000044B1B6853F82100034B1B6803EB4000B4
:102FE000704700BFD8160020D4160020012070477B
:102FF00000487047E016002010B5FFF7C1FE044CF2
:103000002060FFF7F9FE6060FFF77EFEA06010BD54
:10301000E0160020704710B54FF4AE71044617F06B
:10302000AFFB204610BD10B50446D0F8580100F0A3
:1030300013F82046BDE8104008F0E2BD10B5044684
:10304000FFF76CFB014B2360204610BD64CA0108EA
:10305000002202607047000070B50B4C0B4E054615
:1030600021460022304602F02EF90949002230465E
:1030700002F04CF928686278036821789D68A3788B
:10308000AC46BDE870406047E813002044150020BE
:10309000E41300207047043870477047C06810B4CC
:1030A0000468246BA4465DF8044B6047A0F104005B
:1030B000FFF7F4BF10B51021044617F061FB20465E
:1030C00010BDA0F10400F5E710B500228260044AAB
:1030D000C16002F1080424320460426010BD00BFE8
:1030E000A8CA0108704700000E4938B543F2200312
:1030F0000B8040230C4C8B700023C1E903330B4D34
:103100000223237004236370A37001222223284624
:10311000E37002F026F8214628460122BDE8384037
:1031200002F07BB8E8130020E413002044150020CF
:1031300010B5034B03600446FFF7B8FB204610BDF3
:10314000E0CA010810B50446FFF7F2FF20464FF42D
:10315000D87117F015FB204610BD000010B50446CD
:10316000FFF706FC014B2360204610BDE0CA0108B2
:10317000FFF79DBB983005F094B97047043870474D
:103180007047C06810B40468E46AA4465DF8044B54
:103190006047A0F10400FFF7F4BF10B5102104460A
:1031A00017F0EEFA204610BDA0F10400F5E700008C
:1031B00010B500228260044AC16002F10804243282
:1031C0000460426010BD00BF14CB01087047704717
:1031D00010B5034B03600446FFF7BEFC204610BD4C
:1031E0004CCB010810B50446FFF7F2FF2046E4215E
:1031F00017F0C6FA204610BD10B50446FFF7E4FCF0
:10320000014B2360204610BD4CCB0108FFF7A5BC45
:10321000F02070474FF4A07070472920FEF720BBC4
:103220002820FEF71DBB08B5FEF7EEFACA20FEF710
:1032300017FBC320FEF7F8FA0820FEF7F5FA502036
:10324000FEF7F2FACF20FEF70BFB0020FEF7ECFAB8
:10325000C120FEF7E9FA3020FEF7E6FAED20FEF78E
:10326000FFFA6420FEF7E0FA0320FEF7DDFA1220F1
:10327000FEF7DAFA8120FEF7D7FAE820FEF7F0FA37
:103280008520FEF7D1FA0020FEF7CEFA7820FEF76F
:10329000CBFACB20FEF7E4FA3920FEF7C5FA2C2052
:1032A000FEF7C2FA0020FEF7BFFA3420FEF7BCFAA0
:1032B0000220FEF7B9FAF720FEF7D2FA2020FEF737
:1032C000B3FAEA20FEF7CCFA0020FEF7ADFA0020B0
:1032D000FEF7AAFAB120FEF7C3FA0020FEF7A4FA1F
:1032E0001B20FEF7A1FAB620FEF7BAFA0A20FEF775
:1032F0009BFAA220FEF798FAC020FEF7B1FA102040
:10330000FEF792FAC120FEF7ABFA1020FEF78CFA16
:10331000C520FEF7A5FA4520FEF786FA1520FEF730
:1033200083FAC720FEF79CFA9020FEF77DFA36203C
:10333000FEF796FAC820FEF777FAF220FEF790FA29
:103340000020FEF771FAB020FEF78AFAC220FEF7DD
:103350006BFAB620FEF784FA0A20FEF765FAA7207A
:10336000FEF762FA2720FEF75FFA0420FEF75CFA08
:103370002A20FEF775FA0020FEF756FA0020FEF725
:1033800053FA0020FEF750FAEF20FEF74DFA2B20FB
:10339000FEF766FA0020FEF747FA0020FEF744FA2F
:1033A0000120FEF741FA3F20FEF73EFAF620FEF735
:1033B00057FA0120FEF738FA0020FEF735FA06200A
:1033C000FEF732FA2C20FEF74BFAC820FEF796FAE9
:1033D0002620FEF745FA0120FEF726FAE020FEF748
:1033E0003FFA0F20FEF720FA2920FEF71DFA2420CD
:1033F000FEF71AFA0C20FEF717FA0E20FEF714FA61
:103400000920FEF711FA4E20FEF70EFA7820FEF79B
:103410000BFA3C20FEF708FA0920FEF705FA132004
:10342000FEF702FA0520FEF7FFF91720FEF7FCF978
:103430001120FEF7F9F90020FEF7F6F9E120FEF77A
:103440000FFA0020FEF7F0F91620FEF7EDF91B2029
:10345000FEF7EAF90420FEF7E7F91120FEF7E4F998
:103460000720FEF7E1F93120FEF7DEF93320FEF701
:10347000DBF94220FEF7D8F90520FEF7D5F90C203C
:10348000FEF7D2F90A20FEF7CFF92820FEF7CCF993
:103490002F20FEF7C9F90F20FEF7C6F91120FEF71D
:1034A000DFF9C820FEF72AFA2920FEF7D9F9BDE88E
:1034B00008402C20FEF7D4B908B5FEF7A5F9032182
:1034C000D320FEF7E9F980B208BD10B5C4B20222DC
:1034D00003212046FEF74EF90A20FEF793F9204615
:1034E00000220321FEF746F9BDE810400220FEF756
:1034F00089B938B50446E4B2FEF73AF9002120460E
:10350000FEF750F9012105462046FEF74BF940EA47
:10351000052080B238BD10B5C4B240212046FEF768
:1035200041F9030607D54C212046FEF73BF9003848
:1035300018BF012010BD01224B212046FEF71AF9C9
:10354000204600224B21FEF715F90020F2E773B563
:103550000423C4B20E461546D7210DEB03022046C4
:10356000FEF73AF9019B1BBA1A0DC3F30B23328005
:1035700020462B8001224B21FEF7FCF800224B2134
:103580002046FEF7F7F802B070BD000010B50A4BF8
:103590001A78904204460DD0597888420AD00AB170
:1035A00041B901229C54FEF7E3F82046BDE81040E3
:1035B000FFF78BBF10BD00BFEC16002010B5C4B2E2
:1035C00009212046FEF7EEF840F00100C2B20921C1
:1035D0002046BDE81040FEF7CDB810B5C4B20921B1
:1035E0002046FEF7DFF8092100F0FE022046BDE884
:1035F0001040FEF7BFB838B5C4B20D4620460A21C8
:10360000FEF7D0F82843C2B20A212046BDE8384070
:10361000FEF7B0B807B50190FEF7ABF801981F218F
:10362000FFF7E9FF019803B05DF804EBFFF7C6BFB1
:1036300038B5C4B20D4620460A21FEF7B3F820EA99
:103640000500C2B20A212046BDE83840FEF792B814
:1036500010B50446FFF7C1FF20461F21BDE810400A
:10366000FFF7E6BF10B5C0B20C460B21FEF79AF883
:10367000204010BD1F21FFF7F5BF0A46C0B20B2145
:10368000FEF778B81F21FFF7F8BF38B5C4B20D4672
:1036900020461721FEF786F820EA0500C2B217215E
:1036A0002046BDE83840FEF765B870B5C4B206469E
:1036B00004212046FEF776F8042100F0FB020546BF
:1036C0002046FEF757F83046F021FFF7DEFF05F001
:1036D000F80220460421FEF74DF849222021204619
:1036E000FEF748F80220FEF78DF82046012221213E
:1036F000FEF740F820469A224121FEF73BF820468B
:1037000001224A21FEF736F8204601224B21FEF71E
:1037100031F8204600224B21FEF72CF820460122EA
:103720005621FEF727F8204601225821FEF722F8FD
:10373000204601224021FEF71DF82046FF220B21E2
:10374000FEF718F8BDE870400220FEF75BB80000F5
:10375000054BD3F8882042F47002C3F888204FF05C
:1037600000629A60704700BF00ED00E008B50B4BA7
:103770001A6842F400721A601A6842F480621A6091
:103780001A6842F480721A60032000F02FF80020BB
:10379000FEF718FBFEF7C0F8002008BD003C024011
:1037A000034A044B11681B780B441360704700BF39
:1037B000F016002078000020014B1868704700BF09
:1037C000F016002038B50446FFF7F6FF631C1CBF57
:1037D000054B1B78054618BFE418FFF7EDFF431BA8
:1037E000A342FAD338BD00BF780000200749CA6859
:1037F00022F4E0620302120403F4E063120C1343A8
:1038000043F0BF6343F40033CB60704700ED00E04A
:10381000164B30B5DC68C4F30224C4F10705231D40
:10382000042D28BF0425062B4FF0FF338CBF033C2B
:10383000002403FA05F521EA0501A34022EA030268
:10384000A140002841EA0203ACBF00F16040084AF1
:103850004FEA0313B8BF00F00F00DBB2AABF00F5B8
:103860006140135480F8003330BD00BF00ED00E02C
:1038700014ED00E0002808DB4209012300F01F00DE
:1038800003FA00F0014B43F82200704700E100E02A
:1038900010B5044650B1437903F0FF0213B9027129
:1038A000FEF75AF801236371002010BD0120FCE7E8
:1038B00010B5044630B390F8393003F0FF021BB95D
:1038C00080F83820FEF760F822686168022384F8E7
:1038D0003930136823F440330B431360536BA168F2
:1038E00023F007030B435363136CE16823F47F5306
:1038F00023F03F030B43136400200123E06384F8AB
:10390000393010BD0120FCE770477047036870B57F
:103910005E681D68F207044614D5E90512D51A68D9
:1039200022F480721A60C26B42F00102C26301226B
:103930009A60042380F83930002380F838304369D6
:1039400003B19847B20616D5AB0414D523681A689C
:1039500022F400521A6020229A60E36B43F00203C3
:10396000E363042384F83930002384F83830636932
:103970000BB120469847300716D5290514D5236882
:103980001A6822F400621A6008229A60E36B43F01E
:103990000403E363042384F83930002384F83830C7
:1039A00063690BB12046984772070BD56B0509D5A3
:1039B00023681A6822F480621A6004229A60204602
:1039C000FFF7A2FFB00714D5A90512D523681A681E
:1039D00022F400721A6002229A60E36BE36301230F
:1039E00084F83930002384F8383023690BB120463D
:1039F0009847F20613D5EB0411D523681A6822F410
:103A000080521A6010229A60E36BE363012384F80A
:103A10003930002384F838302046FFF776FF70BD38
:103A2000F0B590F83830012B4FF002032BD0012273
:103A300080F8393080F8382000EB0113D3E90742D1
:103A40005D6A184F44EA0242093C012C9CBF05F014
:103A50007F431A434FEA0116036888BF42EA0562B2
:103A600099B9596A39400A435A62012C82699A61AC
:103A700003D8426A22F07F429A62012380F83930EB
:103A8000002380F838301846F0BDD96939400A4320
:103A9000DA618219012C92691A619CBF25F07F4579
:103AA0001D62EAE7F0FFFC002DE9F74FDFF8C09157
:103AB0006D4A00230D6801249C4004EA050CAC43C8
:103AC00040F0B9804D6805F003044FEA430803262F
:103AD000671E06FA08F6012F6FEA060634D88768D3
:103AE00007EA060ECF6807FA08F747EA0E0787606D
:103AF000476827EA0C0EC5F300179F4047EA0E07F8
:103B00004760C76807EA060E8F6807FA08F747EAB2
:103B10000E07022CC76019D14FEAD30A00EB8A0ABC
:103B200003F0070BDAF820704FEA8B0B4FF00F0E03
:103B30000EFA0BFE27EA0E0E0F6907FA0BF747EA9B
:103B40000E07CAF8207001E0032CDAD1076804FAE6
:103B500008F43E40264315F4403F06606BD04FF01A
:103B6000000ACDF804A0D9F84460404C46F48046E1
:103B7000C9F84460D9F8446006F480460196019E75
:103B800023F0030606F1804606F59C3603F0030E8B
:103B9000D6F808804FEA8E0E0F2707FA0EF7A042DC
:103BA00028EA07074ED004F58064A0424CD004F503
:103BB0008064A0424AD004F58064A04248D004F555
:103BC0008064A04246D004F58064A04244D004F54D
:103BD0008064A04242D004F58064A04240D004F545
:103BE0008064A0423ED004F58064A0420CBF09244A
:103BF0000A2404FA0EF43C43B46094686FEA0C069D
:103C0000EF0254BF34404CEA04049460D468AF021D
:103C100054BF34404CEA0404D4605468AF0354BF2A
:103C200034404CEA040454601468ED0354BF34403B
:103C30004CEA040414600133102B7FF43BAF03B053
:103C4000BDE8F08F5446D4E70124D2E70224D0E740
:103C50000324CEE70424CCE70524CAE70624C8E7FA
:103C60000724C6E70824C4E7003C014000000240E6
:103C7000003802400369194214BF01200020704738
:103C80000AB1816170470904FBE7436901EA030255
:103C900021EA030141EA02418161704701684B69F1
:103CA00013F480634FF0000210D06FF480634B6117
:103CB0002023026380F83D3080F83E20036C80F8BA
:103CC0003C2043F00403036401207047184670470A
:103CD0002DE9F84606460F4691461D464FEA114A21
:103CE0003368BAF1010F0CBF5C699C6927EA0404D0
:103CF000A4B2B4FA84F46409A14501D0002017E00D
:103D00006A1CEED0FFF758FD089BC01AA84201D8E4
:103D1000002DE5D100232022336386F83D2086F86C
:103D20003E30326C86F83C3042F020023264012092
:103D3000BDE8F8862DE9F04104460F461646984640
:103D40002568686927EA000080B2B8B16B695A0536
:103D500016D52B6843F400732B606FF480636B619E
:103D600020220023236384F83D2084F83E30226C17
:103D700042F00402226484F83C300120BDE8F08166
:103D8000731CDED0FFF718FDA0EB0800B04201D88D
:103D9000002ED5D100232022236384F83D2084F80F
:103DA0003E30226C42F02002E4E770B504460D4636
:103DB000164621684B6913F0400301D0002010E043
:103DC0004A69D2060ED56FF010024A6120222363A1
:103DD00084F83D2084F83E30226C226484F83C3024
:103DE000012070BDFFF7E8FC801BA84201D8002D20
:103DF000DFD100232022236384F83D2084F83E3065
:103E0000226C42F02002E8E770B504460D461646E3
:103E100023685B695B0701D5002070BD2046FFF772
:103E20003DFFA8B96A1CF3D0FFF7C6FC801BA8426F
:103E300001D8002DECD100232022236384F83D20FB
:103E400084F83E30226C84F83C3042F02002226438
:103E50000120E2E770B504460D46164623685B690B
:103E60001B0601D5002070BD2046FFF717FFA8B93B
:103E70006A1CF3D0FFF7A0FC801BA84201D8002DDC
:103E8000ECD100232022236384F83D2084F83E30C7
:103E9000226C84F83C3042F0200222640120E2E7E8
:103EA0002DE9F0431546026885B0DDE90C789946A6
:103EB000136843F4807313600E463B46CDF80080D0
:103EC00000224FF001110446FFF702FF236838B1CA
:103ED0001B68DB0502D54FF40073236403200AE05E
:103EE00006F0FE061E61194943463A462046FFF792
:103EF00021FF18B1012005B0BDE8F08323680390CD
:103F00005A6903929B690393424639462046039BB4
:103F1000FFF7A0FF40B1236C042B01BF2268136898
:103F200043F400731360E5E7B9F1010F236802D190
:103F3000EDB21D61DFE72A0A1A6139464246204682
:103F4000FFF788FF0028E6D12368F1E702000100AF
:103F50002DE9FF479A46036815461A6842F48062C5
:103F60001A601A68DDE90C7842F480721A600E4615
:103F70003B46CDF8008000224FF001110446FFF7C8
:103F8000A7FE236848B11B68DB0502D54FF4007318
:103F90002364032004B0BDE8F0875FFA86F906F0D9
:103FA000FE061E612A4943463A462046FFF7C2FEF6
:103FB00008B10120EEE7236803905A6903929B69D8
:103FC0000393424639462046039BFFF743FF40B127
:103FD000236C042B01BF2268136843F40073136041
:103FE000E7E7BAF1010F23681AD1EDB21D6142462D
:103FF00039462046FFF72EFF0028E9D122681368D2
:1040000043F4807313604FF001110246CDF8008035
:104010003B462046FFF75CFE226860B11368B3E7B9
:104020002A0A1A61394642462046FFF713FF002844
:10403000CED12368D9E749F001031361044943460F
:104040003A462046FFF776FE003818BF0120A1E768
:104050000200010070B5044608B9012070BD90F857
:104060003D3003F0FF021BB980F83C20FDF7AEFCA9
:10407000242384F83D3023681A6822F001021A6074
:104080001A6842F400421A601A6822F400421A6068
:1040900000F074FE3F4B65689D4294BF3E4B3F4B22
:1040A00098428CBF00230123002BD6D12268394EC1
:1040B00053683B49B0FBF1F123F03F030B43B5429A
:1040C000536088BF4FF49676136A88BF714323F01C
:1040D0003F0384BF4FF47A76B1FBF6F10131194307
:1040E0001162D169431E2B4821F44F41854221F0D2
:1040F000FF0132D86D0040F6FC70B3FBF5F30133DD
:10410000034242D0C3F30B030B43D361D4E907301E
:104110001168034321F0C0010B4313609168D4E997
:10412000030321F40341034321F0FF010B43936098
:10413000D4E90530D168034321F0FF010B43D3607C
:10414000136843F00103136000202023206484F8E7
:104150003D30206384F83E0080E7A06850B905EB4D
:104160004505B3FBF5F30133C3F30B037BB143F414
:104170000043C9E719204543B3FBF5F30133C3F30B
:104180000B0323B143F44043BEE70423BCE7012300
:10419000BAE700BFA08601007F841E00FF083D0033
:1041A00040420F002DE9F743044699460C9E0F4606
:1041B0009046FFF701FB94F83D30202B054603D0D5
:1041C000022003B0BDE8F08300903C49192301228E
:1041D0002046FFF77DFD0028F2D194F83C30012BFA
:1041E000EED02068012384F83C300368D9075EBF15
:1041F000036843F001030360036823F40063036072
:10420000212384F83D30402384F83E30002323648A
:104210000A9B6362BDF82C306385638D2385284B30
:10422000E362CDE900654B46424639462046FFF73A
:1042300037FE00282AD00120C3E7FFF70BFE40B16C
:10424000236C042B01BF2268136843F400731360CE
:10425000F1E7636A27681A4612F8011B3961626246
:10426000628D218D013A92B262857A69481E80B2D0
:10427000520720850AD548B15A783A610233636201
:10428000638D013B02399BB221856385238D2A46CC
:1042900031462046002BD0D1FFF7B6FD0028CFD104
:1042A0002268136843F400731360202384F83D30C0
:1042B00084F83C0084F83E0083E700BF0200100051
:1042C0000000FFFF2DE9F043044687B09946109F98
:1042D0000D469046FFF770FA94F83D30202B0646C5
:1042E00004D00225284607B0BDE8F0830090764947
:1042F000192301222046FFF7EBFC0028F1D194F8A6
:104300003C30012BEDD02068012384F83C30036859
:10431000DB075EBF036843F001030360036823F417
:1043200000630360222384F83D30402384F83E304C
:10433000002323640E9B6362BDF83C306385638D6C
:104340002385624BE3622946CDE900764B4642461F
:104350002046FFF7FDFD054608B10125C2E7228D85
:104360002368B2B902905A6902929A690292029A3B
:104370001A6842F400721A60DFF85481238D002B12
:104380002CD1202284F83D2084F83C3084F83E3043
:10439000A8E7012A0AD11A6822F480621A60039001
:1043A0005A6903929A690392039AE1E7022A0ED1AD
:1043B0001A6822F480621A601A6842F400621A6075
:1043C00004905A6904929B690493049BD4E7059076
:1043D0005A6905929B690593059BCDE7032B56D837
:1043E000012B15D1324639462046FFF7DEFC002866
:1043F000B3D123681A69636A1A70636A013363620E
:10440000238D013B2385638D013B9BB26385B5E71B
:10441000022B00963B464FF000024146204619D140
:10442000FFF756FC002898D123681A6842F40072FE
:104430001A601A69636A1A70626A531C6362238D78
:10444000013B2385638D013B9BB2638523681B6918
:104450005370D2E7FFF73CFC00287FF47EAF23685F
:104460001A6822F480621A601A69636A1A70636AB1
:10447000009601336362238D013B2385638D013BED
:104480009BB2638502463B4641462046C8E732461A
:1044900039462046FFF789FC00287FF45EAF236889
:1044A0001A69636A1A70626A531C6362238D013B46
:1044B0002385638D013B9BB2638523685969490756
:1044C0007FF55CAFC3E700BF020010000000FFFFF4
:1044D0000400010010B590F83D30202BDCB216D15D
:1044E000242380F83D3003681A6822F001021A6024
:1044F0005A6A22F010025A625A6A114359621A68C3
:1045000042F001021A6080F83D40002010BD0220F8
:10451000FCE730B590F83D30202BDCB216D10268B4
:10452000242380F83D30136823F001031360556A9B
:104530004FF6F0732B400B439BB25362136843F06A
:104540000103136080F83D40002030BD0220FCE7ED
:104550000068D1F800C0D201843283182DE9F043FD
:10456000C6685D684C68D1F8189005F470455D60C8
:10457000C5680CF10107C5F30B45C6F30B463D4476
:10458000264445EA06455D60C568CE68C5F30A0560
:104590002E449D6805F470459D60C7688D68C7F31B
:1045A0000A0701353D4445EA06459D601D690E69CF
:1045B00025F007051D614FF0000E1E619D6991F801
:1045C000327091F83180C3F818E091F8305045EA24
:1045D000096545EA082545EA07459D615D6925F0BD
:1045E000FF055D614D695D61DD6925F4E06525F0DC
:1045F0000705DD61D1E907573D43DD619D6A4D6ADD
:10460000C3F828E09D621EB3012E23D0B51E022DF3
:1046100022D9072E0CBF02250125DE6A06F0E0260E
:10462000DE62A4EB0C048E6AC96A6C436E430334E9
:1046300044EA0644DC621C6B24F4FF6424F00704A3
:104640001C631963835843F001038350BDE8F08372
:104650000425E2E70325E0E70225DEE738B5044656
:10466000002863D090F8A13003F0FF021BB980F856
:10467000A020FDF707FA022384F8A13023689A6985
:1046800022F070429A61D4E901200243E0689969FE
:104690000243206902430A439A619A682449606987
:1046A0000A409A609A6842EA0042A06902439A600E
:1046B000DA68E0690A40DA60DA6842EA0042206AB1
:1046C0000243DA601A69606A0A401A611A6942EAAA
:1046D0000042A06A02431A615A69114059615A693D
:1046E000E16A42EA0142216B0A435A61D96A94F8AD
:1046F000360094F8355001F07F41D962D96A94F8B8
:1047000034200A4342EA052242EA0042DA625A6B46
:1047100042F006025A639A6942F001029A6100204F
:104720000123C4F8A40084F8A13038BD0120FCE7BF
:1047300000F800F070477047036870B59E6B5D6BC2
:104740007207044614D5690712D55A6B22F0040289
:104750005A630422DA63D0F8A43043F00103C0F8AE
:10476000A430002380F8A12080F8A030FFF7E2FFFA
:10477000B20716D5AB0714D523685A6B22F0020294
:104780005A630222DA63D4F8A4301343C4F8A43085
:10479000042384F8A130002384F8A0302046FFF7DA
:1047A000C9FFF00710D5E9070ED523685A6B22F030
:1047B00001025A630122DA63002384F8A12084F8FD
:1047C000A0302046FCF74EFD320711D52B070FD540
:1047D00023685A6B22F008025A630822DA63012325
:1047E00084F8A130002384F8A0302046FFF7A3FF0F
:1047F00070BD2DE9F04190F8A030012B06460F4620
:1048000094464FF002001FD04FF0010886F8A080B8
:1048100086F8A10034240D4604FB02640FCD383421
:104820000FC40FCD0FC40FCD0FC42B6823603046CB
:1048300062463946FFF78CFE33680020C3F82480B7
:1048400086F8A18086F8A000BDE8F08190F8A0303D
:10485000012B4FF0020312D080F8A13003685A6B8D
:1048600022F001025A63074A11645A6B42F00102B6
:104870005A63012380F8A130002380F8A030184645
:10488000704700BF006801402DE9F341044640B382
:104890000368DD0710D4236898075ED423681A07DD
:1048A00000F1A08023685B0700F1C080A0690028A8
:1048B00040F0288100202BE08F4B9A6802F00C0218
:1048C000042A07D09A6802F00C02082A0BD15A6811
:1048D000510208D5884B1B689A03DCD56368002B0E
:1048E000D9D1012014E06268B2F5803F13D11A6873
:1048F00042F480321A60FEF75FFF7F4E0546336850
:104900009B03C8D4FEF758FF401B6428F7D9032047
:1049100002B0BDE8F081784DB2F5A02F2B6807D129
:1049200043F480232B602B6843F480332B60E2E751
:1049300023F480332B602B6823F480232B60002A20
:10494000D9D1FEF739FF06462B689F03A3D5FEF7A2
:1049500033FF801B6428F7D9D9E7674B9A6812F0B8
:104960000C0F07D09A6802F00C02082A11D15B687C
:104970005E020ED4604A13689D0702D5E368012BDE
:10498000AFD11368216923F0F80343EAC103136030
:1049900084E7E268594BB2B101221A60FEF70CFFBE
:1049A000554D06462B68980707D52B68226923F0DA
:1049B000F80343EAC2032B6070E7FEF7FDFE801B9D
:1049C0000228EFD9A3E71A60FEF7F6FE4A4E054625
:1049D000336899077FF562AFFEF7EEFE401B0228B1
:1049E000F6D994E76269454B82B10122C3F8802E63
:1049F000FEF7E2FE404E0546736F9F073FF552AF4C
:104A0000FEF7DAFE401B0228F6D980E7C3F8802EB5
:104A1000FEF7D2FE384E0546736F98077FF542AF1A
:104A2000FEF7CAFE401B0228F6D970E7324B1A6C1B
:104A300012F0805228D101921A6C42F080521A640E
:104A40001B6C03F080530193019B01272C4D2B68B5
:104A5000D9051BD5A368284D012B27D12B6F43F017
:104A600001032B67FEF7A8FE234E054641F2883866
:104A7000336F9B0739D5002F3FF418AF1E4A136CD4
:104A800023F08053136411E70027DFE72B6843F41A
:104A900080732B60FEF790FE06462B68DA05D9D4AA
:104AA000FEF78AFE801B0228F7D930E7052B04D1D8
:104AB0002B6F43F004032B67D0E72A6F22F001022B
:104AC0002A672A6F22F004022A67002BCAD1FEF758
:104AD00073FE41F2883806462B6F9807CBD5FEF758
:104AE0006BFE801B4045F7D911E7FEF765FE401BC2
:104AF0004045BDD90BE700BF0038024000004742E7
:104B000000700040364DAB6803F00C03082B3DD01D
:104B1000344B002202281A662BD1FEF74DFE0646C2
:104B20002B6899011FD4D4E907321343626A43EA20
:104B30008213E26A43EA0263A26A5208013A43EA34
:104B400002436B60274B264D01221A66FEF734FEA6
:104B500004462B689A013FF5ADAEFEF72DFE001B13
:104B60000228F6D9D3E6FEF727FE801B0228D7D904
:104B7000CDE6FEF721FE04462B689B017FF59AAE39
:104B8000FEF71AFE001B0228F6D9C0E601283FF402
:104B9000BFAE6B68E26903F4800191427FF4A1AE7D
:104BA000216A03F03F028A427FF49BAE616A47F6B6
:104BB000C0721A40B2EB811F7FF493AEA26A520812
:104BC00003F44031013AB1EB024F7FF48AAEE26A5E
:104BD00003F07063B3EB026F3FF46CAE81E600BF8D
:104BE0000038024000004742134908B58B6803F0C3
:104BF0000C03042B1CD0082B1CD14A684B68496855
:104C000013F4800314BF0D480D48C1F3881118BF79
:104C1000002302F03F02A1FB0001FBF739FB064B2A
:104C20005B68C3F3014301335B00B0FBF3F008BDE5
:104C30000248FCE70248FAE70038024000127A0016
:104C40000024F4002DE9F0410D46044610B901207E
:104C5000BDE8F081444B1A6802F00F028A4228D363
:104C6000226897072DD4D00741D43F4B1A6802F031
:104C70000F02AA4266D8226851076CD4130707D5E1
:104C80003A4A2169936823F4604343EAC10393607D
:104C9000FFF7AAFF354B364A9B68C3F30313D35C77
:104CA000D840344B1860344B1868FDF78BF800205F
:104CB000CEE7CAB21A701B6803F00F038B42C6D14D
:104CC000CEE72A4B12F0040F1EBF996841F4E05161
:104CD0009960160742BF996841F460419960234981
:104CE000A0688B6823F0F00303438B60BBE7626826
:104CF0001E4B012A1CD11B6813F4003FA7D01B4E8A
:104D0000B36823F003031343B360FEF755FD41F28C
:104D100088380746B368626803F00C03B3EB820F70
:104D2000A3D0FEF749FDC01B4045F3D903208FE710
:104D3000911E01291B6802D813F0007FDEE713F0F3
:104D4000020FDBE7EAB21A701B6803F00F03AB42F5
:104D50007FF47DAF8FE70549E0688B6823F4E0536B
:104D600003438B608AE700BF003C024000380240EA
:104D70007CCB0108740000207C000020044B054A15
:104D80009B68C3F38223D35C034A1068D840704702
:104D9000003802408CCB0108740000200F23036010
:104DA0000B4B9A6802F0030242609A6802F0F0022C
:104DB00082609A6802F4E052C2609B68DB0803F4E8
:104DC000E0530361034B1B6803F00F030B60704754
:104DD00000380240003C0240036813F0430FF7B56F
:104DE000044640F08C80236813F00C0F45D08B4BA9
:104DF0008B4D00221A67FEF7DFFC06462B689F00EA
:104E000000F1CF8021684E0715D5D4E90403D5F809
:104E100088201B0602F0E04243EA80131343C5F8E2
:104E20008830D5F88C30226A23F4F853013A43EAEB
:104E30000223C5F88C300D0714D5794AA369D2F83E
:104E4000881020691B0701F0706143EA80130B434F
:104E5000C2F88830D2F88C30616A23F440330B43B7
:104E6000C2F88C306D4B6E4E01221A67FEF7A4FC1F
:104E700005463368980040F19B8023689B0633D534
:104E800000230193664B674D1A6C42F080521A64FE
:104E90001B6C03F080530193019B2B6843F48073D8
:104EA0002B60FEF789FC06462B68D90540F1878008
:104EB0005B4D2B6F13F4407340F08880A36A03F4BA
:104EC0004072B2F5407F564A40F0A480916823F0CA
:104ED000704021F4F81120F4407001439160116F8B
:104EE000C3F30B030B431367206810F010001FBFC0
:104EF0004D4B94F82C20C3F8E02100204FE0474BA5
:104F0000474E00229A66FEF757FC054633681F019C
:104F10003FD42168CD0741BFD4E901231B0743EAF1
:104F20008213C6F88430880715D53D4AE368D2F865
:104F3000840065681B0600F0E04043EA85130343E4
:104F4000C2F88430D2F88C00E36920F01F00013BE6
:104F50000343C2F88C3049060AD5E36862681B0631
:104F600043EA8213A26843EA02732D4AC2F88430EE
:104F70002A4B2B4E01229A66FEF71EFC054633682B
:104F80001A013FF530AFFEF717FC401B0228F6D997
:104F900004E0FEF711FC401B0228B7D9032003B040
:104FA000F0BDFEF709FC801B02287FF627AFF5E76E
:104FB000FEF702FC401B02287FF65BAFEEE7FEF730
:104FC000FBFB801B02287FF66FAFE7E7A26A02F4C3
:104FD000407293423FF472AF2B6F104A0121C2F826
:104FE000401E23F440730021C2F8401E2B672B6F34
:104FF000DA077FF563AFFEF7DFFB41F2883706463D
:105000002B6F9B073FF55AAFFEF7D6FB801BB842CC
:10501000F6D9C3E7916821F4F8115FE70000474231
:10502000003802400070004000104742026838B566
:10503000D36823F0A003D3600446FEF7BDFB05460A
:105040002368DB689B0601D5002038BDFEF7B4FB62
:10505000401BB0F57A7FF3D90320F6E7F8B5036873
:10506000DC6814F04004054617D1DA6842F080028B
:10507000DA60FEF7A1FB042706462B68DB685B06B7
:1050800000D40CB12046F8BDFEF796FB801BB0F5AE
:105090007A7F84BF6F770124EFE70024F2E703688B
:1050A000DA6822F0800210B5DA609B689B0604463D
:1050B00001D5002010BDFFF7B9FF0028F9D0042367
:1050C00063770120F6E710B5044600283AD0437F05
:1050D00003F0FF0213B90277FCF7B0FD02236377F8
:1050E0002368CA225A6253225A622046FFF7B6FF4B
:1050F00020BB236820699A6822F4E00222F0400273
:105100009A60626899680243606902430A439A6040
:10511000E2681A611A69A16842EA01421A612046EE
:10512000FFF7BDFF50B92368A1691A6C22F48022F1
:105130001A641A6C0A431A64012363772368FF22F6
:105140005A6210BD0120FCE700230928DAB203F1FE
:10515000010303D840EA0210C0B270470A38C0B257
:10516000F3E72DE9F843037F012B06460F464FF086
:10517000020042D0012333777077316838787D7828
:1051800097F80280002A3AD18A6812F0400208BFDC
:10519000FA70FFF7D9FF81462846FFF7D5FF04468E
:1051A0004046FFF7D1FFFA7840EA825545EA0942C6
:1051B00042EA0424CA234B6253234B623046FFF772
:1051C0004DFFA8B9326804F07F3424F0FE44146027
:1051D000936823F480239360D7E9033091680343F5
:1051E0000B4393603046FFF75AFF08B901237377EA
:1051F0003368FF225A6200233377BDE8F8838A6858
:1052000012F0400208BFFA702D02FC7845EA004512
:1052100045EA080343EA8454CCE72DE9F041037FD3
:10522000012B06464FF002033BD001203077737705
:105230000D78C8784C7891F802806D039ABBE3062C
:1052400003D524F010040A344C70FFF77DFF0746A5
:105250004878FFF779FF04464046FFF775FF40EABC
:10526000050242EA074545EA04243368CA225A6225
:1052700053225A623046FFF7F1FE58B9326824F0E3
:105280007F4424F0C00454603046FFF708FF08B99B
:10529000012373773368FF225A6200233377BDE816
:1052A000F0811846FBE745EA004545EA080343EA72
:1052B0000424DAE7030903EB830300F00F0000EB9B
:1052C0004300C0B2704738B50368986A48601869EF
:1052D0001B68C0F30E00C3F3062503F07F0488604B
:1052E000C3F30540C3F3805308704D708C70CB70CE
:1052F00052B9FFF7DFFF08702846FFF7DBFF487061
:105300002046FFF7D7FF8870002038BD38B5036806
:105310005B68C3F30740C3F3042503F03F04C3F302
:105320004233C8704D708C700B7052B9FFF7C2FFDA
:10533000C8702846FFF7BEFF48702046FFF7BAFF47
:105340008870002038BD38B50D460446C8B190F8C5
:105350002C3003F0FF021BB980F82D20FCF7C6FCAF
:10536000022384F82C30211D206800F005FD6268BE
:105370002068294600F03BFD012384F82C300020F2
:1053800038BD0120FCE770B590F82C30022B0546A3
:105390000E46D8B212D000F0FB04012C0FD102232C
:1053A00085F82C30286800F058FD3368022B06BFC2
:1053B000052385F82C3085F82C40002070BD012095
:1053C000FCE738B590F82C30022B0446D8B20DD04B
:1053D00094F82C30012BDDB209D10223206884F827
:1053E0002C3000F060FD84F82C50002038BD0120E6
:1053F000FCE700002DE9F3411D46174688460646A6
:10540000FEF7DAF93D442C1AFEF7D6F9224B1B6859
:10541000C3F3CB330546634332680193936838EA9C
:10542000030301D000202DE07B1CF7D0FEF7C4F968
:10543000401BA04229D333685A6822F0E0025A6028
:105440007268B2F5827F0AD1B268B2F5004F02D01D
:10545000B2F5806F03D11A6822F040021A60B26A76
:10546000B2F5005F07D11A6822F400521A601A6878
:1054700042F400521A60012386F85130002386F866
:105480005030032002B0BDE8F081019B002B019B4E
:1054900008BF0024013BBFE77400002038B5134665
:1054A0004268B2F5827F04461FD18268B2F5004F90
:1054B00002D0B2F5806F07D125682868B2F5806FF9
:1054C00020F04000286007D00A4680212046FFF7E0
:1054D00091FF20B9002038BD0A460121F6E7636D2F
:1054E00043F0200363650320F5E70A460121EEE758
:1054F00037B51346124A1568124AB5FBF2F54FF458
:105500007A72554342680195B2F5827F04460BD109
:105510000A468021FFF76EFF78B1636D43F02003E8
:105520006365032003B030BD019B33B1019B013B98
:10553000019323689B681B06F6D40020F2E700BFA6
:105540007400002000366E0110B50446002855D0C6
:10555000436A002B4ED14268B2F5827F00D0C3610E
:105560000023A36294F8513003F0FF0223B984F8BA
:1055700050202046FCF784FB2168A068A269022322
:1055800084F851300B6823F040030B60636800F42B
:10559000044003F482730343E06800F400600343B3
:1055A000206900F002000343606900F0010003433A
:1055B00002F400700343E06900F038000343206AFE
:1055C00000F080000343A06A00F4005003430B6026
:1055D000636A120C03F0100302F004021A434A60DB
:1055E000CB6923F40063CB6100200123606584F85C
:1055F000513010BD0023C0E90433B1E70120F8E7C2
:105600002DE9F3411E4690F85030012B04460D461B
:10561000174600F0A180012380F85030FEF7CCF847
:1056200094F85130012B8046D8B240F09380002D81
:105630005ED0002F5CD0A2682563032384F851302C
:10564000B2F5004F4FF000036365C4E91033E786FD
:10565000A363A387E387A786236807D11A6822F08C
:1056600040021A601A6842F480421A601A68E168BF
:1056700052065EBF1A6842F040021A60B1F5006F30
:10568000626841D10AB1012F07D135F8022BDA60E7
:105690002563E38E013B9BB2E386E38E9BB2A3B905
:1056A000424631462046FFF723FF00284FD1A3682A
:1056B00033B901932368DA6801929B680193019BD7
:1056C000606D003818BF012012E0226893689807C7
:1056D00005D5236B33F8021BD1602363D9E7FEF7AE
:1056E0006BF8A0EB0800B0420BD3711CD5D003209F
:1056F000012384F85130002384F8503002B0BDE813
:10570000F081002EC9D1F2E70AB1012F08D12A7821
:105710001A73236B01332363E38E013B9BB2E38651
:10572000E38E9BB2002BBBD023689A68920702D508
:10573000226B1278ECE7FEF73FF8A0EB0800B042CE
:1057400002D3731CECD0D2E7002EE9D1CFE720239F
:105750006365ACE70220CBE70220CFE72DE9F743F2
:105760001E4690F850300A9F012B04460D46914684
:1057700000F0E680012380F85030FEF71DF894F821
:1057800051306268012B8046D9B20AD0B2F5827FCF
:1057900040F0D480A368002B40F0D080042940F072
:1057A000CD80002D40D0B9F1000F3DD0002E3BD070
:1057B00094F85130C4F83890042B1CBF052384F8AA
:1057C000513000236365C4E910332368E687E68619
:1057D0001968A687490658BF1968256358BF41F064
:1057E0004001A68658BF1960E168B1F5006F52D13B
:1057F0000AB1012E07D135F8022BDA60E38E25635A
:10580000013B9BB2E3860125E38E9BB273B9E38F24
:105810009BB25BB9424639462046FFF769FE002835
:1058200000F081802023636501202BE021688B68D4
:105830009E070DD5E38E9BB253B14DB1236B33F868
:10584000022BCA602363E38E013B9BB2E3860025F3
:105850008A6812F001020CD0E38F9BB24BB1A36BAC
:10586000C96823F8021BA363E38F013B9BB2E38764
:105870001546FDF7A1FFA0EB0800B842C4D3781C81
:10588000C2D00320012384F85130002384F8503023
:1058900003B0BDE8F0830AB1012E08D12A781A734B
:1058A000236B01332363E38E013B9BB2E386012527
:1058B0002DE02268936899070ED5E38E9BB25BB109
:1058C00055B1236B1B781373236B01332363E38E72
:1058D000013B9BB2E38600252268916811F001012B
:1058E0000DD0E38F9BB253B1A36BD2681A70A36B38
:1058F0000133A363E38F013B9BB2E3870D46FDF7C2
:105900005BFFA0EB0800B8420AD37B1CB9D1E38E41
:105910009BB2002BCDD1E38F9BB2002BC9D179E78D
:10592000002FF4D1ADE7A368002BABD12368019021
:10593000DA6801929B680193019BA3E70220A1E72B
:105940000220A5E72DE9F7431D464368B3F5827FA2
:105950000446894617460CD1836853B9042380F85E
:105960005130134600950A46FFF7F8FE03B0BDE834
:10597000F08394F85030012B00F08680012384F8E6
:105980005030FDF719FF94F85130012B8046D8B202
:1059900078D1B9F1000F5CD0002F5AD0A268C4F8BA
:1059A000389000260423B2F5004F84F85130C4E942
:1059B000106666652368E787A7872663A686E6865E
:1059C00007D11A6822F040021A601A6822F4804255
:1059D0001A601A6856065EBF1A6842F040021A60E2
:1059E000E368F3B1E38F9BB2FBB123689A68D207F7
:1059F00039D5DA68A36B23F8022BA363E38F013B4D
:105A00009BB2E387EEE723689A68D00718D5A26BAC
:105A10001B7B1370A36B0133A363E38F013B9BB22A
:105A2000E387E38F9BB2002BEDD142462946204607
:105A3000FFF734FD18BB606D003818BF012008E087
:105A4000FDF7BAFEA0EB0800A84209D3691CE8D014
:105A50000320012384F85130002384F8503085E777
:105A6000002DDED1F4E7FDF7A7FEA0EB0800A84269
:105A700002D36B1CB6D0EBE7002DB3D1E8E72023AF
:105A80006365D8E70220E4E702206FE77047000073
:105A900090F83D30012B30D1022380F83D3003686F
:105AA000DA6842F00102DA60154A93421AD0B3F183
:105AB000804F17D0A2F57C42934213D002F580624A
:105AC00093420FD002F5806293420BD002F57842E8
:105AD000934207D002F57052934203D0A2F594325C
