:020000040800F2
:100000000000032095050008FD1E0008FF1E0008E3
:10001000011F0008031F0008051F00080000000062
:10002000000000000000000000000000215C00084B
:10003000071F000800000000B15C00083B550008E5
:10004000E5050008E5050008E5050008E5050008E8
:10005000E5050008E5050008E5050008E5050008D8
:10006000E5050008E5050008E5050008E5050008C8
:10007000E5050008E5050008E5050008E5050008B8
:10008000E5050008E5050008E5050008E5050008A8
:10009000E5050008E5050008E5050008E505000898
:1000A000E5050008E5050008E5050008E505000888
:1000B000E5050008E5050008E5050008E505000878
:1000C000E5050008E5050008E5050008E505000868
:1000D000E5050008E5050008E5050008E505000858
:1000E000E5050008E5050008E5050008E505000848
:1000F000E5050008E5050008E5050008E505000838
:10010000E5050008E5050008E5050008E505000827
:10011000E5050008E5050008091F0008E5050008D9
:10012000E5050008E5050008E5050008E505000807
:10013000E5050008E5050008E5050008E5050008F7
:10014000E5050008E5050008E5050008E5050008E7
:10015000E5050008E5050008E5050008E5050008D7
:10016000E5050008E5050008E5050008E5050008C7
:10017000E5050008E5050008E505000800000000A9
:10018000E5050008E5050008E5050008E5050008A7
:10019000E5050008E5050008E5050008E505000897
:0C01A000151F0008E5050008211F0008DD
:1001B00010B5054C237833B9044B13B10448AFF3A1
:1001C00000800123237010BD6401002000000000A6
:1001D0009CE4010808B5034B1BB103490348AFF386
:1001E000008008BD00000000680100209CE40108B8
:1001F00001F0FF01102A2BDB10F0070F08D010F8D8
:10020000013B013A8B422DD010F0070F42B3F6D1DB
:10021000F0B441EA012141EA014122F007047FF0F4
:1002200000070023F0E80256083C85EA010586EA4B
:10023000010685FA47F5A3FA87F586FA47F6A5FA87
:1002400087F68EB9EED1F0BC01F0FF0102F0070293
:1002500032B110F8013B013A83EA010313B1F8D13E
:100260000020704701387047002D06BF354603381F
:10027000073815F0010F07D1013015F4807F02BF58
:10028000013015F4C03F0130F0BC0138704700BFA9
:1002900053B94AB9002908BF00281CBF4FF0FF31ED
:1002A0004FF0FF3000F074B9ADF1080C6DE904CEE9
:1002B00000F006F8DDF804E0DDE9022304B0704741
:1002C0002DE9F047089D04468E46002B4DD18A4209
:1002D000944669D9B2FA82F252B101FA02F3C2F13C
:1002E000200120FA01F10CFA02FC41EA030E9440CD
:1002F0004FEA1C48210CBEFBF8F61FFA8CF708FBEE
:1003000016E341EA034306FB07F199420AD91CEBC5
:10031000030306F1FF3080F01F81994240F21C81F7
:10032000023E63445B1AA4B2B3FBF8F008FB10333F
:1003300044EA034400FB07F7A7420AD91CEB040474
:1003400000F1FF3380F00A81A74240F20781644444
:10035000023840EA0640E41B00261DB1D4400023C9
:10036000C5E900433146BDE8F0878B4209D9002D2D
:1003700000F0EF800026C5E9000130463146BDE8B7
:10038000F087B3FA83F6002E4AD18B4202D3824221
:1003900000F2F980841A61EB030301209E46002DD0
:1003A000E0D0C5E9004EDDE702B9FFDEB2FA82F225
:1003B000002A40F09280A1EB0C014FEA1C471FFA83
:1003C0008CFE0126200CB1FBF7F307FB131140EA6A
:1003D00001410EFB03F0884208D91CEB010103F137
:1003E000FF3802D2884200F2CB804346091AA4B2F9
:1003F000B1FBF7F007FB101144EA01440EFB00FECD
:10040000A64508D91CEB040400F1FF3102D2A64531
:1004100000F2BB800846A4EB0E0440EA03409CE7D0
:10042000C6F12007B34022FA07FC4CEA030C20FA7D
:1004300007F401FA06F31C43F9404FEA1C4900FA9D
:1004400006F3B1FBF9F8200C1FFA8CFE09FB18111A
:1004500040EA014108FB0EF0884202FA06F20BD98D
:100460001CEB010108F1FF3A80F08880884240F2DD
:100470008580A8F102086144091AA4B2B1FBF9F021
:1004800009FB101144EA014100FB0EFE8E4508D91C
:100490001CEB010100F1FF346CD28E456AD90238A1
:1004A000614440EA0840A0FB0294A1EB0E01A14286
:1004B000C846A64656D353D05DB1B3EB080261EBF4
:1004C0000E0101FA07F722FA06F3F1401F43C5E9CE
:1004D000007100263146BDE8F087C2F12003D84004
:1004E0000CFA02FC21FA03F3914001434FEA1C4746
:1004F0001FFA8CFEB3FBF7F007FB10360B0C43EA38
:10050000064300FB0EF69E4204FA02F408D91CEBE7
:10051000030300F1FF382FD29E422DD902386344E5
:100520009B1B89B2B3FBF7F607FB163341EA034185
:1005300006FB0EF38B4208D91CEB010106F1FF38D4
:1005400016D28B4214D9023E6144C91A46EA0046CB
:1005500038E72E46284605E70646E3E61846F8E65D
:100560004B45A9D2B9EB020864EB0C0E0138A3E7A6
:100570004646EAE7204694E74046D1E7D0467BE787
:10058000023B614432E7304609E76444023842E7FF
:10059000704700BFDFF834D0002103E00C4B5B58FC
:1005A000435004310B480C4B42189A42F6D30B4A85
:1005B00002E0002342F8043B094B9A42F9D302F0CF
:1005C00095FD1CF005FF00F081FF7047000003203F
:1005D0006CC80808000000206401002064010020AD
:1005E000B0350120FEE7704708B500F069FDBDE8B1
:1005F000084000F0F3BC00F065BD704710B5042161
:1006000004461CF088F8204610BD000038B50C4B9D
:100610000C4C18800C4B822019806368984740F678
:10062000110398420AD1094D23682C608220984713
:100630002B688220DB689847002038BD0120FCE74A
:10064000800100204C000020820100208401002055
:100650004FF4A071F020FFF7D9BF0000F7B52D4D82
:100660002B6804461B698220984780B220800028AE
:1006700043D02B680DF106025B6901A982209847DF
:10068000BDF80620A2F5B47292B20A2A37D90B231C
:10069000B2FBF3F2204B1B889A4201D9013B9AB27C
:1006A000BDF8043040F6B8318B422AD8C3F57163E7
:1006B0000E339BB20F21B3FBF1F3184909888B422B
:1006C00001D94B1E9BB2164E164D30682F688342DF
:1006D00081B28CBF591AC91AB8B2BA428CBF101A6B
:1006E000801A89B280B201440529C8BF33603368DB
:1006F000C8BF2A6063802B68A38003B0F0BD0022CE
:10070000CEE7C3F56D6308339BB20E2BD2D800231E
:10071000D9E700BF84010020820100208001002071
:10072000880100208C01002037B568460D4614462C
:10073000FFF794FFBDF8000030B1BDF802302B6028
:10074000BDF804302360012003B030BD032821D858
:10075000DFE800F0020B12190F4B1A68B2FA82F2AE
:10076000520904210D4802F059BF0B4B5A68B2FAE6
:1007700082F252090821F5E7074B9A68B2FA82F231
:1007800052091021EEE7044BDA68B2FA82F25209FC
:100790002021E7E7704700BF9001002000100240D1
:1007A000032821D8DFE800F0020B12190F4B1A685A
:1007B000003A18BF012204210D4802F02FBF0B4B55
:1007C0005A68003A18BF01220821F5E7074B9A68DA
:1007D000003A18BF01221021EEE7044BDA68003A14
:1007E00018BF01222021E7E7704700BF90010020D9
:1007F0000010024003280DD8DFE800F00206080AC6
:100800000421054802F00FBF0821FAE71021F8E79C
:100810002021F6E7704700BF0010024008B503280A
:1008200011D8DFE800F0020A0C0E0421074802F09C
:10083000EFFE431E5842584108BD0821F6E710213B
:10084000F4E72021F2E70020F3E700BF00100240A8
:1008500070B5084D00240126E0B2FFF7DFFF18B1A4
:100860002B68012B18BF2E600134052C05F10405FF
:10087000F2D170BD90010020012380F8741080F83F
:100880007530704700207047034B4164003918BF32
:1008900001211970704700BF033301200020704709
:1008A000836B0BB10846184770474FF6FF707047CF
:1008B000406803689B69184770477047704700009D
:1008C00070B5044600F0EAFC2368D3F88850044B66
:1008D000D4E90F122046AC46BDE87040604700BF27
:1008E000000000D008B503680446D3F8803098476C
:1008F000236820469B6F984700F0ECF82368204659
:100900001B6F9847292001F019F800F0E3F82368DD
:1009100020461B6F9847F8E710B5044608F038F9F1
:1009200023682046D3F8AC30BDE81040184700F0EB
:10093000A7BC00F0ABBC00F0D7BC00F07DBC00F061
:10094000DFBC00F0E7BC00F081BC07F087BB10B54E
:100950007C2104461BF0DFFE204610BD90F8773066
:100960001BB1406803681B681847184670470000B1
:1009700010B590F8341090F874400C4B8C421A78F3
:1009800009D03AB90A4A0B491488088810800C80AB
:1009900001221A7010BD002AFCD0054A05491488AE
:1009A000088810800C800022F3E700BFFC32012091
:1009B000F8320120FA32012070B50D46194635B9DA
:1009C000094B0A4A0A4840F2D2211CF0B7FCC0E9A0
:1009D0000F52084B003A18BF01221A700368BDE895
:1009E0007040D3F88C3018470CE5010844E5010845
:1009F00092E501080233012008B5094B1B888B42A0
:100A000003D8084B1B88934205D9074B074A08486F
:100A10009E211CF093FC074B1980074B1A8008BDE0
:100A2000F8320120FA320120D7E501083AE6010840
:100A300092E50108FE32012000330120012108B5B2
:100A40000022084604F007FE0A4B186028B90A4B3A
:100A50000A4A28210A481CF071FC002204210120C6
:100A600004F096FE074B186018B9074B034A2C2177
:100A7000F0E708BDA401002058E70108A1E701083C
:100A8000D0E70108A001002044E80108024B4FF024
:100A9000FF31186804F029BEA4010020014B18683A
:100AA00004F04EBEA4010020024B0021186804F09F
:100AB0001CBE00BFA4010020FFF7F0BF034804499B
:100AC000006800231A4604F09EBE00BFA00100206B
:100AD0000400002013B5084C00231A4601A9206821
:100AE00004F0C1FE20684FF0FF33002201A904F09A
:100AF000BAFE02B010BD00BFA001002003685B6C0D
:100B000018470120704703689B6A184782B000238A
:100B100001930D4B1A6B42F400021A631A6B02F434
:100B200000020192019A1A6942F400021A611A69DC
:100B300022F400021A61054B054A1A61054B4FF079
:100B400080629A6002B0704700380240D8220020CC
:100B5000990B000800E100E040F2EF307047000020
:100B6000054B0360054B4FF08062C3F88820BFF34C
:100B70004F8FBFF36F8F704708EA010800E100E074
:100B800010B504464FF45A61FFF7EAFF20461BF008
:100B9000C2FD204610BD0000024B1B685868036868
:100BA0005B6918470433012070B5044625460A4B9B
:100BB0000C30002660602672667245F8203B602289
:100BC000294608F03BF904F55A63EE602435AB4240
:100BD000FBD1204670BD00BF08EA010808B50B290B
:100BE0000BD8DFE801F01206100A0A0A0A08080802
:100BF0000808012008BD0520FCE7054B054A06480A
:100C000066211CF09BFB0020F4E70220F2E700BF06
:100C100086E80108A1E80108EBE8010808B50A29FF
:100C200009D8DFE801F010060E08080808060606D5
:100C30000600012008BD054B054A064887211CF027
:100C40007DFB0020F6E70220F4E700BF86E80108FC
:100C50005DE90108EBE801082DE9F8434F7F0C46F8
:100C600039468146FFF7BAFF94F81E800546414693
:100C70004846FFF7B3FF414606464846FFF7CEFF1A
:100C8000A18A628B424B521A1A649A61228B521AC1
:100C90001A61E28A586342EA01425A642069626832
:100CA000D863DA60216894F81CC080294FEA0C628E
:100CB00026D010D8202945EA020461D040295FD00F
:100CC00004295DD0324B2A4342F400324745DA61B1
:100CD0005AD0304A40E0B1F5807F07D0B1F5007FAF
:100CE000F0D142F4003242F0090203E042F4003253
:100CF00042F00A02DA61E2681A625E6258612AE032
:100D0000A4682A4342F40032211DD962DA612278B4
:100D10005E62586142B1012A21D01F4B1F4A204810
:100D200040F211111CF00AFBDA69618822F47F425B
:100D3000013922F0100242EA0122DA610120144B4B
:100D4000DA6942F02002DA61DA699206FCD41022F4
:100D50009A600028BDD0134A1A60BDE8F883628803
:100D6000D969541E21F47F4222F0100242EA042283
:100D7000BCF1FF0042F0100218BF0120DA61DEE78B
:100D800044F40034DC61B8E740F20122E4E700BF3C
:100D900000B0024001020100A8E90108C2E901080F
:100DA000EBE801080102020070B50C46897FFFF7ED
:100DB00035FFA68AE18A628B154B2569586341EAA3
:100DC0000641921B5964DD631A642668E168082EA7
:100DD0000DD19A611A615862207F0E4A42EA006280
:100DE000DA610D4A19625D61DD601A6070BD002232
:100DF000D8611A6148090A0A02F4784200F4FC60DA
:100E00000243C1F3C4010A439A63044AEDE700BFF9
:100E100000B00240090001000102020001020300CB
:100E2000034B1A68D207FCD423229A60704700BF94
:100E300000B0024030B50E4C2568ED07FCD42325E8
:100E40001204A56042F001020225FF2B6563626473
:100E5000E063E16008D01B0643F00213E361054B39
:100E600065626061236030BD034BE3610123F9E7F4
:100E700000B0024001000200020002FF30B50B4C3E
:100E80002568ED07FCD4232512041B06A56043F456
:100E90000033022542F0010265636264E063E160B1
:100EA000E361034B65626061236030BD00B00240C6
:100EB00001000200012070470C2070470C2303FB47
:100EC0000100083070470C2303FB01000830704715
:100ED0000120704741F2CC00704741F2CC0303FB84
:100EE00001000830704741F2CC0303FB01000830D9
:100EF0007047012070471020704700EB0110083048
:100F0000704700EB011008307047084601F0F0B957
:100F100010B5034B0360044606F027FC204610BDC5
:100F2000C0EA010810B50446FFF7F2FF204614217D
:100F30001BF0F1FB204610BD10B5034B03600446C7
:100F400006F013FC204610BD8CEA010810B50446DB
:100F5000FFF7F2FF204641F2D4011BF0DCFB2046F4
:100F600010BD000010B5034B0360044606F0FDFB06
:100F7000204610BD58EA010810B50446FFF7F2FFFD
:100F8000204618211BF0C7FB204610BD10B5084BAA
:100F90000360044600F58850FFF7BAFF04F12C0007
:100FA000FFF7CAFF04F11400FFF7DCFF204610BD75
:100FB000F4EA010808B50248FFF7E8FF08BD00BFE2
:100FC000AC01002010B50446FFF7E0FF204641F2D7
:100FD00074211BF0A0FB204610BD00002DE9F34159
:100FE00001F012F8054601F013F8002401462346EB
:100FF0002846224600940EF077FB264B264A274DC2
:101000001A60204601F006FD25480EF0D5FA2B782F
:10101000BFF35B8FDB0737D428461BF07EFB98B30A
:10102000204C214B236004F5885707F1180604F182
:10103000140004F12C086060C4F80880E7602661A1
:1010400006F094FB194B6361404606F08FFB184B8A
:10105000E362384606F08AFB04F58053154AC3F86C
:10106000002103F58A7001F051FD224607F11401B9
:10107000304601F041FD304601F03AF90E481CF0CF
:101080007BF928461BF055FB0C4802B0BDE8F04147
:10109000FFF716BC6833012040220020A801002081
:1010A00008000020AC010020F4EA010858EA010819
:1010B0008CEA0108C0EA0108B50F0008C42100202D
:1010C000704700000148FFF70DBC00BFC42100209D
:1010D00070B5234C234E244B244D23603046FFF73C
:1010E00063FD284611F00AFC214B2248DC60224CAB
:1010F00003600022F0204FF480712080C3E91212B7
:101100001E4C1F492080C3E919121E4C1A864FF04D
:1011100080714FF4A07059670121C3E90422C3E92B
:101120000622C3E90822C3E90A22C3E90E22C3E961
:101130001022C3E91422C3E916221A6683F86C2030
:101140001A67C3E9016583F8781020800E4C83F894
:10115000341020800D4802700D4A1A6070BD00BF27
:101160002014002024140020FCE401084422002064
:10117000C421002004330120F8320120FE32012076
:1011800001000001FA32012000330120FC3201206D
:1011900088E601080148FFF7E3BC00BF24140020E3
:1011A0000020704781807047C1807047018170477F
:1011B000418170477047704770477047704710B45F
:1011C000C4880368121B84885B6D091B12B25DF82A
:1011D000044B09B218474FF6FF7383814FF0FF337A
:1011E00003621368C3611060704790F825201AB13C
:1011F00090F8242002B118607047002070478B8857
:10120000838001207047704780F82610704790F85F
:101210002600704710B50022B1F90840B1F90A1054
:10122000028042808480C18010BD00220280428002
:101230008280C28070470000034B902283F85A23BB
:1012400083F85823704700BF00E100E0094A0A49CB
:10125000D3680A48C3F30A03013B9BB20B801169B0
:10126000C1F30A01013901801364536B43F0010398
:101270005363704700680140C0220020BE22002056
:10128000014BD3F8AC00704700680140024B0122CB
:10129000C3F8AC105A6270470068014070B504464C
:1012A00006F031FF23685D6E0BF07CFC01462046A2
:1012B000A8472368054AD3F888502046AC46002347
:1012C000BDE87040A2F51631604700BF00B004D001
:1012D00006F000BF90F84B3013B1024B01221A7098
:1012E00006F004BFBC22002006F0BEBE07F019B80D
:1012F00090F8252012B103685B6918477047000019
:10130000034B4FF080629A604FF080729A60704792
:1013100000E100E0084B4FF08062C3F88820BFF383
:101320004F8FBFF36F8F4FF08072C3F88820BFF3E9
:101330004F8FBFF36F8F704700E100E070B500235F
:10134000124E8380124B0360336893F87620054673
:101350000AB1D86C00B998680368DB6A98473368AB
:10136000B0FA80F4D86C640930B10368DB6A98473E
:10137000002808BF44F001042CB9064B064A074870
:101380002C211BF0DBFF284670BD00BF0433012079
:1013900004EC010800EB01085EEB010897EB010883
:1013A00010B5144C236823B3134B144A1B6C1188DB
:1013B0008B4213D1124B198802F016FF226892F863
:1013C0006630013382F86630FFF778FB206807F05B
:1013D000DFFBBDE810400020FFF7B8B902F004FFC2
:1013E000206803681B6A9847BDE810400020FFF79B
:1013F000D7B910BD0433012000680140C02200208D
:10140000BE22002007B5064BADF806001B68054854
:1014100001220DF1060103F033FC03B05DF804FB7B
:10142000100000204824002008B5642004F007F9CB
:10143000FBE7000030B595B0102200210AA81CF08F
:1014400009F81422002103A81CF004F800241D4B05
:1014500001941A6C42F080521A641B6C03F08053A2
:101460000193019B184B02941A6842F440421A609F
:101470001B6803F4404302930122029B4FF4803324
:10148000CDE9082302254FF48003CDE90E5308214E
:101490004FF4A873CDE9101308A8042313931295F1
:1014A00002F0C0FE0F23CDE903354FF4A0504FF4F6
:1014B0008053CDE90603052103A8059403F090F8B5
:1014C00015B030BD003802400070004080B59AB0C1
:1014D00001F01AFEFFF7AEFF142200210DA8002430
:1014E0001BF0B8FFC04B00941A6BC048C04D42F0CF
:1014F00010021A631A6B02F010020092009A019413
:101500001A6B42F020021A631A6B02F02002019259
:10151000019A02941A6B42F080021A631A6B02F06D
:1015200080020292029A03941A6B42F004021A6338
:101530001A6B02F004020392039A04941A6B42F0AD
:1015400001021A631A6B02F001020492049A0594D4
:101550001A6B42F002021A631A6B02F00202059241
:10156000059A06941A6B42F040021A631A6B02F055
:1015700040020692069A07941A6B42F008021A6318
:101580001B6B03F00803079322463C21079B02F0E4
:1015900045F898482246042102F040F82246964831
:1015A0004FF4405102F03AF801264FF003083C2373
:1015B0008E48CDF840800DA902274FF00409CDE9EF
:1015C0000D360F9401F03EFF8A480F940DA9CDE926
:1015D0000D96109701F036FF0DA94FF44053864841
:1015E000CDE90D36CDE90F4701F02CFF8348844B40
:1015F000036001F01BFE834A834B2C62C5E9002384
:1016000028464FF48043C5E90434C5E90244C5E9DE
:10161000064402F0EDF91021284602F029FC21468B
:10162000284602F044FC7948794984624FF4827379
:10163000C0E900134FF400751823C0E906530A23CC
:10164000744DC362C0E90244C0E90444C0E90844DF
:1016500003F0BAFA704B0D974FF0100CC5E9003645
:101660004023C5E904C34FF4C073C5E906344FF401
:101670000063C5E908344FF40053AB620DA907239A
:101680002846CDE90E39CDE910384FF0080AC5E9F2
:101690000249CDE9127703F097F94FF6FF7209A9D5
:1016A0002846CDE90AA6089409960C9403F0ACF9F3
:1016B000304601F055FD4FF6FF7209A92846CDE9E5
:1016C000097ACDE90B6403F09FF94FF6FF7209A97F
:1016D0002846CDE9098ACDE90B9403F095F94FF43A
:1016E0000C730893089B0C934FF6FF7209A92846C8
:1016F000CDE9099A0B9603F087F940F26A51284622
:1017000003F0A0F9342221460DEB02001BF0A2FEEB
:10171000424D434BAC86C5E900340923C5E9053683
:101720001D2340F20D1EC5E9073840F24313C5E9F9
:1017300009E3284640F2471340F21718C5E90B8326
:10174000C5E902442C6185F8364002F055FCFF21C2
:10175000F022CDE912144FF4806905214FF4A073F3
:10176000CDE90E24CDE91491CDE916420DA922460A
:101770002846CDE910372B4D18930D94ADF86440F1
:101780008DF8664002F003FD274B2B601B689847DD
:101790002B68264DDB689847254BC5E90A47C5E904
:1017A0000C442846C5E90034C5E9027401F04EFD39
:1017B0003146284601F002FEFEF716FFFEF713FF42
:1017C0001C4A1D48214603F0F1FE1C4B1C4A1860C0
:1017D00021461C4803F0EAFE1B4B186003F0BAFEDA
:1017E00003F0CAFEFEE700BF0038024000100240CE
:1017F0001823002000080240000C0240D0220020E4
:1018000000300240005C0040A08601004824002017
:101810000050014014240020400100A06C2300204F
:1018200000680140C822002014000020D8220020B7
:1018300000B0024058EC010829140008CC22002016
:1018400034EC0108F7050008C422002070477047F7
:101850007FB5094B8DF817201B6802930DF1170215
:101860000123009201930A460146044802F068F9F8
:1018700007B05DF804FB00BF0C0000201823002017
:101880007FB500238DF81730084B1B6802930A467A
:1018900001230DF11701009101930146044802F064
:1018A000DFF99DF8170007B05DF804FB0C0000207D
:1018B000182300201FB5084C24680092CDE901349C
:1018C0000A4601230146054802F0CAF9003818BF4C
:1018D000012004B010BD00BF0C0000201823002020
:1018E00001F03EBC08B506480022042101F096FE36
:1018F000BDE8084002480122042101F08FBE00BF6C
:101900000008024038B50B4D044601220A484FF446
:10191000005101F083FE00220421284601F07EFEE2
:101920002046FFF76FFD28460122BDE8384004211C
:1019300001F074BE00080240000C024038B50B4DA7
:10194000044600220A484FF4005101F067FE0022CD
:101950000421284601F062FE2046FFF753FD284689
:101960000122BDE83840042101F058BE00080240C1
:10197000000C0240F7B5144E144F05460C46304695
:101980000022042101F04AFE00224FF400513846A3
:1019900001F044FE2846FFF735FD0D4B0D481B684E
:1019A000224601A903F00EFB384601224FF40051F4
:1019B000019C01F033FE30460122042101F02EFE8D
:1019C000204603B0F0BD00BF00080240000C0240FA
:1019D000100000204824002001F0C2BB0268034B25
:1019E0009A4201D101F0AABB704700BF001000402D
:1019F0007047000082B00E4B00220092596C41F4F7
:101A000080415964596C01F4804100910099019220
:101A1000196C41F0805119641B6C03F080530193E1
:101A2000019B0F216FF0010002B001F0BFBB00BFAE
:101A3000003802400268094B9A4282B00BD1002361
:101A40000193074B1A6B42F480521A631B6B03F429
:101A500080530193019B02B0704700BF00300240E9
:101A60000038024007B50F4B02689A4216D1002297
:101A7000A3F5F0430192196B41F4000119631B6B4C
:101A800003F40003019305215A20019B01F08EFB12
:101A90005A2003B05DF804EB01F0BABB03B05DF867
:101AA00004FB00BF00B002402DE9F043044689B0BA
:101AB0001422002103A81BF0CDFC2268244B9A427B
:101AC00043D1244C244800250095236B43F00403A4
:101AD0002363236B03F004030093009B0195236BA6
:101AE00043F001032363236B03F001030193019B84
:101AF0004FF012094FF400734FF00108032704263A
:101B000003A9CDE90339CDE90587079601F09AFCD1
:101B10004FF480731148079603A9CDE90339CDE945
:101B2000058701F08FFC0295236C43F400032364C6
:101B3000236C03F400030293029B236A43F4000323
:101B40002362236A23F40003236209B0BDE8F08313
:101B5000005C0040003802400008024000000240E3
:101B6000F0B599B004461422002107A81BF072FCBE
:101B700030220DEB020000211BF06CFC22685E4B52
:101B80009A4240F0B78008230C93C023109304239B
:101B900012930CA84FF40033159302F0EBFD08B13B
:101BA000FFF726FF554B5648002400945A6C42F02C
:101BB00080625A645A6C02F080620092009A01942A
:101BC0001A6B42F020021A631A6B02F02002019293
:101BD000019A02941A6B42F001021A631A6B02F026
:101BE00001020292029A03941A6B42F002021A63F3
:101BF0001A6B02F002020392039A04941A6B42F0E9
:101C000040021A631A6B02F040020492049A05948F
:101C10001A6B42F004021A631A6B02F00402059276
:101C2000059A06941A6B42F008021A631B6B03F0C4
:101C30000803069302250E26069B0B964FF480633D
:101C400007A9CDE90735CDE9094501F0FBFB41F6D0
:101C500058032C480B9607A9CDE907350927CDE98C
:101C6000094501F0EFFB032327480B9707A9CDE9AE
:101C70000735CDE9094501F0E5FB4FF470632248D3
:101C80000B9607A9CDE90735CDE9094501F0DAFB47
:101C90004FF40C631D480B9607A9CDE90735CDE934
:101CA000094501F0CFFBC02319480B9607A9CDE9E0
:101CB0000735CDE9094501F0C5FB082315480B960A
:101CC00007A9CDE90735CDE9094501F0BBFB4FF484
:101CD000A0530E480B9707A9CDE90735CDE9094573
:101CE00001F0B0FB58202246052101F05FFA582090
:101CF00001F08EFA19B0F0BD0068014000380240D2
:101D0000001402400000024000040240001802409B
:101D100000080240000C024010B5044688B01422AE
:101D2000002103A81BF096FB2268144B9A4223D192
:101D300003F56843002101915A6C114842F4801266
:101D40005A645A6C02F480120192019A02911A6B41
:101D500042F020021A631B6B03F020030293029BE4
:101D60004FF4607202230321CDE903230523CDE95B
:101D7000061303A901F066FB08B010BD0050014036
:101D8000001402402DE9F04186B0002303932B4B51
:101D90001C68002C4FD14FF00108C3F80080284B7D
:101DA00000949A6B274842EA08029A639B6B03EA05
:101DB00008030093022703260C25009B01A94FF678
:101DC0003F03CDE90137CDE9046501F03BFB1E4837
:101DD000059501A9CDE90187CDE9034601F032FB64
:101DE00048F233131948059501A9CDE90137CDE92A
:101DF000034601F027FB4FF683731548059501A9AB
:101E0000CDE90137CDE9034601F01CFB4CF2037329
:101E10001048059501A9CDE90137CDE9034601F048
:101E200011FB60230C48059501A9CDE90137CDE9E7
:101E3000034601F007FB06B0BDE8F081A0240020B6
:101E4000003802400014024000080240001802401E
:101E500000100240000C02400004024070B588B03F
:101E600000230293204B1A6C42F010021A641B6C80
:101E700003F010030293054601A903A8029B02F098
:101E80005BFC069B4BBB02F047FC184E184B3360C3
:101E900040F2E733F360174BB0FBF3F3013B7360A1
:101EA000304600233361B360B36103F077FA044630
:101EB00080B9304603F02CF9044658B9362001F0B9
:101EC000A7F90F2D0DD822462946362001F06EF9CC
:101ED000094B1D60204608B070BD02F01DFC40009B
:101EE000D3E70124F6E700BF00380240A424002015
:101EF0000010004040420F007C0000207047FEE7C9
:101F0000FEE7FEE7FEE77047014803F03FB900BF78
:101F1000A4240020014802F0DDB800BF6C2300209B
:101F2000014801F0C1B900BFD8220020012070474C
:101F300008B51BF035FA162303604FF0FF3008BDDB
:101F400008B51BF02DFA16230360FEE770B50D46A9
:101F500014460E46731B9C4201DC204670BDAFF355
:101F6000008006F8010BF5E770B50D4614460E46E5
:101F7000731B9C4201DC204670BD16F8010BAFF3C9
:101F80000080F5E74FF0FF3070474FF400534B608F
:101F90000020704701207047002070470A4A1168EE
:101FA00008B5034609B90949116010686946034438
:101FB0008B4206D91BF0F4F90C2303604FF0FF307D
:101FC00008BD1360FCE700BFEC240020B035012001
:101FD000704710B5042104461AF09DFB204610BD41
:101FE000012908B506D0022908D059B900F05EFDD4
:101FF000006808BD00F05AFD4068FAE700F056FDA1
:102000008068F6E70020F4E70048704790EC01088C
:102010000520704713B5002451B1036801948DF871
:10202000034001AA9C680DF10303A04702B010BD54
:102030000846FBE7C0897047008A7047C088704730
:1020400080887047807A00F07F007047807AC009EE
:102050007047704710B5082104461AF05CFB204613
:1020600010BD7047704700F598730868496803C34E
:10207000704770477047416070477047064BC0F823
:102080004C310023C0F8503100F5A273C0F848016C
:10209000C0F84031704700BF3D21000801230372A2
:1020A00070477047704710B4C268416854100346C7
:1020B00001EB6200D20748BF0A599B685DF8044BE8
:1020C00048BFD358184743682BB183682BB9C06801
:1020D00000F001007047184670470120704710B5A6
:1020E0000C2104461AF017FB204610BD10B5102134
:1020F00004461AF010FB204610BD10B54FF4AE7127
:1021000004461AF008FB204610BD08B50AF04AFD47
:10211000BDE808400BF0D8B910B50446D0F840012E
:1021200058B10368DB68984738B1D4F840010368B8
:102130009B6898470023C4F8403110BD2DE9F14F4A
:10214000D0E9555A0746A86803681B6A984741F2C8
:10215000CB03984205D8464B464AA32146481BF07C
:10216000EDF8686803681B6A98470F2803D8434B4B
:10217000404AA421F2E7E86803681B6A98470B28E5
:1021800003D83F4B3B4AA521E8E70AF00BFDDFF8F7
:10219000F89004300AF044FDD9F8000010B103684B
:1021A000DB689847D9F8000010B103681B689847AE
:1021B000DFF8D880D8F8000010B103685B69984751
:1021C000D7F83C0110B103685B689847D8F8000065
:1021D00010B103681B689847D7F83C0110B1036839
:1021E0009B689847E868036800215B6A98474FF04E
:1021F000000B244B03600446C0F804B080F808B01C
:10220000A868036859465B6A9847064600F0B6FC22
:102210006868036859465B6A98473146054600F08E
:1022200087FCC9F80040C7F83C51C8F80060E5B128
:102230002B1DCAF800303368C5F808A03046DB68AB
:10224000F56398472B6828461B6898472146304617
:102250000CF034FA236820461B69984723685B69B1
:10226000204601B0BDE8F04F18472B46E1E700BF1C
:1022700004ED010892ED010896EE0108DDEE01087B
:1022800080EF010890F001084C3301204833012011
:10229000F8B5044617460E460AF090FD104B00258F
:1022A000C4E955760F4E1C60C4E953550E4B306897
:1022B00023600E4BC4E95135036801219B68C4E9D2
:1022C0004F559847284600F0A5FB336893F87620D1
:1022D0000AB1D86C00B9986812F0F7F82046F8BD3A
:1022E000583301200433012044F001082CF0010888
:1022F000064BC0F84C310023C0F8503100F5A273F2
:10230000C0F84801C0F84031704700BF3D210008C7
:10231000406A7047806A704770478B88C0690A6856
:10232000DB0A50F823001044704710B5C2B1137B8C
:10233000B3B1547BD27A240204F4E0641443026AF9
:1023400098B202EB840213888B4202D192F9020008
:1023500010BD05D8013880B204320028F3D1F7E768
:102360000020F5E710B52C2104461AF0D4F92046D8
:1023700010BD000030B58BB00446BDF86050089524
:10238000BDF85C5007959DF8505006959DF84C504F
:1023900005959DF8485004959DF8445003959DF887
:1023A000405002959DF83C500195BDF8385000957D
:1023B0000BF034FD064B2360159BE361169B2362F3
:1023C000199B63621A9BA36220460BB030BD00BF0D
:1023D000B4F0010870477047704770477047704706
:1023E000017670478182C28270477047704770479C
:1023F00030B4C26844685510034604EB6200D2074B
:1024000048BF62599B6830BC48BFD35818474368DF
:102410002BB183682BB9C06800F0010070471846E3
:1024200070470120704710B5202104461AF073F957
:10243000204610BD10B5102104461AF06CF9204654
:1024400010BD70B505460B8825F8043F04462846A4
:102450000DF0CEFAA07128460DF05AF9064628462E
:102460000DF08AF90023A360E081A68104F1080041
:102470000AF0FCF928460DF037FA206170BD000023
:1024800010B5034B0360044608F0DAFE204610BD89
:102490000CF2010807B5074B0360019008F0D0FE6D
:1024A000019841F2CC011AF036F9019803B05DF8B9
:1024B00004FB00BF0CF2010800F519728A4202D138
:1024C0000368DB6A1847704770B5036804461B6BE6
:1024D000154698472368294620465B6BBDE8704047
:1024E000184770B504461D46BDF91060FFF7ECFFB4
:1024F0002368294620469B6B98472368314620462F
:10250000DB6BBDE870401847094A02604FF48071E8
:1025100000228184FF21C0E90122C0E90322C0E931
:102520000522C0E9072280F826108262704700BFAA
:10253000ACF801081A4B73B51B88018F8B42064615
:102540002AD9184B1B682BB9174B184A18486C210D
:102550001AF0F4FE13F81120164B1B6853F82250A2
:10256000154B186800F092FA2B6801909B6B284677
:1025700098472B6801999B6C0446284698472B681E
:1025800001995B6A14FB00F428469847A4B20444FE
:10259000A6F8464002B070BD0023A0F84630F9E727
:1025A000603301205C3301200CF101084EF1010879
:1025B00089F1010864330120683301202DE9F04FCF
:1025C000044685B0A04600250BF0CCFE774BE563B2
:1025D00048F8403B04F16C0B404604F19806FFF7C5
:1025E00093FF5846FFF790FF04F50E7A304607F048
:1025F000E5FB4FF6FF735046ADF80C30FEF79EFE3C
:102600006B4BC4F84032BDF80C30A4F8443203A937
:1026100004F51070C4E99255C4E9945584F8465203
:1026200084F85852FFF70DFF624BC4F8383204F5B6
:1026300019772433C4F84032384607F03BFF5E4A2E
:1026400004F58053C3E92F245C4A04F52B70C3E9D9
:1026500031254FF4616108F0E9FD4FF4A0732A467B
:10266000009329464046F023FFF73BFF04F104099D
:102670004FF07F43A3664146484605F059FA4FF4B0
:10268000A0732A46009329465846F023FFF729FFF6
:102690004FF07F43C4F894305946484605F048FA55
:1026A000022303A93046ADF80C3005F0D3F9F0232E
:1026B00000932A4629463046FFF713FF772211463A
:1026C000304607F054FC304679226FF0740107F071
:1026D000D3FC2B46642229463046009505F067F866
:1026E0003046322107F072FC092240233046042193
:1026F00007F028FC3046012107F0C0FB30460121DD
:1027000007F0BFFB3046012107F0BEFB03A90323FE
:102710005046ADF80C3006F0C6FC304607F0B7FB6B
:10272000C0F828A0304607F0B2FB4FF4486343637B
:10273000304607F0ACFB4FF446630364304607F0C5
:10274000A6FBB42106F046FD17228E231146009306
:102750003046C02307F06AFB3146484605F0E8F9E9
:1027600029463846FB22FFF7AFFE012303AA02A940
:102770003846ADF80C30ADF8085007F094FC3846F8
:10278000A4F89C52FFF7D6FE4FF0FF33C4E9A833FC
:1027900004F585531C334846C4F88C32394605F09D
:1027A000C7F9204605B0BDE8F08F00BF0CF2010864
:1027B000D8F10108C4F60108F4F10108B9240008B1
:1027C0007047000030B5164D2C78BFF35B8F14F0C6
:1027D00001048FB020D1284619F09FFFE0B13F23BC
:1027E0000993104B0893104B104911480A94012289
:1027F000CDE906430423CDE903320A230093CDE952
:102800000B44CDE901440594FFF7B4FD09481AF0E3
:10281000B3FD284619F08DFF05480FB030BD00BF4D
:10282000F0240020C8060208D40602088C0602081C
:10283000F4240020C12700087047000030B5164D71
:102840002C78BFF35B8F14F001048FB021D12846A0
:1028500019F063FFE8B13F230993104B0893104B25
:10286000104911480A94CDE9064301220423CDE919
:102870000332142300930222CDE90B44CDE9014435
:102880000594FFF777FD09481AF076FD284619F000
:1028900050FF05480FB030BD20250020CC060208AF
:1028A000D80602089C0602082425002039280008C2
:1028B0007047000030B5164D2C78BFF35B8F14F0D5
:1028C00001048FB020D1284619F027FFE0B13F2343
:1028D0000993104B0893104B104911480A94012298
:1028E000CDE906430423CDE9033228230093CDE943
:1028F0000B44CDE901440594FFF73CFD09481AF06B
:102900003BFD284619F015FF05480FB030BD00BF4C
:1029100050250020D0060208DC060208B80602088E
:1029200054250020B128000800207047002070477F
:102930000EB403B503AB002153F8042B01930BF045
:1029400095F802B05DF804EB03B070470CB407B51E
:1029500004AB53F8042B01930BF088F803B05DF837
:1029600004EB02B070470000436C10B5044673B32B
:10297000038F2BB9184B194AC52119481AF0DEFCF0
:10298000C38E00EB43035B8C0BB30CF0DAFB238F9D
:10299000012B03D8134B144ACB21EEE7E28E531CD4
:1029A0009BB2092B194688BFA3F10A0104EB410130
:1029B00040F63F10498C814209D10A2B04EB4202B8
:1029C00028BF002304EB4303508C588451842046D5
:1029D000BDE810400CF0B8BA3CF2010845F201081D
:1029E000F0F201083AF3010848F301080CF073BA59
:1029F00010B586B002AC84E806001A460AAB05930F
:102A00000193099B00932146089B09F06DFC06B0D9
:102A100010BD000038B518BB124B13481B68134992
:102A2000B3B11A689C681A4402605A681A440A6072
:102A30001C440F4B00221A8000F038F8054600F0C5
:102A400033F80C4B1C600C4B1D600C4B188007E0DE
:102A50000B4B03600B4B0B600B4B1C68002CE8D13D
:102A600038BD00BF80250020842500208825002057
:102A70008C2500205C330120643301206033012069
:102A8000E4060208E0060208EC060208044B1B6894
:102A900053F82100034B1B6803EB4000704700BF55
:102AA00088250020842500200120704700487047B9
:102AB0009025002010B5FFF7C1FE044C2060FFF701
:102AC000F9FE6060FFF77EFEA06010BD902500203B
:102AD000704710B54FF4AE71044619F01CFE204645
:102AE00010BD10B50446D0F8580100F012F8204689
:102AF000BDE810400AF0F2B810B50446FFF7C8FB75
:102B0000014B2360204610BD24F40108002202601E
:102B100070477047704704387047704710B51021F0
:102B2000044619F0F8FD204610BDA0F10400F5E7B9
:102B300010B500228260044AC16002F1080420320C
:102B40000460426010BD00BF68F4010870470000D7
:102B500010B5034B03600446FFF792FC204610BDFE
:102B600098F4010810B50446FFF7F2FF204641F241
:102B7000CC0119F0D0FD204610BD000010B5044670
:102B8000FFF71CFD014B2360204610BD98F401089F
:102B9000FFF72CBC10B500F19804204604F044FE69
:102BA000411C2046BDE8104007F010BAF0207047E5
:102BB0004FF4A07070472920FEF7C0BE2820FEF712
:102BC000BDBE08B5FEF78EFECA20FEF7B7FEC320D5
:102BD000FEF798FE0820FEF795FE5020FEF792FEC5
:102BE000CF20FEF7ABFE0020FEF78CFEC120FEF7E3
:102BF00089FE3020FEF786FEED20FEF79FFE642062
:102C0000FEF780FE0320FEF77DFE1220FEF77AFE1F
:102C10008120FEF777FEE820FEF790FE8520FEF784
:102C200071FE0020FEF76EFE7820FEF76BFECB20D3
:102C3000FEF784FE3920FEF765FE2C20FEF762FECB
:102C40000020FEF75FFE3420FEF75CFE0220FEF758
:102C500059FEF720FEF772FE2020FEF753FEEA2011
:102C6000FEF76CFE0020FEF74DFE0020FEF74AFE48
:102C7000B120FEF763FE0020FEF744FE1B20FEF7A6
:102C800041FEB620FEF75AFE0A20FEF73BFEA220C8
:102C9000FEF738FEC020FEF751FE1020FEF732FE90
:102CA000C120FEF74BFE1020FEF72CFEC520FEF7DC
:102CB00045FE4520FEF726FE1520FEF723FEC72021
:102CC000FEF73CFE9020FEF71DFE3620FEF736FE96
:102CD000C820FEF717FEF220FEF730FE0020FEF7B8
:102CE00011FEB020FEF72AFEC220FEF70BFEB62032
:102CF000FEF724FE0A20FEF705FEA720FEF702FEDF
:102D00002720FEF7FFFD0420FEF7FCFD2A20FEF73A
:102D100015FE0020FEF7F6FD0020FEF7F3FD002073
:102D2000FEF7F0FDEF20FEF7EDFD2B20FEF706FE8F
:102D30000020FEF7E7FD0020FEF7E4FD0120FEF78E
:102D4000E1FD3F20FEF7DEFDF620FEF7F7FD012056
:102D5000FEF7D8FD0020FEF7D5FD0620FEF7D2FDD8
:102D60002C20FEF7EBFDC820FEF736FE2620FEF7EE
:102D7000E5FD0120FEF7C6FDE020FEF7DFFD0F2098
:102D8000FEF7C0FD2920FEF7BDFD2420FEF7BAFDA9
:102D90000C20FEF7B7FD0E20FEF7B4FD0920FEF76C
:102DA000B1FD4E20FEF7AEFD7820FEF7ABFD3C20D6
:102DB000FEF7A8FD0920FEF7A5FD1320FEF7A2FDF2
:102DC0000520FEF79FFD1720FEF79CFD1120FEF762
:102DD00099FD0020FEF796FDE120FEF7AFFD0020F3
:102DE000FEF790FD1620FEF78DFD1B20FEF78AFDF5
:102DF0000420FEF787FD1120FEF784FD0720FEF773
:102E000081FD3120FEF77EFD3320FEF77BFD422061
:102E1000FEF778FD0520FEF775FD0C20FEF772FD2C
:102E20000A20FEF76FFD2820FEF76CFD2F20FEF72D
:102E300069FD0F20FEF766FD1120FEF77FFDC8201B
:102E4000FEF7CAFD2920FEF779FDBDE808402C20D9
:102E5000FEF774BD08B5FEF745FD0321D320FEF74C
:102E600089FD80B208BD10B5C4B2022203212046FC
:102E7000FEF7EEFC0A20FEF733FD20460022032178
:102E8000FEF7E6FCBDE810400220FEF729BD38B58C
:102E90000446E4B2FEF7DAFC00212046FEF7F0FC1F
:102EA000012105462046FEF7EBFC40EA052080B2F2
:102EB00038BD10B5C4B240212046FEF7E1FC030640
:102EC00007D54C212046FEF7DBFC003818BF012057
:102ED00010BD01224B212046FEF7BAFC20460022FD
:102EE0004B21FEF7B5FC0020F2E773B50423C4B212
:102EF0000E461546D7210DEB03022046FEF7DAFCFD
:102F0000019B1BBA1A0DC3F30B23328020462B8082
:102F100001224B21FEF79CFC00224B212046FEF7AC
:102F200097FC02B070BD000010B50A4B1A789042B1
:102F300004460DD0597888420AD00AB141B901221D
:102F40009C54FEF783FC2046BDE81040FFF78BBF82
:102F500010BD00BF9C25002010B5C4B20921204639
:102F6000FEF78EFC40F00100C2B209212046BDE808
:102F70001040FEF76DBC10B5C4B209212046FEF723
:102F80007FFC092100F0FE022046BDE81040FEF75C
:102F90005FBC38B5C4B20D4620460A21FEF770FC6E
:102FA0002843C2B20A212046BDE83840FEF750BC93
:102FB00007B50190FEF74BFC01981F21FFF7E9FFD1
:102FC000019803B05DF804EBFFF7C6BF38B5C4B293
:102FD0000D4620460A21FEF753FC20EA0500C2B246
:102FE0000A212046BDE83840FEF732BC10B5044641
:102FF000FFF7C1FF20461F21BDE81040FFF7E6BFE5
:1030000010B5C0B20C460B21FEF73AFC204010BDB3
:103010001F21FFF7F5BF0A46C0B20B21FEF718BC0F
:103020001F21FFF7F8BF38B5C4B20D46204617215F
:10303000FEF726FC20EA0500C2B217212046BDE8B3
:103040003840FEF705BC70B5C4B2064604212046E0
:10305000FEF716FC042100F0FB0205462046FEF7B1
:10306000F7FB3046F021FFF7DEFF05F0F8022046BF
:103070000421FEF7EDFB492220212046FEF7E8FB64
:103080000220FEF72DFC204601222121FEF7E0FB65
:1030900020469A224121FEF7DBFB204601224A21ED
:1030A000FEF7D6FB204601224B21FEF7D1FB20463E
:1030B00000224B21FEF7CCFB204601225621FEF7D1
:1030C000C7FB204601225821FEF7C2FB2046012201
:1030D0004021FEF7BDFB2046FF220B21FEF7B8FB87
:1030E000BDE870400220FEF7FBBB0000054BD3F8A3
:1030F000882042F47002C3F888204FF000629A6082
:10310000704700BF00ED00E008B50B4B1A6842F4B1
:1031100000721A601A6842F480621A601A6842F4F7
:1031200080721A60032000F02FF80020FEF796FE50
:10313000FEF760FC002008BD003C0240034A044B3F
:1031400011681B780B441360704700BFA025002056
:1031500078000020014B1868704700BFA0250020B0
:1031600038B50446FFF7F6FF631C1CBF054B1B7800
:10317000054618BFE418FFF7EDFF431BA342FAD33F
:1031800038BD00BF780000200749CA6822F4E06219
:103190000302120403F4E063120C134343F0BF6311
:1031A00043F40033CB60704700ED00E0164B30B5C0
:1031B000DC68C4F30224C4F10705231D042D28BFD5
:1031C0000425062B4FF0FF338CBF033C002403FA89
:1031D00005F521EA0501A34022EA0302A1400028E7
:1031E00041EA0203ACBF00F16040084A4FEA031312
:1031F000B8BF00F00F00DBB2AABF00F56140135466
:1032000080F8003330BD00BF00ED00E014ED00E0B9
:10321000002808DB4209012300F01F0003FA00F038
:10322000014B43F82200704700E100E010B504466E
:1032300050B1437903F0FF0213B90271FEF7FAFBB4
:1032400001236371002010BD0120FCE710B5044686
:1032500030B390F8393003F0FF021BB980F8382002
:10326000FEF700FC22686168022384F83930136895
:1032700023F440330B431360536BA16823F007031F
:103280000B435363136CE16823F47F5323F03F0334
:103290000B43136400200123E06384F8393010BD30
:1032A0000120FCE770477047036870B55E681D68D1
:1032B000F207044614D5E90512D51A6822F4807283
:1032C0001A60C26B42F00102C26301229A600423B9
:1032D00080F83930002380F83830436903B19847CB
:1032E000B20616D5AB0414D523681A6822F400522E
:1032F0001A6020229A60E36B43F00203E363042325
:1033000084F83930002384F8383063690BB12046E3
:103310009847300716D5290514D523681A6822F472
:1033200000621A6008229A60E36B43F00403E363CF
:10333000042384F83930002384F8383063690BB1F2
:103340002046984772070BD56B0509D523681A6884
:1033500022F480621A6004229A602046FFF7A2FFDE
:10336000B00714D5A90512D523681A6822F4007293
:103370001A6002229A60E36BE363012384F8393018
:10338000002384F8383023690BB120469847F206B1
:1033900013D5EB0411D523681A6822F480521A6001
:1033A00010229A60E36BE363012384F83930002331
:1033B00084F838302046FFF776FF70BDF0B590F8FE
:1033C0003830012B4FF002032BD0012280F8393026
:1033D00080F8382000EB0113D3E907425D6A184FEB
:1033E00044EA0242093C012C9CBF05F07F431A438A
:1033F0004FEA0116036888BF42EA056299B9596A23
:1034000039400A435A62012C82699A6103D8426AA0
:1034100022F07F429A62012380F83930002380F83D
:1034200038301846F0BDD96939400A43DA6182194B
:10343000012C92691A619CBF25F07F451D62EAE765
:10344000F0FFFC002DE9F74FDFF8C0916D4A002333
:103450000D6801249C4004EA050CAC4340F0B9809F
:103460004D6805F003044FEA43080326671E06FA79
:1034700008F6012F6FEA060634D8876807EA060EB9
:10348000CF6807FA08F747EA0E078760476827EA18
:103490000C0EC5F300179F4047EA0E074760C76848
:1034A00007EA060E8F6807FA08F747EA0E07022CAC
:1034B000C76019D14FEAD30A00EB8A0A03F0070B61
:1034C000DAF820704FEA8B0B4FF00F0E0EFA0BFE5E
:1034D00027EA0E0E0F6907FA0BF747EA0E07CAF83C
:1034E000207001E0032CDAD1076804FA08F43E40AA
:1034F000264315F4403F06606BD04FF0000ACDF82C
:1035000004A0D9F84460404C46F48046C9F84460B1
:10351000D9F8446006F480460196019E23F0030624
:1035200006F1804606F59C3603F0030ED6F80880B7
:103530004FEA8E0E0F2707FA0EF7A04228EA070778
:103540004ED004F58064A0424CD004F58064A042C3
:103550004AD004F58064A04248D004F58064A042BB
:1035600046D004F58064A04244D004F58064A042B3
:1035700042D004F58064A04240D004F58064A042AB
:103580003ED004F58064A0420CBF09240A2404FA4A
:103590000EF43C43B46094686FEA0C06EF0254BF2B
:1035A00034404CEA04049460D468AF0254BF344001
:1035B0004CEA0404D4605468AF0354BF34404CEA6E
:1035C000040454601468ED0354BF34404CEA04040E
:1035D00014600133102B7FF43BAF03B0BDE8F08FD4
:1035E0005446D4E70124D2E70224D0E70324CEE7EF
:1035F0000424CCE70524CAE70624C8E70724C6E765
:103600000824C4E7003C01400000024000380240AA
:103610000369194214BF0120002070470AB181617B
:1036200070470904FBE7436901EA030221EA030149
:1036300041EA02418161704701684B6913F480637C
:103640004FF0000210D06FF480634B6120230263BF
:1036500080F83D3080F83E20036C80F83C2043F039
:103660000403036401207047184670472DE9F846AB
:1036700006460F4691461D464FEA114A3368BAF195
:10368000010F0CBF5C699C6927EA0404A4B2B4FA78
:1036900084F46409A14501D0002017E06A1CEED033
:1036A000FFF758FD089BC01AA84201D8002DE5D1AC
:1036B00000232022336386F83D2086F83E30326CAA
:1036C00086F83C3042F0200232640120BDE8F886E2
:1036D0002DE9F04104460F4616469846256868696C
:1036E00027EA000080B2B8B16B695A0516D52B687D
:1036F00043F400732B606FF480636B61202200231E
:10370000236384F83D2084F83E30226C42F00402AA
:10371000226484F83C300120BDE8F081731CDED0C7
:10372000FFF718FDA0EB0800B04201D8002ED5D15C
:1037300000232022236384F83D2084F83E30226C4D
:1037400042F02002E4E770B504460D4616462168B3
:103750004B6913F0400301D0002010E04A69D20603
:103760000ED56FF010024A612022236384F83D20B9
:1037700084F83E30226C226484F83C30012070BD15
:10378000FFF7E8FC801BA84201D8002DDFD1002301
:103790002022236384F83D2084F83E30226C42F0DE
:1037A0002002E8E770B504460D46164623685B69BB
:1037B0005B0701D5002070BD2046FFF73DFFA8B98B
:1037C0006A1CF3D0FFF7C6FC801BA84201D8002D6D
:1037D000ECD100232022236384F83D2084F83E307E
:1037E000226C84F83C3042F0200222640120E2E79F
:1037F00070B504460D46164623685B691B0601D565
:10380000002070BD2046FFF717FFA8B96A1CF3D04F
:10381000FFF7A0FC801BA84201D8002DECD10023AB
:103820002022236384F83D2084F83E30226C84F803
:103830003C3042F0200222640120E2E72DE9F0430F
:103840001546026885B0DDE90C789946136843F4A3
:10385000807313600E463B46CDF8008000224FF087
:1038600001110446FFF702FF236838B11B68DB052E
:1038700002D54FF40073236403200AE006F0FE062D
:103880001E61194943463A462046FFF721FF18B109
:10389000012005B0BDE8F083236803905A690392C4
:1038A0009B690393424639462046039BFFF7A0FFDE
:1038B00040B1236C042B01BF2268136843F40073EA
:1038C0001360E5E7B9F1010F236802D1EDB21D6184
:1038D000DFE72A0A1A61394642462046FFF788FF89
:1038E0000028E6D12368F1E7020001002DE9FF4737
:1038F0009A46036815461A6842F480621A601A688C
:10390000DDE90C7842F480721A600E463B46CDF831
:10391000008000224FF001110446FFF7A7FE236844
:1039200048B11B68DB0502D54FF400732364032004
:1039300004B0BDE8F0875FFA86F906F0FE061E6166
:103940002A4943463A462046FFF7C2FE08B1012005
:10395000EEE7236803905A6903929B6903934246FA
:1039600039462046039BFFF743FF40B1236C042BED
:1039700001BF2268136843F400731360E7E7BAF1EC
:10398000010F23681AD1EDB21D6142463946204627
:10399000FFF72EFF0028E9D12268136843F48073F3
:1039A00013604FF001110246CDF800803B462046DF
:1039B000FFF75CFE226860B11368B3E72A0A1A6158
:1039C000394642462046FFF713FF0028CED1236830
:1039D000D9E749F001031361044943463A462046BA
:1039E000FFF776FE003818BF0120A1E702000100B2
:1039F00070B5044608B9012070BD90F83D3003F061
:103A0000FF021BB980F83C20FEF74EF8242384F80F
:103A10003D3023681A6822F001021A601A6842F4E5
:103A200000421A601A6822F400421A6000F074FE24
:103A30003F4B65689D4294BF3E4B3F4B98428CBFC5
:103A400000230123002BD6D12268394E53683B490D
:103A5000B0FBF1F123F03F030B43B542536088BF45
:103A60004FF49676136A88BF714323F03F0384BFF7
:103A70004FF47A76B1FBF6F1013119431162D16945
:103A8000431E2B4821F44F41854221F0FF0132D8DB
:103A90006D0040F6FC70B3FBF5F30133034242D0F6
:103AA000C3F30B030B43D361D4E90730116803431D
:103AB00021F0C0010B4313609168D4E9030321F4A2
:103AC0000341034321F0FF010B439360D4E9053028
:103AD000D168034321F0FF010B43D360136843F027
:103AE0000103136000202023206484F83D3020630C
:103AF00084F83E0080E7A06850B905EB4505B3FBAC
:103B0000F5F30133C3F30B037BB143F40043C9E77F
:103B100019204543B3FBF5F30133C3F30B0323B182
:103B200043F44043BEE70423BCE70123BAE700BFE8
:103B3000A08601007F841E00FF083D0040420F0068
:103B40002DE9F743044699460C9E0F469046FFF731
:103B500001FB94F83D30202B054603D0022003B032
:103B6000BDE8F08300903C49192301222046FFF76D
:103B70007DFD0028F2D194F83C30012BEED0206876
:103B8000012384F83C300368D9075EBF036843F023
:103B900001030360036823F400630360212384F8B6
:103BA0003D30402384F83E30002323640A9B636247
:103BB000BDF82C306385638D2385284BE362CDE906
:103BC00000654B46424639462046FFF737FE00283F
:103BD0002AD00120C3E7FFF70BFE40B1236C042B72
:103BE00001BF2268136843F400731360F1E7636A4E
:103BF00027681A4612F8011B39616262628D218DB5
:103C0000013A92B262857A69481E80B252072085D5
:103C10000AD548B15A783A6102336362638D013B39
:103C200002399BB221856385238D2A463146204681
:103C3000002BD0D1FFF7B6FD0028CFD12268136842
:103C400043F400731360202384F83D3084F83C0073
:103C500084F83E0083E700BF020010000000FFFF71
:103C60002DE9F043044687B09946109F0D469046D3
:103C7000FFF770FA94F83D30202B064604D0022559
:103C8000284607B0BDE8F083009076491923012249
:103C90002046FFF7EBFC0028F1D194F83C30012BD3
:103CA000EDD02068012384F83C300368DB075EBF59
:103CB000036843F001030360036823F400630360B7
:103CC000222384F83D30402384F83E3000232364CF
:103CD0000E9B6362BDF83C306385638D2385624B28
:103CE000E3622946CDE900764B4642462046FFF77F
:103CF000FDFD054608B10125C2E7228D2368B2B952
:103D000002905A6902929A690292029A1A6842F4DF
:103D100000721A60DFF85481238D002B2CD12022F1
:103D200084F83D2084F83C3084F83E30A8E7012A2E
:103D30000AD11A6822F480621A6003905A690392C9
:103D40009A690392039AE1E7022A0ED11A6822F4D3
:103D500080621A601A6842F400621A6004905A691C
:103D600004929B690493049BD4E705905A690592D9
:103D70009B690593059BCDE7032B56D8012B15D1E5
:103D8000324639462046FFF7DEFC0028B3D12368CF
:103D90001A69636A1A70636A01336362238D013B97
:103DA0002385638D013B9BB26385B5E7022B0096AB
:103DB0003B464FF000024146204619D1FFF756FC22
:103DC000002898D123681A6842F400721A601A69B0
:103DD000636A1A70626A531C6362238D013B2385F8
:103DE000638D013B9BB2638523681B695370D2E7E7
:103DF000FFF73CFC00287FF47EAF23681A6822F4AA
:103E000080621A601A69636A1A70636A00960133E5
:103E10006362238D013B2385638D013B9BB26385E8
:103E200002463B4641462046C8E7324639462046D0
:103E3000FFF789FC00287FF45EAF23681A69636A84
:103E40001A70626A531C6362238D013B2385638D64
:103E5000013B9BB263852368596949077FF55CAFD5
:103E6000C3E700BF020010000000FFFF04000100D4
:103E700010B590F83D30202BDCB216D1242380F809
:103E80003D3003681A6822F001021A605A6A22F073
:103E900010025A625A6A114359621A6842F00102CA
:103EA0001A6080F83D40002010BD0220FCE730B5CC
:103EB00090F83D30202BDCB216D10268242380F824
:103EC0003D30136823F001031360556A4FF6F07319
:103ED0002B400B439BB25362136843F00103136002
:103EE00080F83D40002030BD0220FCE70068D1F89A
:103EF00000C0D201843283182DE9F043C6685D68A2
:103F00004C68D1F8189005F470455D60C5680CF1F7
:103F10000107C5F30B45C6F30B463D44264445EA6D
:103F200006455D60C568CE68C5F30A052E449D68E8
:103F300005F470459D60C7688D68C7F30A070135B1
:103F40003D4445EA06459D601D690E6925F007055B
:103F50001D614FF0000E1E619D6991F8327091F85D
:103F60003180C3F818E091F8305045EA096545EA18
:103F7000082545EA07459D615D6925F0FF055D61FE
:103F80004D695D61DD6925F4E06525F00705DD61BA
:103F9000D1E907573D43DD619D6A4D6AC3F828E0CA
:103FA0009D621EB3012E23D0B51E022D22D9072EED
:103FB0000CBF02250125DE6A06F0E026DE62A4EBD6
:103FC0000C048E6AC96A6C436E43033444EA0644A7
:103FD000DC621C6B24F4FF6424F007041C63196387
:103FE000835843F001038350BDE8F0830425E2E7E2
:103FF0000325E0E70225DEE738B50446002863D054
:1040000090F8A13003F0FF021BB980F8A020FDF763
:10401000A7FD022384F8A13023689A6922F0704238
:104020009A61D4E901200243E0689969024320695A
:1040300002430A439A619A68244960690A409A6077
:104040009A6842EA0042A06902439A60DA68E0692D
:104050000A40DA60DA6842EA0042206A0243DA6023
:104060001A69606A0A401A611A6942EA0042A06A43
:1040700002431A615A69114059615A69E16A42EA78
:104080000142216B0A435A61D96A94F8360094F8C8
:10409000355001F07F41D962D96A94F834200A433F
:1040A00042EA052242EA0042DA625A6B42F0060214
:1040B0005A639A6942F001029A6100200123C4F810
:1040C000A40084F8A13038BD0120FCE700F800F01E
:1040D00070477047036870B59E6B5D6B720704464E
:1040E00014D5690712D55A6B22F004025A630422D0
:1040F000DA63D0F8A43043F00103C0F8A430002301
:1041000080F8A12080F8A030FFF7E2FFB20716D5B3
:10411000AB0714D523685A6B22F002025A630222BD
:10412000DA63D4F8A4301343C4F8A430042384F829
:10413000A130002384F8A0302046FFF7C9FFF00724
:1041400010D5E9070ED523685A6B22F001025A6395
:104150000122DA63002384F8A12084F8A0302046ED
:10416000FDF71EF9320711D52B070FD523685A6BBF
:1041700022F008025A630822DA63012384F8A1308E
:10418000002384F8A0302046FFF7A3FF70BD2DE97F
:10419000F04190F8A030012B06460F4694464FF0B0
:1041A00002001FD04FF0010886F8A08086F8A10019
:1041B00034240D4604FB02640FCD38340FC40FCDF8
:1041C0000FC40FCD0FC42B682360304662463946BA
:1041D000FFF78CFE33680020C3F8248086F8A180A6
:1041E00086F8A000BDE8F08190F8A030012B4FF0D8
:1041F000020312D080F8A13003685A6B22F001024A
:104200005A63074A11645A6B42F001025A63012350
:1042100080F8A130002380F8A0301846704700BF16
:10422000006801402DE9F341044640B30368DD070F
:1042300010D4236898075ED423681A0700F1A08081
:1042400023685B0700F1C080A069002840F0288146
:1042500000202BE08F4B9A6802F00C02042A07D052
:104260009A6802F00C02082A0BD15A68510208D54C
:10427000884B1B689A03DCD56368002BD9D10120D9
:1042800014E06268B2F5803F13D11A6842F48032BC
:104290001A60FEF75FFF7F4E054633689B03C8D464
:1042A000FEF758FF401B6428F7D9032002B0BDE891
:1042B000F081784DB2F5A02F2B6807D143F480230D
:1042C0002B602B6843F480332B60E2E723F48033C8
:1042D0002B602B6823F480232B60002AD9D1FEF7B2
:1042E00039FF06462B689F03A3D5FEF733FF801BDB
:1042F0006428F7D9D9E7674B9A6812F00C0F07D0FA
:104300009A6802F00C02082A11D15B685E020ED492
:10431000604A13689D0702D5E368012BAFD113688B
:10432000216923F0F80343EAC103136084E7E268DC
:10433000594BB2B101221A60FEF70CFF554D0646EB
:104340002B68980707D52B68226923F0F80343EA06
:10435000C2032B6070E7FEF7FDFE801B0228EFD939
:10436000A3E71A60FEF7F6FE4A4E05463368990742
:104370007FF562AFFEF7EEFE401B0228F6D994E708
:104380006269454B82B10122C3F8802EFEF7E2FE3E
:10439000404E0546736F9F073FF552AFFEF7DAFEBA
:1043A000401B0228F6D980E7C3F8802EFEF7D2FE24
:1043B000384E0546736F98077FF542AFFEF7CAFE89
:1043C000401B0228F6D970E7324B1A6C12F080526B
:1043D00028D101921A6C42F080521A641B6C03F0CF
:1043E00080530193019B01272C4D2B68D9051BD5C8
:1043F000A368284D012B27D12B6F43F001032B67B6
:10440000FEF7A8FE234E054641F28838336F9B071E
:1044100039D5002F3FF418AF1E4A136C23F0805398
:10442000136411E70027DFE72B6843F480732B60E8
:10443000FEF790FE06462B68DA05D9D4FEF78AFE11
:10444000801B0228F7D930E7052B04D12B6F43F0EE
:1044500004032B67D0E72A6F22F001022A672A6F34
:1044600022F004022A67002BCAD1FEF773FE41F244
:10447000883806462B6F9807CBD5FEF76BFE801B5E
:104480004045F7D911E7FEF765FE401B4045BDD911
:104490000BE700BF003802400000474200700040B8
:1044A000364DAB6803F00C03082B3DD0344B002293
:1044B00002281A662BD1FEF74DFE06462B6899019D
:1044C0001FD4D4E907321343626A43EA8213E26AD3
:1044D00043EA0263A26A5208013A43EA02436B606C
:1044E000274B264D01221A66FEF734FE04462B6840
:1044F0009A013FF5ADAEFEF72DFE001B0228F6D95E
:10450000D3E6FEF727FE801B0228D7D9CDE6FEF7BB
:1045100021FE04462B689B017FF59AAEFEF71AFE3A
:10452000001B0228F6D9C0E601283FF4BFAE6B6835
:10453000E26903F4800191427FF4A1AE216A03F0A5
:104540003F028A427FF49BAE616A47F6C0721A400E
:10455000B2EB811F7FF493AEA26A520803F440319C
:10456000013AB1EB024F7FF48AAEE26A03F0706366
:10457000B3EB026F3FF46CAE81E600BF003802403F
:1045800000004742134908B58B6803F00C03042B65
:104590001CD0082B1CD14A684B68496813F480036F
:1045A00014BF0D480D48C1F3881118BF002302F055
:1045B0003F02A1FB0001FBF76BFE064B5B68C3F3F8
:1045C000014301335B00B0FBF3F008BD0248FCE798
:1045D0000248FAE70038024000127A000024F40092
:1045E0002DE9F0410D46044610B90120BDE8F081E7
:1045F000444B1A6802F00F028A4228D322689707B8
:104600002DD4D00741D43F4B1A6802F00F02AA42C2
:1046100066D8226851076CD4130707D53A4A216936
:10462000936823F4604343EAC1039360FFF7AAFF52
:10463000354B364A9B68C3F30313D35CD840344BE5
:104640001860344B1868FDF709FC0020CEE7CAB2A9
:104650001A701B6803F00F038B42C6D1CEE72A4BBA
:1046600012F0040F1EBF996841F4E05199601607DB
:1046700042BF996841F4604199602349A0688B6802
:1046800023F0F00303438B60BBE762681E4B012AF3
:104690001CD11B6813F4003FA7D01B4EB36823F056
:1046A00003031343B360FEF755FD41F28838074614
:1046B000B368626803F00C03B3EB820FA3D0FEF77C
:1046C00049FDC01B4045F3D903208FE7911E012906
:1046D0001B6802D813F0007FDEE713F0020FDBE760
:1046E000EAB21A701B6803F00F03AB427FF47DAF90
:1046F0008FE70549E0688B6823F4E05303438B6040
:104700008AE700BF003C024000380240C8F40108BC
:10471000740000207C000020044B054A9B68C3F312
:104720008223D35C034A1068D840704700380240A7
:10473000D8F40108740000200F2303600B4B9A6823
:1047400002F0030242609A6802F0F00282609A6806
:1047500002F4E052C2609B68DB0803F4E05303619B
:10476000034B1B6803F00F030B60704700380240D7
:10477000003C0240036813F0430FF7B5044640F0D5
:104780008C80236813F00C0F45D08B4B8B4D00228F
:104790001A67FEF7DFFC06462B689F0000F1CF800A
:1047A00021684E0715D5D4E90403D5F888201B06E7
:1047B00002F0E04243EA80131343C5F88830D5F88D
:1047C0008C30226A23F4F853013A43EA0223C5F8F5
:1047D0008C300D0714D5794AA369D2F88810206966
:1047E0001B0701F0706143EA80130B43C2F8883065
:1047F000D2F88C30616A23F440330B43C2F88C301A
:104800006D4B6E4E01221A67FEF7A4FC0546336815
:10481000980040F19B8023689B0633D500230193C9
:10482000664B674D1A6C42F080521A641B6C03F0A1
:1048300080530193019B2B6843F480732B60FEF738
:1048400089FC06462B68D90540F187805B4D2B6FAC
:1048500013F4407340F08880A36A03F44072B2F509
:10486000407F564A40F0A480916823F0704021F4C4
:10487000F81120F4407001439160116FC3F30B03F2
:104880000B431367206810F010001FBF4D4B94F8C6
:104890002C20C3F8E02100204FE0474B474E002278
:1048A0009A66FEF757FC054633681F013FD421681E
:1048B000CD0741BFD4E901231B0743EA8213C6F8A1
:1048C0008430880715D53D4AE368D2F884006568CE
:1048D0001B0600F0E04043EA85130343C2F884302E
:1048E000D2F88C00E36920F01F00013B0343C2F8BB
:1048F0008C3049060AD5E36862681B0643EA8213D6
:10490000A26843EA02732D4AC2F884302A4B2B4E28
:1049100001229A66FEF71EFC054633681A013FF530
:1049200030AFFEF717FC401B0228F6D904E0FEF773
:1049300011FC401B0228B7D9032003B0F0BDFEF7DD
:1049400009FC801B02287FF627AFF5E7FEF702FC83
:10495000401B02287FF65BAFEEE7FEF7FBFB801BF8
:1049600002287FF66FAFE7E7A26A02F44072934233
:104970003FF472AF2B6F104A0121C2F8401E23F49E
:1049800040730021C2F8401E2B672B6FDA077FF5BA
:1049900063AFFEF7DFFB41F2883706462B6F9B07BC
:1049A0003FF55AAFFEF7D6FB801BB842F6D9C3E7F6
:1049B000916821F4F8115FE7000047420038024097
:1049C000007000400010474238B50D460446C8B19B
:1049D00090F82C3003F0FF021BB980F82D20FDF772
:1049E000D1F9022384F82C30211D206800F004FD49
:1049F00062682068294600F03AFD012384F82C30D3
:104A0000002038BD0120FCE770B590F82C30022B57
:104A100005460E46D8B212D000F0FB04012C0FD18F
:104A2000022385F82C30286800F057FD3368022BEC
:104A300006BF052385F82C3085F82C40002070BD7A
:104A40000120FCE738B590F82C30022B0446D8B290
:104A50000DD094F82C30012BDDB209D1022320684F
:104A600084F82C3000F05FFD84F82C50002038BD15
:104A70000120FCE72DE9F3411D461746884606460E
:104A8000FEF768FB3D442C1AFEF764FB224B1B68C3
:104A9000C3F3CB330546634332680193936838EA26
:104AA000030301D000202DE07B1CF7D0FEF752FB62
:104AB000401BA04229D333685A6822F0E0025A60B2
:104AC0007268B2F5827F0AD1B268B2F5004F02D0A7
:104AD000B2F5806F03D11A6822F040021A60B26A00
:104AE000B2F5005F07D11A6822F400521A601A6802
:104AF00042F400521A60012386F85130002386F8F0
:104B00005030032002B0BDE8F081019B002B019BD7
:104B100008BF0024013BBFE77400002038B51346EE
:104B20004268B2F5827F04461FD18268B2F5004F19
:104B300002D0B2F5806F07D125682868B2F5806F82
:104B400020F04000286007D00A4680212046FFF769
:104B500091FF20B9002038BD0A460121F6E7636DB8
:104B600043F0200363650320F5E70A460121EEE7E1
:104B700037B51346124A1568124AB5FBF2F54FF4E1
:104B80007A72554342680195B2F5827F04460BD193
:104B90000A468021FFF76EFF78B1636D43F0200372
:104BA0006365032003B030BD019B33B1019B013B22
:104BB000019323689B681B06F6D40020F2E700BF30
:104BC0007400002000366E0110B50446002855D050
:104BD000436A002B4ED14268B2F5827F00D0C36198
:104BE0000023A36294F8513003F0FF0223B984F844
:104BF00050202046FDF790F82168A068A2690223A2
:104C000084F851300B6823F040030B60636800F4B4
:104C1000044003F482730343E06800F4006003433C
:104C2000206900F002000343606900F001000343C3
:104C300002F400700343E06900F038000343206A87
:104C400000F080000343A06A00F4005003430B60AF
:104C5000636A120C03F0100302F004021A434A6064
:104C6000CB6923F40063CB6100200123606584F8E5
:104C7000513010BD0023C0E90433B1E70120F8E74B
:104C80002DE9F3411E4690F85030012B04460D46A5
:104C9000174600F0A180012380F85030FEF75AFA41
:104CA00094F85130012B8046D8B240F09380002D0B
:104CB0005ED0002F5CD0A2682563032384F85130B6
:104CC000B2F5004F4FF000036365C4E91033E78687
:104CD000A363A387E387A786236807D11A6822F016
:104CE00040021A601A6842F480421A601A68E16849
:104CF00052065EBF1A6842F040021A60B1F5006FBA
:104D0000626841D10AB1012F07D135F8022BDA6070
:104D10002563E38E013B9BB2E386E38E9BB2A3B98E
:104D2000424631462046FFF723FF00284FD1A368B3
:104D300033B901932368DA6801929B680193019B60
:104D4000606D003818BF012012E022689368980750
:104D500005D5236B33F8021BD1602363D9E7FEF737
:104D6000F9F9A0EB0800B0420BD3711CD5D0032099
:104D7000012384F85130002384F8503002B0BDE89C
:104D8000F081002EC9D1F2E70AB1012F08D12A78AB
:104D90001A73236B01332363E38E013B9BB2E386DB
:104DA000E38E9BB2002BBBD023689A68920702D592
:104DB000226B1278ECE7FEF7CDF9A0EB0800B042C9
:104DC00002D3731CECD0D2E7002EE9D1CFE7202329
:104DD0006365ACE70220CBE70220CFE72DE9F7437C
:104DE0001E4690F850300A9F012B04460D4691460E
:104DF00000F0E680012380F85030FEF7ABF994F81C
:104E000051306268012B8046D9B20AD0B2F5827F58
:104E100040F0D480A368002B40F0D080042940F0FB
:104E2000CD80002D40D0B9F1000F3DD0002E3BD0F9
:104E300094F85130C4F83890042B1CBF052384F833
:104E4000513000236365C4E910332368E687E686A2
:104E50001968A687490658BF1968256358BF41F0ED
:104E60004001A68658BF1960E168B1F5006F52D1C4
:104E70000AB1012E07D135F8022BDA60E38E2563E3
:104E8000013B9BB2E3860125E38E9BB273B9E38FAE
:104E90009BB25BB9424639462046FFF769FE0028BF
:104EA00000F081802023636501202BE021688B685E
:104EB0009E070DD5E38E9BB253B14DB1236B33F8F2
:104EC000022BCA602363E38E013B9BB2E38600257D
:104ED0008A6812F001020CD0E38F9BB24BB1A36B36
:104EE000C96823F8021BA363E38F013B9BB2E387EE
:104EF0001546FEF72FF9A0EB0800B842C4D3781C82
:104F0000C2D00320012384F85130002384F85030AC
:104F100003B0BDE8F0830AB1012E08D12A781A73D4
:104F2000236B01332363E38E013B9BB2E3860125B0
:104F30002DE02268936899070ED5E38E9BB25BB192
:104F400055B1236B1B781373236B01332363E38EFB
:104F5000013B9BB2E38600252268916811F00101B4
:104F60000DD0E38F9BB253B1A36BD2681A70A36BC1
:104F70000133A363E38F013B9BB2E3870D46FEF74A
:104F8000E9F8A0EB0800B8420AD37B1CB9D1E38E44
:104F90009BB2002BCDD1E38F9BB2002BC9D179E717
:104FA000002FF4D1ADE7A368002BABD123680190AB
:104FB000DA6801929B680193019BA3E70220A1E7B5
:104FC0000220A5E72DE9F7431D464368B3F5827F2C
:104FD0000446894617460CD1836853B9042380F8E8
:104FE0005130134600950A46FFF7F8FE03B0BDE8BE
:104FF000F08394F85030012B00F08680012384F870
:105000005030FEF7A7F894F85130012B8046D8B203
:1050100078D1B9F1000F5CD0002F5AD0A268C4F843
:10502000389000260423B2F5004F84F85130C4E9CB
:10503000106666652368E787A7872663A686E686E7
:1050400007D11A6822F040021A601A6822F48042DE
:105050001A601A6856065EBF1A6842F040021A606B
:10506000E368F3B1E38F9BB2FBB123689A68D20780
:1050700039D5DA68A36B23F8022BA363E38F013BD6
:105080009BB2E387EEE723689A68D00718D5A26B36
:105090001B7B1370A36B0133A363E38F013B9BB2B4
:1050A000E387E38F9BB2002BEDD142462946204691
:1050B000FFF734FD18BB606D003818BF012008E011
:1050C000FEF748F8A0EB0800A84209D3691CE8D015
:1050D0000320012384F85130002384F8503085E701
:1050E000002DDED1F4E7FEF735F8A0EB0800A8426A
:1050F00002D36B1CB6D0EBE7002DB3D1E8E7202339
:105100006365D8E70220E4E702206FE770470000FC
:1051100090F83D30012B30D1022380F83D300368F8
:10512000DA6842F00102DA60154A93421AD0B3F10C
:10513000804F17D0A2F57C42934213D002F58062D3
:1051400093420FD002F5806293420BD002F5784271
:10515000934207D002F57052934203D0A2F59432E5
:10516000934204D19A6802F00702062A03D01A6813
:1051700042F001021A60002070470120704700BF12
:1051800000000140704770477047704703681A6914
:10519000910710B504460ED5DA6892070BD56FF06B
:1051A00002021A61012202779B699B0777D0FFF701
:1051B000EAFF0023237723681A69500710D5DA68BD
:1051C00051070DD56FF004021A61022222779B6904
:1051D00013F4407F204668D0FFF7D5FF00232377E4
:1051E00023681A6912070FD5DA6810070CD56FF01B
:1051F00008021A6104222277DB69990720465AD0F7
:10520000FFF7C1FF0023237723681A69D20610D560
:10521000DA68D0060DD56FF010021A6108222277E5
:10522000DB6913F4407F20464BD0FFF7ACFF00232F
:10523000237723681A69D10708D5DA68D20705D51C
:105240006FF001021A612046FCF7C8FB23681A6957
:10525000100608D5DA68110605D56FF080021A61CC
:10526000204600F0C8F823681A69520608D5DA68A3
:10527000500605D56FF040021A612046FFF785FF02
:1052800023681A69910622D5DA6892061FD56FF055
:10529000200220461A61BDE8104000F0ABB8FFF7CD
:1052A00071FF2046FFF770FF83E7FFF76BFF204693
:1052B000FFF76AFF92E7FFF765FF2046FFF764FFFD
:1052C000A0E7FFF75FFF2046FFF75EFFAFE710BDE7
:1052D000304A0368904212D0B0F1804F0FD0A2F54F
:1052E0007C4290420BD002F58062904207D002F5DA
:1052F0008062904203D002F57842904219D14A6808
:1053000023F070031343234A904229D0B0F1804F19
:1053100026D0A2F57C42904222D002F580629042D3
:105320001ED002F5806290421AD002F57842904277
:1053300016D0194A904213D002F5806290420FD0E5
:1053400002F5806290420BD0A2F59832904207D0CD
:1053500002F58062904203D002F58062904203D150
:10536000CA6823F4407313434A6923F0800313434C
:1053700003608B68C3620B688362064B984203D05C
:1053800003F58063984201D10B69036301234361F4
:10539000704700BF000001400040014010B50446C6
:1053A00030B390F83D3003F0FF021BB980F83C2089
:1053B000FFF7ACFE0223206884F83D30211DFFF783
:1053C00087FF012384F84630002084F83E3084F8BB
:1053D0003F3084F8403084F8413084F8423084F81B
:1053E000433084F8443084F8453084F83D3010BDB3
:1053F0000120FCE7704770472DE9F043D1E90743EE
:105400000A68D1F82490D1E90158D1E903ECD1E937
:1054100005762343A2B943EA09022A4342EA080374
:10542000016843EA0E0343EA0C033B4321F4FF41C6
:10543000334321F07F010B4303600020BDE8F0837C
:10544000026843EA090322F4F8421343036045EA81
:105450000803426843EA0E0343EA0C033B4322F489
:10546000FF42334322F07F0213434360E5E7CB68FA
:1054700003F1FF3C4B69F0B50F684C688E680D690D
:105480008969013B1B05013C013E013D0139013F9A
:10549000240136022D04090643EA0C335AB93B4372
:1054A0002343826833432B430B4302F07042134380
:1054B00083600020F0BD826822F4700222F4704202
:1054C0001A43826044EA0603C2683B432B430B4302
:1054D00002F070421343C360EBE770B50446154613
:1054E0000269D1E900300343C868920D43EA4023C2
:1054F000920513438A68013A43EA42132361FDF798
:1055000029FE0646A36913F0200301D1184603E0E3
:105510006B1CF7D00DB9032070BDFDF71BFE801B7F
:10552000A842EFD9F7E7436923F47F5323F03E0302
:1055300043EA410141610020704708B54FF0E02384
:105540001B6901F00FFE012803D0BDE8084000F000
:10555000E1BB08BDEFF305832BB9064B186828B9EA
:1055600001221A6070476FF0050070474FF0FF305E
:10557000704700BF0428002010B5EFF305845CB924
:10558000084B1A68012A0AD1074AD47702221A6006
:1055900001F062FB204610BD6FF00500FBE74FF005
:1055A000FF30F8E70428002000ED00E0F0B587B0F8
:1055B000144600220B460592EFF30582D2B9C8B11A
:1055C000002C2FD0A569002D08BF1825691E37298A
:1055D000AC462BD86168C90728D466696EB1B20899
:1055E000D4E9027E216857B1BEF15F0F02D9246968
:1055F00004B1EEB9059807B0F0BD8022F0E7BEF126
:10560000000FF7D12469002CF4D10C4605A9CDE98F
:1056100000C192B2214601F0F2FA01281CBF00231A
:105620000593E7E74FF0180C8022EFE71046E2E71A
:10563000CDE90147009501F0AAFA0590DAE710B527
:10564000EFF3058424B910B101F064FC204610BDCD
:105650006FF00500FBE7F7B504460E461546EFF37D
:1056600005821AB10024204603B0F0BD0028F9D00D
:105670008842F7D3E5B1D5E90237BBB14F2FF1D955
:1056800001282AD103210091114600F0ECFC0446C8
:105690000028E7D0DEB100231A46194600F098FD35
:1056A000012814D0204601F0D3F8DBE7002FD9D130
:1056B000012C05D103220021204600F022FDE6E75F
:1056C0002046314600F066FD04460028CAD055B990
:1056D0002946204601F096F8C5E71A4600F038FD45
:1056E00004460028BED02D68F2E713B50C4608B377
:1056F000EFF30583B3B1E9B901AA019101F033F8E1
:10570000012814D1019B13B9002002B010BD4FF045
:10571000E0234FF08052C3F8042DBFF34F8FBFF347
:105720006F8FF1E700F05CFF0128EDD02CB96FF02E
:105730000200EAE76FF00300E7E76FF00100E4E73B
:1057400013B510B3EFF30583B3B1002401A901949D
:1057500000F053FE012815D1019B13B9002002B0BF
:1057600010BD4FF0E0234FF08052C3F8042DBFF37B
:105770004F8FBFF36F8FF1E71A46194600F028FDEF
:105780000128EBD06FF00200E9E76FF00300E6E7D5
:10579000F7B505460E461446EFF305871FB1002501
:1057A000284603B0F0BD0028F9D00029F7D0DAB1BF
:1057B000D2E9023283B14F2AF1D92269002AEED010
:1057C00066694D43AE42EAD3009700F04CFC0546B3
:1057D0000028E4D0246811E0002AE0D12369002BDE
:1057E000DDD16369002BDAD128460022314600F072
:1057F00088FC05460028D2D0002CEBD12146284653
:1058000001F000F8CCE773B51C46EFF30586C6B18E
:1058100018B311B30BBB01AA019300F08CFD012852
:1058200018D1019B13B9002002B070BD4FF0E023E6
:105830004FF08052C3F8042DBFF34F8FBFF36F8F2B
:10584000F1E750B149B13346224600F0C1FC0128CE
:10585000E9D02CB96FF00200E6E76FF00300E3E750
:105860006FF00100E0E737B51C46EFF30583C3B1E5
:1058700010B309B304BB01AA019400F074FF01281E
:1058800017D1019B13B9002003B030BD4FF0E023C6
:105890004FF08052C3F8042DBFF34F8FBFF36F8FCB
:1058A000F1E748B141B1224600F0FBFD0128EAD002
:1058B0002CB96FF00200E7E76FF00300E4E76FF048
:1058C0000100E1E7034B0360034B0B60802313608F
:1058D000704700BFA4270020A4250020034B0360CD
:1058E000034B0B604FF4807313607047082C00204B
:1058F0000828002010B50F4B1A461B688342FBD3C3
:1059000054681119884201BF416810460919516055
:10591000446801198B4207D1074909688B421FBFB0
:1059200059681B68091941609042036018BF1060F4
:1059300010BD00BF802C0120682C00202DE9F04113
:10594000044601F0CFF94248424D03680BBB42497F
:105950004E071FBFCB1D23F0070301F58032D21A7B
:1059600014BF19464FF480320A443C4E083A22F0E4
:105970000702002373603160C2E90033531AC1E9A2
:1059800000230260364A1360364A13604FF000432A
:105990002B602F68274255D1002C46D004F1080314
:1059A00061071CBF23F007030833002B4AD02D4C9E
:1059B00026689E4246D3294A15686968994204D2EE
:1059C000D5F800C0BCF1000F15D10068A84239D04D
:1059D000C91A2868D2F800801060102912D9E81876
:1059E00042070BD04FF0500383F31188BFF36F8F42
:1059F000BFF34F8FFEE72A466546DEE741606B60E6
:105A0000FFF778FF6B681649174A0868F61A1F43B4
:105A100000232B6013682660864203F1010338BF20
:105A20000E6008F108046F60136001F0FFF963076E
:105A30000AD04FF0500383F31188BFF36F8FBFF389
:105A40004F8FFEE70024F0E72046BDE8F08100BF5D
:105A5000682C00206C2C01206C2C0020802C012054
:105A6000742C0120702C0120782C012010B50446E4
:105A700090B31A4A50F8043C1268134208D14FF010
:105A8000500383F31188BFF36F8FBFF34F8FFEE78F
:105A900050F8081C41B14FF0500383F31188BFF355
:105AA0006F8FBFF34F8FFEE723EA020340F8043CF9
:105AB00001F018F90A4A54F8043C1168A4F10800EE
:105AC0000B441360FFF716FF064A1368BDE8104049
:105AD0000133136001F0AAB910BD00BF6C2C012086
