:020000040800F2
:100000000000032029860008A7340008A93400084E
:10001000AB340008AD340008AF3400080000000025
:10002000000000000000000000000000317E000819
:10003000B134000800000000C17E0008DD77000830
:100040007986000879860008798600087986000894
:100050007986000879860008798600087986000884
:100060007986000879860008798600087986000874
:100070007986000879860008798600087986000864
:100080007986000879860008798600087986000854
:100090007986000879860008798600087986000844
:1000A0007986000879860008798600087986000834
:1000B0007986000879860008798600087986000824
:1000C0007986000879860008798600087986000814
:1000D0007986000879860008798600087986000804
:1000E00079860008798600087986000879860008F4
:1000F00079860008798600087986000879860008E4
:1001000079860008798600087986000879860008D3
:100110007986000879860008B534000879860008D9
:1001200079860008798600087986000879860008B3
:1001300079860008798600087986000879860008A3
:100140007986000879860008798600087986000893
:100150007986000879860008798600087986000883
:100160007986000879860008798600087986000873
:10017000798600087986000879860008000000006A
:100180007986000879860008798600087986000853
:100190007986000879860008798600087986000843
:0C01A000C134000879860008CD34000846
:1001B00010B5054C237833B9044B13B10448AFF3A1
:1001C00000800123237010BD6001002000000000AA
:1001D00098BC010808B5034B1BB103490348AFF3B2
:1001E000008008BD000000006401002098BC0108E8
:1001F00053B94AB9002908BF00281CBF4FF0FF318E
:100200004FF0FF3000F072B9ADF1080C6DE904CE8B
:1002100000F006F8DDF804E0DDE9022304B07047E1
:100220002DE9F047089E04468846002B4BD18A42B0
:10023000154667D9B2FA82F24AB1C2F1200701FA33
:1002400002F320FA07F7954047EA030894404FEA83
:10025000154E230CB8FBFEF71FFA85FC0EFB178822
:1002600043EA084307FB0CF1994209D9EB1807F15F
:10027000FF3080F01B81994240F21881023F2B44ED
:100280005B1AA4B2B3FBFEF00EFB103344EA034446
:1002900000FB0CFCA44509D92C1900F1FF3380F0B8
:1002A0000781A44540F2048102382C4440EA07400B
:1002B000A4EB0C0400271EB1D4400023C6E9004380
:1002C0003946BDE8F0878B4209D9002E00F0EB805B
:1002D0000027C6E9000138463946BDE8F087B3FA81
:1002E00083F7002F47D18B4202D3824200F2FA807B
:1002F000841A61EB030301209846002EE0D0C6E982
:100300000048DDE702B9FFDEB2FA82F2002A40F0CF
:100310008F80491B4FEA154E1FFA85F80127B1FB64
:10032000FEFC230C0EFB1C1143EA014308FB0CF1FD
:10033000994207D9EB180CF1FF3002D2994200F232
:10034000CD808446591AA3B2B1FBFEF00EFB101407
:1003500043EA044408FB00F8A04507D92C1900F132
:10036000FF3302D2A04500F2B6801846A4EB080481
:1003700040EA0C409FE7C7F1200CBB4022FA0CFE7C
:100380004EEA030E01FA07F420FA0CF521FA0CF3F9
:100390004FEA1E482543B3FBF8F92C0C08FB193330
:1003A0001FFA8EFA44EA034309FB0AF49C4202FA5C
:1003B00007F200FA07F10BD91EEB030309F1FF3036
:1003C00080F087809C4240F28480A9F10209734446
:1003D0001B1BADB2B3FBF8F008FB103345EA034436
:1003E00000FB0AFAA24508D91EEB040400F1FF3312
:1003F0006BD2A24569D90238744440EA0940A0FB97
:100400000289A4EB0A044C45C2464B4654D351D052
:10041000002E69D0B1EB0A0564EB030404FA0CFC6E
:10042000FD40FC404CEA0505C6E90054002747E7BB
:10043000C2F1200320FA03F7954001FA02F021FAF5
:1004400003F34FEA154E3843010CB3FBFEF71FFAD6
:1004500085F80EFB173341EA034107FB08F38B4293
:1004600004FA02F407D9691807F1FF3C2FD28B4236
:100470002DD9023F2944CB1A81B2B3FBFEF00EFB0B
:10048000103341EA034100FB08F38B4207D9691896
:1004900000F1FF3C17D28B4215D902382944C91A02
:1004A00040EA07473BE73746304609E70746E7E6B5
:1004B0001846FBE64145ABD2B8EB020A69EB0E02E7
:1004C00001381346A4E76046E9E7184695E7674612
:1004D000D1E781467CE702382C4447E7ACF1020CB7
:1004E0002B442FE7384608E73746E9E6704700BF58
:1004F00001F0FF01102A2BDB10F0070F08D010F8D5
:10050000013B013A8B422DD010F0070F42B3F6D1D8
:10051000F0B441EA012141EA014122F007047FF0F1
:1005200000070023F0E80256083C85EA010586EA48
:10053000010685FA47F5A3FA87F586FA47F6A5FA84
:1005400087F68EB9EED1F0BC01F0FF0102F0070290
:1005500032B110F8013B013A83EA010313B1F8D13B
:100560000020704701387047002D06BF354603381C
:10057000073815F0010F07D1013015F4807F02BF55
:10058000013015F4C03F0130F0BC0138704700BFA6
:10059000704770477047704710B50446B0F9BC12F9
:1005A000C06B00F0D3F8B4F9BE12E06BBDE81040A8
:1005B00000F0CFB810B5034B0360044600F052FAC8
:1005C000204610BDF8BC010810B50446FFF7F2FF45
:1005D00020464FF430711AF0BFFB204610BD0000DA
:1005E00010B5044600F06AFB014B2360204610BDA5
:1005F000F8BC010838B5044600F035FAE06B104D40
:1006000000F0AAF8A4F8BC02E06B00F0A8F8B4F976
:10061000BC32A4F8BE022A460A2104F521700EF06D
:10062000CFFCB4F9BE322A4604F526700A210EF03A
:10063000C7FC04F1CC00BDE838400CF075BD00BF2C
:100640001FD1010810B5B0F9BC3218215A1C92FB19
:10065000F1F301FB13230446A0F8BC32054A0A213A
:1006600000F521700EF0ACFC04F1CC00BDE81040A8
:100670000CF05ABD1FD1010810B5B0F9BC321821D9
:100680005A1E92FBF1F301FB13230446A0F8BC327F
:10069000054A0A2100F521700EF092FC04F1CC000D
:1006A000BDE810400CF040BD1FD1010810B5B0F9F5
:1006B000BE323C215A1C92FBF1F301FB132304468A
:1006C000A0F8BE32054A0A2100F526700EF078FC2B
:1006D00004F1CC00BDE810400CF026BD1FD101088C
:1006E00010B5B0F9BE323C215A1E92FBF1F301FB6A
:1006F00013230446A0F8BE32054A0A2100F52670ED
:100700000EF05EFC04F1CC00BDE810400CF00CBD16
:100710001FD10108704704387047704710B5102189
:1007200004461AF019FB204610BDA0F10400F5E7BD
:1007300010B500228260044AC16002F10804203230
:100740000460426010BD00BF38BD0108806800F041
:10075000C8B8806800F0C7B8806800F0C6B8806884
:1007600000F0C6B8704704387047704710B51021C4
:1007700004461AF0F1FA204610BDA0F10400F5E796
:1007800010B500228260044AC16002F108042032E0
:100790000460426010BD00BF60BD0108806800F0C9
:1007A000A0B8806800F09FB8806800F09EB88068AC
:1007B00000F09EB810B50446B0F9EC11C06BFFF71D
:1007C000EDFFB4F9EE11E06BBDE81040FFF7E9BFB3
:1007D00010B5034B0360044600F07EFC204610BDBC
:1007E00090BD010810B50446FFF7F2FF20464FF414
:1007F000FA711AF0B1FA204610BD000010B5044697
:1008000000F0A2FC044B23600023C4F8EC31A4F8F0
:10081000F031204610BD00BF90BD010870B5044600
:1008200000F05BFCE06B0E4DFFF7BEFFA4F8EC019F
:10083000E06BFFF7BCFFB4F9EC31A4F8EE012A46F7
:100840000A2104F5DA700EF0BBFBB4F9EE312A464A
:1008500004F5E4700A21BDE870400EF0B1BB00BFA2
:100860001FD1010870B5B0F9F031B3F5616F0446DE
:1008700029D1B0F8EE21B0F9EC31013212B23C25A9
:10088000182692FBF5F1581805FB112290FBF6F3A0
:1008900006FB1303A4F8EC31A4F8EE210A210D4A5B
:1008A00004F5DA700EF08CFBB4F9EE31094A0A2136
:1008B00004F5E4700EF084FB04F1CC000CF034FC81
:1008C0000023A4F8F031B4F8F0310133A4F8F0318A
:1008D00070BD00BF1FD101080022C0E9002270478F
:1008E00070470180704741807047B0F90000704741
:1008F000B0F902007047704700F5987308684968BE
:1009000003C37047704700F025BF10B54FF4AE71B8
:1009100004461AF021FA204610BD10B50446D0F85E
:100920005801FFF7DDFF2046BDE810400BF03ABC50
:1009300010B50446D0F8400158B10368DB68984709
:1009400038B1D4F8400103689B6898470023C4F885
:10095000403110BD10B5044600F0C4FE014B2360C9
:10096000204610BDC4BD010890F8252012B10368CF
:100970005B69184770470020704781807047C180CD
:1009800070470181704741817047704770477047D9
:1009900070477047C38810B4D21A83885DF8044B3F
:1009A000C91A036812B25B6D09B218474FF6FF739C
:1009B00083814FF0FF3303621368C3611060704797
:1009C0007047704790F825201AB190F8242002B1A2
:1009D00018607047704730B585B0036801816D4677
:1009E00001460446D3F884302846984795E8070026
:1009F0003C3484E8070005B030BD30B585B00368ED
:100A000041816D4601460446D3F884302846984714
:100A100095E807003C3484E8070005B030BD0022AB
:100A2000028042808280C280704780F83610704712
:100A300070B5036804461B6B154698472368294622
:100A400020465B6EBDE87040184708B5FFF78CFF85
:100A500008BD806C7047C06C704770477047704726
:100A600070477047704770477047704730B4C5682B
:100A700044686A100346ED0704EB02009B6848BF18
:100A8000A25830BC48BFD358184743682BB183687D
:100A90002BB9C06800F0010070471846704701206C
:100AA000704710B5082104461AF056F9204610BDCB
:100AB00010B5502104461AF04FF9204610BD10B56C
:100AC000102104461AF048F9204610BD10B54FF425
:100AD0002F7104461AF040F9204610BD70B5036826
:100AE0005E6B124B1B6804468DB22BB9104B114A3A
:100AF0006C2111481AF03CF91049828D0988914205
:100B000003D80F4B0B4A6D21F3E713F812200D4B5E
:100B10001B6853F8220003681B6B9847291A334659
:100B2000204609B2BDE87040184700BF0C230120E1
:100B3000C3BE0108CCBF010805BF01081023012076
:100B400046BF01081423012000F19803994270B5B3
:100B500004460D4603D10BF07BFA00F00BFE04F5C2
:100B60008E739D4203D123682046DB6A984704F5C3
:100B7000B2739D4203D1236820461B6B984704F54E
:100B8000D6739D4203D1236820465B6B984704F5DA
:100B9000FA739D4203D1236820469B6B984704F566
:100BA0000F739D4205D123682046DB6BBDE8704082
:100BB000184770BD00224FF0FF31C0E9002182606C
:100BC000704700000A4A026000228280C2800281CF
:100BD00042818281C28102824282C0E90522C261D1
:100BE0000284428480F82420012280F82520704766
:100BF00000D6010870B5036804461B6B154698477C
:100C00002368294620465B6BBDE87040184770B5E5
:100C100004461E46BDF91050FFF7ECFF236831462D
:100C200020469A6B9047236829462046DB6BBDE837
:100C300070401847F8B51A4B018F1B888B42064647
:100C400029D9184B1B682BB9174B184A18486C2127
:100C50001AF08EF813F81120164B1B6853F8225027
:100C6000154B186801F040FA2B6807469B6B284625
:100C700098472B6804469B6C3946284698472B6852
:100C800014FB00F45B6A394628469847A4B2204416
:100C9000A6F84600F8BD0023A0F84630FAE700BFEA
:100CA000102301200C230120C3BE0108CCBF010882
:100CB00005BF010814230120182301202DE9F04F5E
:100CC000044691B0A14600250CF0D6FC854BE563A7
:100CD00049F8403B2622294648461AF0C4F84846BF
:100CE000FFF770FF04F16C087F4B2364FF264FF67B
:100CF000FF7A2622294684F866604046A56610AF32
:100D0000ADF838A01AF0AFF84046FFF75BFF774B1D
:100D1000E36637F8083DA4F89230404684F89460C2
:100D2000394604F1980609F074FB2622294630461C
:100D30001AF099F83046FFF745FF4FF0010384F8A9
:100D4000BC306B4BC4F8983004F1CC032622294602
:100D50001846A4F8C6A0A4F8C8A084F8CAA0C4F88D
:100D6000C05084F8C45002931AF07DF80298FFF73F
:100D700029FF604BC4F8F4304FF47F03C4F800310E
:100D80005D4BC4F8CC3004F58E731846A4F8F8A077
:100D9000A4F80CA1A4F80EA1C4F8FC5084F80451E6
:100DA00084F80551A4F80851A4F80A51C4F8105168
:100DB000C4F81451C4F8185104F5B27A049309F038
:100DC00069FC504609F066FC04F5D6731846059395
:100DD00009F060FC04F5FA731846069309F05AFC12
:100DE00004F50F731846079309F054FC434BC4F8FD
:100DF000AC32434BC4F8B4324FF4A0732A46484691
:100E000000932946F023C4F8B042C4F8B852FFF763
:100E1000FEFE04F1040B4FF07F43A366494658469B
:100E200007F03AFE2A4640462946FFF7E3FE4FF018
:100E3000070340463946ADF8383009F0EAFA414632
:100E4000584607F029FE30466FF01302A121FFF744
:100E5000D1FE4FF005033A463046ADF834300DA9C7
:100E60004FF00603ADF8383009F09AF904F52B730A
:100E70003146C4F8C0305846039307F00DFE3123C5
:100E80003E2200932946F0230298DFF88C90FFF76A
:100E9000BEFE4FF0FF36D4F8CC30C4F8FC600DF144
:100EA0002008A4F800514046D3F8843002999847AE
:100EB00098E8070004F5847383E80700D9F8003048
:100EC00004F521782BB90F4B0F4A60210F4819F018
:100ED0004FFF0F4B1B88072B20D80E4B0A4A61216E
:100EE000F4E700BF8CBF0108F8D30108D4D401088F
:100EF00060D4010810BE010820BE0108B0BE010880
:100F0000490B0008C3BE010807C0010805BF01085E
:100F10001023012046BF01080C2301206A4B072142
:100F2000186801F0E1F8694A03460A2140460EF0CC
:100F300047F8D9F80030C4F8148104F52678002B5E
:100F4000C1D0634A1388062BC7D95F4B06211868A6
:100F500001F0CAF85D4A03460A2140460EF030F817
:100F60005C4BC4F818810E93394608230298ADF8FB
:100F70003C3009F0B7F80299584607F08DFD049807
:100F800090220A21FFF736FE4FF004083A464FF050
:100F900002090DA90498ADF83490ADF8388009F035
:100FA000FFF84FF00503A4F854310498FFF742FE10
:100FB000039BC4F844310499C4F858615846C4F8F6
:100FC0005C6107F069FD5046CC220A21FFF712FE52
:100FD0003A460DA95046ADF83490ADF8388009F086
:100FE000DFF85046A4F89C81FFF724FE039BC4F869
:100FF0008C3151465846C4F8A061C4F8A46107F08A
:101000004BFD059890227821FFF7F4FD4FF0030A7D
:101010003A460DA90598ADF834A0ADF8388009F02E
:10102000BFF80598A4F8E4A1FFF704FE039BC4F8F9
:10103000D4310599C4F8E8615846C4F8EC6107F06A
:101040002BFD0698CC227821FFF7D4FD3A460DA956
:101050000698ADF834A0ADF8388009F0A1F80698EC
:10106000A4F82C92FFF7E6FD039BC4F81C32069906
:10107000C4F830625846C4F8346207F00DFD079892
:101080004FF486724121FFF7B5FD3A460DA9ADF840
:10109000345007984FF00105ADF8385009F080F84A
:1010A0000798A4F87452FFF7C5FD039BC4F8786253
:1010B0005846C4F87C62C4F86432079907F0ECFC27
:1010C000204611B0BDE8F08F18230120C0BE0108F2
:1010D0001023012010BE010870477047704730B4DC
:1010E000C56844686A100346ED0704EB02009B687C
:1010F00048BFA25830BC48BFD358184743682BB1EB
:1011000083682BB9C06800F001007047184670472B
:101110000120704710B51021044619F01DFE20462D
:1011200010BD10B54FF4F671044619F015FE2046B7
:1011300010BD9830884208B505D10AF089FFBDE896
:10114000084000F027BB08BD2DE9F04F04468DB0E4
:10115000A24600250CF090FAA54BE5634AF8403B07
:1011600026222946504619F07EFE5046FFF72AFDFA
:1011700004F16C099F4B23644FF0FF084FF6FF7694
:101180002622294684F866804846A5660CAFADF84D
:10119000286019F068FE4846FFF714FD964BE36699
:1011A00037F8083DA4F8923004F1980B484684F8CB
:1011B0009480394609F02DF926222946584619F01F
:1011C00052FE5846FFF7FEFC4FF0010304F1CC0835
:1011D00084F8BC30894BC4F8983026222946A4F8FC
:1011E000C660A4F8C86084F8CA60C4F8C05084F827
:1011F000C450404619F037FE4046FFF7E3FC804BF1
:10120000C4F8F4304FF47F03A4F8F860C4F8003158
:10121000A4F80C617B4BA4F80E6104F58E76C4F83B
:10122000CC30C4F8FC5084F8045184F80551A4F87B
:101230000851A4F80A51C4F81051C4F81451C4F864
:101240001851304607F066FB6F4BC4F8DC316F4B2A
:10125000C4F8E4314FF4A0732A465046009329465F
:10126000F023C4F8E041C4F8E851FFF7D0FC4FF098
:101270007F43A366231D18465146039307F00CFCD9
:101280002A4648462946FFF7B5FC08234846394612
:10129000ADF8283009F0BDF84946201D07F0FCFBE9
:1012A0006FF01302A1215846FFF7A4FC05233A462C
:1012B000ADF8243009A906235846ADF8283008F0C7
:1012C0006FFF04F5EE73C4F8C0305946201D07F0D7
:1012D000E3FB33235B2200932946F0234046FFF7CC
:1012E00096FC4FF0FF33C4F8FC30D4F8CC30A4F8AF
:1012F00000510DF110094846D3F88430DFF828A1D9
:101300004146984799E8070004F5847383E807008D
:10131000DAF8003004F5DA792BB93D4B3D4A60210B
:101320003D4819F025FDDFF804B1BBF800300A2B69
:1013300003D83A4B374A6121F2E7394B0A21186842
:1013400000F0D2FE374A03460A2148460DF038FE27
:10135000DAF80030C4F8149104F5E479002BDCD0FD
:10136000BBF80030092BE4D92D4B0921186800F097
:10137000BBFE2C4A03460A2148460DF021FE204BB5
:101380000A9339460B234046C4F81891ADF82C3027
:1013900008F0A8FE4146201D07F07EFB19234222DB
:1013A0000093304664234621FFF731FC30464FF06E
:1013B0007F4107F0E5F9124B0A9339463046ADF804
:1013C0002C5007F0F8F93046012107F0F1FA0A2213
:1013D0000323114684F84B3130462B4607F0EBFAD5
:1013E000201D314607F058FB20460DB0BDE8F08FB8
:1013F00060C00108F8D30108D4D4010860D4010802
:1014000010BE010820BE010848C0010833110008C1
:10141000C3BE01088CC0010805BF010846BF010812
:1014200018230120C0BE01080C2301201023012035
:101430007047704770474160704710B50022B1F99E
:101440000840B1F90A10028042808480C18010BD3A
:1014500070477047012303727047704770477047A9
:101460007047704743681A6800F11001526E1846C1
:10147000104770B5054640680368DB699847044625
:101480004CB1E188AB89C91A236820465B6B09B26D
:101490009847A469F4E76868036805F110011B6EBA
:1014A000BDE87040184710B4C46841686210034634
:1014B000E40701EB02009B6848BF8A585DF8044BC3
:1014C00048BFD358184743682BB183682BB9C0680D
:1014D00000F001007047184670470120704710B5B2
:1014E0000C21044619F038FC204610BD10B54FF40D
:1014F000AE71044619F030FC204610BD10B5102125
:10150000044619F029FC204610BD10B538210446C8
:1015100019F022FC204610BD10B52821044619F010
:101520001BFC204610BD10B54021044619F014FCE8
:10153000204610BD08B50AF08BFDBDE808400BF051
:10154000F7B970B5044690F8390094F83830013096
:10155000C0B2984284F8390005D9012323720023D0
:1015600084F8393070BDB4F93A2000210CF036FA15
:1015700083B213F0010206D04FF6FF710028D8BFE6
:101580000A46981800B2238AC01AA08760680368C8
:10159000DB69984705464DB1A988A38F19442B688C
:1015A00028461B6B09B29847AD69F4E76068036889
:1015B000BDE870405B69184773B50446807A637A6A
:1015C0000130C0B29842A07205D9012323720023D2
:1015D000A37202B070BDB4F90C20B4F90E60002102
:1015E0000CF0FCF983B213F0010234D1E081E589FB
:1015F000A37AAD1B012BADB206D11B4B1B781BB1DF
:101600000AF026FD0AF02AFD184A0023ADF8003042
:101610001288E3891A44ADF80220154A5B42128809
:10162000ADF80420ADF806300AF012FD02AB13E964
:1016300006000AF055FE60680368DB6998470446B7
:10164000002CC6D0E1882368294420465B6B09B290
:101650009847A469F4E74FF6FF710028D8BF0A46FF
:101660001344E381C3E700BFB8220120B022012068
:10167000AE220120054B1B783BB143682BB11A68A1
:1016800000F10C01526E184610477047B922012034
:1016900070B5037A0546BBB940680368DB699847B3
:1016A00004464CB1A1886B8FC91A236820461B6B76
:1016B00009B29847A469F4E76868036805F10C016A
:1016C0001B6EBDE87040184770BD70B503680446D6
:1016D0009B6B15469847236829462046DB6BBDE87F
:1016E00070401847F8B5044617460E460AF09AFDB2
:1016F000144BC4F858611C60134E144B2360002532
:101700003068134BC4F83C51C4F84051C4F844311C
:10171000C4F84851C4F84C51C4F85051C4F854713D
:10172000036801219B689847284600F0A3FC3368B2
:1017300093F876200AB1D86C00B9986812F0CDFB06
:101740002046F8BD08230120BC2201204CC101081D
:1017500034C10108064BC0F84C310023C0F85031A9
:1017600000F5A273C0F84801C0F84031704700BFCF
:10177000F5180008064BC0F84C310023C0F8503172
:1017800000F5A273C0F84801C0F84031704700BFAF
:10179000C11A0008064BC0F84C310023C0F8503184
:1017A00000F5A273C0F84801C0F84031704700BF8F
:1017B0007D1C00082DE9F04707469068DDF820A061
:1017C000994603681B6A884615469847B0F5FA7F24
:1017D00005D2424B424AA321424819F0C9FA68682F
:1017E00003681B6A98470F2803D83F4B3C4AA42143
:1017F000F2E7E86803681B6A98470B2803D83B4B5D
:10180000374AA521E8E70AF023FC04300AF06DFC12
:10181000D9F8000010B10368DB689847D9F80000D8
:1018200010B103681B689847386810B103685B699A
:101830009847D8F8000010B103685B68984738688B
:1018400010B103681B689847D8F8000010B103680E
:101850009B689847E868036800215B6A98470446DC
:1018600020B1002343600372214B0360A868036822
:1018700000215B6A9847064608B1FEF7BFFF68681B
:10188000036800215B6A9847054610B13146FEF7B0
:1018900077FFC9F80040C8F800503E60E5B12B1D45
:1018A000CAF80430C5F808A03368F5633046DB6831
:1018B00098472B6828461B689847214630460CF00D
:1018C00087F8236820461B699847236820465B6990
:1018D00098472846BDE8F0872B46E1E7FCC10108A0
:1018E00011C401088AC20108CBC201086EC30108F5
:1018F00098C1010807B5D0F858310093D0F85421A9
:10190000044B00F59E710448FFF754FF03B05DF8E7
:1019100004FB00BFFC220120F82201202DE9F84F32
:1019200007469068DDF828A0994603681B6A884638
:1019300093469847B0F5FA7F05D2584B584AA321F1
:10194000584819F015FADBF8040003681B6A984739
:101950000F2803D8544B524AA421F1E7DBF80C00BE
:1019600003681B6A9847372803D8504B4C4AA52177
:10197000E6E70AF06DFB04300AF0B7FBD9F8000087
:1019800010B10368DB689847D9F8000010B103680C
:101990001B689847386810B103685B699847D8F8A6
:1019A000000010B103685B689847386810B103689D
:1019B0001B689847D8F8000010B103689B689847E7
:1019C000DBF80C00036800215B6A9847044650B3BB
:1019D000374B036014230025437200F11003456068
:1019E00005728572C58128222946184619F03BFAEE
:1019F000012284F835202F4A22612F4AA5821288BD
:101A0000E5825142A1812D4925836583A583E58324
:101A1000258465842586658684F8345012B2B1F930
:101A20000010FFF752FEDBF80800036800215B6A34
:101A30009847064608B1FEF7E1FEDBF804000368AC
:101A400000215B6A9847054610B13146FEF798FEC3
:101A5000C9F80040C8F800503E60E5B12B1DCAF837
:101A60000430C5F808A03368F5633046DB68984752
:101A70002B6828461B689847214630460BF0A8FF84
:101A8000236820461B699847236820465B6998476E
:101A90002846BDE8F88F2B46E1E700BFFCC10108EE
:101AA00015C501088AC20108CBC201086EC301082E
:101AB000E0C10108CCC00108B0220120AE22012003
:101AC00007B5D0F858310093D0F85421044B00F5F5
:101AD0009E710448FFF722FF03B05DF804FB00BFCE
:101AE000FC220120F82201202DE9F84F07469068DA
:101AF000994603681B6A884615469847B0F5307FBB
:101B000005D2554B554AA321554819F031F968685B
:101B100003681B6A98470F2803D8524B4F4AA421E9
:101B2000F2E7E86803681B6A98473F2803D84E4BE2
:101B30004A4AA521E8E70AF08BFA04300AF0D5FA00
:101B4000D9F8000010B10368DB689847D9F80000A5
:101B500010B103681B689847386810B103685B6967
:101B60009847D8F8000010B103685B689847386858
:101B700010B103681B689847D8F8000010B10368DB
:101B80009B689847E868036800215B6A98470446A9
:101B9000B0B106464FF0000B344BC0F804B080F8EB
:101BA00008B046F80C3B304608F080F91423238730
:101BB0002F4BA4F83CB01B78002B37D101232372A4
:101BC000A868036800215B6A9847064608B1FEF7DB
:101BD00007FD6868036800215B6A9847054610B1F5
:101BE0003146FEF7A5FDC9F80040C8F800503E6038
:101BF000002D2ED02B1D0A9A5360AA603368F5631E
:101C00003046DB6898472B6828461B689847214672
:101C100030460BF0DDFE236820461B699847236899
:101C200020465B6998472846BDE8F88FDFF848A052
:101C3000104ABAF90010B2F90020C4F810B03046CA
:101C4000FFF743FD304608F0ACF8BAF80030638780
:101C5000B6E72B46CFE700BFFCC1010834C6010838
:101C60008AC20108CBC201086EC30108BCC10108C9
:101C7000B9220120B0220120AE22012007B5D0F800
:101C800058310093D0F85421044B00F59E7104485C
:101C9000FFF72AFF03B05DF804FB00BFFC22012020
:101CA000F822012013B5002249B102AB019203F8DA
:101CB000052D0268946801AAA04702B010BD08462D
:101CC000FBE7C0897047008A7047C08870478088EA
:101CD0007047807A00F07F007047807AC0097047B3
:101CE000406A7047806A704770478B88C0690A688D
:101CF000DB0A50F823001044704710B5C2B1137BC3
:101D0000B3B1547BD27A240204F4E0641443026A2F
:101D100098B202EB840213888B4202D192F902003E
:101D200010BD05D8013880B204320028F3D1F7E79E
:101D30000020F5E710B52C21044619F00DF82046D7
:101D400010BD000030B58BB00446BDF8605008955A
:101D5000BDF85C5007959DF8505006959DF84C5085
:101D600005959DF8485004959DF8445003959DF8BD
:101D7000405002959DF83C500195BDF838500095B3
:101D80000BF080FA064B2360159BE361169B2362E0
:101D9000199B63621A9BA36220460BB030BD00BF43
:101DA0005CC7010830B5174D2C78BFF35B8F14F07A
:101DB00001048FB022D1284618F0A5FFF0B13F23CF
:101DC0000993114B0893114B11490A940122CDE953
:101DD00006430423CDE903320A230093CDE90B44E3
:101DE0000594CDE901440B48FFF7ACFF284618F0F5
:101DF00096FF094A0949074818F0A9FF05480FB09E
:101E000030BD00BF7C010020D4F10108D0F10108F1
:101E1000C8EF01088001002000000020E91C000834
:101E200030B5184D2C78BFF35B8F14F001048FB0E0
:101E300024D1284618F067FF00B33F230993124BC3
:101E40000893124B12490A94CDE906430122042358
:101E5000CDE9033228230E220093CDE90B44292338
:101E60000594CDE901440B48FFF76CFF284618F0B4
:101E700056FF094A0949074818F069FF05480FB09D
:101E800030BD00BFAC010020CCF10108DCF101083D
:101E9000F0EF0108B001002000000020E91C00085C
:101EA00030B5174D2C78BFF35B8F14F001048FB061
:101EB00023D1284618F027FFF8B13F230993114B8F
:101EC0000893114B11490A94CDE9064301220423DA
:101ED000CDE9033214231A460093CDE90B4405944F
:101EE000CDE901440A48FFF72DFF284618F017FFF7
:101EF000084A0949064818F02AFF05480FB030BDC6
:101F0000DC010020D8F10108E0F10108B4F001087B
:101F1000E001002000000020E91C0008704710B517
:101F20000421044618F018FF204610BD012908B509
:101F300008D003D3022909D0002002E000F012F8F3
:101F4000006808BD00F00EF84068FAE700F00AF8F3
:101F50008068F6E700487047C8C701080920704745
:101F60000C207047004870470C02002010B5FFF7A6
:101F700097FF044C2060FFF753FF6060FFF712FFEC
:101F8000A06010BD0C0200200020704700207047A8
:101F90000EB403B503AB002153F8042B01930AF0F0
:101FA00099FF02B05DF804EB03B070470CB407B5BD
:101FB00004AB53F8042B01930AF08CFF03B05DF8D7
:101FC00004EB02B07047000010B5436C044673B3D5
:101FD000038F2BB9184B194AC521194818F0C8FEB0
:101FE000C38E00EB43035B8C0BB30CF03AFA238FE8
:101FF000012B03D8134B144ACB21EEE7E28E531C7E
:102000009BB2092B194688BFA3F10A0104EB4101D9
:1020100040F63F10498C814209D10A2B04EB420261
:1020200028BF002304EB4303508C5884518420467E
:10203000BDE810400CF018B97CC80108A9C9010816
:1020400085C80108C9C80108D7C801080CF0D3B871
:1020500010B586B002AC84E806001A460AAB0593B8
:102060000193099B00932146089B09F0AFFB06B042
:1020700010BD000038B5D8B9114B12481B68124981
:10208000BBB11A689C681A4402605A681A440A6014
:102090001C446CB10D4B00221A80FFF763FF05460C
:1020A000FFF75EFF0A4B1C600A4B1D600A4B18804D
:1020B00038BD0A4B03600A4B0B600A4B1C68E8E70B
:1020C000180200201C020020200200202402002010
:1020D0000C2301201423012010230120803F090834
:1020E000343F09087C3F0908044B1B6853F8210062
:1020F000034B1B6803EB4000704700BF2002002029
:102100001C020020012380F8741080F8753070479D
:10211000002070474164034B003118BF0121197042
:10212000704700BFB922012000207047836B0BB1BC
:102130000846184770474FF6FF70704740680368BD
:102140009B69184770477047034B902283F85A23C6
:1021500083F85823704700BF00E100E0094A0A49AC
:10216000D3680A48C3F30A03013B9BB20B80116991
:10217000C1F30A01013901801364536B43F0010379
:1021800053637047006801402A02002028020020A3
:10219000014B986A704700BF84680140024B0122DE
:1021A000996243F8602C70478468014010B531B9DA
:1021B0000A4B0B4A0B4840F2D22118F0D9FDC0E976
:1021C0000F120032084918BF01220A70026819462E
:1021D000D2F88C20BDE81040104700BFB7CA0108F4
:1021E00071CB0108EFCA0108B822012008B5094BDC
:1021F0001B888B4203D8084B1B88934205D9074B99
:10220000074A08489E2118F0B3FD074B1980074B79
:102210001A8008BDAE220120B022012054CA010854
:102220002ECB0108EFCA0108B4220120B6220120FA
:1022300070B5044606F01BFF23685D6E09F008FFC9
:1022400001462046A8472368054AD3F8885020460F
:10225000AC460023A2F51631BDE87040604700BFD0
:10226000005802D006F0EABE90F84B3013B1024B92
:1022700001221A7006F0EEBE2602002006F0A8BE6B
:1022800007F003B810B5044607F036FC2368204673
:10229000D3F8AC30BDE81040184790F877301BB148
:1022A000406803681B6818471846704710B590F8D7
:1022B000744090F834100C4B8C421A7809D03AB91B
:1022C0000A4A0B491488088810800C8001221A7071
:1022D00010BD002AFCD0054A0549148808881080E2
:1022E0000C800022F3E700BFB2220120AE220120C1
:1022F000B0220120034B4FF080629A604FF0807251
:102300009A60704700E100E0084B4FF08062C3F82C
:102310008820BFF34F8FBFF36F8F4FF08072C3F8E9
:102320008820BFF34F8FBFF36F8F704700E100E04D
:1023300010B5144C236823B3134B144A1B6C11883B
:102340008B4213D1124B198803F02AFC226892F8B1
:102350006630013382F8663000F004FA206807F036
:10236000CBFB0020BDE8104000F016BC03F018FCC9
:10237000206803681B6A98470020BDE8104000F001
:1023800035BC10BDBC220120006801402A0200209B
:102390002802002003685B6C18470120704703681F
:1023A0009B6A184782B0002301930D4B1A6B42F4CD
:1023B00000021A631A6B02F400020192019A1A6970
:1023C00042F400021A611A6922F400021A61054BF4
:1023D000054A1A61054B4FF080629A6002B070475F
:1023E000003802406C250120F923000800E100E0DC
:1023F00040F2EF3070470000024B1B6858680368DA
:102400005B691847BC22012008B50B280BD8DFE810
:1024100000F01206100A0A0A0A0808080808012033
:1024200008BD0520FCE7054B054A0648662118F063
:102430009FFC0020F4E70220F2E700BFD9CB01089F
:10244000AACC0108F4CB010808B50A2809D8DFE8AE
:1024500000F010060E08080808060606060001200F
:1024600008BD054B054A0648872118F081FC00206D
:10247000F6E70220F4E700BFD9CB0108F4CC01084D
:10248000F4CB0108F8B50C46487FFFF7BDFFA77FE6
:1024900005463846FFF7B8FF06463846FFF7D4FF33
:1024A000A38A628BD21A494B1A64A18A628B521A90
:1024B0009A61A18A228B521A1A615863A18AE28A10
:1024C00042EA01425A642269DA636268DA60226889
:1024D000402A70D010D8042A3BD0202A6BD0237F0A
:1024E00045EA0365394B45F40035DD61617FA27F24
:1024F000914267D0364A4BE0B2F5807F1BD0B2F5EF
:10250000007F23D0802AEAD1A068021DDA62227FF0
:1025100045EA026545F40035DD615E6222695A6173
:102520000278EAB1012A35D02A4B2B4A2B4840F2D7
:10253000111118F01DFC217F294A42EA0162DA617B
:10254000E2681A625E6222695A6120E0217F254AB0
:10255000F3E7227F45EA026545F40035DD61F1E7E6
:10256000D9694288501E21F47F4222F0100242EACB
:102570000022DA610121154BDA6942F02002DA61AA
:10258000DA699206FCD410229A600029B2D0164A69
:102590001A60F8BDDA694088217F22F47F4222F078
:1025A0001002013842F01002FF3942EA002218BF3F
:1025B0000121DA61DFE7237F45EA036545F4003551
:1025C000024BCBE740F20122E2E700BF00B002403D
:1025D00001020100BFCB01086CCC0108F4CB01085B
:1025E0000A000200090002000102020010B5887F03
:1025F0000C46FFF729FF1C4B5863A18AE28A42EA86
:1026000001425A642269DA63628BA18A521A1A64FF
:102610002268082A16D1A18A628B521A9A61A18A6D
:10262000628B521A1A615862217F104A42EA016293
:10263000DA61E2681A6222695A612269DA600C4A38
:102640001A6010BD0022D8611A61E1680A0A4809BF
:1026500002F4784200F4FC600243C1F3C4010A436F
:102660009A63044AECE700BF00B002400900010091
:102670000102020001020300054B0360054B4FF00D
:102680008062C3F88820BFF34F8FBFF36F8F70470E
:1026900024CC010800E100E010B50446FFF7ECFF90
:1026A00020464FF45A6118F057FB204610BD000039
:1026B00070B505462C460A4B0C30002668602E7219
:1026C0006E7244F8203B6022214607F053FB05F56B
:1026D0005A63E6602434A342FBD1284670BD00BF94
:1026E00024CC0108012108B50022084605F005F9AF
:1026F0000A4B186028B90A4B0A4A28210A4818F0E0
:1027000037FB00220421012005F098F9074B1860DF
:1027100018B9074B034A2C21F0E708BD300200200E
:102720003FCD0108F3CD010888CD01082C0200201F
:10273000B1CD0108024B4FF0FF31186805F028B900
:1027400030020020014B186805F04EB9300200201D
:10275000024B0021186805F01BB900BF30020020B1
:10276000FFF7F0BF03480449006800231A4605F04C
:10277000A1B900BF2C0200200400002013B5084CB2
:1027800000231A4601A9206805F0C6F94FF0FF336F
:10279000002201A9206805F0BFF902B010BD00BFFA
:1027A0002C0200207047704770470120704740207E
:1027B000704700EB81100830704700EB8110083043
:1027C0007047012070474FF4307070474FF43073FA
:1027D00003FB0100083070474FF4307303FB010026
:1027E00008307047012070471020704700EB01103F
:1027F0000830704700EB0110083070470846FEF7BC
:10280000A9BF000010B5034B0360044605F058FF54
:10281000204610BD94CE010810B50446FFF7F2FF24
:102820002046482118F098FA204610BD10B5034BF9
:102830000360044605F044FF204610BD60CE010849
:1028400010B50446FFF7F2FF20464FF4327118F03E
:1028500083FA204610BD000010B5034B0360044608
:1028600005F02EFF204610BD2CCE010810B5044601
:10287000FFF7F2FF2046182118F06EFA204610BD2F
:1028800010B5084B0360044600F53D70FFF7BAFF32
:1028900004F12C00FFF7CAFF04F11400FFF7DCFF7E
:1028A000204610BDC8CE010810B50446FFF7E8FF6A
:1028B00020464FF4946118F04FFA204610BD0000F6
:1028C0002DE9F341FFF746FB0546FFF747FB0024E0
:1028D000014623462846224600940CF017FC274B5D
:1028E000274A284D1A602046FFF7C4FB26480CF003
:1028F00075FB2B78BFF35B8FDB0738D4284618F0C5
:1029000002FA002833D0214C214B236004F5517684
:1029100004F1140004F12C0804F53D776060C4F85C
:102920000880E760266105F0CDFE1A4B63614046E2
:1029300005F0C8FE184BE362384605F0C3FE174B9E
:10294000C4F8F43204F54F70FDF7C6FF224604F5D3
:102950004F713046FDF7FEFF3046FEF7FBFE28467E
:1029600018F0DDF90E4A0F49204618F0F0F90E482C
:1029700002B0BDE8F04100F0D3B800BF1823012039
:10298000F814002034020020080000203802002043
:10299000C8CE01082CCE010860CE010894CE0108F3
:1029A00000000020812800087C14002070470000EF
:1029B000014800F0C7B800BF7C14002010B5042106
:1029C000044618F0C9F9204610BD10B57821044618
:1029D00018F0C2F9204610BD10B57C21044618F04D
:1029E000BBF9204610BD0000F8B5394C394D3A4FBF
:1029F0003A4B3B492B602246284618F0A8F9394E3D
:102A00003846FFF755FE22463749384618F09FF9F9
:102A100030460FF07BFC22463449304618F097F9D7
:102A200022463349334818F092F933483349416616
:102A30003349C56000230122324D0385C0E9017688
:102A4000C0E90433C0E90633C0E9083380F82A300E
:102A5000C3620386C0E90E33C0E9103380F8483002
:102A600080F8492080F84A3080F84B30C0E91333B1
:102A7000C0E91533C0E9173380F8683080F8693051
:102A800080F86A3080F86B3080F86C300860F02194
:102A900029801D4D036729801C4D80F874304FF448
:102AA000A07129801A4D80F875302980194980F865
:102AB00076300B70184B80F8772080F8782080F8FB
:102AC0003420036022461549BDE8F84018F03FB9AC
:102AD00000000020D8060020DC060020B4CF01084A
:102AE000A5270008FC14002079260008A727000865
:102AF0001D1F0008080000207C14002001000001B8
:102B0000BC220120AE220120B4220120B0220120EB
:102B1000B6220120B2220120DCCE0108A92700083C
:102B200070B50446FFF784FB2368D3F88850044B44
:102B3000D4E90F122046AC46BDE87040604700BFA4
:102B400000B004D008B503680446D3F88030984735
:102B5000236820469B6F9847FFF710FE23682046A6
:102B60001B6F9847292000F043FCFFF707FE2368FE
:102B700020461B6F9847F8E7FFF70ABBFFF70EBB2D
:102B8000FFF77CBBFFF7E0BAFFF7B4BBFFF7BCBBB6
:102B9000FFF7E4BA06F016BA032821D8DFE800F000
:102BA000020B12190F4B1A68B2FA82F25209042171
:102BB0000D4802F0E9B90B4B5A68B2FA82F2520999
:102BC0000821F5E7074B9A68B2FA82F25209102100
:102BD000EEE7044BDA68B2FA82F252092021E7E705
:102BE000704700BF7415002000100240032821D850
:102BF000DFE800F0020B12190F4B1A68003218BF01
:102C0000012204210D4802F0BFB90B4B5A68003273
:102C100018BF01220821F5E7074B9A68003218BF58
:102C200001221021EEE7044BDA68003218BF0122BE
:102C30002021E7E7704700BF741500200010024014
:102C400003280DD8DFE800F00206080A0421054831
:102C500002F09FB90821FAE71021F8E72021F6E7F2
:102C6000704700BF0010024008B5032811D8DFE804
:102C700000F0020A0C0E0421074802F07FF9431EFF
:102C80005842584108BD0821F6E71021F4E72021F9
:102C9000F2E70020F3E700BF0010024070B5084DD6
:102CA00000240126E0B2FFF7DFFF28B155F82430F9
:102CB000012B18BF45F824600134052CF2D170BDFA
:102CC0007415002038B50C4B0C4C18800C4B82202E
:102CD00019806368984740F6110398420AD1094D5C
:102CE00023682C60822098472B688220DB689847F5
:102CF000002038BD0120FCE78415002024000020BE
:102D000086150020881500204FF4A071F020FFF7F1
:102D1000D9BF0000F7B52C4D2B6804461B698220F3
:102D2000984780B2208000284BD02B680DF1060216
:102D30005B6901A982209847BDF80630A3F5B473FA
:102D40009BB20B22B3FBF2F333B1204A12889A42B2
:102D50003CBF02F1FF339BB2BDF8042040F6B8310E
:102D60008A4295BFC2F57162C2F56D620E320832B9
:102D7000ADF80420BDF804100F22B1FBF2F131B11F
:102D8000134A12888A423CBF02F1FF3189B2114EC8
:102D9000114D30682F6882B2814288BF8A1AB8B25A
:102DA00098BF521ABB428CBF181AC01A92B280B296
:102DB0000244052AC4BF31602B60336863802B68EE
:102DC000A38003B0F0BD00BF881500208615002049
:102DD000841500208C1500209015002037B568461A
:102DE0000D461446FFF796FFBDF8000030B1BDF860
:102DF00002302B60BDF804302360012003B030BDE9
:102E0000054BD3F8882042F47002C3F888204FF0B5
:102E100000629A60704700BF00ED00E070B588B0B6
:102E200000230293204B1A6C42F010021A641B6CB0
:102E300003F010030293064601A903A8029B01F0C8
:102E4000B3F8069B4BBB01F09FF8184C184B23605E
:102E500040F2E733E360174BB0FBF3F00138002397
:102E6000606020462361A360A36101F007FA054674
:102E700080B9204601F0B8F8054658B9362001F06F
:102E8000DDFE0F2E0DD82A463146362001F0A2FE77
:102E9000094B1E60284608B070BD01F075F840006F
:102EA000D3E70125F6E700BF00380240C023012028
:102EB0000010004040420F001C00002007B5064BE8
:102EC00002A91B6821F8020D0122044802F079F9D9
:102ED00003B05DF804FB00BF140000206024012053
:102EE00008B5642004F0FDFCFBE7000030B595B0A8
:102EF0003022002108A817F0B6FF1422002103A8F1
:102F000017F0B1FF00241D4B01941A6C42F080525F
:102F10001A641B6C03F080530193019B184B0294BD
:102F20001A6842F440421A601B6803F4404302935B
:102F30000122029B4FF48033CDE9082302254FF490
:102F40008003CDE90E5308214FF4A873CDE9101387
:102F500008A804231393129500F09EFD0F23CDE9DA
:102F600003354FF4A0504FF48053CDE906030521FB
:102F700003A8059400F06AFF15B030BD0038024088
:102F80000070004080B59AB002F02AFEFFF7AEFF55
:102F9000142200210DA8002417F065FFC04B0094F7
:102FA0001A6BC048C04D42F010021A631A6B02F04F
:102FB00010020092009A01941A6B42F020021A63E8
:102FC0001A6B02F020020192019A02941A6B42F0ED
:102FD00080021A631A6B02F080020292029A039432
:102FE0001A6B42F004021A631A6B02F00402039295
:102FF000039A04941A6B42F001021A631A6B02F0EE
:1030000001020492049A05941A6B42F002021A63B8
:103010001A6B02F002020592059A06941A6B42F0AE
:1030200040021A631A6B02F040020692069A079455
:103030001A6B42F008021A631B6B03F00803079334
:1030400022463C21079B01F09FFF2246042197481E
:1030500001F09AFF22464FF44051954801F094FF49
:1030600001264FF003083C230DA98E48CDF840807F
:1030700002274FF00409CDE90D360F9401F090FEC0
:103080000DA98A480F94CDE90D96109701F088FE9E
:103090000DA94FF440538648CDE90D36CDE90F47D1
:1030A00001F07EFE8348844B036002F007FF834AF1
:1030B000834B2C62C5E9002328464FF48043C5E9C1
:1030C0000434C5E90244C5E9064401F0D9FA1021E7
:1030D000284601F027FD2146284601F045FD7948A4
:1030E000794984624FF48273C0E900134FF400758C
:1030F0001823C0E906530A23744DC362C0E9024491
:10310000C0E90444C0E9084401F0FCFF704B0D978E
:103110004FF0100CC5E900364023C5E904C34FF455
:10312000C073C5E906344FF40063C5E908344FF4B1
:103130000053AB620DA907232846CDE90E39CDE92E
:1031400010384FF0080AC5E90249CDE9127700F0BE
:103150004DFC4FF6FF7209A9284608940996CDE95F
:103160000AA60C9400F062FC304602F065FD4FF6B2
:10317000FF7209A92846CDE9097ACDE90B6400F070
:1031800055FC4FF6FF7209A92846CDE9098ACDE919
:103190000B9400F04BFC4FF40C730893089B0C93BA
:1031A0004FF6FF7209A92846CDE9099A0B9600F05F
:1031B0003DFC40F26A51284600F056FC342221467C
:1031C0000DEB020017F04FFE424D434B2C61C5E959
:1031D00000340923C5E905361D2340F20D1EC5E95B
:1031E000073840F24313C5E909E340F2171840F2EB
:1031F0004713C5E90B83C5E90244AC8685F8364020
:10320000284602F0C7FBFF21F022CDE912144FF44B
:10321000806905214FF4A073CDE90E24CDE9149106
:10322000CDE916420DA922462846CDE910372B4D8F
:1032300018930D94ADF864408DF8664002F087FC59
:10324000274B2B601B6898472B68264DDB689847F7
:10325000254BC5E90A47C5E90C442846C5E90034B1
:10326000C5E9027402F0E8F93146284602F0A4FAF2
:1032700002F035FE02F032FE1C4A1D48214604F0E1
:10328000E7FA1C4B1C4A186021461C4804F0E0FA7F
:103290001B4B186004F0B0FA04F0C0FAFEE700BF60
:1032A00000380240001002400C24012000080240B7
:1032B000000C0240B824012000300240005C0040B5
:1032C000A08601006024012000500140AC250120AF
:1032D000400100A0C0240120006801409415002096
:1032E0004C0000206C25012000B0024000D00108F5
:1032F000E12E000808240120DCCF0108ED5E000863
:10330000682501207047704710B586B006AC074BA2
:1033100004F8012D1B68029301230A46CDE90043FE
:103320000146034801F05CFA06B010BD1000002011
:103330000C2401207FB506AA002302F8013D084BAA
:103340001B6802930123CDE900230A460146054884
:1033500001F0DAFA9DF8170007B05DF804FB00BF32
:10336000100000200C2401201FB5084C2468009296
:10337000CDE901340A4601230146054801F0C4FAAB
:10338000003018BF012004B010BD00BF10000020A5
:103390000C24012002F050BC10B5064C002220463F
:1033A000042101F0F1FD204601220421BDE8104076
:1033B00001F0EABD0008024038B50B4C0546012279
:1033C0004FF40051094801F0DFFD0022042120469E
:1033D00001F0DAFD2846FFF771FD204601220421A5
:1033E000BDE8384001F0D0BD00080240000C0240AA
:1033F00038B50B4C054600224FF40051094801F046
:10340000C3FD00220421204601F0BEFD2846FFF73F
:1034100055FD204601220421BDE8384001F0B4BD2D
:1034200000080240000C0240F7B5144C144D07464A
:103430000E4620460022042101F0A6FD00224FF492
:103440000051284601F0A0FD3846FFF737FD0D4B2F
:103450000D481B68324601A902F04FF828460122A8
:103460004FF40051019E01F08FFD204601220421FE
:1034700001F08AFD304603B0F0BD00BF00080240F5
:10348000000C0240140000206024012002F0D4BB94
:103490000268034B9A4201D102F0BCBB704700BFE7
:1034A0000010004070477047FEE7FEE7FEE7FEE7CA
:1034B00070470000014800F0D5BD00BFC0230120C7
:1034C000014802F0E3BA00BFC0240120014802F025
:1034D000E3B800BF6C25012008B50A4B1968024605
:1034E00009B9094919601868694602448A4206D92F
:1034F00017F06AFC0C2303604FF0FF3008BD1A6020
:10350000FCE700BF981500202826012082B00E4B52
:1035100000220092596C41F480415964596C01F4C5
:103520008041009100990192196C41F08051196419
:103530001B6C03F080530193019B0F216FF001007E
:1035400002B001F047BB00BF003802400268094BDF
:103550009A4282B00BD100230193074B1A6B42F4BD
:1035600080521A631B6B03F480530193019B02B0DA
:10357000704700BF003002400038024007B50F4BD3
:1035800002689A4216D10022A3F5F0430192196B0A
:1035900041F4000119631B6B03F40003019305213F
:1035A0005A20019B01F016FB5A2003B05DF804EB92
:1035B00001F044BB03B05DF804FB00BF00B0024063
:1035C0002DE9F043044689B01422002103A817F026
:1035D0004AFC2268244B9A4243D1244C24480025BB
:1035E0000095236B43F004032363236B03F0040370
:1035F0000093009B0195236B43F001032363236B2E
:1036000003F001030193019B4FF012094FF4007383
:103610004FF001080327042603A9CDE90339CDE9BA
:103620000587079601F0BCFB4FF4807303A911488E
:103630000796CDE90339CDE9058701F0B1FB029585
:10364000236C43F400032364236C03F4000302930C
:10365000029B236A43F400032362236A23F40003DA
:10366000236209B0BDE8F083005C004000380240EE
:103670000008024000000240F0B599B00446142250
:10368000002107A817F0EFFB30220DEB020000210C
:1036900017F0E9FB22685E4B9A4240F0B78008239E
:1036A0000C93C0231093042312930CA84FF40033FF
:1036B000159302F0D5FA08B1FFF7F4FE554B5648C2
:1036C000002400945A6C42F080625A645A6C02F0F2
:1036D00080620092009A01941A6B42F020021A63F1
:1036E0001A6B02F020020192019A02941A6B42F0C6
:1036F00001021A631A6B02F001020292029A039409
:103700001A6B42F002021A631A6B02F00202039271
:10371000039A04941A6B42F040021A631A6B02F087
:1037200040020492049A05941A6B42F004021A6350
:103730001A6B02F004020592059A06941A6B42F085
:1037400008021A631B6B03F00803069302250E267A
:10375000069B0B964FF4806307A9CDE90735CDE9A9
:10376000094501F01DFB41F6580307A92B480B96AC
:10377000CDE907350927CDE9094501F011FB032300
:1037800007A927480B97CDE90735CDE9094501F091
:1037900007FB4FF4706307A921480B96CDE9073565
:1037A000CDE9094501F0FCFA4FF40C6307A91D4867
:1037B0000B96CDE90735CDE9094501F0F1FAC023B3
:1037C00007A919480B96CDE90735CDE9094501F060
:1037D000E7FA082307A915480B96CDE90735CDE987
:1037E000094501F0DDFA4FF4A05307A90D480B97E6
:1037F000CDE90735CDE9094501F0D2FA5820224636
:10380000052101F0E7F9582001F018FA19B0F0BDD0
:1038100000680140003802400014024000000240ED
:10382000000402400018024000080240000C024060
:1038300010B5044688B01422002103A817F013FB2A
:103840002268144B9A4223D103F568430021019169
:103850005A6C114842F480125A645A6C02F4801275
:103860000192019A02911A6B42F020021A631B6BBB
:1038700003F020030293029B4FF4607202230321A2
:10388000CDE903230523CDE9061303A901F088FA46
:1038900008B010BD00500140001402402DE9F04175
:1038A00086B01422002101A817F0DDFA2B4B1C680A
:1038B000002C4FD14FF00108C3F80080284B009432
:1038C0009A6B284842EA08029A639B6B03EA080352
:1038D0000093022703260C25009B01A94FF63F0306
:1038E000CDE90137CDE9046501F05AFA01A91E4876
:1038F0000595CDE90187CDE9034601F051FA48F27B
:10390000331301A919480595CDE90137CDE90346DF
:1039100001F046FA4FF6837301A915480595CDE9E4
:103920000137CDE9034601F03BFA4CF2037301A9DC
:1039300010480595CDE90137CDE9034601F030FA8D
:10394000602301A90C480595CDE90137CDE903466F
:1039500001F026FA06B0BDE8F08100BF9C150020FA
:1039600000380240001402400008024000180240E3
:1039700000100240000C0240000402400120704789
:1039800008B517F021FA162303604FF0FF3008BD89
:1039900008B517F019FA16230360FEE770B50E4656
:1039A00015460C46A31B9D4201DC284670BDAFF3B3
:1039B000008004F8010BF5E770B50E4615460C467D
:1039C000A31B9D4201DC284670BD14F8010BAFF328
:1039D0000080F5E74FF0FF3070474FF400534B6025
:1039E00000207047012070470020704738B50D4611
:1039F0000446C8B190F82C3003F0FF021BB980F8E0
:103A00002D20FFF74BFF022384F82C30211D206866
:103A100001F022F962682068294601F051F901237A
:103A200084F82C30002038BD0120FCE770B5054635
:103A300090F82C00C0B202280E4612D000F0FB0411
:103A4000012C0FD1022385F82C30286801F07AF977
:103A50003368022B06BF052385F82C3085F82C40EF
:103A6000002070BD0120FCE738B5044690F82C001A
:103A7000C0B202280DD094F82C50EDB2012D09D11E
:103A8000022384F82C30206801F080F984F82C504F
:103A9000002038BD0120FCE72DE9F341044608B9B8
:103AA000012041E00368DD0710D4236898075AD449
:103AB00023681A0700F19C8023685B0700F1BA8035
:103AC000A069002840F01C8100202DE0A44B9A68DA
:103AD00002F00C02042A07D09A6802F00C02082AAD
:103AE0000AD15B68590207D59D4B1B689A03DCD548
:103AF0006368002BD9D1D3E76268994BB2F5803F58
:103B000015D11A6842F480321A606368F3B102F08A
:103B10008DF8934D06462B689B03C6D402F086F8B9
:103B2000801B6428F7D9032002B0BDE8F081B2F50C
:103B3000A02F1A6803D142F480221A60E1E722F430
:103B400080321A601A6822F48022DDE702F06EF8F3
:103B5000834D06462B689F03A7D502F067F8801BAC
:103B60006428F7D9DFE77E4B9A6812F00C0F07D074
:103B70009A6802F00C02082A11D15B685E020ED42A
:103B8000774B1A68950702D5E268012A88D11A682E
:103B9000216922F0F80242EAC1021A6088E7E2686D
:103BA000704BB2B101221A6002F040F86C4D06462B
:103BB0002B68980707D52B68226923F0F80343EA9E
:103BC000C2032B6074E702F031F8801B0228EFD9A2
:103BD000A9E71A6002F02AF8614D06462B6899079A
:103BE0007FF566AF02F022F8801B0228F6D99AE72B
:103BF00062695D4B7AB101221A6002F017F8584DE4
:103C000006466B6F9F073FF557AF02F00FF8801B1A
:103C10000228F6D987E71A6002F008F8504D0646E8
:103C20006B6F98077FF548AF02F000F8801B022801
:103C3000F6D978E74A4B1A6C12F080522BD10192D8
:103C40001A6C42F080521A641B6C03F0805301938B
:103C5000019B0126454D2B68D9051ED5A268404B16
:103C6000012A2AD11A6F42F001021A67A368002BB9
:103C700037D001F0DBFF3A4D074641F288382B6F11
:103C80009B0728D5002E3FF41BAF354A136C23F059
:103C90008053136414E70026DCE72B6843F4807339
:103CA0002B6001F0C3FF07462B68DA05D6D401F07C
:103CB000BDFFC01B0228F7D935E7052A1A6F03D1CB
:103CC00042F004021A67CDE722F001021A671A6F68
:103CD00022F00402C9E701F0A9FFC01B4045CED97C
:103CE00021E701F0A3FF1E4D074641F288382B6FF4
:103CF0009807C7D501F09AFFC01B4045F7D912E7D6
:103D0000174DAB6803F00C03082B46D0184E002368
:103D10000228336034D101F089FF07462B689901EE
:103D200028D4D4E907321343626A43EA8213E26A71
:103D300043EA0263A26A0A4C5208013A43EA024388
:103D40006B600123336001F071FF054623689A011F
:103D50003FF5BAAE01F06AFF401B0228F6D9E2E651
:103D60000038024000004742800E47420070004089
:103D70006000474201F05AFFC01B0228CED9D2E6AC
:103D800001F054FF04462B689B017FF59DAE01F0C6
:103D90004DFF001B0228F6D9C5E601283FF4C4AE4A
:103DA0006B68E26903F4800191427FF479AE216A85
:103DB00003F03F028A427FF473AE616A47F6C07235
:103DC0001A40B2EB811F7FF46BAEA26A520803F473
:103DD0004031013AB1EB024F7FF462AEE26A03F088
:103DE0007063B3EB026F14BF012000209CE600BF9C
:103DF00008B513498B6803F00C03042B03D0082B80
:103E000003D0104800E0104808BD4A684B68496874
:103E100013F4800314BF0C480A48C1F3881118BF7B
:103E2000002302F03F02A1FB0001FCF7E1F9044B83
:103E30005B68C3F3014301335B00B0FBF3F0E3E7DE
:103E4000003802400024F40000127A002DE9F0410D
:103E50000D46044610B90120BDE8F081454B1A68B3
:103E600002F00F028A422AD323689E072FD42368C8
:103E7000D90743D43F4B1A6802F00F02AA4268D810
:103E800023685A076ED423681B0707D53A4A21696D
:103E9000936823F4604343EAC1039360FFF7A8FFEC
:103EA000354B364A9B68C3F30313D35CD840344B7D
:103EB0001860344B1868FEF7B1FF0020CCE7CAB297
:103EC0001A701B6803F00F038B42C4D1CCE758076C
:103ED00041BF294A936843F4E05393602368264A1C
:103EE00013F0080F1EBF936843F460439360936818
:103EF000A16823F0F0030B439360B8E762681E4BA0
:103F0000012A1CD11B6813F4003FA4D01A4EB368D9
:103F100023F003031343B36001F088FE41F28838B5
:103F20000746B368626803F00C03B3EB820FA1D0BD
:103F300001F07CFEC01B4045F3D903208CE7911EA5
:103F400001291B6802D813F0007FDEE713F0020F8F
:103F5000DBE7EAB21A701B6803F00F03AB427FF491
:103F60007AAF8DE7044AE168936823F4E0530B438A
:103F7000936088E7003C024000380240C4CF01084B
:103F80000C0000201C000020044B054A9B68C3F372
:103F90008223D35C034A1068D8407047003802403F
:103FA000D4CF01080C0000200F2303600B4B9A684C
:103FB00002F0030242609A6802F0F00282609A689E
:103FC00002F4E052C2609B68DB0803F4E053036133
:103FD000034B1B6803F00F030B607047003802406F
:103FE000003C02407047000090F83D30012B31D179
:103FF0000268022380F83D30D36843F00103D360A8
:104000000368154A93421AD0B3F1804F17D0A2F536
:104010007C42934213D002F5806293420FD002F5A6
:10402000806293420BD002F57842934207D002F5AA
:104030007052934203D0A2F59432934204D19A680D
:1040400002F00702062A03D01A6842F001021A6041
:104050000020704701207047000001407047704702
:104060007047704710B503681A69910704460FD569
:10407000DA6892070CD56FF002021A610123037708
:1040800003689B699B077AD0FFF7E9FF002323773A
:1040900023681A69500711D5DA6851070ED56FF0F9
:1040A00004021A610223237723689B6913F4407F7B
:1040B00020466AD0FFF7D3FF0023237723681A69CD
:1040C000120710D5DA6810070DD56FF008021A61D3
:1040D000042323772368DB69990720465BD0FFF729
:1040E000BEFF0023237723681A69D20611D5DA6848
:1040F000D0060ED56FF010021A61082323772368CB
:10410000DB6913F4407F20464BD0FFF7A8FF002364
:10411000237723681A69D10708D5DA68D20705D54D
:104120006FF001021A612046FFF7B2F923681A699D
:10413000100608D5DA68110605D56FF080021A61FD
:10414000204600F033FD23681A69520608D5DA6864
:10415000500605D56FF040021A612046FFF781FF37
:1041600023681A69910622D5DA6892061FD56FF086
:1041700020021A612046BDE8104000F016BDFFF78E
:104180006DFF2046FFF76CFF80E7FFF767FF2046D3
:10419000FFF766FF90E7FFF761FF2046FFF760FF3C
:1041A0009FE7FFF75BFF2046FFF75AFFAFE710BD21
:1041B000304A0368904212D0B0F1804F0FD0A2F580
:1041C0007C4290420BD002F58062904207D002F50B
:1041D0008062904203D002F57842904219D14A6839
:1041E00023F070031343234A904229D0B0F1804F4B
:1041F00026D0A2F57C42904222D002F58062904205
:104200001ED002F5806290421AD002F578429042A8
:1042100016D0194A904213D002F5806290420FD016
:1042200002F5806290420BD0A2F59832904207D0FE
:1042300002F58062904203D002F58062904203D181
:10424000CA6823F4407313434A6923F0800313437D
:1042500003608B68C3620B688362064B984203D08D
:1042600003F58063984201D10B6903630123436125
:10427000704700BF000001400040014010B50446F7
:1042800030B390F83D3003F0FF021BB980F83C20BA
:10429000FFF7A8FE022384F83D302068211DFFF7B8
:1042A00087FF012384F84630002084F83E3084F8EC
:1042B0003F3084F8403084F8413084F8423084F84C
:1042C000433084F8443084F8453084F83D3010BDE4
:1042D0000120FCE701684B6913F480634FF0000292
:1042E00010D06FF480634B612023026380F83D306F
:1042F00080F83E20036C80F83C2043F00403036404
:1043000001207047184670472DE9F04104461646D3
:1043100098468FB22568686937EA000018D06B6943
:104320005A0517D52B6843F400732B6023686FF48C
:1043300080625A6100232022236384F83D2084F8A0
:104340003E30226C42F00402226484F83C300120AA
:10435000BDE8F081731CDED001F068FCA0EB080022
:10436000B04201D8002ED5D100232022236384F847
:104370003D2084F83E30226C42F02002E4E770B524
:1043800004460D46164623685B695B0701D500208D
:1043900070BD2046FFF79EFFA8B96A1CF3D001F05C
:1043A00045FC801BA84201D8002DECD1002320221F
:1043B000236384F83D2084F83E30226C84F83C303E
:1043C00042F0200222640120E2E770B504460D4667
:1043D00016462068436913F0400301D0002010E026
:1043E0004269D2060ED56FF010024261202223638B
:1043F00084F83D2084F83E30226C226484F83C30FE
:10440000012070BD01F012FC801BA84201D8002DD4
:10441000DFD100232022236384F83D2084F83E303E
:10442000226C42F02002E8E72DE9F843089E04469A
:1044300090461F464FEA11498DB22168B9F1010F2C
:104440000CBF4B698B6935EA03030CBF01230023C2
:10445000984501D0002016E07B1CEFD001F0E6FB70
:10446000801BB84201D8002FE7D10023202223630C
:1044700084F83D2084F83E30226C84F83C3042F0D1
:10448000200222640120BDE8F88370B504460D4681
:10449000164623685B691B0601D5002070BD2046C7
:1044A000FFF718FFA8B96A1CF3D001F0BFFB801B0F
:1044B000A84201D8002DECD100232022236384F8E8
:1044C0003D2084F83E30226C84F83C3042F02002DB
:1044D00022640120E2E700002DE9FF411546026851
:1044E0000B9E9846136843F4807313600F460A9B33
:1044F000009600224FF001110446FFF795FF236854
:1045000038B11B68DB0502D54FF400732364032028
:104510000AE007F0FE071F610A9A19493346204650
:10452000FFF7F2FE18B1012004B0BDE8F081236866
:1045300003905A6903929B69039332460A99039B3D
:104540002046FFF7A2FF40B1236C042B01BF226875
:10455000136843F400731360E5E7B8F1010F2368B3
:1045600002D1EDB21D61DFE72A0A1A610A993246CB
:104570002046FFF78AFF0028E6D12368F1E700BF55
:10458000020001002DE9FF41164602680B9D984686
:10459000136843F4806313600268136843F4807304
:1045A00013600F460A9B009500224FF0011104464C
:1045B000FFF73AFF236848B11B68DB0502D54FF4CB
:1045C00000732364032004B0BDE8F081FFB207F05C
:1045D000FE021A6129490A9A2B462046FFF794FEEB
:1045E00008B10120EFE7236803905A6903929B69A1
:1045F00003932A460A99039B2046FFF746FF40B1E2
:10460000236C042B01BF2268136843F4007313600A
:10461000E7E7B8F1010F236825D1F6B21E612A46FB
:104620000A992046FFF731FF02460028E8D12168A9
:104630000B6843F480730B6020460A9B00954FF093
:104640000111FFF7F1FE23680028B5D147F00107FB
:104650001F610A9A09492B462046FFF755FE003094
:1046600018BF0120AFE7320A1A610A992A4620468C
:10467000FFF70BFF0028C3D12368CEE7020001003B
:1046800070B5044608B9012070BD90F83D3003F0C4
:10469000FF021BB980F83C20FEF792FF226824231A
:1046A00084F83D30136823F0010313602268136817
:1046B00043F4004313602268136823F4004313603B
:1046C000FFF762FC424B62689A4294BF414B424BF7
:1046D00098428CBF00230123002BD4D122683F498C
:1046E0005368B0FBF1F123F03F030B43536066685E
:1046F000374B25689E4288BF4FF496732A6A8ABF5B
:104700004B434B1C4FF47A7122F03F0284BFB3FB42
:10471000F1F3013313432B6221686368CA692C4D9E
:1047200022F44F42AB4222F0FF0200F1FF3035D8B5
:104730005B00B0FBF3F0431CC3F30B03042B38BF47
:1047400004231343CB612168D4E907300A6803438B
:1047500022F0C00213430B602168D4E903038A6886
:1047600022F40342034322F0FF0213438B602168CB
:10477000D4E90530CA68034322F0FF021343CB603B
:104780002268136843F00103136000202023206493
:1047900084F83D30206384F83E0075E7A56855B97C
:1047A00003EB4303B0FBF3F0431CC3F30B036BB108
:1047B00043F40043C5E719256B43B0FBF3F0431CFA
:1047C000C3F30B0313B143F44043BAE70123B8E743
:1047D000A08601007F841E00FF083D0040420F00BC
:1047E0002DE9F743044699460F4690460C9E01F08A
:1047F0001DFA94F83D30202B054603D0022003B06B
:10480000BDE8F0830090192301223D492046FFF7BF
:104810000BFE0028F2D194F83C30012BEED001239E
:1048200084F83C3023681A68D2075EBF1A6842F0E9
:1048300001021A602268136823F4006313602123C5
:1048400084F83D30402384F83E30002323640A9BE3
:104850006362BDF82C306385638D2385294BE36249
:10486000CDE900654B46424639462046FFF734FE07
:1048700000282DD00120C2E7FFF707FE40B1236CCE
:10488000042B01BF2268136843F400731360F1E73F
:10489000626A236812781A61616A628D4B1C6362D6
:1048A000238D013A92B2013B62859BB22268238537
:1048B000506940070CD55BB14B781361636A0133D3
:1048C0006362238D013B2385638D013B9BB263852E
:1048D000238D2A4631462046002BCDD1FFF74FFDD0
:1048E0000028CCD12268136843F40073136020239E
:1048F00084F83D3084F83C0084F83E007FE700BF38
:10490000020010000000FFFF2DE9F043044687B0CD
:1049100099460D469046109F01F088F994F83D3075
:10492000202B064604D00225284607B0BDE8F083B8
:1049300000901923012278492046FFF775FD0028D1
:10494000F1D194F83C30012BEDD0012384F83C30B8
:1049500023681A68D0075EBF1A6842F001021A6025
:104960002268136823F400631360222384F83D3027
:10497000402384F83E30002323640E9B6362BDF81D
:104980003C306385638D2385644BE3622946CDE922
:1049900000764B4642462046FFF7F4FD054608B137
:1049A0000125C1E7228D2368B2B902905A690292AB
:1049B0009A690292029A1A6842F400721A60DFF849
:1049C0006081238D002B2FD1202284F83D2084F894
:1049D0003C3084F83E30A7E7012A0BD11A6822F454
:1049E00080621A60236803905A6903929A6903925D
:1049F000039AE0E7022A10D11A6822F480621A6052
:104A00002268136843F400631360236804905A69B2
:104A100004929B690493049BD1E705905A6905921F
:104A20009B690593059BCAE7032B58D8012B15D129
:104A3000324639462046FFF7C8FC0028B0D123682B
:104A40001A69636A1A70636A01336362238D013BDA
:104A50002385638D013B9BB26385B2E7022B0096F1
:104A60003B464FF00002414620461AD1FFF7DCFCDE
:104A7000002895D12268136843F4007313602368FB
:104A80001A69636A1A70626A531C6362238D013B60
:104A90002385638D013B9BB2638523681B6953703B
:104AA000D1E7FFF7C1FC024600287FF479AF216807
:104AB0000B6823F480630B6023681969636A1970BB
:104AC000636A009601336362238D013B2385638D06
:104AD000013B9BB2638541463B462046C6E73246D2
:104AE00039462046FFF771FC00287FF459AF236850
:104AF0001A69636A1A70626A531C6362238D013BF0
:104B00002385638D013B9BB26385236859694907FF
:104B10007FF557AFC2E700BF020010000000FFFFA3
:104B20000400010010B590F83D30DBB2202B19D104
:104B30000468242280F83D20226822F001022260CD
:104B40000468626A22F0100262620468626A1143B9
:104B5000616201680A6842F001020A6080F83D3033
:104B6000002010BD0220FCE730B590F83D20D2B205
:104B7000202A18D10568242380F83D302C6824F0C1
:104B800001042C600468656A4FF6F0732B400B43F8
:104B90009BB2636201680B6843F001030B6080F80D
:104BA0003D20002030BD0220FCE770477047000028
:104BB000074AD36823F4E0631B041B0C43F0BF6374
:104BC000000243F4003300F4E0600343D360704715
:104BD00000ED00E070B5174BDC68C4F30224C4F1AB
:104BE0000705042D04F1040328BF04254FF0FF3608
:104BF000062B06FA05F38CBF033C002421EA0303CD
:104C0000A34006FA04F422EA0404002843EA040359
:104C1000A8BF00F160404FEA0313BCBF00F00F00D3
:104C2000054ADBB2AABF00F56140135480F8003397
:104C300070BD00BF00ED00E014ED00E0002808DBCF
:104C40004209012300F01F0003FA00F0014B43F872
:104C50002200704700E100E030B5D1E907340A686E
:104C60004D6A2343154C92B902682B4322401343EB
:104C70004A6813438A681343CA6813430A69134393
:104C80004A6913438A6913430360002030BD0268F8
:104C90002B4322F4F8421343036043684A682340DD
:104CA00013438A681343CA6813430A6913434A6962
:104CB00013438A6913434360E7E700BF0080FFFFA7
:104CC00030B5CB684D695C1E6B1E1B0543EA04348E
:104CD000CAB90B688268013B02F070422343134358
:104CE0004A68013A43EA02138A68013A43EA022316
:104CF0000A69013A43EA02438A69013A43EA0263D4
:104D00008360002030BD836823F4700323F4704374
:104D100023438360C3684A6803F07043013A43EA5F
:104D200002130A68013A13438A68013A43EA0223EC
:104D30000A69013A43EA02438A69013A43EA026393
:104D4000C360DEE770B51546D1E90032044613436F
:104D50000069CA68800D43EA42238A6880050343DC
:104D6000013A43EA4213236100F060FF0646A0695E
:104D700010F0200003D06B1CF9D00DB9032070BDDA
:104D800000F054FF801BA842F1D9F7E7436923F4F0
:104D90007F5323F03E0343EA410141610020704705
:104DA0002DE9F74FDFF8C8C16F4CDFF8C881DFF895
:104DB000C8E1002301250A689D402A40954240F041
:104DC000B9804E6806F003065F000325013EBD4032
:104DD000012E6FEA050511D8866806EA0509CE6836
:104DE000BE4046EA09068660466826EA02094E6821
:104DF000C6F300169E4046EA090646604E6806F075
:104E00000306032E07D0C66806EA05098E68BE4071
:104E100046EA0906C6604E6806F00306022E16D161
:104E20004FEAD30A00EB8A0A03F0070BDAF8206096
:104E30004FEA8B0B4FF00F0909FA0BF926EA090923
:104E40000E6906FA0BF646EA0906CAF820600668FB
:104E500035404E6806F00306BE40354305604D6898
:104E600015F4403F66D04FF0000BCDF804B0DCF8ED
:104E700044603E4D46F48046CCF84460DCF8446023
:104E800006F480460196019E23F0030606F1804653
:104E900006F59C3603F00309D6F808A04FEA890905
:104EA0000F2707FA09F7A8422AEA070749D005F5AC
:104EB0008065A84247D005F58065A84245D005F534
:104EC0008065A84243D0404543D0704543D005F5A6
:104ED0004065A84241D005F58065A8423FD005F560
:104EE0008065A8423DD005F58065A84214BF0A251B
:104EF000092505FA09F53D43B5604D68A768D64315
:104F0000ED0254BF37401743A7604D68E768AD0214
:104F100054BF37401743E7604D686768AD0354BF1F
:104F20003740174367604D682768ED0354BF37402B
:104F3000174327600133102B7FF43CAF03B0BDE86B
:104F4000F08F5D46D5E70125D3E70225D1E703259C
:104F5000CFE70425CDE70525CBE70625C9E70725DB
:104F6000C7E70825C5E700BF003C0140000002403C
:104F70000038024000100240001402400369194248
:104F800014BF0120002070470AB1816170470904F5
:104F9000FBE7436901EA030221EA030141EA024116
:104FA000816170472DE9F3411D4616460F460446C0
:104FB00000F03CFE35442D1A00F038FE244B1B68EF
:104FC000C3F3CB3380466B4322680193936837EA7F
:104FD000030301D0002031E0731CF7D000F026FE5F
:104FE000A0EB0800A8422CD32268536823F0E0030A
:104FF00053606368B3F5827F0BD1A368B3F5004FAC
:1050000002D0B3F5806F04D12268136823F0400307
:105010001360A36AB3F5005F09D12268136823F413
:10502000005313602268136843F400531360012394
:1050300084F85130002384F85030032002B0BDE8DA
:10504000F081019B002B019B08BF0025013BBBE7C2
:105050000C00002010B513464268B2F5827F04466A
:105060000BD18268B2F5004F02D0B2F5806F04D147
:105070002068026822F0400202606268B2F5827F16
:105080000BD1A268B2F5806F0A4607D08021204676
:10509000FFF788FF20B9002010BD0A460121F6E77E
:1050A000636D43F0200363650320F5E773B5134692
:1050B000124A134E15684268B5FBF6F64FF47A753E
:1050C0007543B2F5827F044601950BD10A468021D3
:1050D000FFF768FF78B1636D43F020036365032039
:1050E00002B070BD019B33B1019B013B019323686A
:1050F0009B681B06F6D40020F2E700BF0C000020DE
:1051000000366E0110B50446002858D0436A002BC3
:1051100051D14268B2F5827F00D0C3610023A362FF
:1051200094F8513003F0FF0223B984F85020204650
:10513000FEF77EFB2268022384F85130136823F0C7
:1051400040031360D4E90023A16803F4827301F4DF
:1051500004410B43E16801F400610B43216901F054
:1051600002010B43616901F001010B43A16901F4E4
:1051700000710B43E16901F038010B43216A01F032
:1051800080010B43A16A01F400510B431360638B50
:10519000626A216802F0100203F0040313434B60BB
:1051A0002268D36923F40063D36100200123606582
:1051B00084F8513010BD0023C0E90433AEE701206C
:1051C000F8E72DE9F3411D4690F85030012B0446D5
:1051D0008846174600F09880012380F8503000F090
:1051E00025FD064694F85100C0B2012840F08A809F
:1051F000B8F1000F5CD0002F5AD0032384F851304F
:10520000A368C4F830800020B3F5004F6065A7861E
:10521000E786A063A087E087C4E9100009D122686F
:10522000136823F0400313602268136843F480433B
:10523000136023681A6852065EBF1A6842F0400283
:105240001A60E2686368B2F5006F3AD10BB1012FC2
:105250000AD12368226B1288DA60236B023323633E
:10526000E38E013B9BB2E386E38E9BB2A3B9324649
:1052700029462046FFF71AFF002840D1A36833B91A
:1052800001932368DA6801929B680193019B606D2A
:10529000003018BF01200BE023689A689007D9D42A
:1052A00000F0C4FC801BA842DED3691CDCD00320C4
:1052B000012384F85130002384F8503002B0BDE857
:1052C000F0810BB1012F0AD12368226B12781A7377
:1052D000236B01332363E38E013B9BB2E386E38EB2
:1052E0009BB2002BC3D023689A689207EDD400F0DC
:1052F0009DFC801BA842F2D36B1CF0D0D7E7202383
:105300006365BBE70220D3E70220D7E72DE9F74327
:105310001D4690F850300A9E012B0446884691465F
:1053200000F0E980012380F8503000F07FFC94F811
:105330005130DBB2012B07460BD06268B2F5827F99
:1053400040F0D780A268002A40F0D380042B40F0C0
:10535000D080B8F1000F00F0CA80B9F1000F00F062
:10536000C680002D00F0C38094F85130C4F8389006
:10537000042B1CBF052384F851300023C4E91033EB
:1053800063652368E587A587C4F83080E586A58630
:105390001A6852065EBF1A6842F040021A60E2685C
:1053A0006368B2F5006F5DD10BB1012D0AD1226B9C
:1053B00023681288DA60236B02332363E38E013B98
:1053C0009BB2E3860125E38E9BB2ABB9E38F9BB220
:1053D00093B93A4631462046FFF768FE002840F070
:1053E0008480A368002B34D123680190DA6801928D
:1053F0009B680193019B2CE02268936898070ED567
:10540000E38E9BB25BB155B1236B1B88D360236BDA
:1054100002332363E38E013B9BB2E38600252268BF
:105420009368D9070DD5E38F9BB253B1A36BD268B4
:105430001A80A36B0233A363E38F013B9BB2E38724
:10544000012500F0F3FBC01B8642BCD8731CBAD008
:105450000320012384F85130002384F8503003B036
:10546000BDE8F0830BB1012D0AD1226B23681278BD
:105470001A73236B01332363E38E013B9BB2E386F4
:105480000125E38E9BB21BB9E38F9BB2002BA0D00A
:105490002268936898070ED5E38E9BB25BB155B135
:1054A000236B1B781373236B01332363E38E013B60
:1054B0009BB2E386002522689368D9070DD5E38F58
:1054C0009BB253B1A36BD2681A70A36B0133A36371
:1054D000E38F013B9BB2E387012500F0A7FBC01BD4
:1054E0008642CED8731CCCD0B2E72023636501205E
:1054F000AFE70220ADE70220B1E72DE9F3411D46F9
:105500004368B3F5827F0446884617460CD183680A
:1055100053B9042380F85130134600950A46FFF72B
:10552000F5FE02B0BDE8F08194F85030012B00F098
:105530008180012384F8503000F078FB064694F80F
:105540005100C0B2012873D1B8F1000F5ED0002F16
:105550005CD0042384F85130002363652363E7871C
:10556000A386E386C4E91033A368C4F83880B3F592
:10557000004FA78709D12268136823F04003136006
:105580002268136823F48043136023681A6857065F
:105590005EBF1A6842F040021A60E368FBB1E38F15
:1055A0009BB203B323689A68D20736D5DA68A36B37
:1055B0001A80A36B0233A363E38F013B9BB2E387A3
:1055C000EDE723689A68D00718D5A26B1B7B137090
:1055D000A36B0133A363E38F013B9BB2E387E38FAC
:1055E0009BB2002BEDD1324629462046FFF732FD13
:1055F000D8B9606D003018BF012007E000F016FB3D
:10560000801BA842EBD3691CE9D00320012384F856
:105610005130002384F8503083E700F007FB801BF3
:10562000A842BCD36B1CBAD0EFE720236365E0E748
:105630000220EBE7022074E710B5044640B390F86F
:10564000393003F0FF021BB980F83820FDF796FFD0
:1056500022686168022384F83930136823F44033E8
:105660000B4313602268A168536B23F007030B43BD
:1056700053632268E168136C23F47F5323F03F03E4
:105680000B43136400200123E06384F8393010BD1C
:105690000120FCE77047704770B503685E681D68BD
:1056A000F207044615D5E90513D51A6822F480726D
:1056B0001A60C36B43F00103C363036801229A605D
:1056C000042380F83930002380F83830436903B16F
:1056D0009847B20617D5AB0415D52268136823F492
:1056E00000531360236820229A60E36B43F00203A7
:1056F000E363042384F83930002384F83830636985
:105700000BB120469847300717D5290515D52268D3
:10571000136823F400631360236808229A60E36B24
:1057200043F00403E363042384F83930002384F84E
:10573000383063690BB12046984772070CD56B056A
:105740000AD52268136823F4806313602368042257
:105750009A602046FFF79EFFB00715D5A90513D51F
:105760002268136823F400731360236802229A608E
:10577000E36BE363012384F83930002384F8383085
:1057800023690BB120469847F20614D5EB0412D5D5
:105790002268136823F480531360236810229A60F0
:1057A000E36BE363012384F83930002384F8383055
:1057B0002046FFF770FF70BD70B590F83830012BB0
:1057C0004FF002032CD0012280F838200A0180F823
:1057D00039308418D4E9075345EA0343093D012DC4
:1057E000656A194E9ABF05F07F452B4343EA05636E
:1057F0000568B9B9696A31400B436B620368826915
:105800009A61C369093B012B04D8436A026823F0FB
:105810007F439362012380F83930002380F83830C9
:10582000184670BDE96931400B43EB61831801688C
:105830009A690A61DB69093B012B9FBF636A0268B1
:1058400023F07F431362E5E7F0FFFC00F0B5056845
:105850004C68EB68D20184321544C3F30B431C44FB
:105860006B6803F470436B6005680E68EB68013683
:10587000C3F30B431544334443EA04436B600568A8
:10588000CC68EB68C3F30A031C44AB189D6805F4AD
:1058900070459D6005688B68EE680133C6F30A06A3
:1058A0001544334443EA0443AB60036813440025C2
:1058B0001C6924F007041C6103680C6913441C6113
:1058C000046891F8326091F83170D1F818C014442E
:1058D000A369A561046891F8303043EA0C6314446D
:1058E00043EA072343EA0643A361036813445C6960
:1058F00024F0FF045C6103684C6913445C61046834
:105900001444E36923F4E06323F00703E3610368CD
:10591000D1E9074613443443DC61036813449C6AAD
:105920009D6203684C6A13449C620B6963B3012B4C
:105930002CD09C1E022C2BD9072B14BF012402242F
:1059400003681344DD6A05F0E025DD6203689D18F5
:10595000D1E900639B1B8E6A63430333744343EABC
:105960000443EB6204681444236B23F4FF6323F0C5
:10597000070323630368C96A1344196301688B58DA
:1059800043F001038B50F0BD0424D9E70324D7E78B
:105990000224D5E738B50446002870D090F8A1302D
:1059A00003F0FF021BB980F8A020FDF765FE226816
:1059B000022384F8A130936923F070439361D4E902
:1059C00001300343E068226803432069916903437F
:1059D0000B43936121682B4A8B6813408B602168CD
:1059E00060698B6843EA0043A06903438B602168C8
:1059F000CB681340CB602168E069CB6843EA004381
:105A0000206A0343CB6021680B6913400B61216856
:105A10000B69606A43EA0043A06A03430B61216893
:105A20004B691A404A612268E16A536943EA0143BB
:105A3000216B0B435361216894F83600CA6A94F8CD
:105A4000355002F07F42CA62226894F83430D16A3D
:105A50000B4343EA052343EA0043D3622268536BB6
:105A600043F0060353632268936943F00103936193
:105A700000200123C4F8A40084F8A13038BD01201F
:105A8000FCE700BF00F800F07047704770B503688E
:105A90009E6B5D6B7207044615D5690713D55A6B6B
:105AA00022F004025A6303680422DA63D0F8A430B7
:105AB00043F00103C0F8A430002380F8A12080F84F
:105AC000A030FFF7E1FFB20717D5AB0715D5226865
:105AD000536B23F00203536323680222DA63D4F882
