:020000040800F2
:1000000000000320D973000853220008552200087D
:1000100057220008592200085B2200080000000057
:10002000000000000000000000000000E16B00087C
:100030005D22000800000000716C0008896500085E
:10004000297400082974000829740008297400081C
:10005000297400082974000829740008297400080C
:1000600029740008297400082974000829740008FC
:1000700029740008297400082974000829740008EC
:1000800029740008297400082974000829740008DC
:1000900029740008297400082974000829740008CC
:1000A00029740008297400082974000829740008BC
:1000B00029740008297400082974000829740008AC
:1000C000297400082974000829740008297400089C
:1000D000297400082974000829740008297400088C
:1000E000297400082974000829740008297400087C
:1000F000297400082974000829740008297400086C
:10010000297400082974000829740008297400085B
:100110002974000829740008612200082974000865
:10012000297400082974000829740008297400083B
:10013000297400082974000829740008297400082B
:10014000297400082974000829740008297400081B
:10015000297400082974000829740008297400080B
:1001600029740008297400082974000829740008FB
:100170002974000829740008297400080000000090
:1001800029740008297400082974000829740008DB
:1001900029740008297400082974000829740008CB
:0C01A0006D220008297400087922000874
:1001B00010B5054C237833B9044B13B10448AFF3A1
:1001C00000800123237010BD6001002000000000AA
:1001D000188D010808B5034B1BB103490348AFF361
:1001E000008008BD0000000064010020188D010897
:1001F00053B94AB9002908BF00281CBF4FF0FF318E
:100200004FF0FF3000F072B9ADF1080C6DE904CE8B
:1002100000F006F8DDF804E0DDE9022304B07047E1
:100220002DE9F047089E04468846002B4BD18A42B0
:10023000154667D9B2FA82F24AB1C2F1200701FA33
:1002400002F320FA07F7954047EA030894404FEA83
:10025000154E230CB8FBFEF71FFA85FC0EFB178822
:1002600043EA084307FB0CF1994209D9EB1807F15F
:10027000FF3080F01B81994240F21881023F2B44ED
:100280005B1AA4B2B3FBFEF00EFB103344EA034446
:1002900000FB0CFCA44509D92C1900F1FF3380F0B8
:1002A0000781A44540F2048102382C4440EA07400B
:1002B000A4EB0C0400271EB1D4400023C6E9004380
:1002C0003946BDE8F0878B4209D9002E00F0EB805B
:1002D0000027C6E9000138463946BDE8F087B3FA81
:1002E00083F7002F47D18B4202D3824200F2FA807B
:1002F000841A61EB030301209846002EE0D0C6E982
:100300000048DDE702B9FFDEB2FA82F2002A40F0CF
:100310008F80491B4FEA154E1FFA85F80127B1FB64
:10032000FEFC230C0EFB1C1143EA014308FB0CF1FD
:10033000994207D9EB180CF1FF3002D2994200F232
:10034000CD808446591AA3B2B1FBFEF00EFB101407
:1003500043EA044408FB00F8A04507D92C1900F132
:10036000FF3302D2A04500F2B6801846A4EB080481
:1003700040EA0C409FE7C7F1200CBB4022FA0CFE7C
:100380004EEA030E01FA07F420FA0CF521FA0CF3F9
:100390004FEA1E482543B3FBF8F92C0C08FB193330
:1003A0001FFA8EFA44EA034309FB0AF49C4202FA5C
:1003B00007F200FA07F10BD91EEB030309F1FF3036
:1003C00080F087809C4240F28480A9F10209734446
:1003D0001B1BADB2B3FBF8F008FB103345EA034436
:1003E00000FB0AFAA24508D91EEB040400F1FF3312
:1003F0006BD2A24569D90238744440EA0940A0FB97
:100400000289A4EB0A044C45C2464B4654D351D052
:10041000002E69D0B1EB0A0564EB030404FA0CFC6E
:10042000FD40FC404CEA0505C6E90054002747E7BB
:10043000C2F1200320FA03F7954001FA02F021FAF5
:1004400003F34FEA154E3843010CB3FBFEF71FFAD6
:1004500085F80EFB173341EA034107FB08F38B4293
:1004600004FA02F407D9691807F1FF3C2FD28B4236
:100470002DD9023F2944CB1A81B2B3FBFEF00EFB0B
:10048000103341EA034100FB08F38B4207D9691896
:1004900000F1FF3C17D28B4215D902382944C91A02
:1004A00040EA07473BE73746304609E70746E7E6B5
:1004B0001846FBE64145ABD2B8EB020A69EB0E02E7
:1004C00001381346A4E76046E9E7184695E7674612
:1004D000D1E781467CE702382C4447E7ACF1020CB7
:1004E0002B442FE7384608E73746E9E6704700BF58
:1004F00001F0FF01102A2BDB10F0070F08D010F8D5
:10050000013B013A8B422DD010F0070F42B3F6D1D8
:10051000F0B441EA012141EA014122F007047FF0F1
:1005200000070023F0E80256083C85EA010586EA48
:10053000010685FA47F5A3FA87F586FA47F6A5FA84
:1005400087F68EB9EED1F0BC01F0FF0102F0070290
:1005500032B110F8013B013A83EA010313B1F8D13B
:100560000020704701387047002D06BF354603381C
:10057000073815F0010F07D1013015F4807F02BF55
:10058000013015F4C03F0130F0BC0138704700BFA6
:10059000704704387047704710B51021044617F0B3
:1005A0001BFC204610BDA0F10400F5E710B50022A9
:1005B0008260044AC16002F1080420320460426093
:1005C00010BD00BF708D01087047704770477047BD
:1005D00010B5034B0360044600F08EF8204610BDB2
:1005E000A08D010810B50446FFF7F2FF20469821C0
:1005F00017F0F2FB204610BD10B5044600F086F857
:10060000014B2360204610BDA08D010800F075B895
:100610000022026070477047704700F598730868C1
:10062000496803C37047704700F074B910B54FF4C0
:10063000AE71044617F0D0FB204610BD10B504463D
:10064000D0F85801FFF7E7FF2046BDE8104009F059
:100650000BBA10B50446D0F8400158B10368DB6806
:10066000984738B1D4F8400103689B689847002345
:10067000C4F8403110BD000010B5044600F014F974
:10068000014B2360204610BDD48D010890F8252031
:1006900012B103685B69184770470020704781807A
:1006A0007047C18070470181704741817047704732
:1006B0007047704770477047C38810B4D21A838858
:1006C0005DF8044BC91A036812B25B6D09B2184792
:1006D0004FF6FF7383814FF0FF3303621368C361EA
:1006E000106070477047704790F825201AB190F855
:1006F000242002B1186070477047704710B59821E8
:10070000044617F069FB204610BD00002DE9F743B1
:10071000044626460AF012FC00253E4BE56346F8E7
:10072000403B3D4B236402AFFF2384F866304FF615
:10073000FF7327F8043D012204F16C0884F865205A
:10074000A4F84450A4F84650A4F84850A4F84A50DD
:10075000A4F84C50A4F84E50A4F85050A4F85250AD
:10076000C4E91555E565A4F86050A4F8625084F812
:100770006450A566A4F87050A4F87250A4F87450A0
:10078000A4F87650A4F87850A4F87A50A4F87C50D5
:10079000A4F87E50C4E92055C4F88850A4F88C50C1
:1007A00084F891201D4AE266A4F8923084F89430CF
:1007B00039464046A4F88E5084F8905008F039F835
:1007C00029463046FFF76BFF29463046FFF769FFA1
:1007D0003046F021FFF767FF30464FF4A071FFF776
:1007E00064FF04F104094FF07F43A3663146484695
:1007F00006F054FE394640462567ADF8045008F02F
:1008000018F84846414606F049FE204603B0BDE8C8
:10081000F08300BF208E0108449B0108AC9B0108B7
:1008200070477047704741607047704701230372FB
:1008300070477047704710B4C4684168621003463F
:10084000E40701EB02009B6848BF8A585DF8044B3F
:1008500048BFD358184743682BB183682BB9C06889
:1008600000F001007047184670470120704710B52E
:100870000C21044617F0B0FA204610BD10B54FF415
:10088000AE71044617F0A8FA204610BD10B510212D
:10089000044617F0A1FA204610BD08B509F062F829
:1008A000BDE8084009F0A6BC70B504460D461646E2
:1008B00009F01AF9134AC4F858511460124D134A3A
:1008C00022600023124A2868C4F84421C4F83C314D
:1008D000C4F84031C4F84831C4F84C31C4F8503140
:1008E000C4F85461036801219B6898472B6893F80A
:1008F00076200AB1D86C00B9986810F04EFB2046FB
:1009000070BD00BFA82001205C2001206C8E010872
:10091000548E0108064BC0F84C310023C0F850310A
:1009200000F5A273C0F84801C0F84031704700BF1D
:10093000750A00082DE9F04707469068DDF820A009
:10094000994603681B6A884615469847972805D834
:10095000424B434AA321434817F04AFA68680368A8
:100960001B6A98470F2803D83F4B3D4AA421F2E762
:10097000E86803681B6A98470B2803D83B4B384A42
:10098000A521E8E708F0EEFF043009F010F8D9F8E7
:10099000000010B10368DB689847D9F8000010B177
:1009A00003681B689847386810B103685B6998470B
:1009B000D8F8000010B103685B689847386810B138
:1009C00003681B689847D8F8000010B103689B685B
:1009D0009847E868036800215B6A9847044620B19D
:1009E000002343600372224B0360A8680368002160
:1009F0005B6A9847064608B1FFF7FEFD6868036822
:100A000000215B6A9847054610B13146FFF7CEFDDD
:100A1000C9F80040C8F800503E60E5B12B1DCAF887
:100A20000030C5F808A03368F5633046DB689847A6
:100A30002B6828461B689847214630460AF02AFC56
:100A4000236820461B699847236820465B699847BE
:100A50002846BDE8F0872B46E1E700BFD48E0108A9
:100A6000E9900108628F0108A38F010846900108F0
:100A7000B88E010807B5D0F858310093D0F854214A
:100A8000044B00F59E710448FFF754FF03B05DF876
:100A900004FB00BF9C2001209820012013B50022F8
:100AA00049B102AB019203F8052D0268946801AACE
:100AB000A04702B010BD0846FBE7C0897047008A16
:100AC0007047C088704780887047807A00F07F0048
:100AD0007047807AC0097047406A7047806A7047E3
:100AE00070478B88C0690A68DB0A50F823001044FD
:100AF000704710B5C2B1137BB3B1547BD27A2402D4
:100B000004F4E0641443026A98B202EB840213888E
:100B10008B4202D192F9020010BD05D8013880B293
:100B200004320028F3D1F7E70020F5E710B52C21B7
:100B3000044617F051F9204610BD000030B58BB0C7
:100B40000446BDF860500895BDF85C5007959DF8C7
:100B5000505006959DF84C5005959DF848500495C9
:100B60009DF8445003959DF8405002959DF83C50E7
:100B70000195BDF83850009509F0E6FF064B23605B
:100B8000159BE361169B2362199B63621A9BA36208
:100B900020460BB030BD00BFF891010830B5174DAD
:100BA0002C78BFF35B8F14F001048FB022D128465C
:100BB00017F0EAF8F0B13F230993114B0893114B5A
:100BC00011490A940122CDE906430423CDE90332F9
:100BD0000A230093CDE90B440594CDE901440B4869
:100BE000FFF7ACFF284617F0DBF8094A0949074828
:100BF00017F0EDF805480FB030BD00BF7C010020B4
:100C000038A2010834A20108E8A1010880010020EF
:100C100000000020E10A000830B5174D2C78BFF322
:100C20005B8F14F001048FB022D1284617F0ACF886
:100C3000F0B13F230993114B0893114B11490A94CA
:100C40000122CDE906430423CDE903322823009392
:100C5000CDE90B440594CDE901440B48FFF76EFF45
:100C6000284617F09DF8094A0949074817F0AFF8D8
:100C700005480FB030BD00BFAC01002030A2010814
:100C800040A2010810A20108B001002000000020CD
:100C9000E10A000830B5174D2C78BFF35B8F14F0D4
:100CA00001048FB022D1284617F06EF8F0B13F232F
:100CB0000993114B0893114B11490A940122CDE974
:100CC00006430423CDE9033214230093CDE90B44FA
:100CD0000594CDE901440B48FFF730FF284617F093
:100CE0005FF8094A0949074817F071F805480FB03D
:100CF00030BD00BFDC0100203CA2010844A2010875
:100D000020A20108E001002000000020E10A000804
:100D1000704710B50421044617F05EF8204610BD58
:100D2000012908B508D003D3022909D0002002E028
:100D300000F012F8006808BD00F00EF84068FAE70D
:100D400000F00AF88068F6E70048704764920108EE
:100D50000120704700207047004870470C020020B7
:100D600010B5FFF797FF044C2060FFF755FF606058
:100D7000FFF714FFA06010BD0C0200200020704798
:100D8000002070470EB403B503AB002153F8042BC9
:100D9000019309F001FD02B05DF804EB03B0704768
:100DA0000CB407B504AB53F8042B019309F0F4FC21
:100DB00003B05DF804EB02B07047000010B5436C5F
:100DC000044673B3038F2BB9184B194AC521194830
:100DD00017F00EF8C38E00EB43035B8C0BB30AF0E5
:100DE00022FF238F012B03D8134B144ACB21EEE7AC
:100DF000E28E531C9BB2092B194688BFA3F10A014E
:100E000004EB410140F63F10498C814209D10A2B85
:100E100004EB420228BF002304EB4303508C5884A8
:100E200051842046BDE810400AF000BE78920108C7
:100E3000A593010881920108C5920108D392010887
:100E40000AF0BBBD38B5D8B9114B12481B6812491E
:100E5000BBB11A689C681A4402605A681A440A6056
:100E60001C446CB10D4B00221A80FFF775FF05463C
:100E7000FFF770FF0A4B1C600A4B1D600A4B18807D
:100E800038BD0A4B03600A4B0B600A4B1C68E8E74D
:100E9000180200201C020020200200202402002052
:100EA000AC200120B4200120B020012054520608BB
:100EB0004852060850520608012380F8741080F842
:100EC00075307047002070474164034B003118BFF4
:100ED00001211970704700BF592001200020704780
:100EE000836B0BB10846184770474FF6FF70704789
:100EF000406803689B69184770477047034B90220E
:100F000083F85A2383F85823704700BF00E100E0BC
:100F1000094A0A49D3680A48C3F30A03013B9BB252
:100F20000B801169C1F30A01013901801364536B0D
:100F300043F0010353637047006801402A02002018
:100F400028020020014B986A704700BF8468014066
:100F5000024B0122996243F8602C7047846801407B
:100F600010B531B90A4B0B4A0B4840F2D22116F0AA
:100F70003FFFC0E90F120032084918BF01220A7072
:100F800002681946D2F88C20BDE81040104700BF17
:100F9000B39401086D950108EB94010858200120D5
:100FA00008B5094B1B888B4203D8084B1B8893421A
:100FB00005D9074B074A08489E2116F019FF074B31
:100FC0001980074B1A8008BD4E20012050200120B7
:100FD000509401082A950108EB940108542001203F
:100FE0005620012070B5044606F043FD23685D6E6F
:100FF00008F0B8FC01462046A8472368054AD3F804
:1010000088502046AC460023A2F51631BDE870405A
:10101000604700BF005802D006F012BD90F84B3078
:1010200013B1024B01221A7006F016BD26020020F1
:1010300006F0D0BC06F02BBE10B5044607F06CFAE3
:1010400023682046D3F8AC30BDE81040184790F82C
:1010500077301BB1406803681B6818471846704713
:1010600010B590F8744090F834100C4B8C421A78FC
:1010700009D03AB90A4A0B491488088810800C80B4
:1010800001221A7010BD002AFCD0054A05491488B7
:10109000088810800C800022F3E700BF5220012056
:1010A0004E20012050200120034B4FF080629A60B7
:1010B0004FF080729A60704700E100E0084B4FF0FB
:1010C0008062C3F88820BFF34F8FBFF36F8F4FF05C
:1010D0008072C3F88820BFF34F8FBFF36F8F7047C4
:1010E00000E100E010B5144C236823B3134B144AFD
:1010F0001B6C11888B4213D1124B198803F026FC0C
:10110000226892F86630013382F8663000F004FA03
:10111000206807F001FA0020BDE8104000F012BC82
:1011200003F014FC206803681B6A98470020BDE8A0
:10113000104000F031BC10BD5C200120006801406F
:101140002A0200202802002003685B6C1847012057
:10115000704703689B6A184782B0002301930D4BC8
:101160001A6B42F400021A631A6B02F40002019235
:10117000019A1A6942F400021A611A6922F4000203
:101180001A61054B054A1A61054B4FF080629A605F
:1011900002B07047003802400C230120AD11000856
:1011A00000E100E040F2EF3070470000024B1B68A6
:1011B000586803685B6918475C20012008B50B2854
:1011C0000BD8DFE800F01206100A0A0A0A0808081D
:1011D0000808012008BD0520FCE7054B054A064824
:1011E000662116F005FE0020F4E70220F2E700BFBA
:1011F000D5950108A6960108F095010808B50A28BA
:1012000009D8DFE800F010060E08080808060606F0
:101210000600012008BD054B054A0648872116F047
:10122000E7FD0020F6E70220F4E700BFD5950108AE
:10123000F0960108F0950108F8B50C46487FFFF7D5
:10124000BDFFA77F05463846FFF7B8FF064638467C
:10125000FFF7D4FFA38A628BD21A494B1A64A18A82
:10126000628B521A9A61A18A228B521A1A615863B0
:10127000A18AE28A42EA01425A642269DA63626818
:10128000DA602268402A70D010D8042A3BD0202A85
:101290006BD0237F45EA0365394B45F40035DD61AA
:1012A000617FA27F914267D0364A4BE0B2F5807FE2
:1012B0001BD0B2F5007F23D0802AEAD1A068021D9E
:1012C000DA62227F45EA026545F40035DD615E623F
:1012D00022695A610278EAB1012A35D02A4B2B4A99
:1012E0002B4840F2111116F083FD217F294A42EA72
:1012F0000162DA61E2681A625E6222695A6120E084
:10130000217F254AF3E7227F45EA026545F400354F
:10131000DD61F1E7D9694288501E21F47F4222F055
:10132000100242EA0022DA610121154BDA6942F02B
:101330002002DA61DA699206FCD410229A60002950
:10134000B2D0164A1A60F8BDDA694088217F22F4CB
:101350007F4222F01002013842F01002FF3942EAC7
:10136000002218BF0121DA61DFE7237F45EA036528
:1013700045F40035024BCBE740F20122E2E700BF23
:1013800000B0024001020100BB9501086896010807
:10139000F09501080A0002000900020001020200A3
:1013A00010B5887F0C46FFF729FF1C4B5863A18AB4
:1013B000E28A42EA01425A642269DA63628BA18AB4
:1013C000521A1A642268082A16D1A18A628B521A0C
:1013D0009A61A18A628B521A1A615862217F104A5F
:1013E00042EA0162DA61E2681A6222695A6122699C
:1013F000DA600C4A1A6010BD0022D8611A61E168F7
:101400000A0A480902F4784200F4FC600243C1F37E
:10141000C4010A439A63044AECE700BF00B00240EB
:10142000090001000102020001020300054B0360F4
:10143000054B4FF08062C3F88820BFF34F8FBFF396
:101440006F8F70472096010800E100E010B5044658
:10145000FFF7ECFF20464FF45A6116F0BDFC204622
:1014600010BD000070B505462C460A4B0C30002616
:1014700068602E726E7244F8203B6022214607F0AD
:1014800089F905F55A63E6602434A342FBD1284666
:1014900070BD00BF20960108012108B50022084652
:1014A00005F001F90A4B186028B90A4B0A4A2821AD
:1014B0000A4816F09DFC00220421012005F094F951
:1014C000074B186018B9074B034A2C21F0E708BDF9
:1014D000300200203B970108EF970108849701082C
:1014E0002C020020AD970108024B4FF0FF31186825
:1014F00005F024B930020020014B186805F04AB904
:1015000030020020024B0021186805F017B900BF17
:1015100030020020FFF7F0BF0348044900680023B1
:101520001A4605F09DB900BF2C02002004000020DF
:1015300013B5084C00231A4601A9206805F0C2F92A
:101540004FF0FF33002201A9206805F0BBF902B07B
:1015500010BD00BF2C02002070477047704701206B
:1015600070470C2070470C2303FB010008307047C4
:101570000C2303FB010008307047012070479820BE
:101580007047982303FB010008307047982303FB42
:10159000010008307047012070471020704700EBB1
:1015A00001100830704700EB011008307047084602
:1015B000FFF7B0B910B5034B0360044605F058FFC0
:1015C000204610BD9098010810B50446FFF7F2FFC1
:1015D0002046142116F000FC204610BD10B5034B28
:1015E0000360044605F044FF204610BD5C980108E6
:1015F00010B50446FFF7F2FF2046A02116F0ECFBE1
:10160000204610BD10B5034B0360044605F030FFC3
:10161000204610BD2898010810B50446FFF7F2FFD8
:101620002046182116F0D8FB204610BD10B5084BF7
:10163000044640F8CC3BFFF7BDFF04F12C00FFF758
:10164000CDFF04F11400FFF7DDFF204610BD00BF01
:10165000C498010810B50446FFF7E8FF20464FF490
:10166000107116F0B9FB204610BD00002DE9F341C2
:10167000FFF76AFB0546FFF76BFB00240146234694
:101680002846224600940AF0A1FD274B274A284D00
:101690001A602046FFF7D6FB26480AF0FFFC2B789D
:1016A000BFF35B8FDB0738D4284616F06DFB0028AC
:1016B00033D0214C214B236004F1E40604F11400E3
:1016C00004F12C0804F1CC076060C4F80880E760DE
:1016D000266105F0CFFE1A4B6361404605F0CAFE55
:1016E000184BE362384605F0C5FE174BC4F8CC3002
:1016F00004F1E000FEF78CFF224604F1E0013046E1
:10170000FEF7BAFF3046FFF705F9284616F048FB0A
:101710000E4A0F49204616F05AFB0E4802B0BDE8AB
:10172000F04100F0D3B800BFB8200120981200208B
:10173000340200200800002038020020C49801086C
:10174000289801085C980108909801080000002082
:101750002D1600081C12002070470000014800F000
:10176000C7B800BF1C12002010B50421044616F0B3
:1017700033FB204610BD10B57821044616F02CFB33
:10178000204610BD10B57C21044616F025FB2046EE
:1017900010BD0000F8B5394C394D3A4F3A4B3B4932
:1017A0002B602246284616F012FB394E3846FFF7CA
:1017B00059FE22463749384616F009FB30460DF0EF
:1017C00005FE22463449304616F001FB22463349D5
:1017D000334816F0FCFA3348334941663349C56053
:1017E00000230122324D0385C0E90176C0E90433AC
:1017F000C0E90633C0E9083380F82A30C3620386A3
:10180000C0E90E33C0E9103380F8483080F8492031
:1018100080F84A3080F84B30C0E91333C0E9153303
:10182000C0E9173380F8683080F8693080F86A3092
:1018300080F86B3080F86C300860F02129801D4DF5
:10184000036729801C4D80F874304FF4A071298003
:101850001A4D80F875302980194980F876300B7060
:10186000184B80F8772080F8782080F834200360C7
:1018700022461549BDE8F84016F0A9BA000000203C
:10188000780400207C040020B09901085915000854
:101890009C1200202D1400085B150008110D000893
:1018A000080000201C120020010000015C20012023
:1018B0004E200120542001205020012056200120DC
:1018C00052200120D89801085D15000870B5044623
:1018D000FFF788FB2368D3F88850044BD4E90F1234
:1018E0002046AC46BDE87040604700BF00B004D061
:1018F00008B503680446D3F880309847236820462B
:101900009B6F9847FFF714FE236820461B6F98478C
:10191000292000F043FCFFF70BFE236820461B6FD5
:101920009847F8E7FFF70EBBFFF712BBFFF780BB46
:10193000FFF7E4BAFFF7B8BBFFF7C0BBFFF7E8BAA1
:1019400006F042B8032821D8DFE800F0020B121994
:101950000F4B1A68B2FA82F2520904210D4802F0C4
:10196000E9B90B4B5A68B2FA82F252090821F5E73D
:10197000074B9A68B2FA82F252091021EEE7044B43
:10198000DA68B2FA82F252092021E7E7704700BF15
:101990001413002000100240032821D8DFE800F0D3
:1019A000020B12190F4B1A68003218BF01220421D2
:1019B0000D4802F0BFB90B4B5A68003218BF012224
:1019C0000821F5E7074B9A68003218BF0122102161
:1019D000EEE7044BDA68003218BF01222021E7E766
:1019E000704700BF141300200010024003280DD8D8
:1019F000DFE800F00206080A0421054802F09FB95A
:101A00000821FAE71021F8E72021F6E7704700BF28
:101A10000010024008B5032811D8DFE800F0020AE0
:101A20000C0E0421074802F07FF9431E584258412A
:101A300008BD0821F6E71021F4E72021F2E7002095
:101A4000F3E700BF0010024070B5084D00240126E6
:101A5000E0B2FFF7DFFF28B155F82430012B18BFA3
:101A600045F824600134052CF2D170BD1413002018
:101A700038B50C4B0C4C18800C4B822019806368D5
:101A8000984740F6110398420AD1094D23682C600B
:101A9000822098472B688220DB689847002038BD59
:101AA0000120FCE72413002024000020261300203E
:101AB000281300204FF4A071F020FFF7D9BF0000D9
:101AC000F7B52C4D2B6804461B698220984780B2DD
:101AD000208000284BD02B680DF106025B6901A91C
:101AE00082209847BDF80630A3F5B4739BB20B2251
:101AF000B3FBF2F333B1204A12889A423CBF02F1A1
:101B0000FF339BB2BDF8042040F6B8318A4295BF3E
:101B1000C2F57162C2F56D620E320832ADF8042072
:101B2000BDF804100F22B1FBF2F131B1134A128853
:101B30008A423CBF02F1FF3189B2114E114D30682B
:101B40002F6882B2814288BF8A1AB8B298BF521AEF
:101B5000BB428CBF181AC01A92B280B20244052A46
:101B6000C4BF31602B60336863802B68A38003B0EF
:101B7000F0BD00BF281300202613002024130020EE
:101B80002C1300203013002037B568460D4614464C
:101B9000FFF796FFBDF8000030B1BDF802302B60B2
:101BA000BDF804302360012003B030BD054BD3F8ED
:101BB000882042F47002C3F888204FF000629A60D7
:101BC000704700BF00ED00E070B588B000230293BD
:101BD000204B1A6C42F010021A641B6C03F01003C5
:101BE0000293064601A903A8029B01F0B3F8069BE5
:101BF0004BBB01F09FF8184C184B236040F2E733C1
:101C0000E360174BB0FBF3F001380023606020461F
:101C10002361A360A36101F007FA054680B920465D
:101C200001F0B8F8054658B9362001F0DDFE0F2E58
:101C30000DD82A463146362001F0A2FE094B1E601F
:101C4000284608B070BD01F075F84000D3E70125C3
:101C5000F6E700BF0038024060210120001000407C
:101C600040420F001C00002007B5064B02A91B686C
:101C700021F8020D0122044802F079F903B05DF861
:101C800004FB00BF140000200022012008B56420DE
:101C900004F0FDFCFBE7000030B595B030220021D8
:101CA00008A816F020F91422002103A816F01BF949
:101CB00000241D4B01941A6C42F080521A641B6C74
:101CC00003F080530193019B184B02941A6842F46D
:101CD00040421A601B6803F4404302930122029BB6
:101CE0004FF48033CDE9082302254FF48003CDE97A
:101CF0000E5308214FF4A873CDE9101308A804234C
:101D00001393129500F09EFD0F23CDE903354FF498
:101D1000A0504FF48053CDE90603052103A8059494
:101D200000F06AFF15B030BD00380240007000407E
:101D300080B59AB002F02AFEFFF7AEFF1422002110
:101D40000DA8002416F0CFF8C04B00941A6BC048C1
:101D5000C04D42F010021A631A6B02F0100200929A
:101D6000009A01941A6B42F020021A631A6B02F077
:101D700020020192019A02941A6B42F080021A63C7
:101D80001A6B02F080020292029A03941A6B42F0DC
:101D900004021A631A6B02F004020392039A049479
:101DA0001A6B42F001021A631A6B02F001020492EC
:101DB000049A05941A6B42F002021A631A6B02F03D
:101DC00002020592059A06941A6B42F040021A63C9
:101DD0001A6B02F040020692069A07941A6B42F0C0
:101DE00008021A631B6B03F00803079322463C2189
:101DF000079B01F09FFF22460421974801F09AFFBC
:101E000022464FF44051954801F094FF01264FF0CF
:101E100003083C230DA98E48CDF8408002274FF0DF
:101E20000409CDE90D360F9401F090FE0DA98A4802
:101E30000F94CDE90D96109701F088FE0DA94FF48F
:101E400040538648CDE90D36CDE90F4701F07EFEBF
:101E50008348844B036002F007FF834A834B2C6264
:101E6000C5E9002328464FF48043C5E90434C5E999
:101E70000244C5E9064401F0D9FA1021284601F0D0
:101E800027FD2146284601F045FD794879498462BD
:101E90004FF48273C0E900134FF400751823C0E9B2
:101EA00006530A23744DC362C0E90244C0E90444E6
:101EB000C0E9084401F0FCFF704B0D974FF0100C87
:101EC000C5E900364023C5E904C34FF4C073C5E932
:101ED00006344FF40063C5E908344FF40053AB6295
:101EE0000DA907232846CDE90E39CDE910384FF06A
:101EF000080AC5E90249CDE9127700F04DFC4FF61A
:101F0000FF7209A9284608940996CDE90AA60C94FF
:101F100000F062FC304602F065FD4FF6FF7209A941
:101F20002846CDE9097ACDE90B6400F055FC4FF65F
:101F3000FF7209A92846CDE9098ACDE90B9400F082
:101F40004BFC4FF40C730893089B0C934FF6FF72F5
:101F500009A92846CDE9099A0B9600F03DFC40F20C
:101F60006A51284600F056FC342221460DEB02004F
:101F700015F0B9FF424D434B2C61C5E900340923EC
:101F8000C5E905361D2340F20D1EC5E9073840F2AC
:101F90004313C5E909E340F2171840F24713C5E9B6
:101FA0000B83C5E90244AC8685F83640284602F02A
:101FB000C7FBFF21F022CDE912144FF480690521FF
:101FC0004FF4A073CDE90E24CDE91491CDE916426A
:101FD0000DA922462846CDE910372B4D18930D94B4
:101FE000ADF864408DF8664002F087FC274B2B600B
:101FF0001B6898472B68264DDB689847254BC5E939
:102000000A47C5E90C442846C5E90034C5E902740D
:1020100002F0E8F93146284602F0A4FA02F035FE53
:1020200002F032FE1C4A1D48214604F0E7FA1C4B20
:102030001C4A186021461C4804F0E0FA1B4B18604B
:1020400004F0B0FA04F0C0FAFEE700BF0038024026
:1020500000100240AC21012000080240000C0240A8
:102060005822012000300240005C0040A0860100A0
:1020700000220120005001404C230120400100A01B
:102080006022012000680140341300204C00002031
:102090000C23012000B00240FC9901088D1C0008AF
:1020A000A8210120D8990108994C00080823012093
:1020B0007047704710B586B006AC074B04F8012D89
:1020C0001B68029301230A46CDE9004301460348F9
:1020D00001F05CFA06B010BD10000020AC21012018
:1020E0007FB506AA002302F8013D084B1B68029346
:1020F0000123CDE900230A460146054801F0DAFA3A
:102100009DF8170007B05DF804FB00BF1000002029
:10211000AC2101201FB5084C24680092CDE90134A0
:102120000A4601230146054801F0C4FA003018BFF1
:10213000012004B010BD00BF10000020AC21012020
:1021400002F050BC10B5064C00222046042101F0DC
:10215000F1FD204601220421BDE8104001F0EABD56
:102160000008024038B50B4C054601224FF40051DF
:10217000094801F0DFFD00220421204601F0DAFDCC
:102180002846FFF771FD204601220421BDE83840B2
:1021900001F0D0BD00080240000C024038B50B4CE5
:1021A000054600224FF40051094801F0C3FD00220A
:1021B0000421204601F0BEFD2846FFF755FD2046CC
:1021C00001220421BDE8384001F0B4BD00080240FE
:1021D000000C0240F7B5144C144D07460E4620463D
:1021E0000022042101F0A6FD00224FF400512846F0
:1021F00001F0A0FD3846FFF737FD0D4B0D481B6879
:10220000324601A902F04FF8284601224FF400514E
:10221000019E01F08FFD20460122042101F08AFD7C
:10222000304603B0F0BD00BF00080240000C024081
:10223000140000200022012002F0D4BB0268034BEE
:102240009A4201D102F0BCBB704700BF00100040B1
:1022500070477047FEE7FEE7FEE7FEE770470000C5
:10226000014800F0D5BD00BF60210120014802F007
:10227000E3BA00BF60220120014802F0E3B800BFCA
:102280000C23012008B50A4B1968024609B909490F
:1022900019601868694602448A4206D915F0D4FDCF
:1022A0000C2303604FF0FF3008BD1A60FCE700BF4D
:1022B00038130020C823012082B00E4B0022009268
:1022C000596C41F480415964596C01F4804100918A
:1022D00000990192196C41F0805119641B6C03F054
:1022E00080530193019B0F216FF0010002B001F0B8
:1022F00047BB00BF003802400268094B9A4282B0D7
:102300000BD100230193074B1A6B42F480521A63DE
:102310001B6B03F480530193019B02B0704700BF15
:10232000003002400038024007B50F4B02689A4265
:1023300016D10022A3F5F0430192196B41F400017C
:1023400019631B6B03F40003019305215A20019BC1
:1023500001F016FB5A2003B05DF804EB01F044BB1A
:1023600003B05DF804FB00BF00B002402DE9F0436C
:10237000044689B01422002103A815F0B4FD226898
:10238000244B9A4243D1244C244800250095236BCA
:1023900043F004032363236B03F004030093009BC7
:1023A0000195236B43F001032363236B03F00103C7
:1023B0000193019B4FF012094FF400734FF0010895
:1023C0000327042603A9CDE90339CDE9058707963C
:1023D00001F0BCFB4FF4807303A911480796CDE9C7
:1023E0000339CDE9058701F0B1FB0295236C43F475
:1023F00000032364236C03F400030293029B236A0B
:1024000043F400032362236A23F40003236209B028
:10241000BDE8F083005C0040003802400008024044
:1024200000000240F0B599B004461422002107A82C
:1024300015F059FD30220DEB0200002115F053FD7F
:1024400022685E4B9A4240F0B78008230C93C02369
:102450001093042312930CA84FF40033159302F049
:10246000D5FA08B1FFF7F4FE554B56480024009406
:102470005A6C42F080625A645A6C02F08062009298
:10248000009A01941A6B42F020021A631A6B02F050
:1024900020020192019A02941A6B42F001021A631F
:1024A0001A6B02F001020292029A03941A6B42F034
:1024B00002021A631A6B02F002020392039A049456
:1024C0001A6B42F040021A631A6B02F04002049247
:1024D000049A05941A6B42F004021A631A6B02F014
:1024E00004020592059A06941A6B42F008021A63D8
:1024F0001B6B03F00803069302250E26069B0B9622
:102500004FF4806307A9CDE90735CDE9094501F00E
:102510001DFB41F6580307A92B480B96CDE907355B
:102520000927CDE9094501F011FB032307A9274835
:102530000B97CDE90735CDE9094501F007FB4FF4CD
:10254000706307A921480B96CDE90735CDE9094508
:1025500001F0FCFA4FF40C6307A91D480B96CDE976
:102560000735CDE9094501F0F1FAC02307A919485B
:102570000B96CDE90735CDE9094501F0E7FA0823C7
:1025800007A915480B96CDE90735CDE9094501F0B6
:10259000DDFA4FF4A05307A90D480B97CDE9073595
:1025A000CDE9094501F0D2FA58202246052101F073
:1025B000E7F9582001F018FA19B0F0BD00680140A1
:1025C00000380240001402400000024000040240B3
:1025D0000018024000080240000C024010B50446FA
:1025E00088B01422002103A815F07DFC2268144B4A
:1025F0009A4223D103F56843002101915A6C114896
:1026000042F480125A645A6C02F480120192019AC8
:1026100002911A6B42F020021A631B6B03F0200335
:102620000293029B4FF4607202230321CDE903233E
:102630000523CDE9061303A901F088FA08B010BDFF
:1026400000500140001402402DE9F04186B01422F0
:10265000002101A815F047FC2B4B1C68002C4FD122
:102660004FF00108C3F80080284B00949A6B28486B
:1026700042EA08029A639B6B03EA0803009302276D
:1026800003260C25009B01A94FF63F03CDE9013736
:10269000CDE9046501F05AFA01A91E480595CDE976
:1026A0000187CDE9034601F051FA48F2331301A93D
:1026B00019480595CDE90137CDE9034601F046FA01
:1026C0004FF6837301A915480595CDE90137CDE98A
:1026D000034601F03BFA4CF2037301A9104805953B
:1026E000CDE90137CDE9034601F030FA602301A9B5
:1026F0000C480595CDE90137CDE9034601F026FAEE
:1027000006B0BDE8F08100BF3C1300200038024055
:10271000001402400008024000180240001002406D
:10272000000C0240000402400120704708B515F07B
:102730008BFB162303604FF0FF3008BD08B515F082
:1027400083FB16230360FEE770B50E4615460C4664
:10275000A31B9D4201DC284670BDAFF3008004F846
:10276000010BF5E770B50E4615460C46A31B9D42BE
:1027700001DC284670BD14F8010BAFF30080F5E7CB
:102780004FF0FF3070474FF400534B60002070470C
:10279000012070470020704738B50D460446C8B187
:1027A00090F82C3003F0FF021BB980F82D20FFF7C2
:1027B0004BFF022384F82C30211D206801F022F900
:1027C00062682068294601F051F9012384F82C3011
:1027D000002038BD0120FCE770B5054690F82C00BC
:1027E000C0B202280E4612D000F0FB04012C0FD11B
:1027F000022385F82C30286801F07AF93368022B1F
:1028000006BF052385F82C3085F82C40002070BDCC
:102810000120FCE738B5044690F82C00C0B202282D
:102820000DD094F82C50EDB2012D09D1022384F87B
:102830002C30206801F080F984F82C50002038BD3D
:102840000120FCE72DE9F341044608B9012041E0ED
:102850000368DD0710D4236898075AD423681A0741
:1028600000F19C8023685B0700F1BA80A069002812
:1028700040F01C8100202DE0A44B9A6802F00C026D
:10288000042A07D09A6802F00C02082A0AD15B6871
:10289000590207D59D4B1B689A03DCD56368002B52
:1028A000D9D1D3E76268994BB2F5803F15D11A6848
:1028B00042F480321A606368F3B102F08DF8934DF0
:1028C00006462B689B03C6D402F086F8801B64285A
:1028D000F7D9032002B0BDE8F081B2F5A02F1A6845
:1028E00003D142F480221A60E1E722F480321A60B8
:1028F0001A6822F48022DDE702F06EF8834D064666
:102900002B689F03A7D502F067F8801B6428F7D9CE
:10291000DFE77E4B9A6812F00C0F07D09A6802F03E
:102920000C02082A11D15B685E020ED4774B1A683C
:10293000950702D5E268012A88D11A68216922F038
:10294000F80242EAC1021A6088E7E268704BB2B14D
:1029500001221A6002F040F86C4D06462B68980779
:1029600007D52B68226923F0F80343EAC2032B60E2
:1029700074E702F031F8801B0228EFD9A9E71A604A
:1029800002F02AF8614D06462B6899077FF566AF7D
:1029900002F022F8801B0228F6D99AE762695D4BA3
:1029A0007AB101221A6002F017F8584D06466B6F93
:1029B0009F073FF557AF02F00FF8801B0228F6D9AA
:1029C00087E71A6002F008F8504D06466B6F9807CB
:1029D0007FF548AF02F000F8801B0228F6D978E7AF
:1029E0004A4B1A6C12F080522BD101921A6C42F0B1
:1029F00080521A641B6C03F080530193019B0126E3
:102A0000454D2B68D9051ED5A268404B012A2AD115
:102A10001A6F42F001021A67A368002B37D001F049
:102A2000DBFF3A4D074641F288382B6F9B0728D5CC
:102A3000002E3FF41BAF354A136C23F08053136410
:102A400014E70026DCE72B6843F480732B6001F069
:102A5000C3FF07462B68DA05D6D401F0BDFFC01BC3
:102A60000228F7D935E7052A1A6F03D142F004028C
:102A70001A67CDE722F001021A671A6F22F00402EA
:102A8000C9E701F0A9FFC01B4045CED921E701F0FD
:102A9000A3FF1E4D074641F288382B6F9807C7D514
:102AA00001F09AFFC01B4045F7D912E7174DAB68FC
:102AB00003F00C03082B46D0184E00230228336085
:102AC00034D101F089FF07462B68990128D4D4E955
:102AD00007321343626A43EA8213E26A43EA0263FB
:102AE000A26A0A4C5208013A43EA02436B6001238E
:102AF000336001F071FF054623689A013FF5BAAED5
:102B000001F06AFF401B0228F6D9E2E600380240D5
:102B100000004742800E474200700040600047427C
:102B200001F05AFFC01B0228CED9D2E601F054FFB3
:102B300004462B689B017FF59DAE01F04DFF001B05
:102B40000228F6D9C5E601283FF4C4AE6B68E269F5
:102B500003F4800191427FF479AE216A03F03F02D1
:102B60008A427FF473AE616A47F6C0721A40B2EBD4
:102B7000811F7FF46BAEA26A520803F44031013A20
:102B8000B1EB024F7FF462AEE26A03F07063B3EB25
:102B9000026F14BF012000209CE600BF08B5134956
:102BA0008B6803F00C03042B03D0082B03D01048D0
:102BB00000E0104808BD4A684B68496813F4800378
:102BC00014BF0C480A48C1F3881118BF002302F053
:102BD0003F02A1FB0001FDF70BFB044B5B68C3F355
:102BE000014301335B00B0FBF3F0E3E70038024040
:102BF0000024F40000127A002DE9F0410D4604464D
:102C000010B90120BDE8F081454B1A6802F00F02AF
:102C10008A422AD323689E072FD42368D90743D436
:102C20003F4B1A6802F00F02AA4268D823685A077D
:102C30006ED423681B0707D53A4A2169936823F4A9
:102C4000604343EAC1039360FFF7A8FF354B364A60
:102C50009B68C3F30313D35CD840344B1860344BE8
:102C60001868FEF7B1FF0020CCE7CAB21A701B68E3
:102C700003F00F038B42C4D1CCE7580741BF294A68
:102C8000936843F4E05393602368264A13F0080FD7
:102C90001EBF936843F4604393609368A16823F078
:102CA000F0030B439360B8E762681E4B012A1CD106
:102CB0001B6813F4003FA4D01A4EB36823F003033B
:102CC0001343B36001F088FE41F288380746B368C9
:102CD000626803F00C03B3EB820FA1D001F07CFE1D
:102CE000C01B4045F3D903208CE7911E01291B68C6
:102CF00002D813F0007FDEE713F0020FDBE7EAB241
:102D00001A701B6803F00F03AB427FF47AAF8DE7B4
:102D1000044AE168936823F4E0530B43936088E727
:102D2000003C024000380240C09901080C0000201D
:102D30001C000020044B054A9B68C3F38223D35C2C
:102D4000034A1068D840704700380240D099010803
:102D50000C0000200F2303600B4B9A6802F0030263
:102D600042609A6802F0F00282609A6802F4E052CF
:102D7000C2609B68DB0803F4E0530361034B1B68EC
:102D800003F00F030B60704700380240003C024024
:102D90007047000090F83D30012B31D102680223CA
:102DA00080F83D30D36843F00103D3600368154ACF
:102DB00093421AD0B3F1804F17D0A2F57C429342D0
:102DC00013D002F5806293420FD002F580629342E5
:102DD0000BD002F57842934207D002F5705293422D
:102DE00003D0A2F59432934204D19A6802F007020C
:102DF000062A03D01A6842F001021A6000207047C8
:102E000001207047000001407047704770477047CD
:102E100010B503681A69910704460FD5DA6892075E
:102E20000CD56FF002021A610123037703689B69D6
:102E30009B077AD0FFF7E9FF0023237723681A69FD
:102E4000500711D5DA6851070ED56FF004021A61E8
:102E50000223237723689B6913F4407F20466AD0BE
:102E6000FFF7D3FF0023237723681A69120710D5D1
:102E7000DA6810070DD56FF008021A610423237772
:102E80002368DB69990720465BD0FFF7BEFF00236C
:102E9000237723681A69D20611D5DA68D0060ED5D1
:102EA0006FF010021A61082323772368DB6913F49B
:102EB000407F20464BD0FFF7A8FF002323772368ED
:102EC0001A69D10708D5DA68D20705D56FF0010273
:102ED0001A612046FFF7B2F923681A69100608D56F
:102EE000DA68110605D56FF080021A61204600F0FD
:102EF00033FD23681A69520608D5DA68500605D5ED
:102F00006FF040021A612046FFF781FF23681A69BB
:102F1000910622D5DA6892061FD56FF020021A6159
:102F20002046BDE8104000F016BDFFF76DFF2046BB
:102F3000FFF76CFF80E7FFF767FF2046FFF766FFAC
:102F400090E7FFF761FF2046FFF760FF9FE7FFF77D
:102F50005BFF2046FFF75AFFAFE710BD304A03681A
:102F6000904212D0B0F1804F0FD0A2F57C42904237
:102F70000BD002F58062904207D002F58062904249
:102F800003D002F57842904219D14A6823F07003C9
:102F90001343234A904229D0B0F1804F26D0A2F5A6
:102FA0007C42904222D002F5806290421ED002F50F
:102FB000806290421AD002F57842904216D0194AA7
:102FC000904213D002F5806290420FD002F58062E9
:102FD00090420BD0A2F59832904207D002F5806261
:102FE000904203D002F58062904203D1CA6823F474
:102FF000407313434A6923F08003134303608B68D3
:10300000C3620B688362064B984203D003F580636A
:10301000984201D10B69036301234361704700BFEC
:10302000000001400040014010B5044630B390F864
:103030003D3003F0FF021BB980F83C20FFF7A8FEEB
:10304000022384F83D302068211DFFF787FF01230C
:1030500084F84630002084F83E3084F83F3084F80D
:10306000403084F8413084F8423084F8433084F8AA
:10307000443084F8453084F83D3010BD0120FCE731
:1030800001684B6913F480634FF0000210D06FF4B5
:1030900080634B612023026380F83D3080F83E203E
:1030A000036C80F83C2043F0040303640120704764
:1030B000184670472DE9F0410446164698468FB2EF
:1030C0002568686937EA000018D06B695A0517D57A
:1030D0002B6843F400732B6023686FF480625A619D
:1030E00000232022236384F83D2084F83E30226CA4
:1030F00042F00402226484F83C300120BDE8F081F3
:10310000731CDED001F068FCA0EB0800B04201D8CF
:10311000002ED5D100232022236384F83D2084F89B
:103120003E30226C42F02002E4E770B504460D46C2
:10313000164623685B695B0701D5002070BD2046F9
:10314000FFF79EFFA8B96A1CF3D001F045FC801B75
:10315000A84201D8002DECD100232022236384F85B
:103160003D2084F83E30226C84F83C3042F020024E
:1031700022640120E2E770B504460D461646206839
:10318000436913F0400301D0002010E04269D206E9
:103190000ED56FF0100242612022236384F83D2097
:1031A00084F83E30226C226484F83C30012070BDEB
:1031B00001F012FC801BA84201D8002DDFD10023B2
:1031C0002022236384F83D2084F83E30226C42F0B4
:1031D0002002E8E72DE9F843089E044690461F4682
:1031E0004FEA11498DB22168B9F1010F0CBF4B694B
:1031F0008B6935EA03030CBF01230023984501D0F6
:10320000002016E07B1CEFD001F0E6FB801BB842EB
:1032100001D8002FE7D100232022236384F83D202A
:1032200084F83E30226C84F83C3042F02002226464
:103230000120BDE8F88370B504460D4616462368A4
:103240005B691B0601D5002070BD2046FFF718FF03
:10325000A8B96A1CF3D001F0BFFB801BA84201D8BB
:10326000002DECD100232022236384F83D2084F834
:103270003E30226C84F83C3042F02002226401206F
:10328000E2E700002DE9FF41154602680B9E9846D3
:10329000136843F4807313600F460A9B0096002264
:1032A0004FF001110446FFF795FF236838B11B6802
:1032B000DB0502D54FF40073236403200AE007F016
:1032C000FE071F610A9A194933462046FFF7F2FEAE
:1032D00018B1012004B0BDE8F081236803905A6959
:1032E00003929B69039332460A99039B2046FFF79A
:1032F000A2FF40B1236C042B01BF2268136843F482
:1033000000731360E5E7B8F1010F236802D1EDB255
:103310001D61DFE72A0A1A610A9932462046FFF743
:103320008AFF0028E6D12368F1E700BF0200010010
:103330002DE9FF41164602680B9D9846136843F439
:10334000806313600268136843F4807313600F4650
:103350000A9B009500224FF001110446FFF73AFF47
:10336000236848B11B68DB0502D54FF40073236462
:10337000032004B0BDE8F081FFB207F0FE021A613D
:1033800029490A9A2B462046FFF794FE08B10120EE
:10339000EFE7236803905A6903929B6903932A46D7
:1033A0000A99039B2046FFF746FF40B1236C042B8C
:1033B00001BF2268136843F400731360E7E7B8F1B4
:1033C000010F236825D1F6B21E612A460A992046CC
:1033D000FFF731FF02460028E8D121680B6843F46B
:1033E00080730B6020460A9B00954FF00111FFF798
:1033F000F1FE23680028B5D147F001071F610A9A42
:1034000009492B462046FFF755FE003018BF012022
:10341000AFE7320A1A610A992A462046FFF70BFFE6
:103420000028C3D12368CEE70200010070B504462E
:1034300008B9012070BD90F83D3003F0FF021BB9C0
:1034400080F83C20FEF792FF2268242384F83D3068
:10345000136823F0010313602268136843F40043E8
:1034600013602268136823F400431360FFF762FCC3
:10347000424B62689A4294BF414B424B98428CBF88
:1034800000230123002BD4D122683F495368B0FBAD
:10349000F1F123F03F030B4353606668374B256817
:1034A0009E4288BF4FF496732A6A8ABF4B434B1CD7
:1034B0004FF47A7122F03F0284BFB3FBF1F3013382
:1034C00013432B6221686368CA692C4D22F44F4272
:1034D000AB4222F0FF0200F1FF3035D85B00B0FBB9
:1034E000F3F0431CC3F30B03042B38BF0423134333
:1034F000CB612168D4E907300A68034322F0C00297
:1035000013430B602168D4E903038A6822F4034261
:10351000034322F0FF0213438B602168D4E9053096
:10352000CA68034322F0FF021343CB60226813688A
:1035300043F00103136000202023206484F83D3011
:10354000206384F83E0075E7A56855B903EB430393
:10355000B0FBF3F0431CC3F30B036BB143F4004324
:10356000C5E719256B43B0FBF3F0431CC3F30B0312
:1035700013B143F44043BAE70123B8E7A086010042
:103580007F841E00FF083D0040420F002DE9F743F5
:10359000044699460F4690460C9E01F01DFA94F899
:1035A0003D30202B054603D0022003B0BDE8F08358
:1035B0000090192301223D492046FFF70BFE002809
:1035C000F2D194F83C30012BEED0012384F83C304A
:1035D00023681A68D2075EBF1A6842F001021A60B7
:1035E0002268136823F400631360212384F83D30BC
:1035F000402384F83E30002323640A9B6362BDF8B5
:103600002C306385638D2385294BE362CDE900650A
:103610004B46424639462046FFF734FE00282DD05F
:103620000120C2E7FFF707FE40B1236C042B01BF66
:103630002268136843F400731360F1E7626A236839
:1036400012781A61616A628D4B1C6362238D013AA4
:1036500092B2013B62859BB2226823855069400784
:103660000CD55BB14B781361636A01336362238DC0
:10367000013B2385638D013B9BB26385238D2A46E5
:1036800031462046002BCDD1FFF74FFD0028CCD18D
:103690002268136843F400731360202384F83D30DC
:1036A00084F83C0084F83E007FE700BF0200100071
:1036B0000000FFFF2DE9F043044687B099460D4610
:1036C0009046109F01F088F994F83D30202B064673
:1036D00004D00225284607B0BDE8F08300901923E6
:1036E000012278492046FFF775FD0028F1D194F8B2
:1036F0003C30012BEDD0012384F83C3023681A685C
:10370000D0075EBF1A6842F001021A60226813688F
:1037100023F400631360222384F83D30402384F8AF
:103720003E30002323640E9B6362BDF83C3063850A
:10373000638D2385644BE3622946CDE900764B46D1
:1037400042462046FFF7F4FD054608B10125C1E7D2
:10375000228D2368B2B902905A6902929A69029244
:10376000029A1A6842F400721A60DFF86081238DB1
:10377000002B2FD1202284F83D2084F83C3084F89F
:103780003E30A7E7012A0BD11A6822F480621A6042
:10379000236803905A6903929A690392039AE0E7B7
:1037A000022A10D11A6822F480621A602268136813
:1037B00043F400631360236804905A6904929B6980
:1037C0000493049BD1E705905A6905929B69059380
:1037D000059BCAE7032B58D8012B15D13246394631
:1037E0002046FFF7C8FC0028B0D123681A69636A35
:1037F0001A70636A01336362238D013B2385638DF5
:10380000013B9BB26385B2E7022B00963B464FF02B
:103810000002414620461AD1FFF7DCFC002895D172
:103820002268136843F40073136023681A69636A9B
:103830001A70626A531C6362238D013B2385638D7A
:10384000013B9BB2638523681B695370D1E7FFF787
:10385000C1FC024600287FF479AF21680B6823F48D
:1038600080630B6023681969636A1970636A009644
:1038700001336362238D013B2385638D013B9BB242
:10388000638541463B462046C6E7324639462046D8
:10389000FFF771FC00287FF459AF23681A69636A47
:1038A0001A70626A531C6362238D013B2385638D0A
:1038B000013B9BB263852368596949077FF557AF80
:1038C000C2E700BF020010000000FFFF040001007B
:1038D00010B590F83D30DBB2202B19D104682422BA
:1038E00080F83D20226822F0010222600468626AAA
:1038F00022F0100262620468626A11436162016828
:103900000A6842F001020A6080F83D30002010BDD4
:103910000220FCE730B590F83D20D2B2202A18D121
:103920000568242380F83D302C6824F001042C60C5
:103930000468656A4FF6F0732B400B439BB26362D9
:1039400001680B6843F001030B6080F83D20002004
:1039500030BD0220FCE7704770470000074AD3687B
:1039600023F4E0631B041B0C43F0BF63000243F429
:10397000003300F4E0600343D360704700ED00E0E3
:1039800070B5174BDC68C4F30224C4F10705042D9D
:1039900004F1040328BF04254FF0FF36062B06FA76
:1039A00005F38CBF033C002421EA0303A34006FA7D
:1039B00004F422EA0404002843EA0403A8BF00F147
:1039C00060404FEA0313BCBF00F00F00054ADBB2B2
:1039D000AABF00F56140135480F8003370BD00BFEA
:1039E00000ED00E014ED00E0002808DB42090123AF
:1039F00000F01F0003FA00F0014B43F8220070476B
:103A000000E100E030B5D1E907340A684D6A23438C
:103A1000154C92B902682B43224013434A68134362
:103A20008A681343CA6813430A6913434A691343F4
:103A30008A6913430360002030BD02682B4322F4DF
:103A4000F8421343036043684A68234013438A687B
:103A50001343CA6813430A6913434A6913438A69C3
:103A600013434360E7E700BF0080FFFF30B5CB683A
:103A70004D695C1E6B1E1B0543EA0434CAB90B6812
:103A80008268013B02F07042234313434A68013AC3
:103A900043EA02138A68013A43EA02230A69013AB7
:103AA00043EA02438A69013A43EA026383600020E1
:103AB00030BD836823F4700323F470432343836091
:103AC000C3684A6803F07043013A43EA02130A6884
:103AD000013A13438A68013A43EA02230A69013A28
:103AE00043EA02438A69013A43EA0263C360DEE7BC
:103AF00070B51546D1E90032044613430069CA681F
:103B0000800D43EA42238A6880050343013A43EA71
:103B10004213236100F060FF0646A06910F0200008
:103B200003D06B1CF9D00DB9032070BD00F054FF19
:103B3000801BA842F1D9F7E7436923F47F5323F0B0
:103B40003E0343EA41014161002070472DE9F74FF0
:103B5000DFF8C8C16F4CDFF8C881DFF8C8E1002387
:103B600001250A689D402A40954240F0B9804E6880
:103B700006F003065F000325013EBD40012E6FEAFB
:103B8000050511D8866806EA0509CE68BE4046EAF2
:103B900009068660466826EA02094E68C6F30016E2
:103BA0009E4046EA090646604E6806F00306032E6C
:103BB00007D0C66806EA05098E68BE4046EA0906CF
:103BC000C6604E6806F00306022E16D14FEAD30AED
:103BD00000EB8A0A03F0070BDAF820604FEA8B0B40
:103BE0004FF00F0909FA0BF926EA09090E6906FADE
:103BF0000BF646EA0906CAF82060066835404E68AA
:103C000006F00306BE40354305604D6815F4403F9D
:103C100066D04FF0000BCDF804B0DCF844603E4DA8
:103C200046F48046CCF84460DCF8446006F48046F4
:103C30000196019E23F0030606F1804606F59C36A8
:103C400003F00309D6F808A04FEA89090F2707FAFD
:103C500009F7A8422AEA070749D005F58065A84276
:103C600047D005F58065A84245D005F58065A84296
:103C700043D0404543D0704543D005F54065A84248
:103C800041D005F58065A8423FD005F58065A84282
:103C90003DD005F58065A84214BF0A25092505FA1F
:103CA00009F53D43B5604D68A768D643ED0254BFA2
:103CB00037401743A7604D68E768AD0254BF3740EF
:103CC0001743E7604D686768AD0354BF374017433B
:103CD00067604D682768ED0354BF3740174327607E
:103CE0000133102B7FF43CAF03B0BDE8F08F5D468D
:103CF000D5E70125D3E70225D1E70325CFE7042542
:103D0000CDE70525CBE70625C9E70725C7E7082541
:103D1000C5E700BF003C01400000024000380240FF
:103D200000100240001402400369194214BF012030
:103D3000002070470AB1816170470904FBE74369BD
:103D400001EA030221EA030141EA0241816170476D
:103D50002DE9F3411D4616460F46044600F03CFE91
:103D600035442D1A00F038FE244B1B68C3F3CB33C7
:103D700080466B4322680193936837EA030301D0BE
:103D8000002031E0731CF7D000F026FEA0EB080005
:103D9000A8422CD32268536823F0E0035360636881
:103DA000B3F5827F0BD1A368B3F5004F02D0B3F512
:103DB000806F04D12268136823F040031360A36A64
:103DC000B3F5005F09D12268136823F40053136030
:103DD0002268136843F400531360012384F85130C0
:103DE000002384F85030032002B0BDE8F081019B2D
:103DF000002B019B08BF0025013BBBE70C00002006
:103E000010B513464268B2F5827F04460BD1826832
:103E1000B2F5004F02D0B2F5806F04D1206802687D
:103E200022F0400202606268B2F5827F0BD1A26884
:103E3000B2F5806F0A4607D080212046FFF788FF41
:103E400020B9002010BD0A460121F6E7636D43F05A
:103E5000200363650320F5E773B51346124A134E3A
:103E600015684268B5FBF6F64FF47A757543B2F5FE
:103E7000827F044601950BD10A468021FFF768FF37
:103E800078B1636D43F020036365032002B070BD19
:103E9000019B33B1019B013B019323689B681B0687
:103EA000F6D40020F2E700BF0C00002000366E01BF
:103EB00010B50446002858D0436A002B51D14268FF
:103EC000B2F5827F00D0C3610023A36294F8513021
:103ED00003F0FF0223B984F850202046FEF77EFB52
:103EE0002268022384F85130136823F040031360E2
:103EF000D4E90023A16803F4827301F404410B4365
:103F0000E16801F400610B43216901F002010B43F8
:103F1000616901F001010B43A16901F400710B43D8
:103F2000E16901F038010B43216A01F080010B4384
:103F3000A16A01F400510B431360638B626A21682C
:103F400002F0100203F0040313434B602268D369AC
:103F500023F40063D36100200123606584F85130AD
:103F600010BD0023C0E90433AEE70120F8E72DE9D6
:103F7000F3411D4690F85030012B04468846174601
:103F800000F09880012380F8503000F025FD0646AF
:103F900094F85100C0B2012840F08A80B8F1000FB7
:103FA0005CD0002F5AD0032384F85130A368C4F8A2
:103FB00030800020B3F5004F6065A786E786A063D8
:103FC000A087E087C4E9100009D12268136823F0B4
:103FD000400313602268136843F48043136023682E
:103FE0001A6852065EBF1A6842F040021A60E26820
:103FF0006368B2F5006F3AD10BB1012F0AD1236883
:10400000226B1288DA60236B02332363E38E013B59
:104010009BB2E386E38E9BB2A3B932462946204683
:10402000FFF71AFF002840D1A36833B90193236832
:10403000DA6801929B680193019B606D003018BFA4
:1040400001200BE023689A689007D9D400F0C4FCE3
:10405000801BA842DED3691CDCD00320012384F836
:104060005130002384F8503002B0BDE8F0810BB12C
:10407000012F0AD12368226B12781A73236B013344
:104080002363E38E013B9BB2E386E38E9BB2002B5E
:10409000C3D023689A689207EDD400F09DFC801B82
:1040A000A842F2D36B1CF0D0D7E720236365BBE7AF
:1040B0000220D3E70220D7E72DE9F7431D4690F809
:1040C00050300A9E012B04468846914600F0E98054
:1040D000012380F8503000F07FFC94F85130DBB2BF
:1040E000012B07460BD06268B2F5827F40F0D78083
:1040F000A268002A40F0D380042B40F0D080B8F1B1
:10410000000F00F0CA80B9F1000F00F0C680002D4A
:1041100000F0C38094F85130C4F83890042B1CBFD1
:10412000052384F851300023C4E910336365236804
:10413000E587A587C4F83080E586A5861A6852060B
:104140005EBF1A6842F040021A60E2686368B2F526
:10415000006F5DD10BB1012D0AD1226B236812884B
:10416000DA60236B02332363E38E013B9BB2E38669
:104170000125E38E9BB2ABB9E38F9BB293B93A466C
:1041800031462046FFF768FE002840F08480A3688F
:10419000002B34D123680190DA6801929B68019367
:1041A000019B2CE02268936898070ED5E38E9BB2A2
:1041B0005BB155B1236B1B88D360236B0233236340
:1041C000E38E013B9BB2E386002522689368D90702
:1041D0000DD5E38F9BB253B1A36BD2681A80A36B4A
:1041E0000233A363E38F013B9BB2E387012500F019
:1041F000F3FBC01B8642BCD8731CBAD0032001233A
:1042000084F85130002384F8503003B0BDE8F083C7
:104210000BB1012D0AD1226B236812781A73236B1C
:1042200001332363E38E013B9BB2E3860125E38EDA
:104230009BB21BB9E38F9BB2002BA0D0226893687E
:1042400098070ED5E38E9BB25BB155B1236B1B78FB
:104250001373236B01332363E38E013B9BB2E3862D
:10426000002522689368D9070DD5E38F9BB253B11F
:10427000A36BD2681A70A36B0133A363E38F013B76
:104280009BB2E387012500F0A7FBC01B8642CED876
:10429000731CCCD0B2E7202363650120AFE7022076
:1042A000ADE70220B1E72DE9F3411D464368B3F5C0
:1042B000827F0446884617460CD1836853B904238D
:1042C00080F85130134600950A46FFF7F5FE02B01C
:1042D000BDE8F08194F85030012B00F0818001237B
:1042E00084F8503000F078FB064694F85100C0B2D4
:1042F000012873D1B8F1000F5ED0002F5CD00423E9
:1043000084F85130002363652363E787A386E3863F
:10431000C4E91033A368C4F83880B3F5004FA78709
:1043200009D12268136823F04003136022681368E0
:1043300023F48043136023681A6857065EBF1A6827
:1043400042F040021A60E368FBB1E38F9BB203B313
:1043500023689A68D20736D5DA68A36B1A80A36BF4
:104360000233A363E38F013B9BB2E387EDE723684E
:104370009A68D00718D5A26B1B7B1370A36B01330F
:10438000A363E38F013B9BB2E387E38F9BB2002BD8
:10439000EDD1324629462046FFF732FDD8B9606D8F
:1043A000003018BF012007E000F016FB801BA84278
:1043B000EBD3691CE9D00320012384F8513000239A
:1043C00084F8503083E700F007FB801BA842BCD381
:1043D0006B1CBAD0EFE720236365E0E70220EBE730
:1043E000022074E710B5044640B390F8393003F06A
:1043F000FF021BB980F83820FDF796FF226861683C
:10440000022384F83930136823F440330B431360DC
:104410002268A168536B23F007030B4353632268A0
:10442000E168136C23F47F5323F03F030B431364C1
:1044300000200123E06384F8393010BD0120FCE73F
:104440007047704770B503685E681D68F2070446E0
:1044500015D5E90513D51A6822F480721A60C36B6A
:1044600043F00103C363036801229A60042380F8C8
:104470003930002380F83830436903B19847B206D9
:1044800017D5AB0415D52268136823F400531360C5
:10449000236820229A60E36B43F00203E363042362
:1044A00084F83930002384F8383063690BB1204632
:1044B0009847300717D5290515D52268136823F4C6
:1044C00000631360236808229A60E36B43F00403DF
:1044D000E363042384F83930002384F838306369B7
:1044E0000BB12046984772070CD56B050AD5226898
:1044F000136823F480631360236804229A602046C3
:10450000FFF79EFFB00715D5A90513D522681368DC
:1045100023F400731360236802229A60E36BE36361
:10452000012384F83930002384F8383023690BB133
:1045300020469847F20614D5EB0412D5226813687A
:1045400023F480531360236810229A60E36BE363C3
:10455000012384F83930002384F838302046FFF7EF
:1045600070FF70BD70B590F83830012B4FF002032A
:104570002CD0012280F838200A0180F839308418C4
:10458000D4E9075345EA0343093D012D656A194EF5
:104590009ABF05F07F452B4343EA05630568B9B927
:1045A000696A31400B436B62036882699A61C3692F
:1045B000093B012B04D8436A026823F07F439362CE
:1045C000012380F83930002380F83830184670BD58
:1045D000E96931400B43EB61831801689A690A610C
:1045E000DB69093B012B9FBF636A026823F07F43AD
:1045F0001362E5E7F0FFFC00F0B505684C68EB6876
:10460000D20184321544C3F30B431C446B6803F49A
:1046100070436B6005680E68EB680136C3F30B43AB
:104620001544334443EA04436B600568CC68EB6887
:10463000C3F30A031C44AB189D6805F470459D60E4
:1046400005688B68EE680133C6F30A0615443344E7
:1046500043EA0443AB600368134400251C6924F05B
:1046600007041C6103680C6913441C61046891F819
:10467000326091F83170D1F818C01444A369A56173
:10468000046891F8303043EA0C63144443EA07238A
:1046900043EA0643A361036813445C6924F0FF0402
:1046A0005C6103684C6913445C6104681444E36909
:1046B00023F4E06323F00703E3610368D1E90746CD
:1046C00013443443DC61036813449C6A9D620368AD
:1046D0004C6A13449C620B6963B3012B2CD09C1E63
:1046E000022C2BD9072B14BF012402240368134486
:1046F000DD6A05F0E025DD6203689D18D1E90063FD
:104700009B1B8E6A63430333744343EA0443EB62A7
:1047100004681444236B23F4FF6323F0070323632B
:104720000368C96A1344196301688B5843F0010395
:104730008B50F0BD0424D9E70324D7E70224D5E742
:1047400038B50446002870D090F8A13003F0FF027D
:104750001BB980F8A020FDF765FE2268022384F8CB
:10476000A130936923F070439361D4E9013003438E
:10477000E068226803432069916903430B43936116
:1047800021682B4A8B6813408B60216860698B68B5
:1047900043EA0043A06903438B602168CB68134060
:1047A000CB602168E069CB6843EA0043206A034399
:1047B000CB6021680B6913400B6121680B69606A4B
:1047C00043EA0043A06A03430B6121684B691A4026
:1047D0004A612268E16A536943EA0143216B0B4352
:1047E0005361216894F83600CA6A94F8355002F093
:1047F0007F42CA62226894F83430D16A0B4343EA9C
:10480000052343EA0043D3622268536B43F0060357
:1048100053632268936943F00103936100200123ED
:10482000C4F8A40084F8A13038BD0120FCE700BF23
:1048300000F800F07047704770B503689E6B5D6BC1
:104840007207044615D5690713D55A6B22F0040286
:104850005A6303680422DA63D0F8A43043F00103FA
:10486000C0F8A430002380F8A12080F8A030FFF722
:10487000E1FFB20717D5AB0715D52268536B23F0BC
:104880000203536323680222DA63D4F8A43013438B
:10489000C4F8A430042384F8A130002384F8A030A5
:1048A0002046FFF7C7FFF00711D5E9070FD52268AB
:1048B000536B23F00103536322680123D36384F80D
:1048C000A130002384F8A0302046FCF70BFC32070F
:1048D00012D52B0710D52268536B23F008035363BE
:1048E00023680822DA63012384F8A130002384F8C6
:1048F000A0302046FFF79FFF70BDF8B590F8A030BC
:10490000012B06468C4696464FF002001DD001272B
:1049100086F8A07086F8A10034240D4604FB0264DA
:104920000FCD38340FC40FCD0FC40FCD0FC42B687B
:104930002360304672466146FFF75EFE3368002012
:104940005F6286F8A17086F8A000F8BD10B590F8F7
:10495000A030012B4FF0020314D0046880F8A1307E
:10496000012280F8A020636B23F001036363064BF0
:10497000196401684B6B13434B63002380F8A1203B
:1049800080F8A030184610BD0068014008B50B4BF8
:104990001A6842F400721A601A6842F480621A605F
:1049A0001A6842F480721A600320FEF7D7FF0020D5
:1049B000FDF70AF9FDF780FC002008BD003C02402D
:1049C000034A044B11681B780B441360704700BF07
:1049D0008023012018000020014B1868704700BF99
:1049E0008023012038B50446FFF7F6FF631C1CBF87
:1049F000054B1B78054618BFE418FFF7EDFF401B79
:104A0000A042FAD338BD00BF18000020F7B50368F4
:104A100013F0430F044640F08C80236813F00C0F12
:104A200045D08B4D8B4E00232B60FFF7D5FF0746FB
:104A300033689B0000F1D08023685F0715D5D4E967
:104A40000413D6F888201B0602F0E04243EA8113E3
:104A50001343C6F88830D6F88C30226A23F4F85312
:104A6000013A43EA0223C6F88C3023681E0714D5A6
:104A7000784AA369D2F8881020691B0701F0706199
:104A800043EA80130B43C2F88830D2F88C30616A55
:104A900023F440330B43C2F88C3001232B60FFF723
:104AA0009BFF6C4D06462B68980040F19C80236864
:104AB0009A0634D500230193664B674D1A6C42F079
:104AC00080521A641B6C03F080530193019B2B6886
:104AD00043F480732B60FFF77FFF06462B68D905F0
:104AE00040F188805B4D2B6F13F4407340F0898058
:104AF000A26A02F44073B3F5407F564B40F0A380A6
:104B0000996822F0704221F4F81122F440720A43AD
:104B10009A60A26A196FC2F30B020A431A672068EF
:104B200010F010001FBF4D4B94F82C201A6000208D
:104B300050E04B4D474E00232B60FFF74DFF0746DB
:104B400033681B0140D42368DF0741BFD4E9012348
:104B50001B0743EA8213C6F8843023689E0715D5E5
:104B60003C4AE368D2F8841060681B0601F0E0411B
:104B700043EA80130B43C2F88430D2F88C10E36907
:104B800021F01F01013B0B43C2F88C30236858060B
:104B90000AD5E36862681B0643EA8213A26843EA07
:104BA00002732C4AC2F8843001232B60FFF714FFF4
:104BB000284D06462B6819013FF52FAFFFF70CFF74
:104BC000801B0228F6D904E0FFF706FFC01B02286D
:104BD000B6D9032003B0F0BDFFF7FEFEC01B0228CC
:104BE0007FF626AFF5E7FFF7F7FE801B02287FF67A
:104BF0005AAFEEE7FFF7F0FE801B02287FF66EAF9C
:104C0000E7E7A26A02F4407293423FF471AF2B6F60
:104C1000144A0121116023F44073002111602B67B5
:104C20002B6FDA077FF564AFFFF7D6FE41F28837C6
:104C300006462B6F9B073FF55BAFFFF7CDFE801B52
:104C4000B842F6D9C5E79A6822F4F81260E700BFC7
:104C5000700047420038024000700040E0114742B7
:104C600068004742400E474210B5044650B14379B0
:104C700003F0FF0213B90271FDF73EFB01236371DC
:104C8000002010BD0120FCE7704708B5FCF764FD6B
:104C9000BDE80840FCF7EABCFCF760BD00F1080382
:104CA0004FF0FF324360C0E9022303610023036039
:104CB000704700230361704743684B609A688A60BD
:104CC0009A68516099600861036801330360704716
:104CD0000A68531C30B50AD103695A684A6091606A
:104CE0008B605960086103680133036030BD00F1D7
:104CF00008035C6825689542EFD82346F9E7D0E9B8
:104D0000012103699160D0E9011251605A68824221
:104D100004BF82685A60002202611A68013A1A6070
:104D20001868704710B5044601F06CFFA46B01F0E1
:104D30008BFFB4FA84F0400910BD70B51546026CC3
:104D4000866B044642B905689DB9806801F080F918
:104D5000A5600136A66370BD6DB9406813F0B8F860
:104D60006368226C1344A2686360934201D3236892
:104D700063600020EDE7C06813F0AAF8236CE268D6
:104D800021685B421A448A42E2603EBFA2689B18D7
:104D9000E360022DEDD10EB1013EEAE73046D8E7DF
:104DA000034610B41A6C084662B1D9689C68114475
:104DB000A142D96024BF1968D960D9685DF8044B55
:104DC00013F086B85DF8044B704770B5044601F0E7
:104DD00019FF94F8455004F124066DB2002D14DC3F
:104DE000FF2384F8453001F02FFF01F00BFF94F80A
:104DF000445004F110066DB2002D12DCFF2384F83C
:104E00004430BDE8704001F01FBF636A002BE7D05B
:104E1000304601F03FF808B101F0C4F8013D6DB231
:104E2000DCE72369002BE9D0304601F033F808B104
:104E300001F0B8F8013D6DB2DEE7000038B50D466F
:104E4000044640B94FF0500383F31188BFF36F8FCE
:104E5000BFF34F8FFEE701F0D5FED4E90F30226893
:104E600062604343D1181B1A1344A160E360002120
:104E7000FF23A16384F8443084F8453095B9236951
:104E800063B104F1100001F005F838B10A4B4FF09E
:104E900080521A60BFF34F8FBFF36F8F01F0D4FEC3
:104EA000012038BD04F11000FFF7F8FE04F12400E2
:104EB000FFF7F4FEF2E700BF04ED00E013B51C4677
:104EC00040B94FF0500383F31188BFF36F8FBFF3E6
:104ED0004F8FFEE743B94FF0500383F31188BFF3C0
:104EE0006F8FBFF34F8FFEE74AB191B94FF0500378
:104EF00083F31188BFF36F8FBFF34F8FFEE741B18C
:104F00004FF0500383F31188BFF36F8FBFF34F8FC0
:104F1000FEE750230193019B502B08D04FF0500324
:104F200083F31188BFF36F8FBFF34F8FFEE7002924
:104F300008BF2246019B22600123C4E90F0184F8C7
:104F4000463019462046FFF779FF9DF8103084F867
:104F50004C30204602B010BDF8B50D461746064647
:104F600040B94FF0500383F31188BFF36F8FBFF345
:104F70004F8FFEE74843503001F012FD044678B1F0
:104F8000002200F15003954208BF034680F84620F6
:104F90000360C0E90F650121FFF750FF84F84C70F2
:104FA0002046F8BD13B513460C4640B94FF05003E8
:104FB00083F31188BFF36F8FBFF34F8FFEE78842F3
:104FC00008D24FF0500383F31188BFF36F8FBFF304
:104FD0004F8FFEE70222009200221146FFF76EFF7C
:104FE00000B1846302B010BD10B50C4640B94FF05B
:104FF000500383F31188BFF36F8FBFF34F8FFEE72A
:10500000884208D24FF0500383F31188BFF36F8FAB
:10501000BFF34F8FFEE702220021FFF79DFF00B193
:10502000846310BD2DE9FF47884601921F46044660
:1050300040B94FF0500383F31188BFF36F8FBFF374
:105040004F8FFEE751B9036C43B14FF0500383F328
:105050001188BFF36F8FBFF34F8FFEE7022F0BD185
:10506000E36B012B08D04FF0500383F31188BFF39B
:105070006F8FBFF34F8FFEE700F09AFF50B9019E8C
:105080004EB14FF0500383F31188BFF36F8FBFF31E
:105090004F8FFEE700264FF00009DFF8E8A037E069
:1050A000019D1DB901F0D0FD002050E016B902A805
:1050B00000F030FF01F0C8FD00F040FD01F0A2FD5E
:1050C00094F84430FF2B08BF84F8449094F845309E
:1050D000FF2B08BF84F8459001F0B6FD01A902A896
:1050E00000F024FF002846D101F08CFDA26BE36B99
:1050F0009A422FD101F0A8FD019904F1100000F0AF
:1051000091FE2046FFF761FE00F0B8FD50B3012686
:1051100001F078FDA26BE36B9A4201D3022FBFD15D
:105120003A4641462046FFF708FE636A1BB104F188
:10513000240000F0AFFE38B1124B4FF080521A60DD
:10514000BFF34F8FBFF36F8F01F07EFD012004B0DE
:10515000BDE8F08701F078FD2046FFF736FE00F04D
:105160008DFDD4E74FF08053CAF80030BFF34F8F66
:10517000BFF36F8FCBE72046FFF727FE00F07EFDE1
:1051800092E700BF04ED00E02DE9F8438946904620
:105190001F46044640B94FF0500383F31188BFF314
:1051A0006F8FBFF34F8FFEE751B9036C43B14FF0E0
:1051B000500383F31188BFF36F8FBFF34F8FFEE768
:1051C000022F0BD1E36B012B08D04FF0500383F378
:1051D0001188BFF36F8FBFF34F8FFEE701F030FEF2
:1051E000EFF311864FF0500383F31188BFF36F8FF5
:1051F000BFF34F8FA26BE36B9A4201D3022F23D1EF
:1052000094F84550A36B6DB23A4649462046FFF7E5
:1052100094FD6B1C13D1636A0BB901200BE004F100
:10522000240000F037FE0028F7D0B8F1000FF4D0CA
:105230000120C8F8000086F31188BDE8F883013525
:105240006DB284F84550E8E70020F4E770B50D46EC
:10525000044640B94FF0500383F31188BFF36F8FBA
:10526000BFF34F8FFEE7036C43B14FF0500383F35E
:105270001188BFF36F8FBFF34F8FFEE7036853B9F9
:10528000836843B14FF0500383F31188BFF36F8FEE
:10529000BFF34F8FFEE701F0D3FDEFF311864FF020
:1052A000500383F31188BFF36F8FBFF34F8FA26B4F
:1052B000E36B93421CD994F8453001325BB2A26390
:1052C0005A1C10D1636A0BB9012009E004F12400D3
:1052D00000F0E0FD0028F7D0002DF5D00120286077
:1052E00086F3118870BD01335BB284F84530EBE77B
:1052F0000020F5E72DE9F04385B00F460192044602
:1053000040B94FF0500383F31188BFF36F8FBFF3A1
:105310004F8FFEE751B9036C43B14FF0500383F355
:105320001188BFF36F8FBFF34F8FFEE700F040FE91
:1053300050B9019E4EB14FF0500383F31188BFF373
:105340006F8FBFF34F8FFEE700264FF00008DFF8A6
:10535000E0903BE0019D1DB901F076FC002052E099
:1053600016B902A800F0D6FD01F06EFC00F0E6FBD5
:1053700001F048FC94F84430FF2B08BF84F84480C7
:1053800094F84530FF2B08BF84F8458001F05CFCA1
:1053900001A902A800F0CAFD00283DD12046FFF770
:1053A000C1FC98B3019904F1240000F03BFD2046B4
:1053B000FFF70BFD00F062FC38B94FF08053C9F8DD
:1053C0000030BFF34F8FBFF36F8F012601F01AFC3F
:1053D000A56B002DBED039462046013DFFF7E0FC0D
:1053E000A563236963B104F1100000F053FD38B1E7
:1053F0000F4B4FF080521A60BFF34F8FBFF36F8F88
:1054000001F022FC012005B0BDE8F0832046FFF743
:10541000DCFC00F033FCD8E72046FFF7D6FC00F0B8
:105420002DFC2046FFF77EFC0028CED096E700BF7B
:1054300004ED00E02DE9FF410446019140B94FF031
:10544000500383F31188BFF36F8FBFF34F8FFEE7D5
:10545000056C45B14FF0500383F31188BFF36F8F94
:10546000BFF34F8FFEE700F0A3FD50B9019D45B19A
:105470004FF0500383F31188BFF36F8FBFF34F8F4B
:10548000FEE72E460027DFF82C814FE0019B63B931
:1054900045B14FF0500383F31188BFF36F8FBFF313
:1054A0004F8FFEE701F0D0FB5EE016B902A800F0D6
:1054B00031FD01F0C9FB00F041FB01F0A3FB94F8C2
:1054C0004430FF2B08BF84F8447094F84530FF2B1C
:1054D00008BF84F8457001F0B7FB01A902A800F0ED
:1054E00025FD00284AD12046FFF71CFC00283FD0AC
:1054F00023683BB901F086FBA06800F069FD054612
:1055000001F0A2FB019904F1240000F08BFC20467D
:10551000FFF75BFC00F0B2FB38B94FF08053C8F8DE
:105520000030BFF34F8FBFF36F8F012601F06AFB8E
:10553000A36B002BAAD0013BA363236813B900F02F
:1055400017FEA060236963B104F1100000F0A2FC13
:1055500038B1184B4FF080521A60BFF34F8FBFF332
:105560006F8F01F071FB0125284604B0BDE8F08182
:105570002046FFF72AFC00F081FBD6E72046FFF724
:1055800024FC00F07BFB2046FFF7CCFB0028CCD0AE
:10559000002DE9D001F036FB616A19B1236B19685F
:1055A000C1F13801A06800F095FD002501F04CFB29
:1055B000DAE700BF04ED00E02DE9F84389469046A4
:1055C000054640B94FF0500383F31188BFF36F8F46
:1055D000BFF34F8FFEE751B9036C43B14FF0500357
:1055E00083F31188BFF36F8FBFF34F8FFEE701F096
:1055F00027FCEFF311874FF0500383F31188BFF3BB
:105600006F8FBFF34F8FAC6B1CB395F84460494666
:1056100076B22846FFF7C4FB013C731CAC6313D180
:105620002B690BB901200BE005F1100000F032FCF2
:105630000028F7D0B8F1000FF4D00120C8F800001E
:1056400087F31188BDE8F883013676B285F84460A7
:10565000E8E72046F4E7000030B5074A002352F897
:10566000335002EBC3041DB942F83310606030BD03
:105670000133082BF3D1FAE78423012010B5084A3F
:10568000002302EBC3014C68844204D1002042F89D
:105690003300486010BD0133082BF2D1FAE700BF98
:1056A0008423012010B5044640B94FF0500383F322
:1056B0001188BFF36F8FBFF34F8FFEE7FFF7DEFF59
:1056C00094F8463023B92046BDE8104001F0F6B901
:1056D00010BD70B504460D46164601F093FA94F8D5
:1056E0004430FF2B04BF002384F8443094F8453045
:1056F000FF2B04BF002384F8453001F0A5FAA36B0B
:105700002BB93246294604F1240000F0A5FB2046BF
:10571000BDE87040FFF759BB2DE9F041044601F0A8
:1057200071FA2F4B2F4D1A682F4F01321A602E68D5
:10573000002E49D12C601B68012B1FD14FF014089B
:1057400008FB06700136FFF7A9FA382EF8D1DFF80A
:10575000C480264E4046FFF7A1FA3046FFF79EFA76
:105760002348FFF79BFA2348FFF798FA2248FFF7F0
:1057700095FA224BC3F80080214B1E60214A136822
:1057800001331360204A63641168E36A14208B427A
:1057900000FB037004F1040188BF1360FFF78CFA6B
:1057A00001F052FA194B1B6863B12B68DA6AE36A9D
:1057B0009A4207D2164B4FF080521A60BFF34F8FB8
:1057C000BFF36F8FBDE8F081104B1B68002BD5D164
:1057D0002B68DA6AE36A9A4298BF2C60CEE700BF72
:1057E000AC170020401300204C130020D4170020D9
:1057F000F4170020201800200C180020441300206B
:1058000048130020B8170020BC17002008180020FB
:1058100004ED00E0C017002010B590F85D3004469C
:105820003BB9006B01F04AF92046BDE8104001F099
:1058300045B9012BF9D0022B08D04FF0500383F368
:105840001188BFF36F8FBFF34F8FFEE710BD0000CD
:1058500080B5DFF85C80124F124C134D236863B99A
:10586000124B1B68012BF8D94FF08053C8F8003059
:10587000BFF34F8FBFF36F8FEEE701F0C3F9FB6803
:10588000DE68301DFFF73BFA2B68013B2B60236875
:10589000013B236001F0D8F93046FFF7BDFFDDE79B
:1058A00020180020B0170020AC1700204C13002057
:1058B00004ED00E0064A13681968064B19B94FF069
:1058C000FF321A6070471268D268D2685268F8E7EF
:1058D00044130020E81700202DE9F047DDE90964B2
:1058E0004FEA82094A4607460D46206BA521984695
:1058F00012F0F9FA236BA9F10409994429F0070978
:10590000A5B36B1E04F134020F3513F8011F02F822
:10591000011B197809B1AB42F7D1002384F8433059
:10592000089D372D28BF37254FF0000AE562E56452
:10593000201DC4F850A0FFF7BCF9C5F1380504F1EB
:105940001800FFF7B6F9C4F858A02461A561646295
:10595000C4F854A084F85CA042463946484601F099
:1059600023F9206006B13460BDE8F08784F8345034
:10597000D6E70000F8B5164B164E1C680546306891
:1059800004300F46FFF7BBF96B1C334607D137B124
:10599000316811480431BDE8F840FFF78DB91A6845
:1059A0006419546007D30D4A10681968BDE8F840BF
:1059B0000431FFF78DB90A4A106819680431FFF7FE
:1059C00087F9084B1A68A24288BF1C60F8BD00BF67
:1059D00034180020401300200C1800204813002029
:1059E00044130020E817002070B586B0DDE90B54A1
:1059F00045B94FF0500383F31188BFF36F8FBFF3A6
:105A00004F8FFEE744B94FF0500383F31188BFF383
:105A10006F8FBFF34F8FFEE760260596059E602EC1
:105A200008D04FF0500383F31188BFF36F8FBFF39B
:105A30004F8FFEE72563022584F85D5004AD019584
:105A40000A9D02940095059EFFF746FF2046FFF74A
:105A500063FE049806B070BD2DE9F043074685B09B
:105A6000900088461646994600F09AFF0546E8B130
:105A7000602000F095FF0446A8B1002380F85D3057
:105A80000D9B056301930C9B0290009332464B469D
:105A900041463846FFF720FF2046FFF73DFE012034
:105AA00005B0BDE8F083284601F008F84FF0FF305C
:105AB000F6E7000010B588B0002407AA06A905A8DB
:105AC000CDE9054400F02EFF059B0293069B079A43
:105AD00015491648CDE900432346FFF785FFA8B1D5
