:020000040800F2
:100000000000032095050008C11D0008C31D00085D
:10001000C51D0008C71D0008C91D0008000000001C
:10002000000000000000000000000000216900083E
:10003000CB1D000800000000B16900083F62000805
:10004000E5050008E5050008E5050008E5050008E8
:10005000E5050008E5050008E5050008E5050008D8
:10006000E5050008E5050008E5050008E5050008C8
:10007000E5050008E5050008E5050008E5050008B8
:10008000E5050008E5050008E5050008E5050008A8
:10009000E5050008E5050008E5050008E505000898
:1000A000E5050008E5050008E5050008E505000888
:1000B000E5050008E5050008E5050008E505000878
:1000C000E5050008E5050008E5050008E505000868
:1000D000E5050008E5050008E5050008E505000858
:1000E000E5050008E5050008E5050008E505000848
:1000F000E5050008E5050008E5050008E505000838
:10010000E5050008E5050008E5050008E505000827
:10011000E5050008E5050008CD1D0008E505000817
:10012000E5050008E5050008E5050008E505000807
:10013000E5050008E5050008E5050008E5050008F7
:10014000E5050008E5050008E5050008E5050008E7
:10015000E5050008E5050008E5050008E5050008D7
:10016000E5050008E5050008E5050008E5050008C7
:10017000E5050008E5050008E505000800000000A9
:10018000E5050008E5050008E5050008E5050008A7
:10019000E5050008E5050008E5050008E505000897
:0C01A000D91D0008E5050008E51D000859
:1001B00010B5054C237833B9044B13B10448AFF3A1
:1001C00000800123237010BD6401002000000000A6
:1001D000F8B8010808B5034B1BB103490348AFF356
:1001E000008008BD0000000068010020F8B8010888
:1001F00001F0FF01102A2BDB10F0070F08D010F8D8
:10020000013B013A8B422DD010F0070F42B3F6D1DB
:10021000F0B441EA012141EA014122F007047FF0F4
:1002200000070023F0E80256083C85EA010586EA4B
:10023000010685FA47F5A3FA87F586FA47F6A5FA87
:1002400087F68EB9EED1F0BC01F0FF0102F0070293
:1002500032B110F8013B013A83EA010313B1F8D13E
:100260000020704701387047002D06BF354603381F
:10027000073815F0010F07D1013015F4807F02BF58
:10028000013015F4C03F0130F0BC0138704700BFA9
:1002900053B94AB9002908BF00281CBF4FF0FF31ED
:1002A0004FF0FF3000F074B9ADF1080C6DE904CEE9
:1002B00000F006F8DDF804E0DDE9022304B0704741
:1002C0002DE9F047089D04468E46002B4DD18A4209
:1002D000944669D9B2FA82F252B101FA02F3C2F13C
:1002E000200120FA01F10CFA02FC41EA030E9440CD
:1002F0004FEA1C48210CBEFBF8F61FFA8CF708FBEE
:1003000016E341EA034306FB07F199420AD91CEBC5
:10031000030306F1FF3080F01F81994240F21C81F7
:10032000023E63445B1AA4B2B3FBF8F008FB10333F
:1003300044EA034400FB07F7A7420AD91CEB040474
:1003400000F1FF3380F00A81A74240F20781644444
:10035000023840EA0640E41B00261DB1D4400023C9
:10036000C5E900433146BDE8F0878B4209D9002D2D
:1003700000F0EF800026C5E9000130463146BDE8B7
:10038000F087B3FA83F6002E4AD18B4202D3824221
:1003900000F2F980841A61EB030301209E46002DD0
:1003A000E0D0C5E9004EDDE702B9FFDEB2FA82F225
:1003B000002A40F09280A1EB0C014FEA1C471FFA83
:1003C0008CFE0126200CB1FBF7F307FB131140EA6A
:1003D00001410EFB03F0884208D91CEB010103F137
:1003E000FF3802D2884200F2CB804346091AA4B2F9
:1003F000B1FBF7F007FB101144EA01440EFB00FECD
:10040000A64508D91CEB040400F1FF3102D2A64531
:1004100000F2BB800846A4EB0E0440EA03409CE7D0
:10042000C6F12007B34022FA07FC4CEA030C20FA7D
:1004300007F401FA06F31C43F9404FEA1C4900FA9D
:1004400006F3B1FBF9F8200C1FFA8CFE09FB18111A
:1004500040EA014108FB0EF0884202FA06F20BD98D
:100460001CEB010108F1FF3A80F08880884240F2DD
:100470008580A8F102086144091AA4B2B1FBF9F021
:1004800009FB101144EA014100FB0EFE8E4508D91C
:100490001CEB010100F1FF346CD28E456AD90238A1
:1004A000614440EA0840A0FB0294A1EB0E01A14286
:1004B000C846A64656D353D05DB1B3EB080261EBF4
:1004C0000E0101FA07F722FA06F3F1401F43C5E9CE
:1004D000007100263146BDE8F087C2F12003D84004
:1004E0000CFA02FC21FA03F3914001434FEA1C4746
:1004F0001FFA8CFEB3FBF7F007FB10360B0C43EA38
:10050000064300FB0EF69E4204FA02F408D91CEBE7
:10051000030300F1FF382FD29E422DD902386344E5
:100520009B1B89B2B3FBF7F607FB163341EA034185
:1005300006FB0EF38B4208D91CEB010106F1FF38D4
:1005400016D28B4214D9023E6144C91A46EA0046CB
:1005500038E72E46284605E70646E3E61846F8E65D
:100560004B45A9D2B9EB020864EB0C0E0138A3E7A6
:100570004646EAE7204694E74046D1E7D0467BE787
:10058000023B614432E7304609E76444023842E7FF
:10059000704700BFDFF834D0002103E00C4B5B58FC
:1005A000435004310B480C4B42189A42F6D30B4A85
:1005B00002E0002342F8043B094B9A42F9D303F0CE
:1005C00017FC1AF033F900F0E3FE70470000032037
:1005D000FC380908000000206401002064010020AC
:1005E000D4270120FEE7704708B500F01BFDBDE8E9
:1005F000084000F0A7BC00F017BD704710B50421FB
:1006000004461AF09BF8204610BD000038B50C4B8C
:100610000C4C18800C4B822019806368984740F678
:10062000110398420AD1094D23682C608220984713
:100630002B688220DB689847002038BD0120FCE74A
:10064000800100204C000020820100208401002055
:100650004FF4A071F020FFF7D9BF0000F7B52D4D82
:100660002B6804461B698220984780B220800028AE
:1006700043D02B680DF106025B6901A982209847DF
:10068000BDF80620A2F5B47292B20A2A37D90B231C
:10069000B2FBF3F2204B1B889A4201D9013B9AB27C
:1006A000BDF8043040F6B8318B422AD8C3F57163E7
:1006B0000E339BB20F21B3FBF1F3184909888B422B
:1006C00001D94B1E9BB2164E164D30682F688342DF
:1006D00081B28CBF591AC91AB8B2BA428CBF101A6B
:1006E000801A89B280B201440529C8BF33603368DB
:1006F000C8BF2A6063802B68A38003B0F0BD0022CE
:10070000CEE7C3F56D6308339BB20E2BD2D800231E
:10071000D9E700BF84010020820100208001002071
:10072000880100208C01002037B568460D4614462C
:10073000FFF794FFBDF8000030B1BDF802302B6028
:10074000BDF804302360012003B030BD032821D858
:10075000DFE800F0020B12190F4B1A68B2FA82F2AE
:10076000520904210D4803F0DBBD0B4B5A68B2FA65
:1007700082F252090821F5E7074B9A68B2FA82F231
:1007800052091021EEE7044BDA68B2FA82F25209FC
:100790002021E7E7704700BF9001002000100240D1
:1007A000032821D8DFE800F0020B12190F4B1A685A
:1007B000003A18BF012204210D4803F0B1BD0B4BD4
:1007C0005A68003A18BF01220821F5E7074B9A68DA
:1007D000003A18BF01221021EEE7044BDA68003A14
:1007E00018BF01222021E7E7704700BF90010020D9
:1007F0000010024003280DD8DFE800F00206080AC6
:100800000421054803F091BD0821FAE71021F8E71B
:100810002021F6E7704700BF0010024008B503280A
:1008200011D8DFE800F0020A0C0E0421074803F09B
:1008300071FD431E5842584108BD0821F6E71021BA
:10084000F4E72021F2E70020F3E700BF00100240A8
:1008500070B5084D00240126E0B2FFF7DFFF18B1A4
:100860002B68012B18BF2E600134052C05F10405FF
:10087000F2D170BD90010020012380F8741080F83F
:100880007530704700207047034B4164003918BF32
:1008900001211970704700BF2F25012000207047EB
:1008A000836B0BB10846184770474FF6FF707047CF
:1008B000406803689B69184770477047704700009D
:1008C00070B5044600F07EFC2368D3F88850044BD2
:1008D000D4E90F122046AC46BDE87040604700BF27
:1008E000000000D008B503680446D3F8803098476C
:1008F000236820469B6F984700F0ECF82368204659
:100900001B6F9847292000F07BFF00F0E3F8236875
:1009100020461B6F9847F8E710B5044608F0EAFD3B
:1009200023682046D3F8AC30BDE81040184700F0EB
:100930003BBC00F03FBC00F06BBC00F011BC00F011
:1009400073BC00F07BBC00F015BC08F039B810B5E2
:100950007C21044619F0F2FE204610BD90F8773055
:100960001BB1406803681B681847184670470000B1
:1009700010B590F8341090F874400C4B8C421A78F3
:1009800009D03AB90A4A0B491488088810800C80AB
:1009900001221A7010BD002AFCD0054A05491488AE
:1009A000088810800C800022F3E700BF2825012072
:1009B000242501202625012070B50D46194635B99C
:1009C000094B0A4A0A4840F2D22119F0E5FEC0E973
:1009D0000F52084B003A18BF01221A700368BDE895
:1009E0007040D3F88C30184768B90108A0B90108E5
:1009F000EEB901082E25012008B5094B1B888B4252
:100A000003D8084B1B88934205D9074B074A08486F
:100A10009E2119F0C1FE074B1980074B1A8008BDB3
:100A2000242501202625012033BA010896BA0108A1
:100A3000EEB901082A2501202C250120012108B545
:100A40000022084605F089FC0A4B186028B90A4BB9
:100A50000A4A28210A4819F09FFE00220421012099
:100A600005F018FD074B186018B9074B034A2C21F5
:100A7000F0E708BDA4010020B4BB0108FDBB0108DC
:100A80002CBC0108A0010020AABC0108024B4FF0B9
:100A9000FF31186805F0ABBCA4010020014B1868B9
:100AA00005F0D0BCA4010020024B0021186805F01D
:100AB0009EBC00BFA4010020FFF7F0BF034804491B
:100AC000006800231A4605F020BD00BFA0010020E9
:100AD0000400002013B5084C00231A4601A9206821
:100AE00005F043FD20684FF0FF33002201A905F017
:100AF0003CFD02B010BD00BFA001002003685B6C8C
:100B000018470120704703689B6A184782B000238A
:100B100001930D4B1A6B42F400021A631A6B02F434
:100B200000020192019A1A6942F400021A611A69DC
:100B300022F400021A61054B054A1A61054B4FF079
:100B400080629A6002B070470038024004150020AD
:100B5000990B000800E100E040F2EF307047000020
:100B6000054B0360054B4FF08062C3F88820BFF34C
:100B70004F8FBFF36F8F704778BE010800E100E030
:100B800010B504464FF45A61FFF7EAFF204619F00A
:100B9000D5FD204610BD0000024B1B685868036855
:100BA0005B6918473025012070B5044625460A4B7D
:100BB0000C30002660602672667245F8203B602289
:100BC000294608F0D5FD04F55A63EE602435AB42A2
:100BD000FBD1204670BD00BF78BE010808B50B29C7
:100BE0000BD8DFE801F01206100A0A0A0A08080802
:100BF0000808012008BD0520FCE7054B054A06480A
:100C0000662119F0C9FD0020F4E70220F2E700BFD9
:100C1000ECBC010807BD010851BD010808B50A294F
:100C200009D8DFE801F010060E08080808060606D5
:100C30000600012008BD054B054A0648872119F02A
:100C4000ABFD0020F6E70220F4E700BFECBC010892
:100C5000CDBD010851BD01082DE9F8434F7F0C4679
:100C600039468146FFF7BAFF94F81E800546414693
:100C70004846FFF7B3FF414606464846FFF7CEFF1A
:100C8000A18A628B424B521A1A649A61228B521AC1
:100C90001A61E28A586342EA01425A642069626832
:100CA000D863DA60216894F81CC080294FEA0C628E
:100CB00026D010D8202945EA020461D040295FD00F
:100CC00004295DD0324B2A4342F400324745DA61B1
:100CD0005AD0304A40E0B1F5807F07D0B1F5007FAF
:100CE000F0D142F4003242F0090203E042F4003253
:100CF00042F00A02DA61E2681A625E6258612AE032
:100D0000A4682A4342F40032211DD962DA612278B4
:100D10005E62586142B1012A21D01F4B1F4A204810
:100D200040F2111119F038FDDA69618822F47F422E
:100D3000013922F0100242EA0122DA610120144B4B
:100D4000DA6942F02002DA61DA699206FCD41022F4
:100D50009A600028BDD0134A1A60BDE8F883628803
:100D6000D969541E21F47F4222F0100242EA042283
:100D7000BCF1FF0042F0100218BF0120DA61DEE78B
:100D800044F40034DC61B8E740F20122E4E700BF3C
:100D900000B002400102010018BE010832BE010885
:100DA00051BD01080102020070B50C46897FFFF7B2
:100DB00035FFA68AE18A628B154B2569586341EAA3
:100DC0000641921B5964DD631A642668E168082EA7
:100DD0000DD19A611A615862207F0E4A42EA006280
:100DE000DA610D4A19625D61DD601A6070BD002232
:100DF000D8611A6148090A0A02F4784200F4FC60DA
:100E00000243C1F3C4010A439A63044AEDE700BFF9
:100E100000B00240090001000102020001020300CB
:100E2000012070474020704700EB81100830704768
:100E300000EB811008307047012070474FF430708C
:100E400070474FF4307303FB0100083070474FF4D4
:100E5000307303FB010008307047012070471020F9
:100E6000704700EB01100830704700EB01100830AC
:100E70007047084601F05EBC10B5034B03600446A2
:100E800007F0F3FA204610BD30BF010810B5044644
:100E9000FFF7F2FF2046482119F050FC204610BD14
:100EA00010B5034B0360044607F0DFFA204610BD7F
:100EB000FCBE010810B50446FFF7F2FF20464FF4D0
:100EC000327119F03BFC204610BD000010B5034BF9
:100ED0000360044607F0C9FA204610BDC8BE0108E9
:100EE00010B50446FFF7F2FF2046182119F026FC42
:100EF000204610BD10B5084B0360044600F53D7058
:100F0000FFF7BAFF04F12C00FFF7CAFF04F1140049
:100F1000FFF7DCFF204610BD64BF010808B502489A
:100F2000FFF7E8FF08BD00BFAC01002010B5044684
:100F3000FFF7E0FF20464FF4946119F0FFFB2046D5
:100F400010BD00002DE9F34100F0C0FF054600F0A0
:100F5000C1FF0024014623462846224600940DF096
:100F6000E1FD254B254A264D1A60204602F076FA0F
:100F700024480DF03FFD2B78BFF35B8FDB0735D4A2
:100F8000284619F0DDFB88B31F4C204B236004F585
:100F9000517604F1140004F12C0804F53D776060EB
:100FA000C4F80880E760266107F060FA184B6361B7
:100FB000404607F05BFA174BE362384607F056FAF3
:100FC000154BC4F8F43204F54F7002F0C3FA224610
:100FD00004F54F71304602F0B3FA304601F0AAFB37
:100FE0000E4819F0F7FB284619F0B6FB0C4802B082
:100FF000BDE8F041FFF764BC8C2501206C14002093
:10100000A801002008000020AC01002064BF0108F6
:10101000C8BE0108FCBE010830BF01081D0F000852
:10102000F0130020704700000148FFF75BBC00BFD1
:10103000F013002070B5234C234E244B244D236025
:101040003046FFF7B1FD284610F076FE214B2248CE
:10105000DC60224C03600022F0204FF4807120807D
:10106000C3E912121E4C1F492080C3E919121E4CFD
:101070001A864FF080714FF4A07059670121C3E9BF
:101080000422C3E90622C3E90822C3E90A22C3E90C
:101090000E22C3E91022C3E91422C3E916221A66FC
:1010A00083F86C201A67C3E9016583F87810208003
:1010B0000E4C83F8341020800D4802700D4A1A60DF
:1010C00070BD00BF4C0600205006002058B9010832
:1010D00070140020F0130020302501202425012069
:1010E0002A25012001000001262501202C250120B0
:1010F00028250120E4BA01080148FFF731BD00BFEF
:10110000500600200020704781807047C1807047E2
:101110000181704741817047704770477047704741
:10112000704710B4C4880368121B84885B6D091B68
:1011300012B25DF8044B09B218474FF6FF73838172
:101140004FF0FF3303621368C3611060704790F87B
:1011500025201AB190F8242002B1186070470000D1
:10116000034B902283F85A2383F85823704700BF1B
:1011700000E100E0094A0A49D3680A48C3F30A03B8
:10118000013B9BB20B801169C1F30A010139018057
:101190001364536B43F001035363704700680140CD
:1011A000EC140020EA140020014BD3F8AC00704787
:1011B00000680140024B0122C3F8AC105A6270472C
:1011C0000068014070B5044607F04FFC23685D6E6F
:1011D0000AF04AFC01462046A8472368054AD3F88E
:1011E00088502046AC460023BDE87040A2F5163179
:1011F000604700BF00B004D007F01EBC90F84B3031
:1012000013B1024B01221A7007F022BCE81400202F
:1012100007F0DCBB07F037BD90F8252012B103685A
:101220005B69184770470000034B4FF080629A607B
:101230004FF080729A60704700E100E0084B4FF079
:101240008062C3F88820BFF34F8FBFF36F8F4FF0DA
:101250008072C3F88820BFF34F8FBFF36F8F704742
:1012600000E100E010B5144C236823B3134B144A7B
:101270001B6C11888B4213D1124B198803F036FE78
:10128000226892F86630013382F86630FFF716FC68
:10129000206808F02FF9BDE810400020FFF756BA8B
:1012A00003F024FE206803681B6A9847BDE81040DD
:1012B0000020FFF775BA10BD3025012000680140FD
:1012C000EC140020EA14002007B5064BADF8060028
:1012D0001B68054801220DF1060104F053FB03B021
:1012E0005DF804FB100000207416002008B564208F
:1012F00005F027F8FBE7000030B595B0102200217B
:101300000AA819F0D5FA1422002103A819F0D0FA7E
:1013100000241D4B01941A6C42F080521A641B6C1D
:1013200003F080530193019B184B02941A6842F416
:1013300040421A601B6803F4404302930122029B5F
:101340004FF48033CDE9082302254FF48003CDE923
:101350000E5308214FF4A873CDE9101308A80423F5
:101360001393129503F0E0FD0F23CDE903354FF4FD
:10137000A0504FF48053CDE90603052103A805943E
:1013800003F0B0FF15B030BD0038024000700040DF
:1013900080B59AB002F03AFDFFF7AEFF14220021AB
:1013A0000DA8002419F084FAC04B00941A6BC048B1
:1013B000C04D42F010021A631A6B02F01002009244
:1013C000009A01941A6B42F020021A631A6B02F021
:1013D00020020192019A02941A6B42F080021A6371
:1013E0001A6B02F080020292029A03941A6B42F086
:1013F00004021A631A6B02F004020392039A049423
:101400001A6B42F001021A631A6B02F00102049295
:10141000049A05941A6B42F002021A631A6B02F0E6
:1014200002020592059A06941A6B42F040021A6372
:101430001A6B02F040020692069A07941A6B42F069
:1014400008021A631B6B03F00803079322463C2132
:10145000079B02F065FF98482246042102F060FFD6
:10146000224696484FF4405102F05AFF01264FF0B1
:1014700003083C238E48CDF840800DA902274FF089
:101480000409CDE90D360F9402F05EFE8A480F94F0
:101490000DA9CDE90D96109702F056FE0DA94FF457
:1014A00040538648CDE90D36CDE90F4702F04CFE9A
:1014B0008348844B036002F03BFD834A834B2C62DC
:1014C000C5E9002328464FF48043C5E90434C5E943
:1014D0000244C5E9064403F00DF91021284603F043
:1014E00049FB2146284603F064FB79487949846228
:1014F0004FF48273C0E900134FF400751823C0E95C
:1015000006530A23744DC362C0E90244C0E904448F
:10151000C0E9084404F0DAF9704B0D974FF0100C55
:10152000C5E900364023C5E904C34FF4C073C5E9DB
:1015300006344FF40063C5E908344FF40053AB623E
:101540000DA907232846CDE90E39CDE910384FF013
:10155000080AC5E90249CDE9127704F0B7F84FF659
:10156000FF7209A92846CDE90AA6089409960C94A9
:1015700004F0CCF8304602F075FC4FF6FF7209A972
:101580002846CDE9097ACDE90B6404F0BFF84FF69F
:10159000FF7209A92846CDE9098ACDE90B9404F028
:1015A000B5F84FF40C730893089B0C934FF6FF7239
:1015B00009A92846CDE9099A0B9604F0A7F840F24C
:1015C0006A51284604F0C0F8342221460DEB02008F
:1015D00019F06EF9424D434BAC86C5E9003409233E
:1015E000C5E905361D2340F20D1EC5E9073840F256
:1015F0004313C5E909E3284640F2471340F21718A0
:10160000C5E90B83C5E902442C6185F8364003F037
:1016100075FBFF21F022CDE912144FF480690521FA
:101620004FF4A073CDE90E24CDE91491CDE9164213
:101630000DA922462846CDE910372B4D18930D945D
:10164000ADF864408DF8664003F023FC274B2B6017
:101650001B6898472B68264DDB689847254BC5E9E2
:101660000A47C5E90C442846C5E90034C5E90274B7
:1016700002F06EFC3146284602F022FDFEF7B4FF70
:10168000FEF7B1FF1C4A1D48214604F011FE1C4B19
:101690001C4A186021461C4804F00AFE1B4B1860C7
:1016A00004F0DAFD04F0EAFDFEE700BF0038024076
:1016B000001002404415002000080240000C0240C7
:1016C000FC14002000300240005C0040A0860100B5
:1016D000741600200050014040160020400100A078
:1016E0009815002000680140F41400201400002028
:1016F0000415002000B00240ACBF0108ED12000844
:10170000F814002088BF0108F7050008F014002035
:10171000704770477FB5094B8DF817201B680293FF
:101720000DF117020123009201930A460146044875
:1017300003F088F807B05DF804FB00BF0C00002040
:10174000441500207FB500238DF81730084B1B6827
:1017500002930A4601230DF11701009101930146FE
:10176000044803F0FFF89DF8170007B05DF804FB8C
:101770000C000020441500201FB5084C246800927E
:10178000CDE901340A4601230146054803F0EAF891
:10179000003818BF012004B010BD00BF0C000020AD
:1017A0004415002002F05EBB08B506480022042163
:1017B00002F0B6FDBDE8084002480122042102F013
:1017C000AFBD00BF0008024038B50B4D04460122F2
:1017D0000A484FF4005102F0A3FD002204212846DC
:1017E00002F09EFD2046FFF76FFD28460122BDE86E
:1017F0003840042102F094BD00080240000C024071
:1018000038B50B4D044600220A484FF4005102F04F
:1018100087FD00220421284602F082FD2046FFF7C2
:1018200053FD28460122BDE83840042102F078BD6E
:1018300000080240000C0240F7B5144E144F054654
:101840000C4630460022042102F06AFD00224FF4CB
:101850000051384602F064FD2846FFF735FD0D4B78
:101860000D481B68224601A904F02EFA38460122D1
:101870004FF40051019C02F053FD30460122042137
:1018800002F04EFD204603B0F0BD00BF000802404C
:10189000000C0240100000207416002002F0E2BA92
:1018A0000268034B9A4201D102F0CABA704700BFE6
:1018B000001000407047000082B00E4B00220092E2
:1018C000596C41F480415964596C01F48041009194
:1018D00000990192196C41F0805119641B6C03F05E
:1018E00080530193019B0F216FF0010002B002F0C1
:1018F000DFBA00BF003802400268094B9A4282B04A
:101900000BD100230193074B1A6B42F480521A63E8
:101910001B6B03F480530193019B02B0704700BF1F
:10192000003002400038024007B50F4B02689A426F
:1019300016D10022A3F5F0430192196B41F4000186
:1019400019631B6B03F40003019305215A20019BCB
:1019500002F0AEFA5A2003B05DF804EB02F0DABAF6
:1019600003B05DF804FB00BF00B002402DE9F04376
:10197000044689B01422002103A818F099FF2268B8
:10198000244B9A4243D1244C244800250095236BD4
:1019900043F004032363236B03F004030093009BD1
:1019A0000195236B43F001032363236B03F00103D1
:1019B0000193019B4FF012094FF400734FF001089F
:1019C0000327042603A9CDE90339CDE90587079646
:1019D00002F0BAFB4FF480731148079603A9CDE9D2
:1019E0000339CDE9058702F0AFFB0295236C43F480
:1019F00000032364236C03F400030293029B236A15
:101A000043F400032362236A23F40003236209B032
:101A1000BDE8F083005C004000380240000802404E
:101A200000000240F0B599B004461422002107A836
:101A300018F03EFF30220DEB0200002118F038FFB5
:101A400022685E4B9A4240F0B78008230C93C02373
:101A50001093042312930CA84FF40033159303F052
:101A60000BFD08B1FFF726FF554B564800240094A4
:101A70005A6C42F080625A645A6C02F080620092A2
:101A8000009A01941A6B42F020021A631A6B02F05A
:101A900020020192019A02941A6B42F001021A6329
:101AA0001A6B02F001020292029A03941A6B42F03E
:101AB00002021A631A6B02F002020392039A049460
:101AC0001A6B42F040021A631A6B02F04002049251
:101AD000049A05941A6B42F004021A631A6B02F01E
:101AE00004020592059A06941A6B42F008021A63E2
:101AF0001B6B03F00803069302250E26069B0B962C
:101B00004FF4806307A9CDE90735CDE9094502F017
:101B10001BFB41F658032C480B9607A9CDE9073566
:101B20000927CDE9094502F00FFB032327480B974E
:101B300007A9CDE90735CDE9094502F005FB4FF4CA
:101B4000706322480B9607A9CDE90735CDE9094511
:101B500002F0FAFA4FF40C631D480B9607A9CDE981
:101B60000735CDE9094502F0EFFAC02319480B9675
:101B700007A9CDE90735CDE9094502F0E5FA0823C3
:101B800015480B9607A9CDE90735CDE9094502F0BF
:101B9000DBFA4FF4A0530E480B9707A9CDE90735A0
:101BA000CDE9094502F0D0FA58202246052102F07D
:101BB0007FF9582002F0AEF919B0F0BD006801407D
:101BC00000380240001402400000024000040240BD
:101BD0000018024000080240000C024010B5044604
:101BE00088B01422002103A818F062FE2268144B6A
:101BF0009A4223D103F56843002101915A6C1148A0
:101C000042F480125A645A6C02F480120192019AD2
:101C100002911A6B42F020021A631B6B03F020033F
:101C20000293029B4FF4607202230321CDE9032348
:101C30000523CDE9061303A902F086FA08B010BD0A
:101C400000500140001402402DE9F04186B000230D
:101C500003932B4B1C68002C4FD14FF00108C3F8A5
:101C60000080284B00949A6B274842EA08029A6346
:101C70009B6B03EA08030093022703260C25009BB5
:101C800001A94FF63F03CDE90137CDE9046502F024
:101C90005BFA1E48059501A9CDE90187CDE9034608
:101CA00002F052FA48F233131948059501A9CDE91B
:101CB0000137CDE9034602F047FA4FF68373154822
:101CC000059501A9CDE90137CDE9034602F03CFABB
:101CD0004CF203731048059501A9CDE90137CDE910
:101CE000034602F031FA60230C48059501A9CDE9BD
:101CF0000137CDE9034602F027FA06B0BDE8F081CE
:101D0000CC160020003802400014024000080240B7
:101D10000018024000100240000C02400004024083
:101D200070B588B000230293204B1A6C42F0100269
:101D30001A641B6C03F010030293054601A903A863
:101D4000029B03F07BFB069B4BBB03F067FB184E2B
:101D5000184B336040F2E733F360174BB0FBF3F3FB
:101D6000013B7360304600233361B360B36104F01C
:101D700097F9044680B9304604F04CF8044658B947
:101D8000362002F0C7F80F2D0DD8224629463620FE
:101D900002F08EF8094B1D60204608B070BD03F0BC
:101DA0003DFB4000D3E70124F6E700BF00380240C6
:101DB000D01600200010004040420F007C000020A0
:101DC0007047FEE7FEE7FEE7FEE77047014804F0D4
:101DD0005FB800BFD0160020014802F0FDBF00BF71
:101DE00098150020014802F0E1B800BF041500205A
:101DF0000120704708B518F001FD162303604FF06D
:101E0000FF3008BD08B518F0F9FC16230360FEE7A3
:101E100070B50D4614460E46731B9C4201DC2046ED
:101E200070BDAFF3008006F8010BF5E770B50D4605
:101E300014460E46731B9C4201DC204670BD16F80A
:101E4000010BAFF30080F5E74FF0FF3070474FF420
:101E500000534B60002070470120704700207047FE
:101E60000A4A116808B5034609B9094911601068A2
:101E7000694603448B4206D918F0C0FC0C2303606A
:101E80004FF0FF3008BD1360FCE700BF18170020BB
:101E9000D8270120704710B50421044618F04EFCE5
:101EA000204610BD012908B506D0022908D059B92D
:101EB00001F020FB006808BD01F01CFB4068FAE758
:101EC00001F018FB8068F6E70020F4E7004870474F
:101ED000E4BF01080920704713B5002451B103681D
:101EE00001948DF8034001AA9C680DF10303A047FB
:101EF00002B010BD0846FBE7C0897047008A7047F2
:101F0000C088704780887047807A00F07F007047F3
:101F1000807AC0097047704710B50821044618F050
:101F20000DFC204610BD7047704700F59873086897
:101F3000496803C37047704770474160704710B5E8
:101F40000022B1F90840B1F90A1002804280848071
:101F5000C18010BD70477047064BC0F84C3100235C
:101F6000C0F8503100F5A273C0F84801C0F8403104
:101F7000704700BF112200080123037270477047A9
:101F800070477047704770470146406803681031DA
:101F90005B6E184770B5054640680368DB69984773
:101FA00004464CB1E188AB89C91A236820465B6BB3
:101FB00009B29847A469F4E76868036805F110015D
:101FC0001B6EBDE87040184710B4C26841685410D9
:101FD000034601EB6200D20748BF0A599B685DF8CF
:101FE000044B48BFD358184743682BB183682BB9BB
:101FF000C06800F001007047184670470120704724
:1020000010B50C21044618F099FB204610BD10B500
:102010001021044618F092FB204610BD10B54FF475
:10202000AE71044618F08AFB204610BD10B5382169
:10203000044618F083FB204610BD10B52821044645
:1020400018F07CFB204610BD10B54021044618F066
:1020500075FB204610BD08B509F006FDBDE8084037
:102060000AF072B973B50446807A637A0130C0B25F
:102070009842A07205D9012323720023A37202B0F3
:1020800070BDB4F90C20B4F90E6000210BF0B2F968
:1020900010F0010283B234D1E081E589A37AAD1B4F
:1020A000012BADB206D11B4B1B781BB109F0DCFC38
:1020B00009F0E0FC184A00231288ADF80030E389EB
:1020C0001A44ADF80220154A5B421288ADF804208C
:1020D000ADF8063009F0C8FC02AB13E9060009F0C0
:1020E0000BFE60680368DB6998470446002CC6D085
:1020F000E1882368294420465B6B09B29847A469AC
:10210000F4E74FF6FF710028D8BF0A461344E38175
:10211000C3E700BF2E25012026250120242501200C
:10212000054B1B7801462BB1406818B103680C3190
:102130005B6E1847704700BF2F250120037A70B5EA
:102140000546BBB940680368DB69984704464CB153
:10215000A1886B8FC91A236820461B6B09B2984768
:10216000A469F4E76868036805F10C011B6EBDE81B
:102170007040184770BD70B5044690F8390094F867
:1021800038300130C0B2984284F8390005D90123B3
:102190002372002384F8393070BDB4F93A2000214D
:1021A0000BF028F910F0010283B206D04FF6FF7150
:1021B0000028D8BF0A46981800B2238AC01AA08700
:1021C00060680368DB69984705464DB1A988A38F0D
:1021D00019442B6828461B6B09B29847AD69F4E790
:1021E00060680368BDE870405B69184710B5044635
:1021F000D0F8400158B10368DB68984738B1D4F88B
:10220000400103689B6898470023C4F8403110BD23
:102210002DE9F14FD0E9555A0746A86803681B6AB3
:102220009847B0F5AE7F05D2454B464AA3214648B4
:1022300018F0B2FA686803681B6A98470F2803D839
:10224000424B404AA421F2E7E86803681B6A9847BA
:102250000B2803D83E4B3B4AA521E8E709F004FCD4
:10226000DFF8F490043009F04CFCD9F8000010B10C
:102270000368DB689847D9F8000010B103681B6851
:102280009847DFF8D880D8F8000010B103685B6980
:102290009847D7F83C0110B103685B689847D8F8B5
:1022A000000010B103681B689847D7F83C0110B1D3
:1022B00003689B689847E868036800215B6A984751
:1022C0004FF0000B234B03600446C0F804B080F8C5
:1022D00008B0A868036859465B6A9847064601F04B
:1022E00095F96868036859465B6A98473146054620
:1022F00001F04EF9C9F80040C7F83C51C8F8006039
:10230000E5B12B1DCAF804303368C5F808A0304683
:10231000DB68F56398472B6828461B689847214679
:1023200030460BF061F8236820461B699847236804
:102330005B69204601B0BDE8F04F18472B46E1E746
:10234000A8C0010836C101083AC2010881C20108CB
:1023500024C30108CCC60108702501206C2501208A
:102360002DE9F0411D460368BDF918701B6B04464A
:10237000164698472368314620465B6B984723688A
:10238000294620469B6B9847236839462046DB6BDD
:10239000BDE8F041184700002DE9F74FD0E955BAE4
:1023A0000746DBF8080003681B6A9847B0F5AE7F64
:1023B00005D2564B564AA321564818F0EDF9DBF8E2
:1023C000040003681B6A98470F2803D8524B504AF1
:1023D000A421F1E7DBF80C0003681B6A9847372853
:1023E00003D84E4B4A4AA521E6E709F03DFBDFF84A
:1023F0004091043009F085FBD9F8000010B1036862
:10240000DB689847D9F8000010B103681B6898474B
:10241000DFF82081D8F8000010B103685B699847A5
:10242000D7F83C0110B103685B689847D8F8000002
:1024300010B103681B689847D7F83C0110B10368D6
:102440009B689847DBF80C00036800215B6A98479B
:10245000334B03604FF4A05303814FF48073436305
:10246000304B0361304B1B8800255A421BB245603C
:102470008572C5818281C0E90555C0E90755C0E96B
:102480000955C0E90B550093284B2A462946B3F954
:10249000003004461030FFF763FFDBF808000368E4
:1024A00029465B6A9847064601F0B0F8DBF804005D
:1024B000036829465B6A98473146054601F068F88B
:1024C000C9F80040C7F83C51C8F80060E5B12B1DC1
:1024D000CAF804303368C5F808A03046DB68F563F5
:1024E00098472B6828461B689847214630460AF0D3
:1024F0007BFF236820461B69984723685B69204659
:1025000003B0BDE8F04F18472B46E1E7A8C001082B
:10251000C7C301083AC2010881C2010824C30108E7
:1025200014C7010800C60108262501202425012022
:10253000702501206C2501202DE9F74FD0E9555A6F
:102540000746A86803681B6A9847B0F5307F05D234
:10255000554B564AA321564818F01EF9686803687F
:102560001B6A98470F2803D8524B504AA421F2E720
:10257000E86803681B6A98473F2803D84E4B4B4ACC
:10258000A521E8E709F070FADFF83C91043009F082
:10259000B8FAD9F8000010B10368DB689847D9F899
:1025A000000010B103681B689847DFF82081D8F855
:1025B000000010B103685B699847D7F83C0110B17F
:1025C00003685B689847D8F8000010B103681B687F
:1025D0009847D7F83C0110B103689B689847E868B2
:1025E000036800215B6A984706460022334B42602D
:1025F000027246F80C3B0446304607F055F91423A6
:1026000023872F4B1B780022A287002B37D1012371
:102610002372A868036800215B6A9847064601F0A8
:10262000AFF86868036800215B6A98473146054641
:1026300001F066F8C9F80040C7F83C51C8F80060DE
:10264000002D2FD02B1DCAF804303368C5F808A020
:102650003046DB68F56398472B6828461B68984727
:10266000214630460AF0C0FE236820461B69984781
:1026700023685B69204603B0BDE8F04F1847114B53
:10268000DFF84CB0B3F9003000931146BBF90030CD
:102690003046FFF765FE304607F081F8BBF80030A2
:1026A0006387B6E72B46CEE7A8C00108DFC4010860
:1026B0003AC2010881C2010824C30108F0C601081A
:1026C0002F25012026250120702501206C250120C1
:1026D00024250120F8B5044617460E4609F0AEFA47
:1026E000104B0025C4E955760F4E1C60C4E95355C4
:1026F0000E4B306823600E4BC4E95135036801214D
:102700009B68C4E94F559847284600F0A7FE3368F8
:1027100093F876200AB1D86C00B9986811F0F3F8F4
:102720002046F8BD7C2501203025012080C6010807
:1027300068C60108064BC0F84C310023C0F8503180
:1027400000F5A273C0F84801C0F84031704700BFDF
:1027500011220008064BC0F84C310023C0F850315C
:1027600000F5A273C0F84801C0F84031704700BFBF
:1027700099230008064BC0F84C310023C0F85031B3
:1027800000F5A273C0F84801C0F84031704700BF9F
:1027900039250008406A7047806A704770478B8807
:1027A000C0690A68DB0A50F823001044704710B56E
:1027B000C2B1137BB3B1547BD27A240204F4E06437
:1027C0001443026A98B202EB840213888B4202D14E
:1027D00092F9020010BD05D8013880B204320028F9
:1027E000F3D1F7E70020F5E710B52C21044617F0E8
:1027F000A5FF204610BD000030B58BB00446BDF8E3
:1028000060500895BDF85C5007959DF850500695AE
:102810009DF84C5005959DF8485004959DF84450FE
:1028200003959DF8405002959DF83C500195BDF8E8
:10283000385000950AF032FA064B2360159BE3618D
:10284000169B2362199B63621A9BA36220460BB0FE
:1028500030BD00BF38C701087047704770477047E8
:10286000704730B50368018185B06D460146D3F8E5
:10287000843004462846984795E807003C3484E8AD
:10288000070005B030BD30B50368418185B06D46A5
:102890000146D3F8843004462846984795E8070057
:1028A0003C3484E8070005B030BD0022028042803D
:1028B0008280C280704780F83610704770B5036818
:1028C00004461B6B154698472368294620465B6ED5
:1028D000BDE870401847806C7047C06C7047704707
:1028E00070477047704730B4C2684468551003465B
:1028F00004EB6200D20748BF62599B6830BC48BFF6
:10290000D358184743682BB183682BB9C06800F0CF
:1029100001007047184670470120704710B55021DC
:10292000044617F00BFF204610BD10B510210446D9
:1029300017F004FF204610BD10B54FF4AA710446ED
:1029400017F0FCFE204610BD08B5FEF765FC08BD7B
:10295000036870B55E6B124B1B6804468DB22BB9D1
:10296000104B114A6C21114817F016FF1049828D47
:102970000988914203D80F4B0B4A6D21F3E713F8F6
:1029800012200D4B1B6853F8220003681B6B9847FD
:10299000281A01B233462046BDE87040184700BFF0
:1029A0008025012090C70108D2C701080DC8010881
:1029B0008425012054C801088825012098308842C8
:1029C00008B505D109F050F8BDE80840FFF7D2BEC0
:1029D00008BD00224FF0FF31C0E90021826070473E
:1029E00070B5036804461B6B154698472368294653
:1029F00020465B6BBDE87040184700000022C0E92C
:102A00000122C0E90322C0E90522C0E907224FF4F0
:102A100080728284014A0260704700BFD8C80108F2
:102A20002DE9F04F04468BB0A04600250AF030FB9C
:102A3000874BE56348F8403B29462622404617F07D
:102A400037FF4046FFF7DAFF04F16C07814B236440
:102A5000FF264FF6FF7A2622294684F86660A5668F
:102A60003846ADF820A017F023FF3846FFF7C6FF21
:102A7000794BE366BDF82030A4F8923004F1980950
:102A800084F8946008A9384607F0CFF92946262231
:102A9000484617F00DFF4846FFF7B0FF012304F149
:102AA000CC0684F8BC306D4BC4F8983029462622F9
:102AB000C4F8C05084F8C450A4F8C6A0A4F8C8A0B4
:102AC00084F8CAA0304617F0F3FE3046FFF796FFB1
:102AD000634BC4F8F4304FF47F03C4F80031614B0A
:102AE000C4F8CC30604BA4F8F8A0C4E951345F4B73
:102AF000C4F8FC50C4E953354FF0FF3B4FF4A073CA
:102B00002A46C4E943B529464046C4E94555A4F8D8
:102B10000451C4F808510093F023FFF721FC04F19D
:102B2000040A4FF07F43A3664146504605F0B2FCCD
:102B30002A4629463846FFF753FF4FF0080808A9F0
:102B40003846ADF8208007F070F93946504605F058
:102B5000A1FC6FF01302A1214846FFF741FF0523B6
:102B600008AAADF81C3007A906234846ADF8203066
:102B700007F022F804F5A273C4F8C0304946504665
:102B800005F088FC33235B22294600933046F0236E
:102B9000FFF7E6FBD4F8CC30A4F800510DEB0805A4
:102BA0002846D3F88430C4F8FCB03146984795E8FD
:102BB0000700DFF8D4B004F5847383E80700DBF87E
:102BC000003004F58E752BB9294B2A4A60212A481A
:102BD00017F0E2FDDFF8B490B9F80030092B03D804
:102BE000264B244A6121F2E7254F0921386800F07D
:102BF00071FC244A03460A2128460BF0EDFEDBF85F
:102C00000030C4F8145104F59875002BDCD0B9F8E5
:102C10000030082BE4D94146386800F05BFC194AC3
:102C200003460A2128460BF0D7FE0D4B089308A94E
:102C30000A233046C4F81851ADF8243006F05EFF80
:102C40005046314605F026FC20460BB0BDE8F08F1B
:102C5000E8C901080CCF0108E8CF010874CF0108CA
:102C6000A0C0010840C90108D0C90108BD29000859
:102C700090C7010892C801080DC8010854C801088E
:102C80008C250120CAC80108802501208425012047
:102C9000704770477047704770477047704770477C
:102CA00030B4C26844685510034604EB6200D20792
:102CB00048BF62599B6830BC48BFD3581847436827
:102CC0002BB183682BB9C06800F00100704718462B
:102CD00070470120704710B51021044617F02EFDF3
:102CE000204610BD10B54FF42F71044617F026FD95
:102CF000204610BD00F19803994270B504460D4678
:102D000003D108F0B1FEFFF725FD04F58E739D4257
:102D100003D123682046DB6A984704F5B2739D42CD
:102D200003D1236820461B6B984704F5D6739D4258
:102D300003D1236820465B6B984704F5FA739D42E4
:102D400003D1236820469B6B984704F50F739D427F
:102D500005D123682046DB6BBDE87040184770BD85
:102D60001A4B73B51B88018F8B4206462AD9184B24
:102D70001B682BB9174B184A18486C2117F00CFD2B
:102D800013F81120164B1B6853F82250154B186886
:102D900000F0A0FB2B6801909B6B284698472B689E
:102DA00001999B6C0446284698472B6801995B6AF9
:102DB00014FB00F428469847A4B20444A6F8464001
:102DC00002B070BD0023A0F84630F9E78425012049
:102DD0008025012090C70108D2C701080DC801084D
:102DE000882501208C2501202DE9F04F2DED068B43
:102DF00004468DB0A14600250AF04AF97F4BE563F1
:102E000049F8403B26222946484617F051FD4846DE
:102E1000FFF7F4FD04F16C08794B2364FF274FF6AC
:102E2000FF762622294684F866704046A566ADF8EE
:102E3000286017F03DFD4046FFF7E0FD714BE3666B
:102E4000BDF82830A4F8923004F1980A404684F87E
:102E500094700AA906F0E9FF26222946504617F089
:102E600027FD5046FFF7CAFD4FF0010304F1CC07E0
:102E700084F8BC30644BC4F8983026222946A4F864
:102E8000C660A4F8C86084F8CA60C4F8C05084F86A
:102E9000C450384617F00CFD3846FFF7AFFD5B4BCA
:102EA000C4F8F4304FF47F03C4F80031584BC4F831
:102EB000CC304FF0FF3B04F58E73A4F8F860184651
:102EC000C4E943B5C4E94555C4F8FC50A4F804511D
:102ED000C4F8085108EE103A07F0E8F804F5B273A8
:102EE000184608EE903A07F0E1F804F5D673184654
:102EF00009EE103A07F0DAF804F5FA73184609EE0D
:102F0000903A07F0D3F804F50F7318460AEE103A1A
:102F100007F0CCF83F4BC4E9AB343F4BC4E9AD35C7
:102F20004FF4A0732A46484600932946F023FFF742
:102F300017FA261D4FF07F43A3664946304605F039
:102F4000A9FA2A4640462946FFF74AFD4FF00703F3
:102F500040460AA9ADF8283006F067FF41463046E2
:102F600005F098FA50466FF01302A121FFF738FDE3
:102F70004FF005094FF006030AAA504609A9ADF81B
:102F80002830ADF8249006F017FE04F52B73514657
:102F9000C4F8C0303046039305F07CFA31233E225A
:102FA00000932946F0233846FFF7DAF9D4F8CC30FD
:102FB000C4F8FCB00DF110084046D3F88430A4F8F2
:102FC00000513946984798E80700DFF864A004F5F7
:102FD000847383E80700DAF8003004F521782BB910
:102FE0000E4B0F4A60210F4817F0D6FB0E4B1B8883
:102FF000062B1FD80D4B0A4A6121F4E734CA010899
:103000000CCF0108E8CF010874CF0108A0C0010867
:1030100040C901081CCA0108F52C000890C7010826
:1030200092C801080DC801088425012054C8010870
:10303000802501206F4B0621186800F04BFA6E4A7C
:1030400003460A2140460BF0C7FCDAF80030C4F80A
:10305000148104F52678002BC2D0684A1388052B0A
:10306000C8D9644B4946186800F034FA624A0346EE
:103070000A2140460BF0B0FC614BC4F818810A935A
:103080000AA94FF007033846ADF82C3006F036FD9C
:103090003946304605F0FEF918EE100A90220A2152
:1030A000FFF79EFC04270AAA4FF0020809A918EEB0
:1030B000100AADF82870ADF8248006F07DFD18EEFA
:1030C000100AA4F85471FFF74BFE039BC4F8443177
:1030D00018EE101A3046C4E956BB05F0DBF918EEBD
:1030E000900ACC220A21FFF77BFC4FF003090AAAC1
:1030F00009A918EE900AADF82870ADF8248006F002
:103100005BFD18EE900AA4F89C91FFF729FE039B43
:10311000C4F88C3118EE901A3046C4E968BB05F04B
:10312000B9F919EE100A90227821FFF759FC0AAA82
:1031300009A919EE100AADF82870ADF8249006F030
:103140003BFD19EE100AA4F8E481FFF709FE039B8A
:10315000C4F8D43119EE101A3046C4E97ABB05F030
:1031600099F919EE900ACC227821FFF739FC0AAAC6
:1031700009A919EE900AADF828704FF00107ADF8D3
:10318000249006F019FD19EE900AA4F82C72FFF7AE
:10319000E7FD039BC4F81C3219EE901A3046C4E9CF
:1031A0008CBB05F077F91AEE100A4FF486724121B4
:1031B000FFF716FC0AAA09A91AEE100AADF8245066
:1031C000ADF8287006F0F8FC1AEE100AA4F8745254
:1031D000FFF7C6FD039BC4F864323046C4E99EBBCA
:1031E0001AEE101A05F056F920460DB0BDEC068B0C
:1031F000BDE8F08F8C250120CAC801088425012074
:10320000A0C001087047000030B5164D2C78BFF300
:103210005B8F14F001048FB020D1284617F090FA8C
:10322000E0B13F230993104B0893104B104911480C
:103230000A940122CDE906430423CDE903320A238F
:103240000093CDE90B44CDE901440594FFF7D4FA8E
:10325000094817F0BFFA284617F07EFA05480FB064
:1032600030BD00BF1C17002008EB010814EB01085B
:1032700060E90108201700200532000870470000AF
:1032800030B5164D2C78BFF35B8F14F001048FB06E
:1032900021D1284617F054FAE8B13F230993104B87
:1032A0000893104B104911480A94CDE906430122B6
:1032B0000423CDE90332142300930F22CDE90B44FC
:1032C000CDE901440594FFF797FA094817F082FA0F
:1032D000284617F041FA05480FB030BD4C170020C2
:1032E0000CEB010818EB010870E9010850170020E9
:1032F0007D3200087047000030B5174D2C78BFF3C1
:103300005B8F14F001048FB022D1284617F018FA11
:10331000F0B13F230993114B0893114B1149124807
:103320000A94CDE9064301220423CDE90332282380
:1033300000930E222923CDE90B44CDE901440594E5
:10334000FFF75AFA094817F045FA284617F004FA29
:1033500005480FB030BD00BF7C17002010EB0108FE
:103360001CEB010844EA010880170020F532000830
:1033700000207047002070470EB403B503AB002156
:1033800053F8042B019309F0B1FA02B05DF804EB95
:1033900003B070470CB407B504AB53F8042B01938A
:1033A00009F0A4FA03B05DF804EB02B07047000026
:1033B000436C10B5044673B3038F2BB9184B194AED
:1033C000C521194817F0E8F9C38E00EB43035B8C65
:1033D0000BB30AF052FD238F012B03D8134B144A71
:1033E000CB21EEE7E28E531C9BB2092B194688BF16
:1033F000A3F10A0104EB410140F63F10498C8142E0
:1034000009D10A2B04EB420228BF002304EB43033B
:10341000508C588451842046BDE810400AF030BCDE
:1034200074CA01087DCA010828CB010872CB0108C3
:1034300080CB01080AF0EBBB10B586B002AC84E883
:1034400006001A460AAB05930193099B0093214697
:10345000089B07F0C7FE06B010BD000038B518BBCA
:10346000124B13481B681349B3B11A689C681A447D
:1034700002605A681A440A601C440F4B00221A80EA
:1034800000F038F8054600F033F80C4B1C600C4B8C
:103490001D600C4B188007E00B4B03600B4B0B605F
:1034A0000B4B1C68002CE8D138BD00BFAC170020C6
:1034B000B0170020B4170020B81700208025012085
:1034C00088250120842501204CEB010820EB010810
:1034D00084EB0108044B1B6853F82100034B1B6865
:1034E00003EB4000704700BFB4170020B017002066
:1034F0000B20704700487047BC17002010B5FFF73D
:10350000BFFE044C2060FFF7F7FE6060FFF77CFE13
:10351000A06010BDBC170020704710B54FF4AE710D
:10352000044617F00BF9204610BD10B50446D0F83C
:10353000580100F013F82046BDE8104008F03EBBEB
:1035400010B50446FFF7C6F8014B2360204610BDB6
:103550005CCC01080022C0E900227047704701805E
:10356000704741807047B0F900007047B0F9020021
:103570007047704704387047704710B510210446F3
:1035800017F0DCF8204610BDA0F10400F5E70000BC
:1035900010B500228260044AC16002F108042032A2
:1035A0000460426010BD00BFA0CC01088068FFF736
:1035B000D6BF8068FFF7D5BF8068FFF7D4BF8068AB
:1035C000FFF7D4BF10B50446B0F95411C06BFFF734
:1035D000EDFFB4F95611E06BBDE81040FFF7E9BF0D
:1035E00010B5034B03600446FFF779F9204610BD80
:1035F000D8CC010810B50446FFF7F2FF20464FF47F
:10360000AE7117F09BF8204610BD000010B50446BF
:10361000FFF706FA044B23600023C4F85431A4F8E2
:103620005831204610BD00BFD8CC010810B5044663
:10363000FFF756F9E06BFFF7BFFFA4F85401E06B0A
:10364000FFF7BDFFB4F95431A4F85601074A0A2127
:1036500004F58E700BF0C0F9B4F95631034A04F545
:1036600098700A21BDE810400BF0B6B9C8CC01082B
:10367000B0F95831B3F5616F70B5044629D1B0F88F
:103680005621B0F9543101323C2012B2182592FB78
:10369000F0F10B4400FB112293FBF5F605FB16330A
:1036A000A4F85431A4F856210A210D4A04F58E706D
:1036B0000BF092F9B4F95631094A0A2104F59870D1
:1036C0000BF08AF904F1CC0009F03AFA0023A4F8CF
:1036D0005831B4F858310133A4F8583170BD00BFE7
:1036E000C8CC0108704704387047704710B51021E6
:1036F000044617F023F8204610BDA0F10400F5E7BA
:1037000010B500228260044AC16002F10804203230
:103710000460426010BD00BF04CD01088068FFF75F
:103720001EBF8068FFF71DBF8068FFF71CBF806861
:10373000FFF71CBF704710B50446B0F9BC12C06B50
:10374000FFF7ECFFB4F9BE12E06BBDE81040FFF7E5
:10375000E8BF000010B5034B03600446FFF79DFA75
:10376000204610BD34CD010810B50446FFF7F2FF26
:1037700020464FF4307116F0E1FF204610BD0000E6
:1037800010B50446FFF730FB014B2360204610BD07
:1037900034CD010810B50446FFF780FAE06BFFF75F
:1037A000C3FFA4F8BC02E06BFFF7C1FFB4F9BC3261
:1037B000A4F8BE02094A0A2104F521700BF00CF9A5
:1037C000B4F9BE32054A04F526700A210BF004F95B
:1037D00004F1CC00BDE8104009F0B2B9C8CC010832
:1037E00010B5B0F9BC321822013393FBF2F102FBA1
:1037F00011330446A0F8BC32054A0A2100F52170B5
:103800000BF0EAF804F1CC00BDE8104009F098B9DB
:10381000C8CC010810B5B0F9BC321822013B93FBAB
:10382000F2F102FB11330446A0F8BC32054A0A212A
:1038300000F521700BF0D0F804F1CC00BDE8104089
:1038400009F07EB9C8CC010810B5B0F9BE323C22EF
:10385000013393FBF2F102FB11330446A0F8BE32B0
:10386000054A0A2100F526700BF0B6F804F1CC00E9
:10387000BDE8104009F064B9C8CC010810B5B0F932
:10388000BE323C22013B93FBF2F102FB11330446B2
:10389000A0F8BE32054A0A2100F526700BF09CF80C
:1038A00004F1CC00BDE8104009F04AB9C8CC0108C9
:1038B000F02070474FF4A07070472920FDF7A0BF9B
:1038C0002820FDF79DBF08B5FDF76EFFCA20FDF764
:1038D00097FFC320FDF778FF0820FDF775FF502004
:1038E000FDF772FFCF20FDF78BFF0020FDF76CFF87
:1038F000C120FDF769FF3020FDF766FFED20FDF7E1
:103900007FFF6420FDF760FF0320FDF75DFF1220BD
:10391000FDF75AFF8120FDF757FFE820FDF770FF04
:103920008520FDF751FF0020FDF74EFF7820FDF7C1
:103930004BFFCB20FDF764FF3920FDF745FF2C201E
:10394000FDF742FF0020FDF73FFF3420FDF73CFF6D
:103950000220FDF739FFF720FDF752FF2020FDF789
:1039600033FFEA20FDF74CFF0020FDF72DFF00207C
:10397000FDF72AFFB120FDF743FF0020FDF724FFEC
:103980001B20FDF721FFB620FDF73AFF0A20FDF7C7
:103990001BFFA220FDF718FFC020FDF731FF10200C
:1039A000FDF712FFC120FDF72BFF1020FDF70CFFE4
:1039B000C520FDF725FF4520FDF706FF1520FDF783
:1039C00003FFC720FDF71CFF9020FDF7FDFE36200A
:1039D000FDF716FFC820FDF7F7FEF220FDF710FFF8
:1039E0000020FDF7F1FEB020FDF70AFFC220FDF731
:1039F000EBFEB620FDF704FF0A20FDF7E5FEA72049
:103A0000FDF7E2FE2720FDF7DFFE0420FDF7DCFED8
:103A10002A20FDF7F5FE0020FDF7D6FE0020FDF779
:103A2000D3FE0020FDF7D0FEEF20FDF7CDFE2B20CA
:103A3000FDF7E6FE0020FDF7C7FE0020FDF7C4FEFF
:103A40000120FDF7C1FE3F20FDF7BEFEF620FDF789
:103A5000D7FE0120FDF7B8FE0020FDF7B5FE0620D9
:103A6000FDF7B2FE2C20FDF7CBFEC820FDF716FFB8
:103A70002620FDF7C5FE0120FDF7A6FEE020FDF79C
:103A8000BFFE0F20FDF7A0FE2920FDF79DFE24209C
:103A9000FDF79AFE0C20FDF797FE0E20FDF794FE31
:103AA0000920FDF791FE4E20FDF78EFE7820FDF7F0
:103AB0008BFE3C20FDF788FE0920FDF785FE1320D4
:103AC000FDF782FE0520FDF77FFE1720FDF77CFE47
:103AD0001120FDF779FE0020FDF776FEE120FDF7CD
:103AE0008FFE0020FDF770FE1620FDF76DFE1B20F7
:103AF000FDF76AFE0420FDF767FE1120FDF764FE66
:103B00000720FDF761FE3120FDF75EFE3320FDF753
:103B10005BFE4220FDF758FE0520FDF755FE0C2008
:103B2000FDF752FE0A20FDF74FFE2820FDF74CFE60
:103B30002F20FDF749FE0F20FDF746FE1120FDF76F
:103B40005FFEC820FDF7AAFE2920FDF759FEBDE85B
:103B500008402C20FDF754BE08B5FDF725FE0321D3
:103B6000D320FDF769FE80B208BD10B5C4B20222B1
:103B700003212046FDF7CEFD0A20FDF713FE204667
:103B800000220321FDF7C6FDBDE810400220FDF72D
:103B900009BE38B50446E4B2FDF7BAFD002120465F
:103BA000FDF7D0FD012105462046FDF7CBFD40EA9B
:103BB000052080B238BD10B5C4B240212046FDF7C3
:103BC000C1FD030607D54C212046FDF7BBFD00389B
:103BD00018BF012010BD01224B212046FDF79AFDA0
:103BE000204600224B21FDF795FD0020F2E773B53A
:103BF0000423C4B20E461546D7210DEB030220461E
:103C0000FDF7BAFD019B1BBA1A0DC3F30B233280DB
:103C100020462B8001224B21FDF77CFD00224B2109
:103C20002046FDF777FD02B070BD000010B50A4BCD
:103C30001A78904204460DD0597888420AD00AB1C9
:103C400041B901229C54FDF763FD2046BDE81040B8
:103C5000FFF78BBF10BD00BFC817002010B5C4B25E
:103C600009212046FDF76EFD40F00100C2B2092196
:103C70002046BDE81040FDF74DBD10B5C4B2092186
:103C80002046FDF75FFD092100F0FE022046BDE859
:103C90001040FDF73FBD38B5C4B20D4620460A219D
:103CA000FDF750FD2843C2B20A212046BDE8384046
:103CB000FDF730BD07B50190FDF72BFD01981F21E1
:103CC000FFF7E9FF019803B05DF804EBFFF7C6BF0B
:103CD00038B5C4B20D4620460A21FDF733FD20EA6F
:103CE0000500C2B20A212046BDE83840FDF712BDEA
:103CF00010B50446FFF7C1FF20461F21BDE8104064
:103D0000FFF7E6BF10B5C0B20C460B21FDF71AFD58
:103D1000204010BD1F21FFF7F5BF0A46C0B20B219E
:103D2000FDF7F8BC1F21FFF7F8BF38B5C4B20D4648
:103D300020461721FDF706FD20EA0500C2B2172133
:103D40002046BDE83840FDF7E5BC70B5C4B2064674
:103D500004212046FDF7F6FC042100F0FB02054695
:103D60002046FDF7D7FC3046F021FFF7DEFF05F0D7
:103D7000F80220460421FDF7CDFC492220212046EF
:103D8000FDF7C8FC0220FDF70DFD20460122212190
:103D9000FDF7C0FC20469A224121FDF7BBFC2046DE
:103DA00001224A21FDF7B6FC204601224B21FDF7F6
:103DB000B1FC204600224B21FDF7ACFC204601223D
:103DC0005621FDF7A7FC204601225821FDF7A2FC51
:103DD000204601224021FDF79DFC2046FF220B21B9
:103DE000FDF798FCBDE870400220FDF7DBBC000049
:103DF000054BD3F8882042F47002C3F888204FF0B6
:103E000000629A60704700BF00ED00E008B50B4B00
:103E10001A6842F400721A601A6842F480621A60EA
:103E20001A6842F480721A60032000F02FF8002014
:103E3000FDF776FFFDF740FD002008BD003C024085
:103E4000034A044B11681B780B441360704700BF92
:103E5000CC17002078000020014B1868704700BF85
:103E6000CC17002038B50446FFF7F6FF631C1CBFD3
:103E7000054B1B78054618BFE418FFF7EDFF431B01
:103E8000A342FAD338BD00BF780000200749CA68B2
:103E900022F4E0620302120403F4E063120C134301
:103EA00043F0BF6343F40033CB60704700ED00E0A4
:103EB000164B30B5DC68C4F30224C4F10705231D9A
:103EC000042D28BF0425062B4FF0FF338CBF033C85
:103ED000002403FA05F521EA0501A34022EA0302C2
:103EE000A140002841EA0203ACBF00F16040084A4B
:103EF0004FEA0313B8BF00F00F00DBB2AABF00F512
:103F00006140135480F8003330BD00BF00ED00E085
:103F100014ED00E0002808DB4209012300F01F0037
:103F200003FA00F0014B43F82200704700E100E083
:103F300010B5044650B1437903F0FF0213B9027182
:103F4000FDF7DAFC01236371002010BD0120FCE7BE
:103F500010B5044630B390F8393003F0FF021BB9B6
:103F600080F83820FDF7E0FC22686168022384F8BD
:103F70003930136823F440330B431360536BA1684B
:103F800023F007030B435363136CE16823F47F535F
:103F900023F03F030B43136400200123E06384F804
:103FA000393010BD0120FCE770477047036870B5D9
:103FB0005E681D68F207044614D5E90512D51A6833
:103FC00022F480721A60C26B42F00102C2630122C5
:103FD0009A60042380F83930002380F83830436930
:103FE00003B19847B20616D5AB0414D523681A68F6
:103FF00022F400521A6020229A60E36B43F002031D
:10400000E363042384F83930002384F8383063698B
:104010000BB120469847300716D5290514D52368DB
:104020001A6822F400621A6008229A60E36B43F077
:104030000403E363042384F83930002384F8383020
:1040400063690BB12046984772070BD56B0509D5FC
:1040500023681A6822F480621A6004229A6020465B
:10406000FFF7A2FFB00714D5A90512D523681A6877
:1040700022F400721A6002229A60E36BE363012368
:1040800084F83930002384F8383023690BB1204696
:104090009847F20613D5EB0411D523681A6822F469
:1040A00080521A6010229A60E36BE363012384F864
:1040B0003930002384F838302046FFF776FF70BD92
:1040C000F0B590F83830012B4FF002032BD00122CD
:1040D00080F8393080F8382000EB0113D3E907422B
:1040E0005D6A184F44EA0242093C012C9CBF05F06E
:1040F0007F431A434FEA0116036888BF42EA05620C
:1041000099B9596A39400A435A62012C82699A6105
:1041100003D8426A22F07F429A62012380F8393044
:10412000002380F838301846F0BDD96939400A4379
:10413000DA618219012C92691A619CBF25F07F45D2
:104140001D62EAE7F0FFFC002DE9F74FDFF8C091B0
:104150006D4A00230D6801249C4004EA050CAC4321
:1041600040F0B9804D6805F003044FEA4308032688
:10417000671E06FA08F6012F6FEA060634D887682C
:1041800007EA060ECF6807FA08F747EA0E078760C6
:10419000476827EA0C0EC5F300179F4047EA0E0751
:1041A0004760C76807EA060E8F6807FA08F747EA0C
:1041B0000E07022CC76019D14FEAD30A00EB8A0A16
:1041C00003F0070BDAF820704FEA8B0B4FF00F0E5D
:1041D0000EFA0BFE27EA0E0E0F6907FA0BF747EAF5
:1041E0000E07CAF8207001E0032CDAD1076804FA40
:1041F00008F43E40264315F4403F06606BD04FF074
:10420000000ACDF804A0D9F84460404C46F480463A
:10421000C9F84460D9F8446006F480460196019ECE
:1042200023F0030606F1804606F59C3603F0030EE4
:10423000D6F808804FEA8E0E0F2707FA0EF7A04235
:1042400028EA07074ED004F58064A0424CD004F55C
:104250008064A0424AD004F58064A04248D004F5AE
:104260008064A04246D004F58064A04244D004F5A6
:104270008064A04242D004F58064A04240D004F59E
:104280008064A0423ED004F58064A0420CBF0924A3
:104290000A2404FA0EF43C43B46094686FEA0C06F6
:1042A000EF0254BF34404CEA04049460D468AF0277
:1042B00054BF34404CEA0404D4605468AF0354BF84
:1042C00034404CEA040454601468ED0354BF344095
:1042D0004CEA040414600133102B7FF43BAF03B0AD
:1042E000BDE8F08F5446D4E70124D2E70224D0E79A
:1042F0000324CEE70424CCE70524CAE70624C8E754
:104300000724C6E70824C4E7003C0140000002403F
:10431000003802400369194214BF01200020704791
:104320000AB1816170470904FBE7436901EA0302AE
:1043300021EA030141EA02418161704701684B694A
:1043400013F480634FF0000210D06FF480634B6170
:104350002023026380F83D3080F83E20036C80F813
:104360003C2043F004030364012070471846704763
:104370002DE9F84606460F4691461D464FEA114A7A
:104380003368BAF1010F0CBF5C699C6927EA040429
:10439000A4B2B4FA84F46409A14501D0002017E066
:1043A0006A1CEED0FFF758FD089BC01AA84201D83E
:1043B000002DE5D100232022336386F83D2086F8C6
:1043C0003E30326C86F83C3042F0200232640120EC
:1043D000BDE8F8862DE9F04104460F46164698469A
:1043E0002568686927EA000080B2B8B16B695A0590
:1043F00016D52B6843F400732B606FF480636B61F8
:1044000020220023236384F83D2084F83E30226C70
:1044100042F00402226484F83C300120BDE8F081BF
:10442000731CDED0FFF718FDA0EB0800B04201D8E6
:10443000002ED5D100232022236384F83D2084F868
:104440003E30226C42F02002E4E770B504460D468F
:10445000164621684B6913F0400301D0002010E09C
:104460004A69D2060ED56FF010024A6120222363FA
:1044700084F83D2084F83E30226C226484F83C307D
:10448000012070BDFFF7E8FC801BA84201D8002D79
:10449000DFD100232022236384F83D2084F83E30BE
:1044A000226C42F02002E8E770B504460D4616463D
:1044B00023685B695B0701D5002070BD2046FFF7CC
:1044C0003DFFA8B96A1CF3D0FFF7C6FC801BA842C9
:1044D00001D8002DECD100232022236384F83D2055
:1044E00084F83E30226C84F83C3042F02002226492
:1044F0000120E2E770B504460D46164623685B6965
:104500001B0601D5002070BD2046FFF717FFA8B994
:104510006A1CF3D0FFF7A0FC801BA84201D8002D35
:10452000ECD100232022236384F83D2084F83E3020
:10453000226C84F83C3042F0200222640120E2E741
:104540002DE9F0431546026885B0DDE90C789946FF
:10455000136843F4807313600E463B46CDF8008029
:1045600000224FF001110446FFF702FF236838B123
:104570001B68DB0502D54FF40073236403200AE0B7
:1045800006F0FE061E61194943463A462046FFF7EB
:1045900021FF18B1012005B0BDE8F0832368039026
:1045A0005A6903929B690393424639462046039B0E
:1045B000FFF7A0FF40B1236C042B01BF22681368F2
:1045C00043F400731360E5E7B9F1010F236802D1EA
:1045D000EDB21D61DFE72A0A1A61394642462046DC
:1045E000FFF788FF0028E6D12368F1E70200010009
:1045F0002DE9FF479A46036815461A6842F480621F
:104600001A601A68DDE90C7842F480721A600E466E
:104610003B46CDF8008000224FF001110446FFF721
:10462000A7FE236848B11B68DB0502D54FF4007371
:104630002364032004B0BDE8F0875FFA86F906F032
:10464000FE061E612A4943463A462046FFF7C2FE4F
:1046500008B10120EEE7236803905A6903929B6931
:104660000393424639462046039BFFF743FF40B180
:10467000236C042B01BF2268136843F4007313609A
:10468000E7E7BAF1010F23681AD1EDB21D61424686
:1046900039462046FFF72EFF0028E9D1226813682B
:1046A00043F4807313604FF001110246CDF800808F
:1046B0003B462046FFF75CFE226860B11368B3E713
:1046C0002A0A1A61394642462046FFF713FF00289E
:1046D000CED12368D9E749F0010313610449434669
:1046E0003A462046FFF776FE003818BF0120A1E7C2
:1046F0000200010070B5044608B9012070BD90F8B1
:104700003D3003F0FF021BB980F83C20FDF72EF985
:10471000242384F83D3023681A6822F001021A60CD
:104720001A6842F400421A601A6822F400421A60C1
:1047300000F074FE3F4B65689D4294BF3E4B3F4B7B
:1047400098428CBF00230123002BD6D12268394E1A
:1047500053683B49B0FBF1F123F03F030B43B542F3
:10476000536088BF4FF49676136A88BF714323F075
:104770003F0384BF4FF47A76B1FBF6F10131194360
:104780001162D169431E2B4821F44F41854221F02B
:10479000FF0132D86D0040F6FC70B3FBF5F3013336
:1047A000034242D0C3F30B030B43D361D4E9073078
:1047B0001168034321F0C0010B4313609168D4E9F1
:1047C000030321F40341034321F0FF010B439360F2
:1047D000D4E90530D168034321F0FF010B43D360D6
:1047E000136843F00103136000202023206484F841
:1047F0003D30206384F83E0080E7A06850B905EBA7
:104800004505B3FBF5F30133C3F30B037BB143F46D
:104810000043C9E719204543B3FBF5F30133C3F364
:104820000B0323B143F44043BEE70423BCE7012359
:10483000BAE700BFA08601007F841E00FF083D008C
:1048400040420F002DE9F743044699460C9E0F465F
:104850009046FFF701FB94F83D30202B054603D02E
:10486000022003B0BDE8F08300903C4919230122E7
:104870002046FFF77DFD0028F2D194F83C30012B53
:10488000EED02068012384F83C300368D9075EBF6E
:10489000036843F001030360036823F400630360CB
:1048A000212384F83D30402384F83E3000232364E4
:1048B0000A9B6362BDF82C306385638D2385284B8A
:1048C000E362CDE900654B46424639462046FFF794
:1048D00037FE00282AD00120C3E7FFF70BFE40B1C6
:1048E000236C042B01BF2268136843F40073136028
:1048F000F1E7636A27681A4612F8011B39616262A0
:10490000628D218D013A92B262857A69481E80B229
:10491000520720850AD548B15A783A61023363625A
:10492000638D013B02399BB221856385238D2A4625
:1049300031462046002BD0D1FFF7B6FD0028CFD15D
:104940002268136843F400731360202384F83D3019
:1049500084F83C0084F83E0083E700BF02001000AA
:104960000000FFFF2DE9F043044687B09946109FF1
:104970000D469046FFF770FA94F83D30202B06461E
:1049800004D00225284607B0BDE8F08300907649A0
:10499000192301222046FFF7EBFC0028F1D194F8FF
:1049A0003C30012BEDD02068012384F83C300368B3
:1049B000DB075EBF036843F001030360036823F471
:1049C00000630360222384F83D30402384F83E30A6
:1049D000002323640E9B6362BDF83C306385638DC6
:1049E0002385624BE3622946CDE900764B46424679
:1049F0002046FFF7FDFD054608B10125C2E7228DDF
:104A00002368B2B902905A6902929A690292029A94
:104A10001A6842F400721A60DFF85481238D002B6B
:104A20002CD1202284F83D2084F83C3084F83E309C
:104A3000A8E7012A0AD11A6822F480621A6003905A
:104A40005A6903929A690392039AE1E7022A0ED106
:104A50001A6822F480621A601A6842F400621A60CE
:104A600004905A6904929B690493049BD4E70590CF
:104A70005A6905929B690593059BCDE7032B56D890
:104A8000012B15D1324639462046FFF7DEFC0028BF
:104A9000B3D123681A69636A1A70636A0133636267
:104AA000238D013B2385638D013B9BB26385B5E775
:104AB000022B00963B464FF000024146204619D19A
:104AC000FFF756FC002898D123681A6842F4007258
:104AD0001A601A69636A1A70626A531C6362238DD2
:104AE000013B2385638D013B9BB2638523681B6972
:104AF0005370D2E7FFF73CFC00287FF47EAF2368B9
:104B00001A6822F480621A601A69636A1A70636A0A
:104B1000009601336362238D013B2385638D013B46
:104B20009BB2638502463B4641462046C8E7324673
:104B300039462046FFF789FC00287FF45EAF2368E2
:104B40001A69636A1A70626A531C6362238D013B9F
:104B50002385638D013B9BB26385236859694907AF
:104B60007FF55CAFC3E700BF020010000000FFFF4D
:104B70000400010010B590F83D30202BDCB216D1B6
:104B8000242380F83D3003681A6822F001021A607D
:104B90005A6A22F010025A625A6A114359621A681C
:104BA00042F001021A6080F83D40002010BD022052
:104BB000FCE730B590F83D30202BDCB216D102680E
:104BC000242380F83D30136823F001031360556AF5
:104BD0004FF6F0732B400B439BB25362136843F0C4
:104BE0000103136080F83D40002030BD0220FCE747
:104BF0000068D1F800C0D201843283182DE9F04357
:104C0000C6685D684C68D1F8189005F470455D6021
:104C1000C5680CF10107C5F30B45C6F30B463D44CF
:104C2000264445EA06455D60C568CE68C5F30A05B9
:104C30002E449D6805F470459D60C7688D68C7F374
:104C40000A0701353D4445EA06459D601D690E6928
:104C500025F007051D614FF0000E1E619D6991F85A
:104C6000327091F83180C3F818E091F8305045EA7D
:104C7000096545EA082545EA07459D615D6925F016
:104C8000FF055D614D695D61DD6925F4E06525F035
:104C90000705DD61D1E907573D43DD619D6A4D6A36
:104CA000C3F828E09D621EB3012E23D0B51E022D4D
:104CB00022D9072E0CBF02250125DE6A06F0E02668
:104CC000DE62A4EB0C048E6AC96A6C436E43033443
:104CD00044EA0644DC621C6B24F4FF6424F00704FD
:104CE0001C631963835843F001038350BDE8F083CC
:104CF0000425E2E70325E0E70225DEE738B50446B0
:104D0000002863D090F8A13003F0FF021BB980F8AF
:104D1000A020FCF787FE022384F8A13023689A695B
:104D200022F070429A61D4E901200243E068996957
:104D30000243206902430A439A619A6824496069E0
:104D40000A409A609A6842EA0042A06902439A6067
:104D5000DA68E0690A40DA60DA6842EA0042206A0A
:104D60000243DA601A69606A0A401A611A6942EA03
:104D70000042A06A02431A615A69114059615A6996
:104D8000E16A42EA0142216B0A435A61D96A94F806
:104D9000360094F8355001F07F41D962D96A94F811
:104DA00034200A4342EA052242EA0042DA625A6BA0
:104DB00042F006025A639A6942F001029A610020A9
:104DC0000123C4F8A40084F8A13038BD0120FCE719
:104DD00000F800F070477047036870B59E6B5D6B1C
:104DE0007207044614D5690712D55A6B22F00402E3
:104DF0005A630422DA63D0F8A43043F00103C0F808
:104E0000A430002380F8A12080F8A030FFF7E2FF53
:104E1000B20716D5AB0714D523685A6B22F00202ED
:104E20005A630222DA63D4F8A4301343C4F8A430DE
:104E3000042384F8A130002384F8A0302046FFF733
:104E4000C9FFF00710D5E9070ED523685A6B22F089
:104E500001025A630122DA63002384F8A12084F856
:104E6000A0302046FCF7FEF9320711D52B070FD5ED
:104E700023685A6B22F008025A630822DA6301237E
:104E800084F8A130002384F8A0302046FFF7A3FF68
:104E900070BD2DE9F04190F8A030012B06460F4679
:104EA00094464FF002001FD04FF0010886F8A08012
:104EB00086F8A10034240D4604FB02640FCD38347B
:104EC0000FC40FCD0FC40FCD0FC42B682360304625
:104ED00062463946FFF78CFE33680020C3F8248011
:104EE00086F8A18086F8A000BDE8F08190F8A03097
:104EF000012B4FF0020312D080F8A13003685A6BE7
:104F000022F001025A63074A11645A6B42F001020F
:104F10005A63012380F8A130002380F8A03018469E
:104F2000704700BF006801402DE9F341044640B3DB
:104F30000368DD0710D4236898075ED423681A0736
:104F400000F1A08023685B0700F1C080A069002801
:104F500040F0288100202BE08F4B9A6802F00C0271
:104F6000042A07D09A6802F00C02082A0BD15A686A
:104F7000510208D5884B1B689A03DCD56368002B67
:104F8000D9D1012014E06268B2F5803F13D11A68CC
:104F900042F480321A60FEF75FFF7F4E05463368A9
:104FA0009B03C8D4FEF758FF401B6428F7D90320A1
:104FB00002B0BDE8F081784DB2F5A02F2B6807D183
:104FC00043F480232B602B6843F480332B60E2E7AB
:104FD00023F480332B602B6823F480232B60002A7A
:104FE000D9D1FEF739FF06462B689F03A3D5FEF7FC
:104FF00033FF801B6428F7D9D9E7674B9A6812F012
:105000000C0F07D09A6802F00C02082A11D15B68D5
:105010005E020ED4604A13689D0702D5E368012B37
:10502000AFD11368216923F0F80343EAC103136089
:1050300084E7E268594BB2B101221A60FEF70CFF17
:10504000554D06462B68980707D52B68226923F033
:10505000F80343EAC2032B6070E7FEF7FDFE801BF6
:105060000228EFD9A3E71A60FEF7F6FE4A4E05467E
:10507000336899077FF562AFFEF7EEFE401B02280A
:10508000F6D994E76269454B82B10122C3F8802EBC
:10509000FEF7E2FE404E0546736F9F073FF552AFA5
:1050A000FEF7DAFE401B0228F6D980E7C3F8802E0F
:1050B000FEF7D2FE384E0546736F98077FF542AF74
:1050C000FEF7CAFE401B0228F6D970E7324B1A6C75
:1050D00012F0805228D101921A6C42F080521A6468
:1050E0001B6C03F080530193019B01272C4D2B680F
:1050F000D9051BD5A368284D012B27D12B6F43F071
:1051000001032B67FEF7A8FE234E054641F28838BF
:10511000336F9B0739D5002F3FF418AF1E4A136C2D
:1051200023F08053136411E70027DFE72B6843F473
:1051300080732B60FEF790FE06462B68DA05D9D403
:10514000FEF78AFE801B0228F7D930E7052B04D131
:105150002B6F43F004032B67D0E72A6F22F0010284
:105160002A672A6F22F004022A67002BCAD1FEF7B1
:1051700073FE41F2883806462B6F9807CBD5FEF7B1
:105180006BFE801B4045F7D911E7FEF765FE401B1B
:105190004045BDD90BE700BF003802400000474240
:1051A00000700040364DAB6803F00C03082B3DD077
:1051B000344B002202281A662BD1FEF74DFE06461C
:1051C0002B6899011FD4D4E907321343626A43EA7A
:1051D0008213E26A43EA0263A26A5208013A43EA8E
:1051E00002436B60274B264D01221A66FEF734FE00
:1051F00004462B689A013FF5ADAEFEF72DFE001B6D
:105200000228F6D9D3E6FEF727FE801B0228D7D95D
:10521000CDE6FEF721FE04462B689B017FF59AAE92
:10522000FEF71AFE001B0228F6D9C0E601283FF45B
:10523000BFAE6B68E26903F4800191427FF4A1AED6
:10524000216A03F03F028A427FF49BAE616A47F60F
:10525000C0721A40B2EB811F7FF493AEA26A52086B
:1052600003F44031013AB1EB024F7FF48AAEE26AB7
:1052700003F07063B3EB026F3FF46CAE81E600BFE6
:105280000038024000004742134908B58B6803F01C
:105290000C03042B1CD0082B1CD14A684B684968AE
:1052A00013F4800314BF0D480D48C1F3881118BFD3
:1052B000002302F03F02A1FB0001FAF7E9FF064BD1
:1052C0005B68C3F3014301335B00B0FBF3F008BD3F
:1052D0000248FCE70248FAE70038024000127A0070
:1052E0000024F4002DE9F0410D46044610B90120D8
:1052F000BDE8F081444B1A6802F00F028A4228D3BD
:10530000226897072DD4D00741D43F4B1A6802F08A
:105310000F02AA4266D8226851076CD4130707D53A
:105320003A4A2169936823F4604343EAC1039360D6
:10533000FFF7AAFF354B364A9B68C3F30313D35CD0
:10534000D840344B1860344B1868FCF7E9FC002057
:10535000CEE7CAB21A701B6803F00F038B42C6D1A6
:10536000CEE72A4B12F0040F1EBF996841F4E051BA
:105370009960160742BF996841F4604199602349DA
:10538000A0688B6823F0F00303438B60BBE762687F
:105390001E4B012A1CD11B6813F4003FA7D01B4EE3
:1053A000B36823F003031343B360FEF755FD41F2E6
:1053B00088380746B368626803F00C03B3EB820FCA
:1053C000A3D0FEF749FDC01B4045F3D903208FE76A
:1053D000911E01291B6802D813F0007FDEE713F04D
:1053E000020FDBE7EAB21A701B6803F00F03AB424F
:1053F0007FF47DAF8FE70549E0688B6823F4E053C5
:1054000003438B608AE700BF003C02400038024043
:1054100074CD0108740000207C000020044B054A74
:105420009B68C3F38223D35C034A1068D84070475B
:105430000038024084CD0108740000200F2303606F
:105440000B4B9A6802F0030242609A6802F0F00285
:1054500082609A6802F4E052C2609B68DB0803F441
:10546000E0530361034B1B6803F00F030B607047AD
:1054700000380240003C0240036813F0430FF7B5C8
:10548000044640F08C80236813F00C0F45D08B4B02
:105490008B4D00221A67FEF7DFFC06462B689F0043
:1054A00000F1CF8021684E0715D5D4E90403D5F863
:1054B00088201B0602F0E04243EA80131343C5F83C
:1054C0008830D5F88C30226A23F4F853013A43EA45
:1054D0000223C5F88C300D0714D5794AA369D2F898
:1054E000881020691B0701F0706143EA80130B43A9
:1054F000C2F88830D2F88C30616A23F440330B4311
:10550000C2F88C306D4B6E4E01221A67FEF7A4FC78
:1055100005463368980040F19B8023689B0633D58D
:1055200000230193664B674D1A6C42F080521A6457
:105530001B6C03F080530193019B2B6843F4807331
:105540002B60FEF789FC06462B68D90540F1878061
:105550005B4D2B6F13F4407340F08880A36A03F413
:105560004072B2F5407F564A40F0A480916823F023
:10557000704021F4F81120F4407001439160116FE4
:10558000C3F30B030B431367206810F010001FBF19
:105590004D4B94F82C20C3F8E02100204FE0474BFE
:1055A000474E00229A66FEF757FC054633681F01F6
:1055B0003FD42168CD0741BFD4E901231B0743EA4B
:1055C0008213C6F88430880715D53D4AE368D2F8BF
:1055D000840065681B0600F0E04043EA851303433E
:1055E000C2F88430D2F88C00E36920F01F00013B40
:1055F0000343C2F88C3049060AD5E36862681B068B
:1056000043EA8213A26843EA02732D4AC2F8843047
:105610002A4B2B4E01229A66FEF71EFC0546336884
:105620001A013FF530AFFEF717FC401B0228F6D9F0
:1056300004E0FEF711FC401B0228B7D9032003B099
:10564000F0BDFEF709FC801B02287FF627AFF5E7C7
:10565000FEF702FC401B02287FF65BAFEEE7FEF789
:10566000FBFB801B02287FF66FAFE7E7A26A02F41C
:10567000407293423FF472AF2B6F104A0121C2F87F
:10568000401E23F440730021C2F8401E2B672B6F8D
:10569000DA077FF563AFFEF7DFFB41F28837064696
:1056A0002B6F9B073FF55AAFFEF7D6FB801BB84226
:1056B000F6D9C3E7916821F4F8115FE7000047428B
:1056C00000380240007000400010474238B50D46D7
:1056D0000446C8B190F82C3003F0FF021BB980F8E3
:1056E0002D20FCF7B1FA022384F82C30211D20680C
:1056F00000F004FD62682068294600F03AFD0123AD
:1057000084F82C30002038BD0120FCE770B590F8FB
:105710002C30022B05460E46D8B212D000F0FB0406
:10572000012C0FD1022385F82C30286800F057FD9A
:105730003368022B06BF052385F82C3085F82C40F2
:10574000002070BD0120FCE738B590F82C30022B0A
:105750000446D8B20DD094F82C30012BDDB209D11B
:105760000223206884F82C3000F05FFD84F82C5070
:10577000002038BD0120FCE72DE9F3411D46174606
:1057800088460646FEF768FB3D442C1AFEF764FB8C
:10579000224B1B68C3F3CB33054663433268019346
:1057A000936838EA030301D000202DE07B1CF7D07A
:1057B000FEF752FB401BA04229D333685A6822F0FF
:1057C000E0025A607268B2F5827F0AD1B268B2F51F
:1057D000004F02D0B2F5806F03D11A6822F0400268
:1057E0001A60B26AB2F5005F07D11A6822F400525B
:1057F0001A601A6842F400521A60012386F8513088
:10580000002386F85030032002B0BDE8F081019BF0
:10581000002B019B08BF0024013BBFE77400002060
:1058200038B513464268B2F5827F04461FD18268BC
:10583000B2F5004F02D0B2F5806F07D12568286815
:10584000B2F5806F20F04000286007D00A46802122
:105850002046FFF791FF20B9002038BD0A460121FC
:10586000F6E7636D43F0200363650320F5E70A461E
:105870000121EEE737B51346124A1568124AB5FB07
:10588000F2F54FF47A72554342680195B2F5827F82
:1058900004460BD10A468021FFF76EFF78B1636D95
:1058A00043F020036365032003B030BD019B33B197
:1058B000019B013B019323689B681B06F6D40020E3
:1058C000F2E700BF7400002000366E0110B50446F8
:1058D000002855D0436A002B4ED14268B2F5827F32
:1058E00000D0C3610023A36294F8513003F0FF029B
:1058F00023B984F850202046FCF770F92168A0688D
:10590000A269022384F851300B6823F040030B6036
:10591000636800F4044003F482730343E06800F416
:1059200000600343206900F002000343606900F057
:105930000100034302F400700343E06900F0380003
:105940000343206A00F080000343A06A00F4005083
:1059500003430B60636A120C03F0100302F00402AD
:105960001A434A60CB6923F40063CB610020012312
:10597000606584F8513010BD0023C0E90433B1E7FD
:105980000120F8E72DE9F3411E4690F85030012B35
:1059900004460D46174600F0A180012380F85030E0
:1059A000FEF75AFA94F85130012B8046D8B240F0F5
:1059B0009380002D5ED0002F5CD0A2682563032366
:1059C00084F85130B2F5004F4FF000036365C4E92D
:1059D0001033E786A363A387E387A786236807D1ED
:1059E0001A6822F040021A601A6842F480421A6073
:1059F0001A68E16852065EBF1A6842F040021A60F7
:105A0000B1F5006F626841D10AB1012F07D135F8B5
:105A1000022BDA602563E38E013B9BB2E386E38EC3
:105A20009BB2A3B9424631462046FFF723FF002828
:105A30004FD1A36833B901932368DA6801929B6858
:105A40000193019B606D003818BF012012E02268AD
:105A50009368980705D5236B33F8021BD160236345
:105A6000D9E7FEF7F9F9A0EB0800B0420BD3711C9F
:105A7000D5D00320012384F85130002384F850301E
:105A800002B0BDE8F081002EC9D1F2E70AB1012FC2
:105A900008D12A781A73236B01332363E38E013B09
:105AA0009BB2E386E38E9BB2002BBBD023689A683F
:105AB000920702D5226B1278ECE7FEF7CDF9A0EB46
:105AC0000800B04202D3731CECD0D2E7002EE9D11B
:105AD000CFE720236365ACE70220CBE70220CFE7C6
