:020000040800F2
:100000000000032095050008D11D0008D31D00083D
:10001000D51D0008D71D0008D91D000800000000EC
:1000200000000000000000000000000091790008BE
:10003000DB1D000800000000217A0008B7720008EC
:10004000E5050008E5050008E5050008E5050008E8
:10005000E5050008E5050008E5050008E5050008D8
:10006000E5050008E5050008E5050008E5050008C8
:10007000E5050008E5050008E5050008E5050008B8
:10008000E5050008E5050008E5050008E5050008A8
:10009000E5050008E5050008E5050008E505000898
:1000A000E5050008E5050008E5050008E505000888
:1000B000E5050008E5050008E5050008E505000878
:1000C000E5050008E5050008E5050008E505000868
:1000D000E5050008E5050008E5050008E505000858
:1000E000E5050008E5050008E5050008E505000848
:1000F000E5050008E5050008E5050008E505000838
:10010000E5050008E5050008E5050008E505000827
:10011000E5050008E5050008DD1D0008E505000807
:10012000E5050008E5050008E5050008E505000807
:10013000E5050008E5050008E5050008E5050008F7
:10014000E5050008E5050008E5050008E5050008E7
:10015000E5050008E5050008E5050008E5050008D7
:10016000E5050008E5050008E5050008E5050008C7
:10017000E5050008E5050008E505000800000000A9
:10018000E5050008E5050008E5050008E5050008A7
:10019000E5050008E5050008E5050008E505000897
:0C01A000E91D0008E5050008F51D000839
:1001B00010B5054C237833B9044B13B10448AFF3A1
:1001C00000800123237010BD6401002000000000A6
:1001D00064D7010808B5034B1BB103490348AFF3CB
:1001E000008008BD000000006801002064D70108FD
:1001F00001F0FF01102A2BDB10F0070F08D010F8D8
:10020000013B013A8B422DD010F0070F42B3F6D1DB
:10021000F0B441EA012141EA014122F007047FF0F4
:1002200000070023F0E80256083C85EA010586EA4B
:10023000010685FA47F5A3FA87F586FA47F6A5FA87
:1002400087F68EB9EED1F0BC01F0FF0102F0070293
:1002500032B110F8013B013A83EA010313B1F8D13E
:100260000020704701387047002D06BF354603381F
:10027000073815F0010F07D1013015F4807F02BF58
:10028000013015F4C03F0130F0BC0138704700BFA9
:1002900053B94AB9002908BF00281CBF4FF0FF31ED
:1002A0004FF0FF3000F074B9ADF1080C6DE904CEE9
:1002B00000F006F8DDF804E0DDE9022304B0704741
:1002C0002DE9F047089D04468E46002B4DD18A4209
:1002D000944669D9B2FA82F252B101FA02F3C2F13C
:1002E000200120FA01F10CFA02FC41EA030E9440CD
:1002F0004FEA1C48210CBEFBF8F61FFA8CF708FBEE
:1003000016E341EA034306FB07F199420AD91CEBC5
:10031000030306F1FF3080F01F81994240F21C81F7
:10032000023E63445B1AA4B2B3FBF8F008FB10333F
:1003300044EA034400FB07F7A7420AD91CEB040474
:1003400000F1FF3380F00A81A74240F20781644444
:10035000023840EA0640E41B00261DB1D4400023C9
:10036000C5E900433146BDE8F0878B4209D9002D2D
:1003700000F0EF800026C5E9000130463146BDE8B7
:10038000F087B3FA83F6002E4AD18B4202D3824221
:1003900000F2F980841A61EB030301209E46002DD0
:1003A000E0D0C5E9004EDDE702B9FFDEB2FA82F225
:1003B000002A40F09280A1EB0C014FEA1C471FFA83
:1003C0008CFE0126200CB1FBF7F307FB131140EA6A
:1003D00001410EFB03F0884208D91CEB010103F137
:1003E000FF3802D2884200F2CB804346091AA4B2F9
:1003F000B1FBF7F007FB101144EA01440EFB00FECD
:10040000A64508D91CEB040400F1FF3102D2A64531
:1004100000F2BB800846A4EB0E0440EA03409CE7D0
:10042000C6F12007B34022FA07FC4CEA030C20FA7D
:1004300007F401FA06F31C43F9404FEA1C4900FA9D
:1004400006F3B1FBF9F8200C1FFA8CFE09FB18111A
:1004500040EA014108FB0EF0884202FA06F20BD98D
:100460001CEB010108F1FF3A80F08880884240F2DD
:100470008580A8F102086144091AA4B2B1FBF9F021
:1004800009FB101144EA014100FB0EFE8E4508D91C
:100490001CEB010100F1FF346CD28E456AD90238A1
:1004A000614440EA0840A0FB0294A1EB0E01A14286
:1004B000C846A64656D353D05DB1B3EB080261EBF4
:1004C0000E0101FA07F722FA06F3F1401F43C5E9CE
:1004D000007100263146BDE8F087C2F12003D84004
:1004E0000CFA02FC21FA03F3914001434FEA1C4746
:1004F0001FFA8CFEB3FBF7F007FB10360B0C43EA38
:10050000064300FB0EF69E4204FA02F408D91CEBE7
:10051000030300F1FF382FD29E422DD902386344E5
:100520009B1B89B2B3FBF7F607FB163341EA034185
:1005300006FB0EF38B4208D91CEB010106F1FF38D4
:1005400016D28B4214D9023E6144C91A46EA0046CB
:1005500038E72E46284605E70646E3E61846F8E65D
:100560004B45A9D2B9EB020864EB0C0E0138A3E7A6
:100570004646EAE7204694E74046D1E7D0467BE787
:10058000023B614432E7304609E76444023842E7FF
:10059000704700BFDFF834D0002103E00C4B5B58FC
:1005A000435004310B480C4B42189A42F6D30B4A85
:1005B00002E0002342F8043B094B9A42F9D304F0CD
:1005C00053FC1CF069F800F0EBFE704700000320BC
:1005D0007C1D090800000020640100206401002047
:1005E000F4790120FEE7704708B500F023FDBDE86F
:1005F000084000F0ABBC00F01FBD704710B50421EF
:1006000004461BF02FFA204610BD000038B50C4BF5
:100610000C4C18800C4B822019806368984740F678
:10062000110398420AD1094D23682C608220984713
:100630002B688220DB689847002038BD0120FCE74A
:10064000800100204C000020820100208401002055
:100650004FF4A071F020FFF7D9BF0000F7B52D4D82
:100660002B6804461B698220984780B220800028AE
:1006700043D02B680DF106025B6901A982209847DF
:10068000BDF80620A2F5B47292B20A2A37D90B231C
:10069000B2FBF3F2204B1B889A4201D9013B9AB27C
:1006A000BDF8043040F6B8318B422AD8C3F57163E7
:1006B0000E339BB20F21B3FBF1F3184909888B422B
:1006C00001D94B1E9BB2164E164D30682F688342DF
:1006D00081B28CBF591AC91AB8B2BA428CBF101A6B
:1006E000801A89B280B201440529C8BF33603368DB
:1006F000C8BF2A6063802B68A38003B0F0BD0022CE
:10070000CEE7C3F56D6308339BB20E2BD2D800231E
:10071000D9E700BF84010020820100208001002071
:10072000880100208C01002037B568460D4614462C
:10073000FFF794FFBDF8000030B1BDF802302B6028
:10074000BDF804302360012003B030BD032821D858
:10075000DFE800F0020B12190F4B1A68B2FA82F2AE
:10076000520904210D4804F017BE0B4B5A68B2FA27
:1007700082F252090821F5E7074B9A68B2FA82F231
:1007800052091021EEE7044BDA68B2FA82F25209FC
:100790002021E7E7704700BF9001002000100240D1
:1007A000032821D8DFE800F0020B12190F4B1A685A
:1007B000003A18BF012204210D4804F0EDBD0B4B97
:1007C0005A68003A18BF01220821F5E7074B9A68DA
:1007D000003A18BF01221021EEE7044BDA68003A14
:1007E00018BF01222021E7E7704700BF90010020D9
:1007F0000010024003280DD8DFE800F00206080AC6
:100800000421054804F0CDBD0821FAE71021F8E7DE
:100810002021F6E7704700BF0010024008B503280A
:1008200011D8DFE800F0020A0C0E0421074804F09A
:10083000ADFD431E5842584108BD0821F6E710217E
:10084000F4E72021F2E70020F3E700BF00100240A8
:1008500070B5084D00240126E0B2FFF7DFFF18B1A4
:100860002B68012B18BF2E600134052C05F10405FF
:10087000F2D170BD90010020012380F8741080F83F
:100880007530704700207047034B4164003918BF32
:1008900001211970704700BF4F7701200020704779
:1008A000836B0BB10846184770474FF6FF707047CF
:1008B000406803689B69184770477047704700009D
:1008C00070B5044600F086FC2368D3F88850044BCA
:1008D000D4E90F122046AC46BDE87040604700BF27
:1008E000000000D008B503680446D3F8803098476C
:1008F000236820469B6F984700F0ECF82368204659
:100900001B6F9847292000F083FF00F0E3F823686D
:1009100020461B6F9847F8E710B5044609F020FE03
:1009200023682046D3F8AC30BDE81040184700F0EB
:1009300043BC00F047BC00F073BC00F019BC00F0F1
:100940007BBC00F083BC00F01DBC09F06FB810B593
:100950007C2104461BF086F8204610BD90F87730C5
:100960001BB1406803681B681847184670470000B1
:1009700010B590F8341090F874400C4B8C421A78F3
:1009800009D03AB90A4A0B491488088810800C80AB
:1009900001221A7010BD002AFCD0054A05491488AE
:1009A000088810800C800022F3E700BF4877012000
:1009B000447701204677012070B50D46194635B9B8
:1009C000094B0A4A0A4840F2D2211BF01BFEC0E93B
:1009D0000F52084B003A18BF01221A700368BDE895
:1009E0007040D3F88C30184724D801085CD801082F
:1009F000AAD801084E77012008B5094B1B888B4205
:100A000003D8084B1B88934205D9074B074A08486F
:100A10009E211BF0F7FD074B1980074B1A8008BD7C
:100A20004477012046770120EFD8010852D9010808
:100A3000AAD801084A7701204C770120012108B586
:100A40000022084606F0C5FC0A4B186028B90A4B7C
:100A50000A4A28210A481BF0D5FD00220421012062
:100A600006F054FD074B186018B9074B034A2C21B8
:100A7000F0E708BDA401002070DA0108B9DA010826
:100A8000E8DA0108A00100205CDB0108024B4FF00E
:100A9000FF31186806F0E7BCA4010020014B18687C
:100AA00006F00CBDA4010020024B0021186806F0DE
:100AB000DABC00BFA4010020FFF7F0BF03480449DF
:100AC000006800231A4606F05CBD00BFA0010020AC
:100AD0000400002013B5084C00231A4601A9206821
:100AE00006F07FFD20684FF0FF33002201A906F0D9
:100AF00078FD02B010BD00BFA001002003685B6C50
:100B000018470120704703689B6A184782B000238A
:100B100001930D4B1A6B42F400021A631A6B02F434
:100B200000020192019A1A6942F400021A611A69DC
:100B300022F400021A61054B054A1A61054B4FF079
:100B400080629A6002B07047003802404C67002013
:100B5000990B000800E100E040F2EF307047000020
:100B6000054B0360054B4FF08062C3F88820BFF34C
:100B70004F8FBFF36F8F704720DD010800E100E069
:100B800010B504464FF45A61FFF7EAFF20461AF009
:100B900069FF204610BD0000024B1B6858680368BF
:100BA0005B6918475077012070B5044625460A4B0B
:100BB0000C30002660602672667245F8203B602289
:100BC000294609F00BFE04F55A63EE602435AB426A
:100BD000FBD1204670BD00BF20DD010808B50B2900
:100BE0000BD8DFE801F01206100A0A0A0A08080802
:100BF0000808012008BD0520FCE7054B054A06480A
:100C000066211BF0FFFC0020F4E70220F2E700BFA2
:100C10009EDB0108B9DB010803DC010808B50A29DD
:100C200009D8DFE801F010060E08080808060606D5
:100C30000600012008BD054B054A064887211BF028
:100C4000E1FC0020F6E70220F4E700BF9EDB01088C
:100C500075DC010803DC01082DE9F8434F7F0C46E1
:100C600039468146FFF7BAFF94F81E800546414693
:100C70004846FFF7B3FF414606464846FFF7CEFF1A
:100C8000A18A628B424B521A1A649A61228B521AC1
:100C90001A61E28A586342EA01425A642069626832
:100CA000D863DA60216894F81CC080294FEA0C628E
:100CB00026D010D8202945EA020461D040295FD00F
:100CC00004295DD0324B2A4342F400324745DA61B1
:100CD0005AD0304A40E0B1F5807F07D0B1F5007FAF
:100CE000F0D142F4003242F0090203E042F4003253
:100CF00042F00A02DA61E2681A625E6258612AE032
:100D0000A4682A4342F40032211DD962DA612278B4
:100D10005E62586142B1012A21D01F4B1F4A204810
:100D200040F211111BF06EFCDA69618822F47F42F7
:100D3000013922F0100242EA0122DA610120144B4B
:100D4000DA6942F02002DA61DA699206FCD41022F4
:100D50009A600028BDD0134A1A60BDE8F883628803
:100D6000D969541E21F47F4222F0100242EA042283
:100D7000BCF1FF0042F0100218BF0120DA61DEE78B
:100D800044F40034DC61B8E740F20122E4E700BF3C
:100D900000B0024001020100C0DC0108DADC0108F9
:100DA00003DC01080102020070B50C46897FFFF7E1
:100DB00035FFA68AE18A628B154B2569586341EAA3
:100DC0000641921B5964DD631A642668E168082EA7
:100DD0000DD19A611A615862207F0E4A42EA006280
:100DE000DA610D4A19625D61DD601A6070BD002232
:100DF000D8611A6148090A0A02F4784200F4FC60DA
:100E00000243C1F3C4010A439A63044AEDE700BFF9
:100E100000B00240090001000102020001020300CB
:100E2000012070470C2070470C2303FB01000830A1
:100E300070470C2303FB0100083070470120704706
:100E400045F24050704745F2405303FB0100083023
:100E5000704745F2405303FB010008307047012002
:100E600070471020704700EB01100830704700EB0E
:100E7000011008307047084601F09EB910B5034BC9
:100E80000360044608F029FB204610BDD8DD0108A8
:100E900010B50446FFF7F2FF204614211AF0E2FDD8
:100EA000204610BD10B5034B0360044608F015FB47
:100EB000204610BDA4DD010810B50446FFF7F2FF7F
:100EC000204645F248511AF0CDFD204610BD0000E5
:100ED00010B5034B0360044608F0FFFA204610BD2E
:100EE00070DD010810B50446FFF7F2FF2046182117
:100EF0001AF0B8FD204610BD10B5094B036004463A
:100F000000F5AA407430FFF7B9FF04F12C00FFF799
:100F1000C9FF04F11400FFF7DBFF204610BD00BF3E
:100F20000CDE010808B50248FFF7E6FF08BD00BF68
:100F3000AC01002010B50446FFF7DEFF204645F265
:100F4000E8611AF08FFD204610BD00002DE9F34145
:100F500000F0BEFF054600F0BFFF00240146234617
:100F60002846224600940EF071FF264B264A274D54
:100F70001A60204601F032FD25480EF0CFFE2B7896
:100F8000BFF35B8FDB0736D428461AF06DFD90B3B4
:100F9000204C214F214B236007F1140604F114006B
:100FA00004F12C086060C4F80880E760266108F04E
:100FB00095FA1B4B6361404608F090FA194BE362C7
:100FC000384608F08BFA04F5A043174AC3F8742595
:100FD00003F2E4612246304601F066FF07F5B8707F
:100FE00002F027FA304601F0E7F810481BF028FB22
:100FF00028461AF045FD0E4802B0BDE8F041FFF763
:101000005FBC00BFAC770120B4660020A8010020BF
:1010100008000020AC010020205700200CDE010851
:1010200070DD0108A4DD0108D8DD0108250F0008E6
:1010300038660020704700000148FFF753BC00BF2E
:101040003866002070B5234C234E244B244D23607A
:101050003046FFF7A9FD284612F002F8214B22483E
:10106000DC60224C03600022F0204FF4807120806D
:10107000C3E912121E4C1F492080C3E919121E4CED
:101080001A864FF080714FF4A07059670121C3E9AF
:101090000422C3E90622C3E90822C3E90A22C3E9FC
:1010A0000E22C3E91022C3E91422C3E916221A66EC
:1010B00083F86C201A67C3E9016583F878102080F3
:1010C0000E4C83F8341020800D4802700D4A1A60CF
:1010D00070BD00BF945800209858002014D8010813
:1010E000B866002038660020507701204477012040
:1010F0004A77012001000001467701204C7701204A
:1011000048770120A0D901080148FFF729BD00BF99
:10111000985800200020704781807047C180704738
:101120000181704741817047704770477047704731
:10113000704710B4C4880368121B84885B6D091B58
:1011400012B25DF8044B09B218474FF6FF73838162
:101150004FF0FF3303621368C3611060704790F86B
:1011600025201AB190F8242002B1186070470000C1
:10117000034B902283F85A2383F85823704700BF0B
:1011800000E100E0094A0A49D3680A48C3F30A03A8
:10119000013B9BB20B801169C1F30A010139018047
:1011A0001364536B43F001035363704700680140BD
:1011B0003467002032670020014BD3F8AC00704741
:1011C00000680140024B0122C3F8AC105A6270471C
:1011D0000068014070B5044608F07DFC23685D6E30
:1011E0000BF030FD01462046A8472368054AD3F896
:1011F00088502046AC460023BDE87040A2F5163169
:10120000604700BF00B004D008F04CBC90F84B30F1
:1012100013B1024B01221A7008F050BC3067002055
:1012200008F00ABC08F065BD90F8252012B10368EB
:101230005B69184770470000034B4FF080629A606B
:101240004FF080729A60704700E100E0084B4FF069
:101250008062C3F88820BFF34F8FBFF36F8F4FF0CA
:101260008072C3F88820BFF34F8FBFF36F8F704732
:1012700000E100E010B5144C236823B3134B144A6B
:101280001B6C11888B4213D1124B198804F06AFE33
:10129000226892F86630013382F86630FFF70EFC60
:1012A000206809F05DF9BDE810400020FFF74EBA54
:1012B00004F058FE206803681B6A9847BDE8104098
:1012C0000020FFF76DBA10BD507701200068014083
:1012D000346700203267002007B5064BADF80600E2
:1012E0001B68054801220DF1060105F087FB03B0DC
:1012F0005DF804FB10000020BC68002008B56420E5
:1013000006F05BF8FBE7000030B595B01022002135
:101310000AA81BF003FA1422002103A81BF0FEF90F
:1013200000241D4B01941A6C42F080521A641B6C0D
:1013300003F080530193019B184B02941A6842F406
:1013400040421A601B6803F4404302930122029B4F
:101350004FF48033CDE9082302254FF48003CDE913
:101360000E5308214FF4A873CDE9101308A80423E5
:101370001393129504F014FE0F23CDE903354FF4B7
:10138000A0504FF48053CDE90603052103A805942E
:1013900004F0E4FF15B030BD00380240007000409A
:1013A00080B59AB003F06EFDFFF7AEFF1422002166
:1013B0000DA800241BF0B2F9C04B00941A6BC04872
:1013C000C04D42F010021A631A6B02F01002009234
:1013D000009A01941A6B42F020021A631A6B02F011
:1013E00020020192019A02941A6B42F080021A6361
:1013F0001A6B02F080020292029A03941A6B42F076
:1014000004021A631A6B02F004020392039A049412
:101410001A6B42F001021A631A6B02F00102049285
:10142000049A05941A6B42F002021A631A6B02F0D6
:1014300002020592059A06941A6B42F040021A6362
:101440001A6B02F040020692069A07941A6B42F059
:1014500008021A631B6B03F00803079322463C2122
:10146000079B03F099FF98482246042103F094FF5C
:10147000224696484FF4405103F08EFF01264FF06C
:1014800003083C238E48CDF840800DA902274FF079
:101490000409CDE90D360F9403F092FE8A480F94AB
:1014A0000DA9CDE90D96109703F08AFE0DA94FF412
:1014B00040538648CDE90D36CDE90F4703F080FE55
:1014C0008348844B036003F06FFD834A834B2C6297
:1014D000C5E9002328464FF48043C5E90434C5E933
:1014E0000244C5E9064404F041F91021284604F0FD
:1014F0007DFB2146284604F098FB794879498462AF
:101500004FF48273C0E900134FF400751823C0E94B
:1015100006530A23744DC362C0E90244C0E904447F
:10152000C0E9084405F00EFA704B0D974FF0100C0F
:10153000C5E900364023C5E904C34FF4C073C5E9CB
:1015400006344FF40063C5E908344FF40053AB622E
:101550000DA907232846CDE90E39CDE910384FF003
:10156000080AC5E90249CDE9127705F0EBF84FF614
:10157000FF7209A92846CDE90AA6089409960C9499
:1015800005F000F9304603F0A9FC4FF6FF7209A9F7
:101590002846CDE9097ACDE90B6405F0F3F84FF65A
:1015A000FF7209A92846CDE9098ACDE90B9405F017
:1015B000E9F84FF40C730893089B0C934FF6FF72F5
:1015C00009A92846CDE9099A0B9605F0DBF840F207
:1015D0006A51284605F0F4F8342221460DEB02004A
:1015E0001BF09CF8424D434BAC86C5E900340923FF
:1015F000C5E905361D2340F20D1EC5E9073840F246
:101600004313C5E909E3284640F2471340F217188F
:10161000C5E90B83C5E902442C6185F8364004F026
:10162000A9FBFF21F022CDE912144FF480690521B6
:101630004FF4A073CDE90E24CDE91491CDE9164203
:101640000DA922462846CDE910372B4D18930D944D
:10165000ADF864408DF8664004F057FC274B2B60D2
:101660001B6898472B68264DDB689847254BC5E9D2
:101670000A47C5E90C442846C5E90034C5E90274A7
:1016800003F0A2FC3146284603F056FDFEF7ACFFFE
:10169000FEF7A9FF1C4A1D48214605F045FE1C4BDC
:1016A0001C4A186021461C4805F03EFE1B4B186082
:1016B00005F00EFE05F01EFEFEE700BF00380240FA
:1016C000001002408C67002000080240000C02401D
:1016D0004467002000300240005C0040A08601000A
:1016E000BC6800200050014088680020400100A034
:1016F000E0670020006801403C67002014000020E3
:101700004C67002000B0024054DE0108FD120008C2
:101710004067002030DE0108F70500083867002028
:10172000704770477FB5094B8DF817201B680293EF
:101730000DF117020123009201930A460146044865
:1017400004F0BCF807B05DF804FB00BF0C000020FB
:101750008C6700207FB500238DF81730084B1B687D
:1017600002930A4601230DF11701009101930146EE
:10177000044804F033F99DF8170007B05DF804FB46
:101780000C0000208C6700201FB5084C24680092D4
:10179000CDE901340A4601230146054804F01EF94B
:1017A000003818BF012004B010BD00BF0C0000209D
:1017B0008C67002003F092BB08B506480022042184
:1017C00003F0EAFDBDE8084002480122042103F0CD
:1017D000E3BD00BF0008024038B50B4D04460122AE
:1017E0000A484FF4005103F0D7FD00220421284697
:1017F00003F0D2FD2046FFF76FFD28460122BDE829
:101800003840042103F0C8BD00080240000C02402B
:1018100038B50B4D044600220A484FF4005103F03E
:10182000BBFD00220421284603F0B6FD2046FFF749
:1018300053FD28460122BDE83840042103F0ACBD29
:1018400000080240000C0240F7B5144E144F054644
:101850000C4630460022042103F09EFD00224FF486
:101860000051384603F098FD2846FFF735FD0D4B33
:101870000D481B68224601A905F062FA384601228C
:101880004FF40051019C03F087FD304601220421F2
:1018900003F082FD204603B0F0BD00BF0008024007
:1018A000000C024010000020BC68002003F016BBB2
:1018B0000268034B9A4201D103F0FEBA704700BFA1
:1018C000001000407047000082B00E4B00220092D2
:1018D000596C41F480415964596C01F48041009184
:1018E00000990192196C41F0805119641B6C03F04E
:1018F00080530193019B0F216FF0010002B003F0B0
:1019000013BB00BF003802400268094B9A4282B004
:101910000BD100230193074B1A6B42F480521A63D8
:101920001B6B03F480530193019B02B0704700BF0F
:10193000003002400038024007B50F4B02689A425F
:1019400016D10022A3F5F0430192196B41F4000176
:1019500019631B6B03F40003019305215A20019BBB
:1019600003F0E2FA5A2003B05DF804EB03F00EBB7B
:1019700003B05DF804FB00BF00B002402DE9F04366
:10198000044689B01422002103A81AF0C7FE226879
:10199000244B9A4243D1244C244800250095236BC4
:1019A00043F004032363236B03F004030093009BC1
:1019B0000195236B43F001032363236B03F00103C1
:1019C0000193019B4FF012094FF400734FF001088F
:1019D0000327042603A9CDE90339CDE90587079636
:1019E00003F0EEFB4FF480731148079603A9CDE98D
:1019F0000339CDE9058703F0E3FB0295236C43F43B
:101A000000032364236C03F400030293029B236A04
:101A100043F400032362236A23F40003236209B022
:101A2000BDE8F083005C004000380240000802403E
:101A300000000240F0B599B004461422002107A826
:101A40001AF06CFE30220DEB020000211AF066FE47
:101A500022685E4B9A4240F0B78008230C93C02363
:101A60001093042312930CA84FF40033159304F041
:101A70003FFD08B1FFF726FF554B56480024009460
:101A80005A6C42F080625A645A6C02F08062009292
:101A9000009A01941A6B42F020021A631A6B02F04A
:101AA00020020192019A02941A6B42F001021A6319
:101AB0001A6B02F001020292029A03941A6B42F02E
:101AC00002021A631A6B02F002020392039A049450
:101AD0001A6B42F040021A631A6B02F04002049241
:101AE000049A05941A6B42F004021A631A6B02F00E
:101AF00004020592059A06941A6B42F008021A63D2
:101B00001B6B03F00803069302250E26069B0B961B
:101B10004FF4806307A9CDE90735CDE9094503F006
:101B20004FFB41F658032C480B9607A9CDE9073522
:101B30000927CDE9094503F043FB032327480B9709
:101B400007A9CDE90735CDE9094503F039FB4FF485
:101B5000706322480B9607A9CDE90735CDE9094501
:101B600003F02EFB4FF40C631D480B9607A9CDE93B
:101B70000735CDE9094503F023FBC02319480B962F
:101B800007A9CDE90735CDE9094503F019FB08237D
:101B900015480B9607A9CDE90735CDE9094503F0AE
:101BA0000FFB4FF4A0530E480B9707A9CDE907355B
:101BB000CDE9094503F004FB58202246052103F036
:101BC000B3F9582003F0E2F919B0F0BD0068014004
:101BD00000380240001402400000024000040240AD
:101BE0000018024000080240000C024010B50446F4
:101BF00088B01422002103A81AF090FD2268144B2B
:101C00009A4223D103F56843002101915A6C11488F
:101C100042F480125A645A6C02F480120192019AC2
:101C200002911A6B42F020021A631B6B03F020032F
:101C30000293029B4FF4607202230321CDE9032338
:101C40000523CDE9061303A903F0BAFA08B010BDC5
:101C500000500140001402402DE9F04186B00023FD
:101C600003932B4B1C68002C4FD14FF00108C3F895
:101C70000080284B00949A6B274842EA08029A6336
:101C80009B6B03EA08030093022703260C25009BA5
:101C900001A94FF63F03CDE90137CDE9046503F013
:101CA0008FFA1E48059501A9CDE90187CDE90346C4
:101CB00003F086FA48F233131948059501A9CDE9D6
:101CC0000137CDE9034603F07BFA4FF683731548DD
:101CD000059501A9CDE90137CDE9034603F070FA76
:101CE0004CF203731048059501A9CDE90137CDE900
:101CF000034603F065FA60230C48059501A9CDE978
:101D00000137CDE9034603F05BFA06B0BDE8F08188
:101D1000146900200038024000140240000802400C
:101D20000018024000100240000C02400004024073
:101D300070B588B000230293204B1A6C42F0100259
:101D40001A641B6C03F010030293054601A903A853
:101D5000029B04F0AFFB069B4BBB04F09BFB184EB1
:101D6000184B336040F2E733F360174BB0FBF3F3EB
:101D7000013B7360304600233361B360B36105F00B
:101D8000CBF9044680B9304605F080F8044658B9CE
:101D9000362003F0FBF80F2D0DD8224629463620B9
:101DA00003F0C2F8094B1D60204608B070BD04F076
:101DB00071FB4000D3E70124F6E700BF0038024082
:101DC000186900200010004040420F007C000020F5
:101DD0007047FEE7FEE7FEE7FEE77047014805F0C3
:101DE00093B800BF18690020014804F031B800BF63
:101DF000E0670020014803F015B900BF4C670020E0
:101E00000120704708B51AF02FFC162303604FF02D
:101E1000FF3008BD08B51AF027FC16230360FEE763
:101E200070B50D4614460E46731B9C4201DC2046DD
:101E300070BDAFF3008006F8010BF5E770B50D46F5
:101E400014460E46731B9C4201DC204670BD16F8FA
:101E5000010BAFF30080F5E74FF0FF3070474FF410
:101E600000534B60002070470120704700207047EE
:101E70000A4A116808B5034609B909491160106892
:101E8000694603448B4206D91AF0EEFB0C2303602B
:101E90004FF0FF3008BD1360FCE700BF6069002011
:101EA000F8790120704710B50421044619F0DAFDD5
:101EB000204610BD08B519B1012905D0002008BD84
:101EC00000F0D8FD0068FAE700F0D4FD4068F6E7BE
:101ED000004870478CDE01081020704713B50024BD
:101EE00051B1036801948DF8034001AA9C680DF17B
:101EF0000303A04702B010BD0846FBE7C089704746
:101F0000008A7047C088704780887047807A00F0E8
:101F10007F007047807AC0097047704710B508216C
:101F2000044619F09FFD204610BD7047704700F52C
:101F300098730868496803C37047704770474160E9
:101F400070477047064BC0F84C310023C0F8503141
:101F500000F5A273C0F84801C0F84031704700BFD7
:101F6000052000080123037270477047704710B4C2
:101F7000C26841685410034601EB6200D20748BFB3
:101F80000A599B685DF8044B48BFD358184743680B
:101F90002BB183682BB9C06800F001007047184668
:101FA00070470120704710B50C21044619F05AFD06
:101FB000204610BD10B51021044619F053FD2046EF
:101FC00010BD10B54FF4AE71044619F04BFD20461C
:101FD00010BD08B50AF036FEBDE808400BF0C4BAE3
:101FE00010B50446D0F8400158B10368DB68984743
:101FF00038B1D4F8400103689B6898470023C4F8BF
:10200000403110BD2DE9F14FD0E9555A0746A86877
:1020100003681B6A984745F23F53984205D8464BE0
:10202000464AA32146481AF0EDFA686803681B6A1D
:1020300098470F2803D8434B404AA421F2E7E868A9
:1020400003681B6A98470B2803D83F4B3B4AA521DE
:10205000E8E70AF0F7FDDFF8F89004300AF030FE08
:10206000D9F8000010B10368DB689847D9F8000080
:1020700010B103681B689847DFF8D880D8F80000D3
:1020800010B103685B699847D7F83C0110B1036849
:102090005B689847D8F8000010B103681B68984740
:1020A000D7F83C0110B103689B689847E86803685B
:1020B00000215B6A98474FF0000B244B03600446F5
:1020C000C0F804B080F808B0A868036859465B6A95
:1020D0009847064600F0B6FF6868036859465B6A91
:1020E00098473146054600F0F7FEC9F80040C7F8AA
:1020F0003C51C8F80060E5B12B1DCAF800303368C8
:10210000C5F808A03046DB68F56398472B68284679
:102110001B689847214630460CF062FA2368204637
:102120001B69984723685B69204601B0BDE8F04F02
:1021300018472B46E1E700BFDCDF01086AE0010831
:1021400068E10108AFE1010852E2010864E3010817
:10215000907701208C770120F8B5044617460E468B
:102160000AF07CFE104B0025C4E955760F4E1C602A
:10217000C4E953550E4B306823600E4BC4E951350A
:10218000036801219B68C4E94F559847284600F031
:1021900025FC336893F876200AB1D86C00B99868AA
:1021A00012F045FD2046F8BD9C77012050770120B4
:1021B00018E3010800E30108064BC0F84C31002386
:1021C000C0F8503100F5A273C0F84801C0F84031A2
:1021D000704700BF05200008406A7047806A70475A
:1021E00070478B88C0690A68DB0A50F823001044E6
:1021F000704710B5C2B1137BB3B1547BD27A2402BD
:1022000004F4E0641443026A98B202EB8402138877
:102210008B4202D192F9020010BD05D8013880B27C
:1022200004320028F3D1F7E70020F5E710B52C21A0
:10223000044619F017FC204610BD000030B58BB0E5
:102240000446BDF860500895BDF85C5007959DF8B0
:10225000505006959DF84C5005959DF848500495B2
:102260009DF8445003959DF8405002959DF83C50D0
:102270000195BDF8385000950BF020FE064B236009
:10228000159BE361169B2362199B63621A9BA362F1
:1022900020460BB030BD00BF88E30108704770478F
:1022A00070477047704730B50368018185B06D464F
:1022B0000146D3F8843004462846984795E807003D
:1022C0003C3484E8070005B030BD30B50368418177
:1022D00085B06D460146D3F88430044628469847B9
:1022E00095E807003C3484E8070005B030BD0022C3
:1022F000028042808280C280704780F8361070472A
:1023000070B5036804461B6B154698472368294639
:1023100020465B6EBDE870401847002070470020E3
:10232000704770477047704770477047704730B4C8
:10233000C26844685510034604EB6200D20748BFE8
:1023400062599B6830BC48BFD358184743682BB1CB
:1023500083682BB9C06800F00100704718467047C9
:1023600001207047A0F84C107047B0F84C0070473F
:1023700081857047808D704710B54421044619F05F
:1023800071FB204610BD10B55C21044619F06AFBB4
:10239000204610BD10B51021044619F063FB2046FD
:1023A00010BD10B54FF4BE71044619F05BFB20461A
:1023B00010BD08B590F828300BB1FEF735FF08BD09
:1023C00000F1DC028A4202D10368DB6A18477047D9
:1023D000036870B55E6B124B1B6804468DB22BB957
:1023E000104B114A6C2111481AF00CF91049828DDA
:1023F0000988914203D80F4B0B4A6D21F3E713F87C
:1024000012200D4B1B6853F8220003681B6B984782
:10241000281A01B233462046BDE87040184700BF75
:10242000A0770120E0E3010822E401085DE401084F
:10243000A4770120A4E40108A877012090F848308F
:1024400070B50446002B4AD0B0F84A00B4F84C30BE
:10245000013080B29842A4F84A0040D3B4F85060EA
:10246000B4F85220656DC01A921BB4F84E3012B207
:10247000002180B2A84794F83620304405B2AA4221
:1024800083B205D02DBB204608F03CFC84F83650C2
:10249000B4F84C30B4F84E10B4F84A200B449A42C9
:1024A0001DD3002384F84830A4F84E300AF0CAFB4C
:1024B000214604300AF0EBFBA06D80B10368DB68B5
:1024C000984760B1A06D036821469B68BDE87040E5
:1024D000184784F83630204608F014FCD8E770BD61
:1024E00090F829302DE9F0410446002B41D0438D6E
:1024F000858D01339BB2AB4243853AD35B1B828E01
:10250000866B9DB2038ED21A12B2C38D002128466B
:10251000B047638EE28EE76BD21A0646E38D12B2A5
:1025200000212846B847628E218E0244314412B2FF
:1025300009B22046FEF7FDFDA38DE18D628D0B44AF
:102540009A4216D3002384F8293063850AF07AFB77
:10255000214604300AF09BFB206C50B10368DB6815
:10256000984730B1206C036821469B68BDE8F04174
:102570001847BDE8F08170B5036804461B6B15462B
:1025800098472368294620465B6BBDE87040184792
:102590000022C0E90122C0E90322C0E90522C0E906
:1025A00007224FF480728284014A0260704700BFA4
:1025B000ECE4010838B5262204460D4600211AF045
:1025C000ADF82046FFF7E4FF064B23602B88E38439
:1025D000FF23204684F82830294608F010FE2046C4
:1025E00038BD00BF38F401082DE9F04F044689B02A
:1025F000264600250BF048FE794BE56346F8403B44
:102600002622294630461AF089F83046FFF7C0FFE7
:10261000744B236404F16C0BFF234FF6FF7804F135
:10262000980A84F8663006A9A5665846ADF8188061
:10263000FFF7C0FF06A9504604F1DC09ADF8188089
:10264000FFF7B8FF684BC4F8983029462622C4E942
:102650003155C4E93355C4E9355584F8C150A4F85F
:10266000C25048461AF05AF84846FFF791FF04F561
:10267000887701235D4984F80031C4F8DC10A4F8A0
:102680000A812946A4F80C8184F80E812622C4F818
:10269000045184F8085138461AF040F83846FFF7DC
:1026A00077FF4FF47F02C4F84421514AC4F8102147
:1026B0004FF0FF32C4E954254E4A4F4BC4F838312D
:1026C000C4E95B244D4AA4F83C81C4E95D25294650
:1026D0002A463046C4F84051A4F84851C4F84C5139
:1026E00084F85851A4F85A51A4F85C51C4F86851C0
:1026F000FFF741FF3046F021FEF712FD30464FF460
:10270000A071FEF70FFD04F104084FF07F42A266AE
:102710003146404606F0F4FE2A4629465846FFF761
:102720002AFF06A95846ADF8185008F068FD59462A
:10273000404606F0E5FE504687221421FFF71BFFB6
:102740000D2206A95046ADF8182008F058FD514654
:10275000404606F0D5FE484640F20912AD21FFF78B
:102760000AFF012306AA05A94846ADF81430ADF8C2
:10277000183008F01CFC602384F80E3104F5B673A1
:10278000C4F804314946404606F0BAFE38465D2298
:102790001221FFF7F0FE6E464FF0FF32C4F84021E1
:1027A00039463046A4F8445108F006F996E8070087
:1027B00004F5A67383E807000F4B069306A90223CE
:1027C0003846ADF81C3008F097FB404684F8465177
:1027D000394606F095FE204609B0BDE8F08F00BFEF
:1027E00078E601085CF3010854E50108C4F3010828
:1027F000C8E5010860E60108D4DF0108C12300082C
:102800007047000030B5164D2C78BFF35B8F14F085
:1028100001048FB021D1284619F026F9E8B13F23F1
:102820000993104B0893104B104911480A94CDE9B5
:10283000064301220423CDE9033218230093172213
:10284000CDE90B44CDE901440594FFF7F7FC0948B5
:1028500019F0F6FE284619F013F905480FB030BDFF
:1028600064690020DC0E0208E40E0208FC0C020879
:1028700068690020012800087047000030B5164D37
:102880002C78BFF35B8F14F001048FB021D1284660
:1028900019F0EAF8E8B13F230993104B0893104B65
:1028A000104911480A94CDE9064301220423CDE9D9
:1028B0000332202300930B22CDE90B44CDE90144E0
:1028C0000594FFF7BBFC094819F0BAFE284619F039
:1028D000D7F805480FB030BD94690020E00E02081B
:1028E000E80E0208400E02089869002079280008C6
:1028F00000207047002070470EB403B503AB0021E1
:1029000053F8042B01930BF001F902B05DF804EBCE
:1029100003B070470CB407B504AB53F8042B019314
:102920000BF0F4F803B05DF804EB02B07047000060
:10293000436C10B5044673B3038F2BB9184B194A77
:10294000C521194819F05EFEC38E00EB43035B8C72
:102950000BB30CF026FC238F012B03D8134B144A26
:10296000CB21EEE7E28E531C9BB2092B194688BFA0
:10297000A3F10A0104EB410140F63F10498C81426A
:1029800009D10A2B04EB420228BF002304EB4303C6
:10299000508C588451842046BDE810400CF004BB94
:1029A000A8E60108B1E601085CE70108A6E701080E
:1029B000B4E701080CF0BFBA10B586B002AC84E8E9
:1029C00006001A460AAB05930193099B0093214622
:1029D000089B09F0F5FC06B010BD000038B518BB27
:1029E000124B13481B681349B3B11A689C681A4408
:1029F00002605A681A440A601C440F4B00221A8075
:102A000000F038F8054600F033F80C4B1C600C4B16
:102A10001D600C4B188007E00B4B03600B4B0B60E9
:102A20000B4B1C68002CE8D138BD00BFC4690020E6
:102A3000C8690020CC690020D0690020A07701205F
:102A4000A8770120A4770120F80E0208EC0E0208F6
:102A5000280F0208044B1B6853F82100034B1B6826
:102A600003EB4000704700BFCC690020C86900201C
:102A70000320704700487047D469002010B5FFF765
:102A8000C1FE034C2060FFF7F9FE606010BD00BF7F
:102A9000D46900200020704701207047806A704789
:102AA00070477047704710B50C21044618F0DAFFE4
:102AB000204610BD10B51021044618F0D3FF204663
:102AC00010BD10B54C21044618F0CCFF204610BDB7
:102AD0002DE9F04F0B79A3B004460D46002B40F0D2
:102AE000ED808E4A126892F84990A0F84630B9F10C
:102AF000030FA0F8483040F3D880B9F10C0F0363FE
:102B00004FF00303DCBF09F1FF32B2FBF3F3019393
:102B1000B0F908300593B0F90A300493059BADF87D
:102B20002C30049BADF82E3003680026DB6AADF82C
:102B30002860ADF82A600AA998474FF0FF33CA46CB
:102B40004FF0010803937649019BBAFBF3F350223F
:102B50000EA8029319F0D4FD0EAB03EBC807029B3D
:102B60009BB208F1FF3B0293002357F8081C09931E
:102B7000029B11FB03F18BB20693EB8813FA81F1F0
:102B800009B200294ADB059B994247DA029B57F8B4
:102B9000042C12FB03F293B207932B8913FA82F2EF
:102BA00012B2002A3ADB049B9A4237DA09AB20467C
:102BB00006F018FD099989B3B1422FD0A1422DD05A
:102BC0000CA80BF069F9B5F90620BDF92830BDF95C
:102BD0003410BDF932001344BDF9302001EBD1713E
:102BE00002EB61015A1AB5F90810BDF92A300B44FD
:102BF000BDF9361001EBD17100EB61015B1A5B434B
:102C000002FB0233039A934208D2069A099EA4F863
:102C10004620079A2663A4F8482003930BF1020B81
:102C2000BBF1090F07F110079EDD019B08F10108B8
:102C30004345CA4487DA236BA34204BF00232363BE
:102C4000216B00292ED0EB88E38700262B89A4F87E
:102C500040300CA884F84A600BF01EF9B4F84630F6
:102C6000A288B4F8480029798DF83C101A44BDF8C0
:102C70003030ADF84260D21AEB881A44E388ADF8E0
:102C80003E200344BDF832001B1A2889034425481E
:102C90000E90206BADF8403003680EA95B6C98472E
:102CA000236B636323B0BDE8F08FB1F90820B1F95D
:102CB000061000F1300306F095FCBCE7022BF1D0C2
:102CC000016B29B30CA80BF0E7F8B4F84630A288E2
:102CD000B4F8480029798DF83C101A44BDF830301A
:102CE000D21AEB881A44E388ADF83E200344BDF8BD
:102CF00032001B1A288903440A480E90206BADF855
:102D000040300023ADF8423003680EA95B6C984751
:102D10000023C4E90C3384F84230C3E75077012024
:102D20007CD7010890E801081FB590F844300446AC
:102D30000BB90B792BB194F84530B3B90B79012B52
:102D400013D1206B88B194F84A3073B9084AADF8B2
:102D50000A3003930368019202225B6C8DF808200D
:102D600001A99847012384F84A3004B010BD00BF80
:102D700090E8010870B490F825601EB190F82460C6
:102D800016B1186070BC704770BC06F02BBC000018
:102D900070B50D46016B86B00446002936D08142DD
:102DA00034D090F8443013B990F8453073B3684686
:102DB0000BF072F8B4F84630A288B4F84810E888EE
:102DC0006E891A44BDF80030D21AE3880B44BDF86E
:102DD000021010FA82F05B1A2989AD89ADF80E0055
:102DE000206B11FA83F115FA83F3ADF81430124D0C
:102DF0000368029516FA82F20025ADF81010DB6C1C
:102E00008DF80C50ADF8122002A99847206B88B1BC
:102E100094F84A3073B9094AADF80E300493036848
:102E2000029202225B6C8DF80C2002A998470123C4
:102E300084F84A3006B070BDA4E8010890E80108A3
:102E40000E49016000220521C0E90C22C0E90F12E1
:102E5000C0E90122C0E90322C0E90522C0E9072236
:102E6000826280F82C2082634264A0F8482080F8B7
:102E70004A2040F201128284704700BFB8E801087E
:102E8000704710B54FF4AE71044618F0EBFD2046C4
:102E900010BD10B50446D0F8580100F0CDFA204618
:102EA000BDE8104009F06ABF10B50446FFF754F9B9
:102EB000014B2360204610BD48E9010870470438E3
:102EC0007047704710B51021044618F0CBFD20461E
:102ED00010BDA0F10400F5E710B500228260044A9D
:102EE000C16002F1080420320460426010BD00BFDE
:102EF0008CE901087047000038B5074B03600446B1
:102F00004FF49565635960191B68843D984715F126
:102F1000800FF7D1204638BDBCE90108A0F8181D84
:102F20007047B0F8180D704710B50446FFF7E4FF7E
:102F3000204640F23C5118F095FD204610BD00009F
:102F400010B5064B0360044600F5FB60FFF7D4FFA5
:102F500004F52770FFF7D0FF204610BDBCED010837
:102F600010B50446FFF7ECFF204640F6285118F054
:102F700079FD204610BD0000F8B5304BB3F9007064
:102F80002F4B00F5BE750022B3F9006004461146D0
:102F90002846FFF7F0FA39462846FEF7C1F83146D1
:102FA0002846FEF7BFF82846012100F082FD28469A
:102FB000B42100F06DFDB4F98621B4F9841102EB5F
:102FC000D27201EBD17128465210491000F076FD03
:102FD000B4F98621B4F9841102EBD27201EBD171FC
:102FE000271D28465210491004F59046183600F067
:102FF00059FD2A4604F16C01384606F0D9FA8222BE
:1030000030461421FFF7B7FA3046002100F03DFEAC
:103010003046002101F0B3F93146384606F070FA27
:103020009621304600F017FE04F580440146C4F8AE
:1030300014082846BDE8F84000F02ABD4477012076
:103040004677012010B50446FFF7CEFA104B2360F7
:1030500004F5BE7000F0B2FC04F59040183000F0AA
:10306000A3FE04F580430B4AC3F8182804F5A043D7
:10307000002283F82C25A3F82E25A3F83025C3F8C9
:103080003C25054B1B68012283F86820204610BDB3
:103090007CEA0108CCE90108507701202DE9F041D4
:1030A0001D4690F8483004460F4690462BB909F06B
:1030B000C9FD2146043009F093FEA4F84E80002398
:1030C000E16C94F83620A4F84A300123A4F850208B
:1030D000A4F85270656584F8483000293FD1B4F8EF
:1030E0004C00A4F84A30984239D8181A96B2434690
:1030F000BA1A80B2A84794F83620304405B2AA42E2
:1031000083B205D02DBB204607F0FCFD84F8365075
:10311000B4F84C30B4F84E10B4F84A200B449A423C
:103120001DD3002384F84830A4F84E3009F08AFDFE
:103130002146043009F0ABFDA06D80B10368DB6867
:10314000984760B1A06D036821469B68BDE8F041D7
:10315000184784F83630204607F0D4FDD8E7BDE89C
:10316000F0812DE9F047984690F82930DDE908977D
:1031700004460E4615462BB909F064FD214604307D
:1031800009F02EFE0023A4F82E80C4E90E97638573
:10319000E76A636823630123B4F90420A686E58601
:1031A00084F82930002F3AD1A58D63859D4236D809
:1031B0005D1BADB2B21A434612B239462846C84723
:1031C000638EE28EE66BD21A8046E38D12B23946E8
:1031D0002846B047628E218E0244414412B209B2A1
:1031E0002046FDF7A6FFA38DE18D628D0B449A4228
:1031F00015D384F82970678509F024FD2146043031
:1032000009F045FD206C50B10368DB68984730B188
:10321000206C036821469B68BDE8F0471847BDE86D
:10322000F08790F8143D70B50446002B52D0B0F8EA
:10323000160DB4F8183D013080B29842A4F8160D6E
:1032400048D3B4F81C6DB4F81E2DD4F8205D921B41
:10325000C01A12B2B4F81A3D002180B2A847304417
:1032600005B286B2204600F00DFDA84207D04DBB46
:103270002046FDF7D9FF2946204600F006FDB4F8A8
:10328000183DB4F81A1DB4F8162D0B449A4221D3F8
:10329000002384F8143DA4F81A3D09F0D3FC21461C
:1032A000043009F0F4FCD4F8240D98B10368DB680D
:1032B000984778B1D4F8240D036821469B68BDE88F
:1032C000704018472046F1B200F0DFFC2046FDF7C1
:1032D000ABFFD4E770BD08B5FFF7A3FF08BDF8B595
:1032E0001D4690F8143D04460F4616462BB909F0CA
:1032F000A9FC2146043009F073FD0023A4F8163D13
:10330000204600F0BFFC0123A4F81A6D84F8143D98
:10331000D4F8183DA4F81C0DA4F81E7DC4F8205D57
:1033200013B92046FFF77DFFF8BD00002DE9F743F4
:1033300000F5904518350446284600F0A3FC2A4EB7
:1033400004F5BE7904F5887804F19807014690B336
:10335000284600F077FC04F580430146C3F81408C2
:10336000484600F095FB0121484600F0AEFB1F4B9C
:10337000142200212846FFF7B2FF0021284600F062
:10338000FEFF1A4B142200214046FFF787FE184B20
:103390001A88B4F9A230CDE90066D21A02EBD272D3
:1033A000142342F34F02B4F99C103846FFF7D9FEBC
:1033B00003B0BDE8F083484600F087FB0B4B1422B6
:1033C000FF212846FFF78BFF0121284600F0D7FF99
:1033D000064B1422FF214046FFF760FECDE9006650
:1033E00014230822DFE700BF69E60008F7E60008BB
:1033F0004677012010B5084B0360044600F5904065
:103400001830FFF79DFD04F5BE7000F047F8204628
:10341000FEF788FF204610BD7CEA010810B504467F
:10342000FFF7E8FF204645F2405118F01BFB20460D
:1034300010BD002202607047704700220280428067
:103440008280C28070470000064A136803F2395335
:1034500058436FF00043B0FBF3F3C3EBC373C01AE0
:1034600010607047DC690020002202804280828068
:10347000C280704700F58040B1F90C30B1F90A20E4
:10348000C0F88C26C0F890367047704710B54821B8
:10349000044618F0E7FA204610BD000038B50A4B84
:1034A0000360044609F0CEFB2146043009F0EFFB2F
:1034B00044F23065635960191B68483D984715F11F
:1034C000200FF7D1204638BD20EB010810B5044687
:1034D000FFF7E4FF204644F2986118F0C3FA204653
:1034E00010BD0B7900F5804043B9B1F90830B1F94E
:1034F0000620C0F88C26C0F89036704790F88436C5
:10350000002BFAD0D0F88036D0F87C26F1E7000006
:103510002DE9F04F03688FB00025DB6AADF8285025
:103520000F46ADF82A50ADF82C50ADF82E500AA930
:103530000446984704F58048D8F87836AB4240F303
:103540008380D4E90B010CAB83E80300B7F900B02A
:10355000B7F804E0BDF93030DE441FFA8EF20FFAFE
:103560008EFE734506926CDABDF834C09C441FFA97
:103570008CF00FFA8CFCE34563DAB7F90290F98816
:10358000BDF932A049448AB209B28A45079258DA95
:10359000BDF836605644B2B236B2B145059250DA43
:1035A0005B45069AB8BF5B46D145B8BFD146E645F4
:1035B000D8BF1046079AADF832901FFA83FC059BDE
:1035C000A0EB0C00B142D8BF13461FFA89F100B23C
:1035D0005A1A12B20028ADF834000593ADF836201F
:1035E0002FDD002A2DDDA28DACEB0203ADF83030CB
:1035F000E38DC91AADF832101549096891F87600C3
:1036000008B1C86C00B9886801688E68B4F84E10BB
:10361000ADF82410BDF82A100B44BDF828100A4458
:1036200001210291D4ED1A7AFCEEE77A1BB2CDEDBE
:10363000057A9DF8141001910CA9009112B209A904
:10364000B0470135483477E70FB0BDE8F08F00BFD1
:1036500050770120F0B52DED068B83B00446184657
:103660001D4608EE902A09EE101A9DF83860BDF844
:103670003C10DFED629AFFF7E7FE07EE900A28465E
:10368000FFF7E2FE07EE100AF8EE677AB8EE477A27
:1036900067EEA97A27EE297A236867EE877AB2EE79
:1036A000067A67EE877A1B6EFDEEE77A204617EE04
:1036B000902A891AADF8041001A998470027012320
:1036C00007EE905A84F82530E7622846FFF7BCFEE3
:1036D000B8EEE77ADFED4A7AC7EE27AA08EE100ABD
:1036E000B0EE6A0A18F0E6F9F8EE487AB2EE04AAEB
:1036F00067EEA97A284667EE8A7A27EE800A84ED7B
:103700000C0AFFF7A1FE08EE100AB8EE488AB0EEE8
:103710006A0A28EE298A18F011FA28EE0A8A284641
:1037200028EE000AB6EE007A84ED0D0AFFF78CFE53
:1037300007EE900AF8EE677A67EEA97AF4EEC77A98
:10374000F1EE10FA0BD5D4ED0C7AF1EE677AC4EDF8
:103750000C7AD4ED0D7AF1EE677AC4ED0D7AB4F9F6
:10376000083003EBD3735B1007EE903AB8EEC99ABA
:10377000F8EEE77AB4F90A3079EE677A03EBD3739F
:103780005B10C4ED0E7A07EE903AF8EEE88AF8EE98
:10379000E77A1C4B236478EEE77AC4ED0F7A5EB3C8
:1037A0002846FFF751FE07EE900AF8EE677A67EEBB
:1037B000A99AA9EE877A84ED117AD4ED107A94ED66
:1037C0000F7AFCEEE77ABDEEC77A17EE903AD4EDA9
:1037D0000E7A84F82830FDEEE77A236817EE102A77
:1037E00017EE901A9B6D12B209B2204603B0BDECE1
:1037F000068BBDE8F04018476764DEE70000003044
:103800000000484200007F43D0ED0B7A9FED207A04
:10381000D0ED0D6A90ED116A036867EE877A90ED3E
:103820000C7AC0ED0B7A37EE877A77EEA67AD0ED78
:103830000E6A80ED0C7A37EE267AD0ED0F6AC0ED75
:103840000D7A77EEA67AD0ED106A80ED0E7A36EE1C
:10385000C66ADFED106AC0ED0F7AB4EEE66AF1EEEB
:1038600010FA88BFF0EE466AC0ED106AFCEEE66A18
:10387000FDEEE77A16EE902ABDEEC77A80F8282092
:1038800017EE101A17EE902A9B6D12B209B2184764
:103890006666663F00000000D0ED106AF5EEC06A73
:1038A000F1EE10FA07EE101A07EE902A2ED9B0F9B1
:1038B000083090ED0E6A06EE903AF8EEE66A76EE83
:1038C000866AF5EEC06AF1EE10FA1FD4B8EEC77A38
:1038D000B4EEC76AF1EE10FA18DCB0F90A30D0ED98
:1038E0000F6A07EE103AB8EEC77A37EE267AB5EED1
:1038F000C07AF1EE10FA09D4F8EEE77AF4EEE76A4E
:10390000F1EE10FACCBF0120002070470120704773
:103910002DE9F34700F580450446D5F89436DFF8E5
:103920009490DFF894A00133C5F8943654F8283BFE
:103930005B6906469847D9F80030D5F878260133F8
:1039400000279A42D4BFC9F80020C9F80030B84611
:10395000D9F80030BB422ADD95F885361BB3B6F99D
:103960000A20B6F908102046FFF796FFD8B1B5F83F
:103970008836019395F886360093D5F89436D5F8B5
:103980009026D5F88C162046FFF764FE63892289BD
:1039900012FB0388DAF800304345B8BFCAF800804C
:1039A00001374834D4E72046FFF72EFFEEE702B098
:1039B000BDE8F087E0690020E469002000232DE9DC
:1039C000F74FC0E90133C0E90333C0E90533C0E96B
:1039D000073304464FF4807383842A4B44F8283B12
:1039E00000F58C48DFF8A0B0DFF8A0A0064608F18B
:1039F00078084FF6FF7900250127C4E90555A58011
:103A0000E58025816581A581E58125826582E56165
:103A10002584658484F8245084F82570C4F800B0A7
:103A2000A4F8269084F82890204601A9ADF80490C7
:103A300007F0E5FB44F848AB4445DCD106F580438C
:103A4000FA22C3F878264FF48072A3F884260C2259
:103A5000C3F87C56C3F8805683F88676A3F8882688
:103A6000C3F88C56C3F89056C3F8945609F0EAF898
:103A70003146043009F0B4F9304686F8247003B0BA
:103A8000BDE8F08F20EB010838F40108B4EA010822
:103A9000FA2900F58040CABFFA23C0F87816C0F8AA
:103AA0007836704700F58040C0F88C16C0F8902634
:103AB000704700F5804080F88416704700F580401C
:103AC000C0F87C16C0F88026704700F5804080F86A
:103AD00085167047806C704710B5044601812C3004
:103AE000FEF7E1FB236820465B69BDE810401847FC
:103AF00010B5044641812C30FEF7E7FB23682046D1
:103B00005B69BDE8104018477047704710B5064B19
:103B10000360044600F5FB60FFF7EEF904F527703B
:103B2000FFF7EAF9204610BDBCED0108704770B4FC
:103B3000C46845686610034605EB6400E40748BFA7
:103B4000AC599B6848BFE35870BC184743682BB119
:103B500083682BB9C06800F00100704718467047B1
:103B60000120704710B54C21044617F07BFF20461A
:103B700010BD10B58421044617F074FF204610BD17
:103B800010B51021044617F06DFF204610BD10B58A
:103B90000446FFF7BBFF204640F6145117F062FFC2
:103BA000204610BD842303FB010010B4192402FB3E
:103BB00004430621034A5DF8044B00F546700CF0FF
:103BC0009FB800BF80EB0108842303FB010010B401
:103BD000192402FB04430621034A5DF8044B00F656
:103BE00054000CF08DB800BF80EB010808B5FDF75C
:103BF0001BFB08BD092908B505D9064B064A07482D
:103C0000352118F0FFFC842303FB01000430106011
:103C100008BD00BF83EB0108ADEB01082DEC0108E6
:103C200000224FF0FF31C0E900218260704710B5DB
:103C300004462C3007F060F9236820465B69BDE834
:103C40001040184708B500F5B87000F010FA1923B5
:103C500000FB033008BD182938B5C9BF192400245A
:103C600091FBF4F101F1FF3405462146843000F068
:103C700057FB05F5B870214600F052FB192004FBF4
:103C8000000038BD90F85400704780F8541080F858
:103C9000801000F5A56380F8021380F83E18843088
:103CA0009842F8D1704700002DE9F0470446384BA0
:103CB00044F8043BDFF8E4A0DFF8E490DFF8E480A8
:103CC000064600F22C570123002584F8253084F89D
:103CD00051304FF6FF73A580E58025816581A58170
:103CE000E58125826582E5612584658484F8245018
:103CF000A562C4F800A025866586A586E586258789
:103D00006587A587E587A564A4F84C50A4F84E50B4
:103D100084F85050C4E90555C4E91055C4F85490CE
:103D2000A4F8583084F86230A4F86C30A4F86E30EF
:103D300004F178036367E565A4F8605084F8635084
:103D400084F8645084F86550A4F86850A4F86A5068
:103D50002567C4F82C8004F12C01204605F0D0FB27
:103D60002046D821FFF7B8FE204632218434FFF7E1
:103D7000BFFEBC42A7D1074BC6F82C35064BC6F890
:103D80003065C6F83435C6F838553046BDE8F0879A
:103D9000BCE90108A4ED0108F53B000814ED010899
:103DA000D4DF010884EC01082DE9F04704468CB00B
:103DB00000F07CFB5E4B236004F52770FFF774FF77
:103DC00004F5FB60FFF770FF0E230AA904F12C0035
:103DD000ADF8283007F013FA628E218EB4F9346002
:103DE000B4F936700832143104F1840012B209B209
:103DF0000990283EFEF7BFFB103F04F5B073002585
:103E00004FF028084FF00A0936B207934FF0050A21
:103E100004F5F9633FB2CDE902852A462946CDE98A
:103E2000049A09980693CDF80480334600973C27FE
:103E300000F0C3F82A4604F158002946A4F8E070BF
:103E40000990FEF798FB0F230DEB08010998ADF8D8
:103E5000283007F0D4F9B4F85E20B4F9881029327C
:103E600004F5B87012B20990FEF785FB04F51373E0
:103E7000079304F60453CDE905A302222C23CDE9D0
:103E80000359CDE9003229462A460998CDF8088021
:103E9000334600F092F8A4F8CC71204600F0BCFA4A
:103EA000244F254604F5A5694FF0FF38D5F8A03218
:103EB00005F528709B6B099031469847D5F8A032DC
:103EC0000998DB6B28219847D5F8A032C5F8FC8209
:103ED0005B690998984700230998ADF82C300AA926
:103EE0000A97FFF7A4FED5F8DC3705F2DC709B6B70
:103EF000099031469847D5F8DC370998DB6B2821C3
:103F00009847D5F8DC37C5F838885B690998984731
:103F10008435012309980A970AA9ADF82C30FFF7D8
:103F200086FE4D45C2D120460CB0BDE8F08700BFEB
:103F3000BCED0108D4DF0108704710B5DC21044650
:103F400017F090FD204610BD38B50446FEF778FF07
:103F50000A4B236001236365094BE365094B6366E4
:103F600000253223A4F86050A4F8683004F16C00F6
:103F700000F014FBC4E92D55204638BD64EE01085D
:103F80003C000A00EDE50008B0F99E30026D534395
:103F900091FBF3F000FB13100028C8BFC01A704754
:103FA00007B5C0F8D8106C30019000F009FB0198FB
:103FB00003B05DF804EB09F0D3BE2DE9F04F8DB0EE
:103FC00080F84C20BDF96080BDF964901C9EBDF95D
:103FD0005C50099608EB09021D9E026502680A966C
:103FE00004460126856500250B9380F84D6080F816
:103FF0004B1080F8BC501946926BBDF95870BDF952
:1040000068A0BDF96CB0904722683946D26B204653
:10401000904784F82460204604F16C06256705F07B
:104020007CFA3146204605F06BFA94F84B100A9B57
:10403000079381F00102099B84F84420B4F95820C9
:1040400084F84510CDE905B3CDE900723046CDE9DD
:10405000039A0B9B94F84C20CDF8088000F088FB65
:10406000294620460DB0BDE8F04FFFF799BF38B59F
:10407000B0F99E40ECB190F8BC20056D012A08D142
:10408000D0E932131944FFF77FFF404290FBF5F06F
:1040900038BDD0F8D810FFF777FF05EBD573C0EB2C
:1040A0006300013890FBF5F090FBF4F304FB130080
:1040B000EEE72046ECE790F8BC30012B70B50446E3
:1040C0003AD1B0F8C430B0F9CC20456EB0F8C00099
:1040D0000021A847D4F8C81001442046FFF760FF2C
:1040E000D4F8C030D4F8C42001339342C4F8C030AF
:1040F00022DD002384F8BC3008F0A4FD2146043002
:1041000008F0C5FDD4F8D8102046FFF73DFFC4F8ED
:10411000D800D4F8B80078B10368DB68984758B184
:10412000D4F8B8502046FFF7A2FF2B6801469B68E1
:104130002846BDE87040184770BD90F84C3030B547
:1041400004467BB9406DB4F99E509142A8BF114618
:10415000A842B8BF2B1A206D43435B42981A814294
:10416000B8BF0146084630BD90F84C2038B590F8ED
:104170004D5072B15DB1036DDA0F00291A44B4BF1E
:10418000A1EB620101EB620191FBF3F15943084697
:1041900038BDB0F99E30046DC3F1010301EAE1714D
:1041A00063439942B8BF1946FFF7C7FF0146002D88
:1041B000EDD004EBD470A1EB600191FBF4F161430D
:1041C000E5E738B504460D46FEF7E2FD022384F824
:1041D000BC3094F84B30D4F8D810C3B16B89EA885E
:1041E0009B1AB4F85E201BB2534303200A2293FBB0
:1041F000F2F3226D92FBF0F21944204612B2FFF75F
:104200009CFF01462046BDE83840FFF7C9BEAB8998
:104210002A89E5E738B5B0F8683004460D461BB981
:10422000BDE83840FFF7BCBE90F8BC30012B05D08C
:1042300008F008FD2146043008F0D2FD294620464A
:10424000FFF792FFD4F8D830C4F8C830C01AC4F8C9
:10425000CC0000EBD07040100122002884F8BC2074
:104260004FF00002C4F8C020B8BF4042B4F8682044
:104270009042D4BFC4F8C400C4F8C42038BD38B5D7
:104280000D460446FEF724FC2B7953B9EB88A4F8BD
:10429000D0302B89A4F8D230D4F8D830C4F8D43038
:1042A00038BD012BFCD194F8BC30022BF8D1D4F8E6
:1042B000D8102046BDE83840FFF7ACBF38B50446FB
:1042C0000D46FEF731FD94F84B302A7983F0010357
:1042D0009A4224D1B4F85C30B5F9061059430A2348
:1042E00091FBF3F1D4F8D8301944B4F8603063B1DD
:1042F000206DD4F8D4204343D0188142A2EB0303AD
:10430000A8BF01469942B8BF194620460022FFF7D0
:1043100014FF01462046BDE83840FFF77BBF38BD9B
:1043200070B505460C46D0F8D810FFF72DFE2B6D62
:1043300095F84C20C5F8D80061425943D2B1B5F97F
:104340009E205A438E18341A0B1A002CB8BF6442B0
:10435000002BB8BF5B429C42B8BF31468A1A141A80
:104360000B1A002CB8BF6442002BB8BF5B429C42C2
:10437000B8BF11462846BDE87040FFF74BBF80F834
:10438000A81080F8941180F880127047704770B4BC
:10439000C46845686610034605EB6400E40748BF3F
:1043A000AC599B6848BFE35870BC184743682BB1B1
:1043B00083682BB9C06800F0010070471846704749
:1043C0000120704710B51021044617F04BFB204622
:1043D00010BD38B504460D468430FFF7A1FF2946CD
:1043E00004F5B870BDE83840FFF79ABF8430FFF796
:1043F0003EBE0000074A02600022C0E90122C0E977
:104400000322C0E90522C0E907224FF480728284AA
:10441000704700BFF0F401082DE9F0410022044686
:1044200000F12C0511462846FEF7A5F82368294619
:1044300020461B6E98472146204651F8843B1B6E50
:1044400098472146204651F8583B1B6E98472368F1
:1044500004F5B8711B6E2046984704F51775B4F93A
:104460003470B4F93220B4F93660B4F9301028460B
:10447000FEF781F839462846FCF752FE31462846B9
:10448000FCF750FE2368294620461B6E9847236898
:10449000B4F934109B6B204698472368B4F9361062
:1044A000DB6B2046BDE8F041184700002DE9F743DB
:1044B0000446FFF79FFF20460025234BA5624FF6D9
:1044C000FF7640F82C3B01A9ADF8046004F18408A4
:1044D000FEF770F801A904F15800DFF87490ADF808
:1044E0000460FEF767F84046FFF72EFD012698238B
:1044F00004F5B877C4E95A36C4E958943846FFF74A
:1045000023FD9C23C4E9953604F51773262229461A
:104510001846C4E9939418F001F9FFF76BFF0B4BB1
:10452000C4F85C3220464FF48073C4E9A487C4F811
:10453000845284F8885284F88062C4F88C52A4F8BB
:10454000983203B0BDE8F0830CEF0108CCF101080C
:10455000F4EE0108704710B54821044617F082FABE
:10456000204610BD2DE9F0411D460368BDF91870C5
:104570001B6B0446164698472368314620465B6B02
:1045800098472368294620469B6B984723683946FD
:104590002046DB6BBDE8F041184700000022C0E96F
:1045A0000122C0E90322C0E90522C0E907224FF435
:1045B00080718262014A8184026070473CF1010887
:1045C000B0F92C302DE9F34719440446B0F92E0018
:1045D000B4F934700029C1BF91FBF0F2D34302FB60
:1045E0000002891AC0F10002CCBF1BB200238A422C
:1045F000A2BF91FBF0F29B1A00FB121194F8442029
:10460000A8BF1BB262B1B4F9325093FBF5F005FBC1
:1046100010332B4493FBF5F005FB10331BB204E081
:10462000002B79DA00FB1311134694F84660BEB1F3
:10463000B4F93CE09E457DD00126BE427CDA0EEB0B
:10464000060598194AB1B4F932C095FBFCF80CFB89
:10465000185590FBFCF80CFB1800AB4266D1764273
:10466000B4F93E20A387921B3A4492FBF7F007FB74
:104670001022E28700278DB24FF00109B4F93430DF
:10468000BB426EDDB4F93E80A06BB84498FBF3F2F8
:1046900003FB1288036801AA9B6841469847B4F956
:1046A000303094F845100198E28D1FFA87FC03EB37
:1046B000D373002942D005EB630103681B6B12FB27
:1046C0000C1109B29847B4F93CA094F84420019B1E
:1046D000BA44002A39D0B4F932209AFBF2F102FB35
:1046E00011AABAF1000F37DB83F8259094F8463011
:1046F00033B1BE4204DCB4F934303344BB422EDC67
:10470000206C0368DB68984748B3206C0368524606
:104710009B684146984722E0B4F93250FE18AE42F9
:1047200083DDAD1B00FB05112B4477E7864597D051
:10473000013682E7002693E73E4691E705EB6303E7
:1047400012FB0C3103685B6BBBE7BAF1000F03DBB4
:10475000B4F932205245C7DC002283F82520013706
:104760008CE7012384F8463002B0BDE8F0870000F2
:104770002DE9FF479946139B0364036880F84510B1
:10478000044680F844209B6BBDF93080BDF9385059
:10479000BDF93CA0BDF94070BDF944604946984759
:1047A00023682046DB6B4146984705EB0A0000B2C0
:1047B000BDF93430A3850028E08505DC294B2A4A61
:1047C00014212A4817F01EFF94F84530A4F830A0B1
:1047D00067869BB109F1FF33421E134494F84420CD
:1047E00093FBF0F301331BB212B9BB42A8BF3B46A7
:1047F000B34206DD1E4B1C4A2321E2E708F1FF33DA
:10480000EAE7129BA686A363204604F086FE0026F4
:10481000B4F93430B3421BDDA06B036803AA9B6874
:104820003146984794F8452072B1B4F90A300093A4
:1048300000222B4611460398FFF794FE0399204669
:1048400004F05EFE0136E3E7B4F908300095F1E7C5
:10485000002184F84610E1632046FFF7B1FE04B062
:10486000BDE8F087ACEF0108B9EF010882F001085C
:104870000DF1010890F82C0070477047002202806B
:1048800042808280C280704770470B79B3FA83F30D
:104890005B0970B5044680F83C30406B03685B6C84
:1048A0000D469847A06B036829465B6CBDE87040D5
:1048B0001847704710B54021044617F0D3F820463A
:1048C00010BD10B50446806A50B10368DB68984794
:1048D00030B1A06A036821469B68BDE810401847C4
:1048E00010BD90F83D3070B504460D4653B1406B95
:1048F0000368DB6C9847A06B03682946DB6CBDE856
:104900007040184770BD90F83D3070B504460D46B4
:1049100053B1406B03689B6C9847A06B03682946B2
:104920009B6CBDE87040184770BDF02070474FF495
:10493000A07070472920FCF76BBF2820FCF768BFE8
:1049400008B5FCF739FFCA20FCF762FFC320FCF76B
:1049500043FF0820FCF740FF5020FCF73DFFCF202D
:10496000FCF756FF0020FCF737FFC120FCF734FFAF
:104970003020FCF731FFED20FCF74AFF6420FCF704
:104980002BFF0320FCF728FF1220FCF725FF8120D6
:10499000FCF722FFE820FCF73BFF8520FCF71CFF1B
:1049A0000020FCF719FF7820FCF716FFCB20FCF75E
:1049B0002FFF3920FCF710FF2C20FCF70DFF002003
:1049C000FCF70AFF3420FCF707FF0220FCF704FF86
:1049D000F720FCF71DFF2020FCF7FEFEEA20FCF785
:1049E00017FF0020FCF7F8FE0020FCF7F5FEB120D1
:1049F000FCF70EFF0020FCF7EFFE1B20FCF7ECFE9F
:104A0000B620FCF705FF0A20FCF7E6FEA220FCF723
:104A1000E3FEC020FCF7FCFE1020FCF7DDFEC12009
:104A2000FCF7F6FE1020FCF7D7FEC520FCF7F0FEE1
:104A30004520FCF7D1FE1520FCF7CEFEC720FCF781
:104A4000E7FE9020FCF7C8FE3620FCF7E1FEC82008
:104A5000FCF7C2FEF220FCF7DBFE0020FCF7BCFEF8
:104A6000B020FCF7D5FEC220FCF7B6FEB620FCF75E
:104A7000CFFE0A20FCF7B0FEA720FCF7ADFE2720F2
:104A8000FCF7AAFE0420FCF7A7FE2A20FCF7C0FED4
:104A90000020FCF7A1FE0020FCF79EFE0020FCF7A2
:104AA0009BFEEF20FCF798FE2B20FCF7B1FE0020C8
:104AB000FCF792FE0020FCF78FFE0120FCF78CFE35
:104AC0003F20FCF789FEF620FCF7A2FE0120FCF750
:104AD00083FE0020FCF780FE0620FCF77DFE2C20E4
:104AE000FCF796FEC820FCF7E1FE2620FCF790FEBE
:104AF0000120FCF771FEE020FCF78AFE0F20FCF796
:104B00006BFE2920FCF768FE2420FCF765FE0C20D4
:104B1000FCF762FE0E20FCF75FFE0920FCF75CFE4E
:104B20004E20FCF759FE7820FCF756FE3C20FCF79F
:104B300053FE0920FCF750FE1320FCF74DFE052024
:104B4000FCF74AFE1720FCF747FE1120FCF744FE55
:104B50000020FCF741FEE120FCF75AFE0020FCF7A4
:104B60003BFE1620FCF738FE1B20FCF735FE042028
:104B7000FCF732FE1120FCF72FFE0720FCF72CFE7D
:104B80003120FCF729FE3320FCF726FE4220FCF7FB
:104B900023FE0520FCF720FE0C20FCF71DFE0A205A
:104BA000FCF71AFE2820FCF717FE2F20FCF714FE56
:104BB0000F20FCF711FE1120FCF72AFEC820FCF79D
:104BC00075FE2920FCF724FEBDE808402C20FCF7E8
:104BD0001FBE08B5FCF7F0FD0321D320FCF734FE1F
:104BE00080B208BD10B5C4B2022203212046FCF7F2
:104BF00099FD0A20FCF7DEFD204600220321FCF788
:104C000091FDBDE810400220FCF7D4BD38B5044644
:104C1000E4B2FCF785FD00212046FCF79BFD012155
:104C200005462046FCF796FD40EA052080B238BDD7
:104C300010B5C4B240212046FCF78CFD030607D511
:104C40004C212046FCF786FD003818BF012010BD1E
:104C500001224B212046FCF765FD204600224B2116
:104C6000FCF760FD0020F2E773B50423C4B20E46E2
:104C70001546D7210DEB03022046FCF785FD019B6D
:104C80001BBA1A0DC3F30B23328020462B8001225E
:104C90004B21FCF747FD00224B212046FCF742FD4B
:104CA00002B070BD10B50A4B1A78904204460DD080
:104CB000597888420AD00AB141B901229C54FCF7C4
:104CC0002FFD2046BDE81040FFF78CBF10BD00BF90
:104CD000E869002010B5C4B209212046FCF73AFD6E
:104CE00040F00100C2B209212046BDE81040FCF7A7
:104CF00019BD10B5C4B209212046FCF72BFD0921CE
:104D000000F0FE022046BDE81040FCF70BBD38B5B0
:104D1000C4B20D4620460A21FCF71CFD2843C2B24E
:104D20000A212046BDE83840FCF7FCBC07B50190DD
:104D3000FCF7F7FC01981F21FFF7E9FF019803B08A
:104D40005DF804EBFFF7C6BF38B5C4B20D46204688
:104D50000A21FCF7FFFC20EA0500C2B20A21204626
:104D6000BDE83840FCF7DEBC10B50446FFF7C1FFD4
:104D700020461F21BDE81040FFF7E6BF10B5C0B2C6
:104D80000C460B21FCF7E6FC204010BD1F21FFF76D
:104D9000F5BF0A46C0B20B21FCF7C4BC1F21FFF7C8
:104DA000F8BF38B5C4B20D4620461721FCF7D2FC37
:104DB00020EA0500C2B217212046BDE83840FCF7C2
:104DC000B1BC70B5C4B2064604212046FCF7C2FC53
:104DD000042100F0FB0205462046FCF7A3FC304608
:104DE000F021FFF7DEFF05F0F80220460421FCF772
:104DF00099FC492220212046FCF794FC0220FCF774
:104E0000D9FC204601222121FCF78CFC20469A2265
:104E10004121FCF787FC204601224A21FCF782FC55
:104E2000204601224B21FCF77DFC204600224B212D
:104E3000FCF778FC204601225621FCF773FC204643
:104E400001225821FCF76EFC204601224021FCF78C
:104E500069FC2046FF220B21FCF764FCBDE8704092
:104E60000220FCF7A7BC0000054BD3F8882042F4D1
:104E70007002C3F888204FF000629A60704700BF4C
:104E800000ED00E008B50B4B1A6842F400721A609E
:104E90001A6842F480621A601A6842F480721A60DA
:104EA000032000F02FF80020FCF742FFFCF70CFD78
:104EB000002008BD003C0240034A044B11681B78E7
:104EC0000B441360704700BFEC690020780000209D
:104ED000014B1868704700BFEC69002038B50446E4
:104EE000FFF7F6FF631C1CBF054B1B78054618BF78
:104EF000E418FFF7EDFF431BA342FAD338BD00BF10
:104F0000780000200749CA6822F4E0620302120414
:104F100003F4E063120C134343F0BF6343F4003324
:104F2000CB60704700ED00E0164B30B5DC68C4F391
:104F30000224C4F10705231D042D28BF0425062BD8
:104F40004FF0FF338CBF033C002403FA05F521EA40
:104F50000501A34022EA0302A140002841EA02031E
:104F6000ACBF00F16040084A4FEA0313B8BF00F03D
:104F70000F00DBB2AABF00F56140135480F8003384
:104F800030BD00BF00ED00E014ED00E0002808DBBC
:104F90004209012300F01F0003FA00F0014B43F81F
:104FA0002200704700E100E010B5044650B143799B
:104FB00003F0FF0213B90271FCF7A6FC0123637131
:104FC000002010BD0120FCE710B5044630B390F876
:104FD000393003F0FF021BB980F83820FCF7ACFC35
:104FE00022686168022384F83930136823F440335F
:104FF0000B431360536BA16823F007030B43536308
:10500000136CE16823F47F5323F03F030B431364D5
:1050100000200123E06384F8393010BD0120FCE753
:1050200070477047036870B55E681D68F2070446F4
:1050300014D5E90512D51A6822F480721A60C26B81
:1050400042F00102C26301229A60042380F83930E1
:10505000002380F83830436903B19847B20616D56B
:10506000AB0414D523681A6822F400521A60202277
:105070009A60E36B43F00203E363042384F839305E
:10508000002384F8383063690BB120469847300715
:1050900016D5290514D523681A6822F400621A600F
:1050A00008229A60E36B43F00403E363042384F86B
:1050B0003930002384F8383063690BB120469847B3
:1050C00072070BD56B0509D523681A6822F4806234
:1050D0001A6004229A602046FFF7A2FFB00714D599
:1050E000A90512D523681A6822F400721A600222F8
:1050F0009A60E36BE363012384F83930002384F87A
:10510000383023690BB120469847F20613D5EB04DB
:1051100011D523681A6822F480521A6010229A600E
:10512000E36BE363012384F83930002384F83830DB
:105130002046FFF776FF70BDF0B590F83830012BB0
:105140004FF002032BD0012280F8393080F838204C
:1051500000EB0113D3E907425D6A184F44EA0242AB
:10516000093C012C9CBF05F07F431A434FEA01160E
:10517000036888BF42EA056299B9596A39400A430F
:105180005A62012C82699A6103D8426A22F07F42F6
:105190009A62012380F83930002380F838301846AD
:1051A000F0BDD96939400A43DA618219012C92694C
:1051B0001A619CBF25F07F451D62EAE7F0FFFC0005
:1051C0002DE9F74FDFF8C0916D4A00230D680124E7
:1051D0009C4004EA050CAC4340F0B9804D6805F0F2
:1051E00003044FEA43080326671E06FA08F6012F58
:1051F0006FEA060634D8876807EA060ECF6807FA12
:1052000008F747EA0E078760476827EA0C0EC5F3E0
:1052100000179F4047EA0E074760C76807EA060E77
:105220008F6807FA08F747EA0E07022CC76019D102
:105230004FEAD30A00EB8A0A03F0070BDAF8207072
:105240004FEA8B0B4FF00F0E0EFA0BFE27EA0E0EF5
:105250000F6907FA0BF747EA0E07CAF8207001E05A
:10526000032CDAD1076804FA08F43E40264315F40B
:10527000403F06606BD04FF0000ACDF804A0D9F88B
:105280004460404C46F48046C9F84460D9F8446014
:1052900006F480460196019E23F0030606F180463F
:1052A00006F59C3603F0030ED6F808804FEA8E0E02
:1052B0000F2707FA0EF7A04228EA07074ED004F599
:1052C0008064A0424CD004F58064A0424AD004F52A
:1052D0008064A04248D004F58064A04246D004F522
:1052E0008064A04244D004F58064A04242D004F51A
:1052F0008064A04240D004F58064A0423ED004F512
:105300008064A0420CBF09240A2404FA0EF43C4332
:10531000B46094686FEA0C06EF0254BF34404CEA64
:1053200004049460D468AF0254BF34404CEA0404CF
:10533000D4605468AF0354BF34404CEA0404546052
:105340001468ED0354BF34404CEA04041460013384
:10535000102B7FF43BAF03B0BDE8F08F5446D4E789
:105360000124D2E70224D0E70324CEE70424CCE7CB
:105370000524CAE70624C8E70724C6E70824C4E7CB
:10538000003C01400000024000380240036919421D
:1053900014BF0120002070470AB1816170470904E1
:1053A000FBE7436901EA030221EA030141EA024102
:1053B0008161704701684B6913F480634FF000020C
:1053C00010D06FF480634B612023026380F83D307E
:1053D00080F83E20036C80F83C2043F00403036413
:1053E00001207047184670472DE9F84606460F46DB
:1053F00091461D464FEA114A3368BAF1010F0CBFBE
:105400005C699C6927EA0404A4B2B4FA84F46409D0
:10541000A14501D0002017E06A1CEED0FFF758FD2F
:10542000089BC01AA84201D8002DE5D100232022F4
:10543000336386F83D2086F83E30326C86F83C3087
:1054400042F0200232640120BDE8F8862DE9F041E7
:1054500004460F46164698462568686927EA000004
:1054600080B2B8B16B695A0516D52B6843F4007346
:105470002B606FF480636B6120220023236384F828
:105480003D2084F83E30226C42F00402226484F80D
:105490003C300120BDE8F081731CDED0FFF718FD21
:1054A000A0EB0800B04201D8002ED5D10023202265
:1054B000236384F83D2084F83E30226C42F02002C1
:1054C000E4E770B504460D46164621684B6913F0B3
:1054D000400301D0002010E04A69D2060ED56FF0DB
:1054E00010024A612022236384F83D2084F83E3074
:1054F000226C226484F83C30012070BDFFF7E8FC88
:10550000801BA84201D8002DDFD100232022236375
:1055100084F83D2084F83E30226C42F02002E8E717
:1055200070B504460D46164623685B695B0701D5D6
:10553000002070BD2046FFF73DFFA8B96A1CF3D0DC
:10554000FFF7C6FC801BA84201D8002DECD1002338
:105550002022236384F83D2084F83E30226C84F8B6
:105560003C3042F0200222640120E2E770B504469C
:105570000D46164623685B691B0601D5002070BDE9
:105580002046FFF717FFA8B96A1CF3D0FFF7A0FC6D
:10559000801BA84201D8002DECD1002320222363D8
:1055A00084F83D2084F83E30226C84F83C3042F090
:1055B000200222640120E2E72DE9F043154602684B
:1055C00085B0DDE90C789946136843F48073136065
:1055D0000E463B46CDF8008000224FF001110446F4
:1055E000FFF702FF236838B11B68DB0502D54FF4D3
:1055F0000073236403200AE006F0FE061E611949C9
:1056000043463A462046FFF721FF18B1012005B076
:10561000BDE8F083236803905A6903929B69039362
:10562000424639462046039BFFF7A0FF40B1236C5A
:10563000042B01BF2268136843F400731360E5E78D
:10564000B9F1010F236802D1EDB21D61DFE72A0A2B
:105650001A61394642462046FFF788FF0028E6D106
:105660002368F1E7020001002DE9FF479A4603682D
:1056700015461A6842F480621A601A68DDE90C78EF
:1056800042F480721A600E463B46CDF8008000223C
:105690004FF001110446FFF7A7FE236848B11B68CD
:1056A000DB0502D54FF400732364032004B0BDE88A
:1056B000F0875FFA86F906F0FE061E612A49434626
:1056C0003A462046FFF7C2FE08B10120EEE7236804
:1056D00003905A6903929B690393424639462046D8
:1056E000039BFFF743FF40B1236C042B01BF2268EB
:1056F000136843F400731360E7E7BAF1010F2368FE
:105700001AD1EDB21D61424639462046FFF72EFF01
:105710000028E9D12268136843F4807313604FF0C6
:1057200001110246CDF800803B462046FFF75CFEA3
:10573000226860B11368B3E72A0A1A613946424603
:105740002046FFF713FF0028CED12368D9E749F0A0
:1057500001031361044943463A462046FFF776FEAB
:10576000003818BF0120A1E70200010070B504460F
:1057700008B9012070BD90F83D3003F0FF021BB95D
:1057800080F83C20FCF7FAF8242384F83D302368A5
:105790001A6822F001021A601A6842F400421A6084
:1057A0001A6822F400421A6000F074FE3F4B6568EC
:1057B0009D4294BF3E4B3F4B98428CBF0023012338
:1057C000002BD6D12268394E53683B49B0FBF1F12A
:1057D00023F03F030B43B542536088BF4FF49676E6
:1057E000136A88BF714323F03F0384BF4FF47A7676
:1057F000B1FBF6F1013119431162D169431E2B4807
:1058000021F44F41854221F0FF0132D86D0040F66E
:10581000FC70B3FBF5F30133034242D0C3F30B0337
:105820000B43D361D4E907301168034321F0C00171
:105830000B4313609168D4E9030321F4034103434C
:1058400021F0FF010B439360D4E90530D168034395
:1058500021F0FF010B43D360136843F00103136091
:1058600000202023206484F83D30206384F83E002B
:1058700080E7A06850B905EB4505B3FBF5F30133AC
:10588000C3F30B037BB143F40043C9E7192045433D
:10589000B3FBF5F30133C3F30B0323B143F44043EC
:1058A000BEE70423BCE70123BAE700BFA0860100DE
:1058B0007F841E00FF083D0040420F002DE9F743A2
:1058C000044699460C9E0F469046FFF701FB94F85C
:1058D0003D30202B054603D0022003B0BDE8F08305
:1058E00000903C49192301222046FFF77DFD002846
:1058F000F2D194F83C30012BEED02068012384F8DB
:105900003C300368D9075EBF036843F001030360BE
:10591000036823F400630360212384F83D304023AF
:1059200084F83E30002323640A9B6362BDF82C3068
:105930006385638D2385284BE362CDE900654B4683
:10594000424639462046FFF737FE00282AD001207C
:10595000C3E7FFF70BFE40B1236C042B01BF2268A5
:10596000136843F400731360F1E7636A27681A460B
:1059700012F8011B39616262628D218D013A92B287
:1059800062857A69481E80B2520720850AD548B1DF
:105990005A783A6102336362638D013B02399BB2EC
:1059A00021856385238D2A4631462046002BD0D1A0
:1059B000FFF7B6FD0028CFD12268136843F40073C7
:1059C0001360202384F83D3084F83C0084F83E00C6
:1059D00083E700BF020010000000FFFF2DE9F04345
:1059E000044687B09946109F0D469046FFF770FA1F
:1059F00094F83D30202B064604D00225284607B0F7
:105A0000BDE8F08300907649192301222046FFF774
:105A1000EBFC0028F1D194F83C30012BEDD020684C
:105A2000012384F83C300368DB075EBF036843F062
:105A300001030360036823F400630360222384F8F6
:105A40003D30402384F83E30002323640E9B636284
:105A5000BDF83C306385638D2385624BE362294644
:105A6000CDE900764B4642462046FFF7FDFD054650
:105A700008B10125C2E7228D2368B2B902905A69A4
:105A800002929A690292029A1A6842F400721A60AB
:105A9000DFF85481238D002B2CD1202284F83D2067
:105AA00084F83C3084F83E30A8E7012A0AD11A680D
:105AB00022F480621A6003905A6903929A690392F1
:105AC000039AE1E7022A0ED11A6822F480621A6072
:105AD0001A6842F400621A6004905A6904929B6941
