:020000040800F2
:100000000000032095050008C11D0008C31D00085D
:10001000C51D0008C71D0008C91D0008000000001C
:1000200000000000000000000000000091640008D3
:10003000CB1D00080000000021650008AB5D000832
:10004000E5050008E5050008E5050008E5050008E8
:10005000E5050008E5050008E5050008E5050008D8
:10006000E5050008E5050008E5050008E5050008C8
:10007000E5050008E5050008E5050008E5050008B8
:10008000E5050008E5050008E5050008E5050008A8
:10009000E5050008E5050008E5050008E505000898
:1000A000E5050008E5050008E5050008E505000888
:1000B000E5050008E5050008E5050008E505000878
:1000C000E5050008E5050008E5050008E505000868
:1000D000E5050008E5050008E5050008E505000858
:1000E000E5050008E5050008E5050008E505000848
:1000F000E5050008E5050008E5050008E505000838
:10010000E5050008E5050008E5050008E505000827
:10011000E5050008E5050008CD1D0008E505000817
:10012000E5050008E5050008E5050008E505000807
:10013000E5050008E5050008E5050008E5050008F7
:10014000E5050008E5050008E5050008E5050008E7
:10015000E5050008E5050008E5050008E5050008D7
:10016000E5050008E5050008E5050008E5050008C7
:10017000E5050008E5050008E505000800000000A9
:10018000E5050008E5050008E5050008E5050008A7
:10019000E5050008E5050008E5050008E505000897
:0C01A000D91D0008E5050008E51D000859
:1001B00010B5054C237833B9044B13B10448AFF3A1
:1001C00000800123237010BD6401002000000000A6
:1001D00008B1010808B5034B1BB103490348AFF34D
:1001E000008008BD000000006801002008B101087F
:1001F00001F0FF01102A2BDB10F0070F08D010F8D8
:10020000013B013A8B422DD010F0070F42B3F6D1DB
:10021000F0B441EA012141EA014122F007047FF0F4
:1002200000070023F0E80256083C85EA010586EA4B
:10023000010685FA47F5A3FA87F586FA47F6A5FA87
:1002400087F68EB9EED1F0BC01F0FF0102F0070293
:1002500032B110F8013B013A83EA010313B1F8D13E
:100260000020704701387047002D06BF354603381F
:10027000073815F0010F07D1013015F4807F02BF58
:10028000013015F4C03F0130F0BC0138704700BFA9
:1002900053B94AB9002908BF00281CBF4FF0FF31ED
:1002A0004FF0FF3000F074B9ADF1080C6DE904CEE9
:1002B00000F006F8DDF804E0DDE9022304B0704741
:1002C0002DE9F047089D04468E46002B4DD18A4209
:1002D000944669D9B2FA82F252B101FA02F3C2F13C
:1002E000200120FA01F10CFA02FC41EA030E9440CD
:1002F0004FEA1C48210CBEFBF8F61FFA8CF708FBEE
:1003000016E341EA034306FB07F199420AD91CEBC5
:10031000030306F1FF3080F01F81994240F21C81F7
:10032000023E63445B1AA4B2B3FBF8F008FB10333F
:1003300044EA034400FB07F7A7420AD91CEB040474
:1003400000F1FF3380F00A81A74240F20781644444
:10035000023840EA0640E41B00261DB1D4400023C9
:10036000C5E900433146BDE8F0878B4209D9002D2D
:1003700000F0EF800026C5E9000130463146BDE8B7
:10038000F087B3FA83F6002E4AD18B4202D3824221
:1003900000F2F980841A61EB030301209E46002DD0
:1003A000E0D0C5E9004EDDE702B9FFDEB2FA82F225
:1003B000002A40F09280A1EB0C014FEA1C471FFA83
:1003C0008CFE0126200CB1FBF7F307FB131140EA6A
:1003D00001410EFB03F0884208D91CEB010103F137
:1003E000FF3802D2884200F2CB804346091AA4B2F9
:1003F000B1FBF7F007FB101144EA01440EFB00FECD
:10040000A64508D91CEB040400F1FF3102D2A64531
:1004100000F2BB800846A4EB0E0440EA03409CE7D0
:10042000C6F12007B34022FA07FC4CEA030C20FA7D
:1004300007F401FA06F31C43F9404FEA1C4900FA9D
:1004400006F3B1FBF9F8200C1FFA8CFE09FB18111A
:1004500040EA014108FB0EF0884202FA06F20BD98D
:100460001CEB010108F1FF3A80F08880884240F2DD
:100470008580A8F102086144091AA4B2B1FBF9F021
:1004800009FB101144EA014100FB0EFE8E4508D91C
:100490001CEB010100F1FF346CD28E456AD90238A1
:1004A000614440EA0840A0FB0294A1EB0E01A14286
:1004B000C846A64656D353D05DB1B3EB080261EBF4
:1004C0000E0101FA07F722FA06F3F1401F43C5E9CE
:1004D000007100263146BDE8F087C2F12003D84004
:1004E0000CFA02FC21FA03F3914001434FEA1C4746
:1004F0001FFA8CFEB3FBF7F007FB10360B0C43EA38
:10050000064300FB0EF69E4204FA02F408D91CEBE7
:10051000030300F1FF382FD29E422DD902386344E5
:100520009B1B89B2B3FBF7F607FB163341EA034185
:1005300006FB0EF38B4208D91CEB010106F1FF38D4
:1005400016D28B4214D9023E6144C91A46EA0046CB
:1005500038E72E46284605E70646E3E61846F8E65D
:100560004B45A9D2B9EB020864EB0C0E0138A3E7A6
:100570004646EAE7204694E74046D1E7D0467BE787
:10058000023B614432E7304609E76444023842E7FF
:10059000704700BFDFF834D0002103E00C4B5B58FC
:1005A000435004310B480C4B42189A42F6D30B4A85
:1005B00002E0002342F8043B094B9A42F9D303F0CE
:1005C000CDF919F03BFD00F0E3FE70470000032079
:1005D0003CB40E08000000206401002064010020EB
:1005E000F42A0120FEE7704708B500F01BFDBDE8C6
:1005F000084000F0A7BC00F017BD704710B50421FB
:10060000044619F0A3FC204610BD000038B50C4B81
:100610000C4C18800C4B822019806368984740F678
:10062000110398420AD1094D23682C608220984713
:100630002B688220DB689847002038BD0120FCE74A
:10064000800100204C000020820100208401002055
:100650004FF4A071F020FFF7D9BF0000F7B52D4D82
:100660002B6804461B698220984780B220800028AE
:1006700043D02B680DF106025B6901A982209847DF
:10068000BDF80620A2F5B47292B20A2A37D90B231C
:10069000B2FBF3F2204B1B889A4201D9013B9AB27C
:1006A000BDF8043040F6B8318B422AD8C3F57163E7
:1006B0000E339BB20F21B3FBF1F3184909888B422B
:1006C00001D94B1E9BB2164E164D30682F688342DF
:1006D00081B28CBF591AC91AB8B2BA428CBF101A6B
:1006E000801A89B280B201440529C8BF33603368DB
:1006F000C8BF2A6063802B68A38003B0F0BD0022CE
:10070000CEE7C3F56D6308339BB20E2BD2D800231E
:10071000D9E700BF84010020820100208001002071
:10072000880100208C01002037B568460D4614462C
:10073000FFF794FFBDF8000030B1BDF802302B6028
:10074000BDF804302360012003B030BD032821D858
:10075000DFE800F0020B12190F4B1A68B2FA82F2AE
:10076000520904210D4803F091BB0B4B5A68B2FAB1
:1007700082F252090821F5E7074B9A68B2FA82F231
:1007800052091021EEE7044BDA68B2FA82F25209FC
:100790002021E7E7704700BF9001002000100240D1
:1007A000032821D8DFE800F0020B12190F4B1A685A
:1007B000003A18BF012204210D4803F067BB0B4B20
:1007C0005A68003A18BF01220821F5E7074B9A68DA
:1007D000003A18BF01221021EEE7044BDA68003A14
:1007E00018BF01222021E7E7704700BF90010020D9
:1007F0000010024003280DD8DFE800F00206080AC6
:100800000421054803F047BB0821FAE71021F8E767
:100810002021F6E7704700BF0010024008B503280A
:1008200011D8DFE800F0020A0C0E0421074803F09B
:1008300027FB431E5842584108BD0821F6E7102106
:10084000F4E72021F2E70020F3E700BF00100240A8
:1008500070B5084D00240126E0B2FFF7DFFF18B1A4
:100860002B68012B18BF2E600134052C05F10405FF
:10087000F2D170BD90010020012380F8741080F83F
:100880007530704700207047034B4164003918BF32
:1008900001211970704700BF4F28012000207047C8
:1008A000836B0BB10846184770474FF6FF707047CF
:1008B000406803689B69184770477047704700009D
:1008C00070B5044600F07EFC2368D3F88850044BD2
:1008D000D4E90F122046AC46BDE87040604700BF27
:1008E000000000D008B503680446D3F8803098476C
:1008F000236820469B6F984700F0ECF82368204659
:100900001B6F9847292000F07BFF00F0E3F8236875
:1009100020461B6F9847F8E710B5044609F096FA91
:1009200023682046D3F8AC30BDE81040184700F0EB
:100930003BBC00F03FBC00F06BBC00F011BC00F011
:1009400073BC00F07BBC00F015BC08F0E5BC10B532
:100950007C21044619F0FAFA204610BD90F8773051
:100960001BB1406803681B681847184670470000B1
:1009700010B590F8341090F874400C4B8C421A78F3
:1009800009D03AB90A4A0B491488088810800C80AB
:1009900001221A7010BD002AFCD0054A05491488AE
:1009A000088810800C800022F3E700BF482801204F
:1009B000442801204628012070B50D46194635B956
:1009C000094B0A4A0A4840F2D22119F0EDFAC0E96F
:1009D0000F52084B003A18BF01221A700368BDE895
:1009E0007040D3F88C30184778B10108B0B10108D5
:1009F000FEB101084E28012008B5094B1B888B4227
:100A000003D8084B1B88934205D9074B074A08486F
:100A10009E2119F0C9FA074B1980074B1A8008BDAF
:100A2000442801204628012043B20108A6B201084B
:100A3000FEB101084A2801204C280120012108B5F7
:100A40000022084605F03FFA0A4B186028B90A4B05
:100A50000A4A28210A4819F0A7FA00220421012095
:100A600005F0CEFA074B186018B9074B034A2C2142
:100A7000F0E708BDA4010020C4B301080DB40108CB
:100A80003CB40108A0010020C1B40108024B4FF0A2
:100A9000FF31186805F061BAA4010020014B186805
:100AA00005F086BAA4010020024B0021186805F069
:100AB00054BA00BFA4010020FFF7F0BF0348044967
:100AC000006800231A4605F0D6BA00BFA001002036
:100AD0000400002013B5084C00231A4601A9206821
:100AE00005F0F9FA20684FF0FF33002201A905F064
:100AF000F2FA02B010BD00BFA001002003685B6CD9
:100B000018470120704703689B6A184782B000238A
:100B100001930D4B1A6B42F400021A631A6B02F434
:100B200000020192019A1A6942F400021A611A69DC
:100B300022F400021A61054B054A1A61054B4FF079
:100B400080629A6002B0704700380240241800208A
:100B5000990B000800E100E040F2EF307047000020
:100B6000054B0360054B4FF08062C3F88820BFF34C
:100B70004F8FBFF36F8F704798B6010800E100E018
:100B800010B504464FF45A61FFF7EAFF204619F00A
:100B9000DDF9204610BD0000024B1B685868036851
:100BA0005B6918475028012070B5044625460A4B5A
:100BB0000C30002660602672667245F8203B602289
:100BC000294609F081FA04F55A63EE602435AB42F8
:100BD000FBD1204670BD00BF98B6010808B50B29AF
:100BE0000BD8DFE801F01206100A0A0A0A08080802
:100BF0000808012008BD0520FCE7054B054A06480A
:100C0000662119F0D1F90020F4E70220F2E700BFD5
:100C100003B501081EB5010868B5010808B50A2921
:100C200009D8DFE801F010060E08080808060606D5
:100C30000600012008BD054B054A0648872119F02A
:100C4000B3F90020F6E70220F4E700BF03B501087E
:100C5000EBB5010868B501082DE9F8434F7F0C4654
:100C600039468146FFF7BAFF94F81E800546414693
:100C70004846FFF7B3FF414606464846FFF7CEFF1A
:100C8000A18A628B424B521A1A649A61228B521AC1
:100C90001A61E28A586342EA01425A642069626832
:100CA000D863DA60216894F81CC080294FEA0C628E
:100CB00026D010D8202945EA020461D040295FD00F
:100CC00004295DD0324B2A4342F400324745DA61B1
:100CD0005AD0304A40E0B1F5807F07D0B1F5007FAF
:100CE000F0D142F4003242F0090203E042F4003253
:100CF00042F00A02DA61E2681A625E6258612AE032
:100D0000A4682A4342F40032211DD962DA612278B4
:100D10005E62586142B1012A21D01F4B1F4A204810
:100D200040F2111119F040F9DA69618822F47F422A
:100D3000013922F0100242EA0122DA610120144B4B
:100D4000DA6942F02002DA61DA699206FCD41022F4
:100D50009A600028BDD0134A1A60BDE8F883628803
:100D6000D969541E21F47F4222F0100242EA042283
:100D7000BCF1FF0042F0100218BF0120DA61DEE78B
:100D800044F40034DC61B8E740F20122E4E700BF3C
:100D900000B002400102010036B6010850B6010859
:100DA00068B501080102020070B50C46897FFFF7A3
:100DB00035FFA68AE18A628B154B2569586341EAA3
:100DC0000641921B5964DD631A642668E168082EA7
:100DD0000DD19A611A615862207F0E4A42EA006280
:100DE000DA610D4A19625D61DD601A6070BD002232
:100DF000D8611A6148090A0A02F4784200F4FC60DA
:100E00000243C1F3C4010A439A63044AEDE700BFF9
:100E100000B00240090001000102020001020300CB
:100E2000012070474020704700EB81100830704768
:100E300000EB8110083070470120704740F2E45009
:100E4000704740F2E45303FB01000830704740F262
:100E5000E45303FB01000830704701207047102065
:100E6000704700EB01100830704700EB01100830AC
:100E70007047084601F0DABC10B5034B0360044626
:100E800007F0ABF8204610BD50B7010810B5044676
:100E9000FFF7F2FF2046482119F058F8204610BD10
:100EA00010B5034B0360044607F097F8204610BDC9
:100EB0001CB7010810B50446FFF7F2FF204640F2C8
:100EC000EC5119F043F8204610BD000010B5034B5B
:100ED0000360044607F081F8204610BDE8B601081B
:100EE00010B50446FFF7F2FF2046182119F02EF83E
:100EF000204610BD10B5084B0360044600F5C360E2
:100F0000FFF7BAFF04F12C00FFF7CAFF04F1140049
:100F1000FFF7DCFF204610BD84B7010808B5024882
:100F2000FFF7E8FF08BD00BFAC01002010B5044684
:100F3000FFF7E0FF20464FF4F86119F007F820466C
:100F400010BD00002DE9F34100F0C0FF054600F0A0
:100F5000C1FF0024014623462846224600940DF096
:100F6000E9F9254B254A264D1A60204602F0CCF8B7
:100F700024480DF047F92B78BFF35B8FDB0735D49E
:100F8000284618F0E5FF88B31F4C204B236004F27D
:100F9000646604F1140004F12C0804F5C367606072
:100FA000C4F80880E760266107F018F8184B636101
:100FB000404607F013F8174BE362384607F00EF887
:100FC000154BC4F8183604F5CC6002F05DF92246E2
:100FD00004F5CC61304602F04DF9304601F026FCB4
:100FE0000E4818F0FFFF284618F0BEFF0C4802B06C
:100FF000BDE8F041FFF764BCAC2801208C1700204D
:10100000A801002008000020AC01002084B70108DE
:10101000E8B601081CB7010850B701081D0F000809
:1010200010170020704700000148FFF75BBC00BFAD
:101030001017002070B5234C234E244B244D236001
:101040003046FFF7B1FD284610F07EFA214B2248CA
:10105000DC60224C03600022F0204FF4807120807D
:10106000C3E912121E4C1F492080C3E919121E4CFD
:101070001A864FF080714FF4A07059670121C3E9BF
:101080000422C3E90622C3E90822C3E90A22C3E90C
:101090000E22C3E91022C3E91422C3E916221A66FC
:1010A00083F86C201A67C3E9016583F87810208003
:1010B0000E4C83F8341020800D4802700D4A1A60DF
:1010C00070BD00BF6C0900207009002068B10108E4
:1010D00090170020101700205028012044280120DC
:1010E0004A28012001000001462801204C28012047
:1010F00048280120F4B201080148FFF731BD00BFC4
:10110000700900200020704781807047C1807047BF
:101110000181704741817047704770477047704741
:10112000704710B4C4880368121B84885B6D091B68
:1011300012B25DF8044B09B218474FF6FF73838172
:101140004FF0FF3303621368C3611060704790F87B
:1011500025201AB190F8242002B1186070470000D1
:10116000034B902283F85A2383F85823704700BF1B
:1011700000E100E0094A0A49D3680A48C3F30A03B8
:10118000013B9BB20B801169C1F30A010139018057
:101190001364536B43F001035363704700680140CD
:1011A0000C1800200A180020014BD3F8AC0070473F
:1011B00000680140024B0122C3F8AC105A6270472C
:1011C0000068014070B5044608F0FBF823685D6EC6
:1011D0000AF0A0FA01462046A8472368054AD3F83A
:1011E00088502046AC460023BDE87040A2F5163179
:1011F000604700BF00B004D008F0CAB890F84B3088
:1012000013B1024B01221A7008F0CEB80818002062
:1012100008F088B808F0E3B990F8252012B1036807
:101220005B69184770470000034B4FF080629A607B
:101230004FF080729A60704700E100E0084B4FF079
:101240008062C3F88820BFF34F8FBFF36F8F4FF0DA
:101250008072C3F88820BFF34F8FBFF36F8F704742
:1012600000E100E010B5144C236823B3134B144A7B
:101270001B6C11888B4213D1124B198803F0ECFBC5
:10128000226892F86630013382F86630FFF716FC68
:10129000206808F0DBFDBDE810400020FFF756BADB
:1012A00003F0DAFB206803681B6A9847BDE810402A
:1012B0000020FFF775BA10BD5028012000680140DA
:1012C0000C1800200A18002007B5064BADF80600E0
:1012D0001B68054801220DF1060104F009F903B06D
:1012E0005DF804FB100000209419002008B564206C
:1012F00004F0DDFDFBE7000030B595B010220021C1
:101300000AA818F0DDFE1422002103A818F0D8FE68
:1013100000241D4B01941A6C42F080521A641B6C1D
:1013200003F080530193019B184B02941A6842F416
:1013300040421A601B6803F4404302930122029B5F
:101340004FF48033CDE9082302254FF48003CDE923
:101350000E5308214FF4A873CDE9101308A80423F5
:101360001393129503F096FB0F23CDE903354FF449
:10137000A0504FF48053CDE90603052103A805943E
:1013800003F066FD15B030BD00380240007000402B
:1013900080B59AB002F0F0FAFFF7AEFF14220021F8
:1013A0000DA8002418F08CFEC04B00941A6BC048A6
:1013B000C04D42F010021A631A6B02F01002009244
:1013C000009A01941A6B42F020021A631A6B02F021
:1013D00020020192019A02941A6B42F080021A6371
:1013E0001A6B02F080020292029A03941A6B42F086
:1013F00004021A631A6B02F004020392039A049423
:101400001A6B42F001021A631A6B02F00102049295
:10141000049A05941A6B42F002021A631A6B02F0E6
:1014200002020592059A06941A6B42F040021A6372
:101430001A6B02F040020692069A07941A6B42F069
:1014400008021A631B6B03F00803079322463C2132
:10145000079B02F01BFD98482246042102F016FD6E
:10146000224696484FF4405102F010FD01264FF0FD
:1014700003083C238E48CDF840800DA902274FF089
:101480000409CDE90D360F9402F014FC8A480F943C
:101490000DA9CDE90D96109702F00CFC0DA94FF4A3
:1014A00040538648CDE90D36CDE90F4702F002FCE6
:1014B0008348844B036002F0F1FA834A834B2C6229
:1014C000C5E9002328464FF48043C5E90434C5E943
:1014D0000244C5E9064402F0C3FE1021284603F089
:1014E000FFF82146284603F01AF9794879498462C1
:1014F0004FF48273C0E900134FF400751823C0E95C
:1015000006530A23744DC362C0E90244C0E904448F
:10151000C0E9084403F090FF704B0D974FF0100C9A
:10152000C5E900364023C5E904C34FF4C073C5E9DB
:1015300006344FF40063C5E908344FF40053AB623E
:101540000DA907232846CDE90E39CDE910384FF013
:10155000080AC5E90249CDE9127703F06DFE4FF69E
:10156000FF7209A92846CDE90AA6089409960C94A9
:1015700003F082FE304602F02BFA4FF6FF7209A903
:101580002846CDE9097ACDE90B6403F075FE4FF6E4
:10159000FF7209A92846CDE9098ACDE90B9403F029
:1015A0006BFE4FF40C730893089B0C934FF6FF727D
:1015B00009A92846CDE9099A0B9603F05DFE40F291
:1015C0006A51284603F076FE342221460DEB0200D4
:1015D00018F076FD424D434BAC86C5E90034092333
:1015E000C5E905361D2340F20D1EC5E9073840F256
:1015F0004313C5E909E3284640F2471340F21718A0
:10160000C5E90B83C5E902442C6185F8364003F037
:101610002BF9FF21F022CDE912144FF48069052146
:101620004FF4A073CDE90E24CDE91491CDE9164213
:101630000DA922462846CDE910372B4D18930D945D
:10164000ADF864408DF8664003F0D9F9274B2B6064
:101650001B6898472B68264DDB689847254BC5E9E2
:101660000A47C5E90C442846C5E90034C5E90274B7
:1016700002F024FA3146284602F0D8FAFEF7B4FF09
:10168000FEF7B1FF1C4A1D48214604F0C7FB1C4B66
:101690001C4A186021461C4804F0C0FB1B4B186014
:1016A00004F090FB04F0A0FBFEE700BF003802400E
:1016B000001002406418002000080240000C0240A4
:1016C0001C18002000300240005C0040A086010091
:1016D000941900200050014060190020400100A032
:1016E000B8180020006801401418002014000020E1
:1016F0002418002000B00240CCB70108ED12000809
:1017000018180020A8B70108F705000810180020D5
:10171000704770477FB5094B8DF817201B680293FF
:101720000DF117020123009201930A460146044875
:1017300002F03EFE07B05DF804FB00BF0C00002085
:10174000641800207FB500238DF81730084B1B6804
:1017500002930A4601230DF11701009101930146FE
:10176000044802F0B5FE9DF8170007B05DF804FBD1
:101770000C000020641800201FB5084C246800925B
:10178000CDE901340A4601230146054802F0A0FED6
:10179000003818BF012004B010BD00BF0C000020AD
:1017A0006418002002F014B908B50648002204218C
:1017B00002F06CFBBDE8084002480122042102F05F
:1017C00065BB00BF0008024038B50B4D044601223E
:1017D0000A484FF4005102F059FB00220421284628
:1017E00002F054FB2046FFF76FFD28460122BDE8BA
:1017F0003840042102F04ABB00080240000C0240BD
:1018000038B50B4D044600220A484FF4005102F04F
:101810003DFB00220421284602F038FB2046FFF75A
:1018200053FD28460122BDE83840042102F02EBBBA
:1018300000080240000C0240F7B5144E144F054654
:101840000C4630460022042102F020FB00224FF417
:101850000051384602F01AFB2846FFF735FD0D4BC4
:101860000D481B68224601A903F0E4FF3846012217
:101870004FF40051019C02F009FB30460122042183
:1018800002F004FB204603B0F0BD00BF0008024098
:10189000000C0240100000209419002002F098B8BB
:1018A0000268034B9A4201D102F080B8704700BF32
:1018B000001000407047000082B00E4B00220092E2
:1018C000596C41F480415964596C01F48041009194
:1018D00000990192196C41F0805119641B6C03F05E
:1018E00080530193019B0F216FF0010002B002F0C1
:1018F00095B800BF003802400268094B9A4282B096
:101900000BD100230193074B1A6B42F480521A63E8
:101910001B6B03F480530193019B02B0704700BF1F
:10192000003002400038024007B50F4B02689A426F
:1019300016D10022A3F5F0430192196B41F4000186
:1019400019631B6B03F40003019305215A20019BCB
:1019500002F064F85A2003B05DF804EB02F090B88E
:1019600003B05DF804FB00BF00B002402DE9F04376
:10197000044689B01422002103A818F0A1FB2268B4
:10198000244B9A4243D1244C244800250095236BD4
:1019900043F004032363236B03F004030093009BD1
:1019A0000195236B43F001032363236B03F00103D1
:1019B0000193019B4FF012094FF400734FF001089F
:1019C0000327042603A9CDE90339CDE90587079646
:1019D00002F070F94FF480731148079603A9CDE91E
:1019E0000339CDE9058702F065F90295236C43F4CC
:1019F00000032364236C03F400030293029B236A15
:101A000043F400032362236A23F40003236209B032
:101A1000BDE8F083005C004000380240000802404E
:101A200000000240F0B599B004461422002107A836
:101A300018F046FB30220DEB0200002118F040FBAD
:101A400022685E4B9A4240F0B78008230C93C02373
:101A50001093042312930CA84FF40033159303F052
:101A6000C1FA08B1FFF726FF554B564800240094F1
:101A70005A6C42F080625A645A6C02F080620092A2
:101A8000009A01941A6B42F020021A631A6B02F05A
:101A900020020192019A02941A6B42F001021A6329
:101AA0001A6B02F001020292029A03941A6B42F03E
:101AB00002021A631A6B02F002020392039A049460
:101AC0001A6B42F040021A631A6B02F04002049251
:101AD000049A05941A6B42F004021A631A6B02F01E
:101AE00004020592059A06941A6B42F008021A63E2
:101AF0001B6B03F00803069302250E26069B0B962C
:101B00004FF4806307A9CDE90735CDE9094502F017
:101B1000D1F841F658032C480B9607A9CDE90735B3
:101B20000927CDE9094502F0C5F8032327480B979B
:101B300007A9CDE90735CDE9094502F0BBF84FF417
:101B4000706322480B9607A9CDE90735CDE9094511
:101B500002F0B0F84FF40C631D480B9607A9CDE9CD
:101B60000735CDE9094502F0A5F8C02319480B96C1
:101B700007A9CDE90735CDE9094502F09BF808230F
:101B800015480B9607A9CDE90735CDE9094502F0BF
:101B900091F84FF4A0530E480B9707A9CDE90735EC
:101BA000CDE9094502F086F858202246052101F0CA
:101BB00035FF582001F064FF19B0F0BD0068014006
:101BC00000380240001402400000024000040240BD
:101BD0000018024000080240000C024010B5044604
:101BE00088B01422002103A818F06AFA2268144B66
:101BF0009A4223D103F56843002101915A6C1148A0
:101C000042F480125A645A6C02F480120192019AD2
:101C100002911A6B42F020021A631B6B03F020033F
:101C20000293029B4FF4607202230321CDE9032348
:101C30000523CDE9061303A902F03CF808B010BD56
:101C400000500140001402402DE9F04186B000230D
:101C500003932B4B1C68002C4FD14FF00108C3F8A5
:101C60000080284B00949A6B274842EA08029A6346
:101C70009B6B03EA08030093022703260C25009BB5
:101C800001A94FF63F03CDE90137CDE9046502F024
:101C900011F81E48059501A9CDE90187CDE9034654
:101CA00002F008F848F233131948059501A9CDE967
:101CB0000137CDE9034601F0FDFF4FF68373154868
:101CC000059501A9CDE90137CDE9034601F0F2FF01
:101CD0004CF203731048059501A9CDE90137CDE910
:101CE000034601F0E7FF60230C48059501A9CDE903
:101CF0000137CDE9034601F0DDFF06B0BDE8F08114
:101D0000EC19002000380240001402400008024094
:101D10000018024000100240000C02400004024083
:101D200070B588B000230293204B1A6C42F0100269
:101D30001A641B6C03F010030293054601A903A863
:101D4000029B03F031F9069B4BBB03F01DF9184EC3
:101D5000184B336040F2E733F360174BB0FBF3F3FB
:101D6000013B7360304600233361B360B36103F01D
:101D70004DFF044680B9304603F002FE044658B9D0
:101D8000362001F07DFE0F2D0DD822462946362043
:101D900001F044FE094B1D60204608B070BD03F001
:101DA000F3F84000D3E70124F6E700BF0038024013
:101DB000F01900200010004040420F007C0000207D
:101DC0007047FEE7FEE7FEE7FEE77047014803F0D5
:101DD00015BE00BFF0190020014802F0B3BD00BFDE
:101DE000B8180020014801F097BE00BF2418002059
:101DF0000120704708B518F009F9162303604FF069
:101E0000FF3008BD08B518F001F916230360FEE79E
:101E100070B50D4614460E46731B9C4201DC2046ED
:101E200070BDAFF3008006F8010BF5E770B50D4605
:101E300014460E46731B9C4201DC204670BD16F80A
:101E4000010BAFF30080F5E74FF0FF3070474FF420
:101E500000534B60002070470120704700207047FE
:101E60000A4A116808B5034609B9094911601068A2
:101E7000694603448B4206D918F0C8F80C23036066
:101E80004FF0FF3008BD1360FCE700BF381A002098
:101E9000F82A0120704710B50421044618F056F8BE
:101EA000204610BD012908B506D0022908D059B92D
:101EB00001F068F9006808BD01F064F94068FAE7CC
:101EC00001F060F98068F6E70020F4E70048704709
:101ED00004B801081420704713B5002451B10368F9
:101EE00001948DF8034001AA9C680DF10303A047FB
:101EF00002B010BD0846FBE7C0897047008A7047F2
:101F0000C088704780887047807A00F07F007047F3
:101F1000807AC0097047806A70477047704710B573
:101F2000B021044618F012F8204610BD074A02609E
:101F30000022C0E90122C0E90322C0E90522C0E96C
:101F400007224FF480728284704700BF88CC01085A
:101F500070B5036804461B6B1546984723682946ED
:101F600020465B6BBDE870401847000038B526225C
:101F700004460D46002118F0A3F82046FFF7D6FFCF
:101F8000064B23602B88E384FF23204684F8283007
:101F9000294608F026FB204638BD00BFD0CB0108FB
:101FA0002DE9F74304462546FFF7C0FF00262E4BD8
:101FB000A66245F82C3B26223146284618F080F8C8
:101FC0002846FFF7B3FF294BE36204F15808FF23CB
:101FD00004F1840784F852304FF6FF7901A9666551
:101FE0004046ADF80490FFF7C1FF01A93846ADF8AF
:101FF0000490FFF7BBFF1E4BA360324631462846D4
:10200000FFF7A6FF2846F021FFF782F82846462171
:10201000FFF780F84FF0FF3363652946204606F04E
:10202000E4FE0F2240466021FFF792FF01A94046DF
:10203000ADF8046008F0D5FA4146204606F0D5FE1A
:10204000422231463846FFF783FF022301A9384672
:10205000ADF8043008F0C5FA2046394606F0C5FE52
:10206000204603B0BDE8F0839CB901087CCA010892
:10207000F00046007047704700F59873086849689B
:1020800003C3704770477047416070477047000056
:10209000064BC0F84C310023C0F8503100F5A27354
:1020A000C0F84801C0F84031704700BF092300085C
:1020B000012303727047704770477047704710B430
:1020C000C26841685410034601EB6200D20748BF62
:1020D0000A599B685DF8044B48BFD35818474368BA
:1020E0002BB183682BB9C06800F001007047184617
:1020F00070470120704710B50C21044617F026FFE9
:10210000204610BD10B51021044617F01FFF2046D1
:1021100010BD10B54FF4AE71044617F017FF2046FE
:1021200010BD10B54021044617F010FF204610BD29
:1021300010B54021044617F009FF204610BD08B530
:1021400009F0E8FABDE8084009F076BF054B1B78B6
:1021500001462BB1406818B103680C315B6E18471B
:10216000704700BF4F280120054B1B7801462BB15B
:10217000406818B103680C315B6E1847704700BFA8
:102180004F280120037A70B50546BBB94068036843
:10219000DB69984704464CB1A1886B8FC91A236844
:1021A00020461B6B09B29847A469F4E76868036886
:1021B00005F10C011B6EBDE87040184770BD70B58D
:1021C000044690F8390094F838300130C0B2984293
:1021D00084F8390005D901232372002384F83930AB
:1021E00070BDB4F93A2000210BF0DAF810F00102CA
:1021F00083B206D04FF6FF710028D8BF0A46981860
:1022000000B2238AC01AA08760680368DB69984718
:1022100005464DB1A988A38F19442B6828461B6B2E
:1022200009B29847AD69F4E760680368BDE870409B
:102230005B691847037A70B50546BBB94068036807
:10224000DB69984704464CB1A1886B8FC91A236893
:1022500020461B6B09B29847A469F4E768680368D5
:1022600005F10C011B6EBDE87040184770BD70B5DC
:10227000044690F8390094F838300130C0B29842E2
:1022800084F8390005D901232372002384F83930FA
:1022900070BDB4F93A2000210BF082F810F0010271
:1022A00083B206D04FF6FF710028D8BF0A469818AF
:1022B00000B2238AC01AA08760680368DB69984768
:1022C00005464DB1A988A38F19442B6828461B6B7E
:1022D00009B29847AD69F4E760680368BDE87040EB
:1022E0005B69184710B50446D0F8400158B103683F
:1022F000DB68984738B1D4F8400103689B68984779
:102300000023C4F8403110BD2DE9F14FD0E9555AF2
:102310000746A86803681B6A984740F2E35398424F
:1023200005D8464B464AA321464817F03DFE68684B
:1023300003681B6A98470F2803D8434B404AA421DF
:10234000F2E7E86803681B6A98470B2803D83F4BFD
:102350003B4AA521E8E709F0DDF9DFF8F890043001
:1023600009F016FAD9F8000010B10368DB68984745
:10237000D9F8000010B103681B689847DFF8D880CF
:10238000D8F8000010B103685B699847D7F83C01A2
:1023900010B103685B689847D8F8000010B1036873
:1023A0001B689847D7F83C0110B103689B689847B1
:1023B000E868036800215B6A98474FF0000B244BE4
:1023C00003600446C0F804B080F808B0A868036849
:1023D00059465B6A9847064600F0BCFF6868036888
:1023E00059465B6A98473146054600F05FFFC9F8D9
:1023F0000040C7F83C51C8F80060E5B12B1DCAF891
:1024000000303368C5F808A03046DB68F5639847AC
:102410002B6828461B689847214630460AF026FF5D
:10242000236820461B69984723685B69204601B0F2
:10243000BDE8F04F18472B46E1E700BF28BA010876
:10244000B6BA0108BABB010801BC0108A4BC010866
:10245000E4BF0108902801208C2801202DE9F041DB
:102460001D460368BDF918701B6B04461646984755
:102470002368314620465B6B9847236829462046EF
:102480009B6B9847236839462046DB6BBDE8F041DB
:10249000184700002DE9F74FD0E9555A0746A868BC
:1024A00003681B6A984740F2E353984205D8564B9D
:1024B000564AA321564817F077FD686803681B6ADF
:1024C00098470F2803D8534B504AA421F2E7E868F5
:1024D00003681B6A98473F2803D84F4B4B4AA521F6
:1024E000E8E709F017F9DFF84091043009F050F9F6
:1024F000D9F8000010B10368DB689847D9F80000EC
:1025000010B103681B689847DFF82081D8F80000F5
:1025100010B103685B699847D7F83C0110B10368B4
:102520005B689847D8F8000010B103681B689847AB
:10253000D7F83C0110B103689B689847E8680368C6
:1025400000215B6A984706460022344B42600272C3
:1025500046F80C3B0446304607F052FE142323870E
:102560002F4B1B780022A287002B37D10123237227
:10257000A868036800215B6A9847064600F0EAFEF7
:102580006868036800215B6A98473146054600F099
:102590008DFEC9F80040C7F83C51C8F80060002D16
:1025A0002FD02B1DCAF800303368C5F808A030467C
:1025B000DB68F56398472B6828461B6898472146D7
:1025C00030460AF053FE236820461B69984723686B
:1025D0005B69204603B0BDE8F04F1847114BDFF8A8
:1025E00050B0B3F9003000931146BBF900303046CB
:1025F000FFF734FF304607F07EFDBBF800306387FD
:10260000B6E72B46CEE700BF28BA010847BD010850
:10261000BABB010801BC0108A4BC01082CC0010818
:102620004F28012046280120902801208C280120D5
:10263000442801202DE9F74FD0E9555A0746A868EC
:1026400003681B6A9847E32805D8564B564AA321CE
:10265000564817F0A9FC686803681B6A98470F285A
:1026600003D8534B504AA421F2E7E86803681B6A79
:1026700098473F2803D84F4B4B4AA521E8E709F07C
:1026800049F8DFF84091043009F082F8D9F80000E9
:1026900010B10368DB689847D9F8000010B10368EF
:1026A0001B689847DFF82081D8F8000010B1036854
:1026B0005B699847D7F83C0110B103685B6898479D
:1026C000D8F8000010B103681B689847D7F83C01A0
:1026D00010B103689B689847E868036800215B6A4B
:1026E000984706460022344B4260027246F80C3B83
:1026F0000446304607F084FD142323872F4B1B78B4
:102700000022A287002B37D101232372A868036817
:1027100000215B6A9847064600F074FE686803680B
:1027200000215B6A98473146054600F047FEC9F82C
:102730000040C7F83C51C8F80060002D30D02B1D78
:10274000CAF800303368C5F808A03046DB68F56386
:1027500098472B6828461B689847214630460AF060
:1027600085FD236820461B69984723685B692046DE
:1027700003B0BDE8F04F1847114BDFF850B0B3F984
:10278000003000931146BBF900303046FFF766FE7B
:10279000304607F0B0FCBBF800305B426387B5E71A
:1027A0002B46CDE728BA01085EBE0108BABB010876
:1027B00001BC0108A4BC010808C001084F28012081
:1027C00046280120902801208C280120442801203F
:1027D00070B504460D46164609F0A8F80F4A0023C6
:1027E000C4E955650E4D1460C4E953330D4A2260A7
:1027F00028680D4AC4E94F33C4E951230368012115
:102800009B6898472B6893F876200AB1D86C00B97A
:10281000986810F080FC204670BD00BF9C28012005
:102820005028012098BF010880BF0108064BC0F85E
:102830004C310023C0F8503100F5A273C0F84801B4
:10284000C0F84031704700BF09230008064BC0F8AC
:102850004C310023C0F8503100F5A273C0F8480194
:10286000C0F84031704700BF95240008064BC0F8FF
:102870004C310023C0F8503100F5A273C0F8480174
:10288000C0F84031704700BF35260008406A7047E5
:10289000806A704770478B88C0690A68DB0A50F805
:1028A00023001044704710B5C2B1137BB3B1547B01
:1028B000D27A240204F4E0641443026A98B202EB70
:1028C000840213888B4202D192F9020010BD05D810
:1028D000013880B204320028F3D1F7E70020F5E791
:1028E00010B52C21044617F031FB204610BD000026
:1028F00030B58BB00446BDF860500895BDF85C500B
:1029000007959DF8505006959DF84C5005959DF8FB
:10291000485004959DF8445003959DF84050029509
:102920009DF83C500195BDF8385000950AF02EF8FE
:10293000064B2360159BE361169B2362199B636220
:102940001A9BA36220460BB030BD00BF50C00108E7
:102950007047704770477047704770470620704750
:102960007047704738B5074B036004464FF45D75F8
:10297000635960191B68B03D984715F1AC0FF7D14A
:10298000204638BD28C2010810B5044B0360044638
:1029900000F5AE70FFF7E6FF204610BD70C20108DB
:1029A00030B4C26844685510034604EB6200D20795
:1029B00048BF62599B6830BC48BFD358184743682A
:1029C0002BB183682BB9C06800F00100704718462E
:1029D000704701207047F0B4C56846686F10044620
:1029E00006EB6500ED07A46844BFF5592C59A446D1
:1029F000F0BC604743682BB183682BB9C06800F016
:102A000001007047184670470120704710B5044612
:102A1000FFF7A8FF204640F2244117F097FA20461E
:102A200010BD10B51021044617F090FA204610BDD5
:102A300010B51021044617F089FA204610BD10B5D4
:102A40000446FFF7A1FF204640F2D45117F07EFA6A
:102A5000204610BD38B50546C43005F078FC4FF46B
:102A6000B0742B592819D3F88830B0349847B4F58E
:102A7000B06FF6D138BD13B50446084611461A4664
:102A800004F5AE7398420CD1036801929B68984795
:102A90002368019ADB6A0146204602B0BDE8104077
:102AA000184702B010BD000008B58BB2052B05D940
:102AB000054B064A0648542117F076FAB02301FB6D
:102AC0000300043008BD00BFA8C00108C3C001084E
:102AD00057C1010800F5B060884208B505D108F07B
:102AE00019FEBDE80840FFF7C1BE08BD0022C0E9DD
:102AF0000122C0E90322C0E90522C0E907224FF400
:102B000080728284014A0260704700BFC0C1010820
:102B10002DE9F04F2DED028B044685B0A1460AF059
:102B2000F9F90025764BE56349F8403B2946262212
:102B3000484617F0C5FA4846FFF7D8FFFF2604F1CC
:102B40006C08704B236426224FF6FF73294684F8E5
:102B50006660A5664046ADF80C3017F0B1FA404605
:102B6000FFF7C4FF684BE366BDF80C30A4F8923061
:102B700084F8946003A9404604F1980607F031FDFB
:102B8000304605F033FE04F5AE7308EE103A5F4BA5
:102B9000C4F85C3104F5B07704F5B0653846B03759
:102BA00000F016FBAF42F9D126220021384617F07B
:102BB00087FA3846FFF79AFF554BC4F880354FF631
:102BC000FF73A4F8AE35A4F8B03584F8B235514B94
:102BD000C4F8B435504BC4F8BC35504BC4F8C435B8
:102BE0004F4BC4F8CC3500254FF0010B4FF4A073C8
:102BF0002A46009329464846C4F8A85584F8AC559F
:102C000084F8A4B5C4F8B845C4F8C055C4F8C8459C
:102C1000C4F8D055F023FFF721FC04F1040A4FF06B
:102C20007F43A3664946504606F0DFF82A46294608
:102C30004046FFF78DF903A94046ADF80CB007F008
:102C4000D0FC4146504606F0D0F84FF4A0732A4617
:102C500000932946F0233046FFF700FC2946304612
:102C600006F046F82946304606F09EF830462D49D3
:102C700005F07BFF30460A2105F07AFF30460A2135
:102C800005F079FF30460A2105F0EFFE2A46294675
:102C9000304605F02AFE2946304605F03EFE2A461B
:102CA0003046462105F004FE04F2B45218EE101A24
:102CB000304605F0D1FC3146504606F096F83846CD
:102CC00019490722FFF744F90323ADF8083003AA96
:102CD000042302A93846ADF80C3007F0F1FA04F2EB
:102CE000C453504684F8A555C4F8A835394606F0B3
:102CF0007CF8204605B0BDEC028BBDE8F08F00BF2C
:102D000070C201087CCA0108D0CB010828C20108A2
:102D1000E4CA010840C20108772A000858C2010825
:102D2000D52A0008F5D20008EEFEFFFF7047704775
:102D3000704730B4C26844685510034604EB620023
:102D4000D20748BF62599B6830BC48BFD358184768
:102D500043682BB183682BB9C06800F0010070474D
:102D6000184670470120704710B51021044617F02F
:102D7000EDF8204610BD10B5E421044617F0E6F842
:102D8000204610BD9830884208B505D108F0C2FC35
:102D9000BDE80840FFF75ABD08BD00002DE9F04727
:102DA000044686B026460AF0B5F80025454BE56393
:102DB00046F8403B444B2566C4E910354FF4807219
:102DC000FF2304F16C080DF1140AA4F8642084F8C0
:102DD0006630A4F890204FF6FF733C4AE26604F197
:102DE0009807A4F8923084F8943051464046C4E9DC
:102DF0001255C4E91455C4E91655C4E91C55C4E973
:102E00001E55C4E92055C4E92255A566ADF8143015
:102E100007F0E7FB384607F0BDFB2D4BC4E935341E
:102E20002C4B2A46C4E9373529463046FFF790F83F
:102E30003046F021FEF76CF930464FF4A071FEF7F2
:102E400069F904F104094FF07F43A366314648460F
:102E500005F0CBFF2A4629464046FFF779F80623BE
:102E600051464046ADF8143007F0BBFB414648469A
:102E700005F0BBFF2A4629463846FFF769F80323C9
:102E8000ADF808300423ADF80C300B23ADF810304A
:102E9000ADF8143003AA04AB02A93846CDF800A05F
:102EA00007F0E3FA6123C4F8D03004F1D4034846B4
:102EB000C4F8C030394605F098FF204606B0BDE89A
:102EC000F08700BFC0C201087CCA0108D0CB01084E
:102ED000A8C20108852D00087047000030B5164DC6
:102EE0002C78BFF35B8F14F001048FB020D12846FB
:102EF00017F02EF8E0B13F230993104B0893104BC5
:102F0000104911480A940122CDE906430423CDE972
:102F100003320A230093CDE90B44CDE90144059423
:102F2000FFF7E6FC094817F05DF8284617F01CF893
:102F300005480FB030BD00BF3C1A0020C0D20108C8
:102F4000CCD2010890D20108401A0020D92E0008E6
:102F50007047000030B5164D2C78BFF35B8F14F02E
:102F600001048FB020D1284616F0F2FFE0B13F23D4
:102F70000993104B0893104B104911480A940122F1
:102F8000CDE906430423CDE9033214230093CDE9B0
:102F90000B44CDE901440594FFF7AAFC094817F05A
:102FA00021F8284616F0E0FF05480FB030BD00BFFD
:102FB0006C1A0020C4D20108D0D20108A0D20108A6
:102FC000701A0020512F00087047000030B5164DD0
:102FD0002C78BFF35B8F14F001048FB020D128460A
:102FE00016F0B6FFE0B13F230993104B0893104B46
:102FF000104911480A940122CDE906430423CDE982
:10300000033228230093CDE90B44CDE90144059414
:10301000FFF76EFC094816F0E5FF284616F0A4FFFE
:1030200005480FB030BD00BF9C1A0020C8D201086F
:10303000D4D20108B0D20108A01A0020C92F00087C
:1030400000207047002070470EB403B503AB002189
:1030500053F8042B019309F0C1FA02B05DF804EBB8
:1030600003B070470CB407B504AB53F8042B0193BD
:1030700009F0B4FA03B05DF804EB02B07047000049
:10308000436C10B5044673B3038F2BB9184B194A20
:10309000C521194816F088FFC38E00EB43035B8CF3
:1030A0000BB30AF074FE238F012B03D8134B144A81
:1030B000CB21EEE7E28E531C9BB2092B194688BF49
:1030C000A3F10A0104EB410140F63F10498C814213
:1030D00009D10A2B04EB420228BF002304EB43036F
:1030E000508C588451842046BDE810400AF052BDEF
:1030F000ECC20108F5C20108A0C30108EAC3010837
:10310000F8C301080AF00DBD38B518BB124B1348BF
:103110001B681349B3B11A689C681A4402605A6864
:103120001A440A601C440F4B00221A8000F02AF84F
:10313000054600F025F80C4B1C600C4B1D600C4B39
:10314000188007E00B4B03600B4B0B600B4B1C68AC
:10315000002CE8D138BD00BFCC1A0020D01A0020C6
:10316000D41A0020D81A0020A0280120A828012065
:10317000A4280120DCD20108D8D20108E4D2010839
:103180000020704700487047DC1A002010B5FFF798
:10319000E1FE044C2060FFF719FF6060FFF79EFE20
:1031A000A06010BDDC1A002010B5034B036004467C
:1031B000FEF7B3FE204610BDD4C4010810B5044686
:1031C000FFF7F2FF2046B02116F0C0FE204610BDEA
:1031D00010B50446FEF7E4FE014B2360204610BD07
:1031E000D4C40108FEF79ABE13B500F158040A29A9
:1031F00011D8DFE801F00616181A1C1E202224261A
:1032000028000023204601A9ADF8043007F0E9F9B1
:10321000204609F00DFB204602B0BDE8104009F041
:1032200007BB0523EEE70823ECE70A23EAE70C23B4
:10323000E8E70D23E6E70E23E4E70F23E2E7102398
:10324000E0E71123DEE71323DCE7704710B54FF406
:10325000AE71044616F07AFE204610BD10B5044645
:10326000D0F8580100F013F82046BDE8104008F0EF
:10327000EDBA000010B50446FFF7AAFA014B23602F
:10328000204610BD68C501080022026070477047E3
:10329000704704387047704710B51021044616F087
:1032A00055FE204610BDA0F10400F5E710B5002240
:1032B0008260044AC16002F1080420320460426066
:1032C00010BD00BFACC501087047704730B4C2687C
:1032D00044685510034604EB6200D20748BF6259A8
:1032E0009B6830BC48BFD358184743682BB18368EC
:1032F0002BB9C06800F001007047184670470120E4
:10330000704710B51021044616F020FE204610BD6F
:1033100008461146FFF768BF10B5034B036004462B
:10332000FFF732FB204610BDF4C5010810B5044676
:10333000FFF7F2FF204640F2E45116F007FE204668
:1033400010BD08B529B908F0E5F9BDE80840FFF758
:103350008DBA08BD10B50446FFF7DAFB074B2360B2
:10336000074BC4F8D435074BC4F8DC350023C4F848
:10337000D845C4F8E035204610BD00BFF4C50108AB
:10338000DCC501084333000810B500F2D4510446EF
:10339000983005F0F3FB2046BDE81040FFF75ABB1C
:1033A000704704387047704710B51021044616F076
:1033B000CDFD204610BDA0F10400F5E710B50022B8
:1033C0008260044AC16002F1080420320460426055
:1033D00010BD00BF24C601087047000010B5034BA4
:1033E00003600446FFF7A2FC204610BD54C6010846
:1033F00010B50446FFF7F2FF2046E42116F0A6FDC3
:10340000204610BD10B50446FFF7C8FC014B2360F1
:10341000204610BD54C60108FFF789BCF020704754
:103420004FF4A07070472920FEF7EAB92820FEF774
:10343000E7B908B5FEF7B8F9CA20FEF7E1F9C320ED
:10344000FEF7C2F90820FEF7BFF95020FEF7BCF9DD
:10345000CF20FEF7D5F90020FEF7B6F9C120FEF720
:10346000B3F93020FEF7B0F9ED20FEF7C9F964207A
:10347000FEF7AAF90320FEF7A7F91220FEF7A4F938
:103480008120FEF7A1F9E820FEF7BAF98520FEF7C2
:103490009BF90020FEF798F97820FEF795F9CB20EC
:1034A000FEF7AEF93920FEF78FF92C20FEF78CF9E4
:1034B0000020FEF789F93420FEF786F90220FEF796
:1034C00083F9F720FEF79CF92020FEF77DF9EA202A
:1034D000FEF796F90020FEF777F90020FEF774F961
:1034E000B120FEF78DF90020FEF76EF91B20FEF7E4
:1034F0006BF9B620FEF784F90A20FEF765F9A220E1
:10350000FEF762F9C020FEF77BF91020FEF75CF9A8
:10351000C120FEF775F91020FEF756F9C520FEF719
:103520006FF94520FEF750F91520FEF74DF9C72039
:10353000FEF766F99020FEF747F93620FEF760F9AE
:10354000C820FEF741F9F220FEF75AF90020FEF7F5
:103550003BF9B020FEF754F9C220FEF735F9B6204A
:10356000FEF74EF90A20FEF72FF9A720FEF72CF9F7
:103570002720FEF729F90420FEF726F92A20FEF776
:103580003FF90020FEF720F90020FEF71DF900208A
:10359000FEF71AF9EF20FEF717F92B20FEF730F9A6
:1035A0000020FEF711F90020FEF70EF90120FEF7CA
:1035B0000BF93F20FEF708F9F620FEF721F901206C
:1035C000FEF702F90020FEF7FFF80620FEF7FCF8F0
:1035D0002C20FEF715F9C820FEF760F92620FEF72B
:1035E0000FF90120FEF7F0F8E020FEF709F90F20AF
:1035F000FEF7EAF82920FEF7E7F82420FEF7E4F8C2
:103600000C20FEF7E1F80E20FEF7DEF80920FEF7A9
:10361000DBF84E20FEF7D8F87820FEF7D5F83C20EE
:10362000FEF7D2F80920FEF7CFF81320FEF7CCF80A
:103630000520FEF7C9F81720FEF7C6F81120FEF79F
:10364000C3F80020FEF7C0F8E120FEF7D9F800200B
:10365000FEF7BAF81620FEF7B7F81B20FEF7B4F80D
:103660000420FEF7B1F81120FEF7AEF80720FEF7B0
:10367000ABF83120FEF7A8F83320FEF7A5F842207A
:10368000FEF7A2F80520FEF79FF80C20FEF79CF845
:103690000A20FEF799F82820FEF796F82F20FEF76B
:1036A00093F80F20FEF790F81120FEF7A9F8C82034
:1036B000FEF7F4F82920FEF7A3F8BDE808402C2017
:1036C000FEF79EB808B5FEF76FF80321D320FEF78A
:1036D000B3F880B208BD10B5C4B20222032120465F
:1036E000FEF718F80A20FEF75DF8204600220321B5
:1036F000FEF710F8BDE810400220FEF753B838B5C9
:103700000446E4B2FEF704F800212046FEF71AF85A
:10371000012105462046FEF715F840EA052080B253
:1037200038BD10B5C4B240212046FEF70BF80306A1
:1037300007D54C212046FEF705F8003818BF0120B8
:1037400010BD01224B212046FDF7E4FF2046002258
:103750004B21FDF7DFFF0020F2E773B50423C4B26D
:103760000E461546D7210DEB03022046FEF704F85E
:10377000019B1BBA1A0DC3F30B23328020462B800A
:1037800001224B21FDF7C6FF00224B212046FDF709
:10379000C1FF02B070BD000010B50A4B1A7890420C
:1037A00004460DD0597888420AD00AB141B90122A5
:1037B0009C54FDF7ADFF2046BDE81040FFF78BBFDE
:1037C00010BD00BFE81A002010B5C4B20921204680
:1037D000FDF7B8FF40F00100C2B209212046BDE864
:1037E0001040FDF797BF10B5C4B209212046FDF780
:1037F000A9FF092100F0FE022046BDE81040FDF7B8
:1038000089BF38B5C4B20D4620460A21FDF79AFF9C
:103810002843C2B20A212046BDE83840FDF77ABFEE
:1038200007B50190FDF775FF01981F21FFF7E9FF2C
:10383000019803B05DF804EBFFF7C6BF38B5C4B21A
:103840000D4620460A21FDF77DFF20EA0500C2B2A1
:103850000A212046BDE83840FDF75CBF10B504469C
:10386000FFF7C1FF20461F21BDE81040FFF7E6BF6C
:1038700010B5C0B20C460B21FDF764FF204010BD0F
:103880001F21FFF7F5BF0A46C0B20B21FDF742BF6B
:103890001F21FFF7F8BF38B5C4B20D4620461721E7
:1038A000FDF750FF20EA0500C2B217212046BDE80F
:1038B0003840FDF72FBF70B5C4B20646042120463C
:1038C000FDF740FF042100F0FB0205462046FDF70E
:1038D00021FF3046F021FFF7DEFF05F0F802204619
:1038E0000421FDF717FF492220212046FDF712FF92
:1038F0000220FDF757FF204601222121FDF70AFF94
:1039000020469A224121FDF705FF204601224A2147
:10391000FDF700FF204601224B21FDF7FBFE20466C
:1039200000224B21FDF7F6FE204601225621FDF72D
:10393000F1FE204601225821FDF7ECFE204601222F
:103940004021FDF7E7FE2046FF220B21FDF7E2FEB6
:10395000BDE870400220FDF725BF0000054BD3F8FD
:10396000882042F47002C3F888204FF000629A6009
:10397000704700BF00ED00E008B50B4B1A6842F439
:1039800000721A601A6842F480621A601A6842F47F
:1039900080721A60032000F02FF80020FEF7C0F9B3
:1039A000FDF78AFF002008BD003C0240034A044B9B
:1039B00011681B780B441360704700BFEC1A00209D
:1039C00078000020014B1868704700BFEC1A0020F7
:1039D00038B50446FFF7F6FF631C1CBF054B1B7888
:1039E000054618BFE418FFF7EDFF431BA342FAD3C7
:1039F00038BD00BF780000200749CA6822F4E062A1
:103A00000302120403F4E063120C134343F0BF6398
:103A100043F40033CB60704700ED00E0164B30B547
:103A2000DC68C4F30224C4F10705231D042D28BF5C
:103A30000425062B4FF0FF338CBF033C002403FA10
:103A400005F521EA0501A34022EA0302A14000286E
:103A500041EA0203ACBF00F16040084A4FEA031399
:103A6000B8BF00F00F00DBB2AABF00F561401354ED
:103A700080F8003330BD00BF00ED00E014ED00E041
:103A8000002808DB4209012300F01F0003FA00F0C0
:103A9000014B43F82200704700E100E010B50446F6
:103AA00050B1437903F0FF0213B90271FDF724FF0F
:103AB00001236371002010BD0120FCE710B504460E
:103AC00030B390F8393003F0FF021BB980F838208A
:103AD000FDF72AFF22686168022384F839301368F1
:103AE00023F440330B431360536BA16823F00703A7
:103AF0000B435363136CE16823F47F5323F03F03BC
:103B00000B43136400200123E06384F8393010BDB7
:103B10000120FCE770477047036870B55E681D6858
:103B2000F207044614D5E90512D51A6822F480720A
:103B30001A60C26B42F00102C26301229A60042340
:103B400080F83930002380F83830436903B1984752
:103B5000B20616D5AB0414D523681A6822F40052B5
:103B60001A6020229A60E36B43F00203E3630423AC
:103B700084F83930002384F8383063690BB120466B
:103B80009847300716D5290514D523681A6822F4FA
:103B900000621A6008229A60E36B43F00403E36357
:103BA000042384F83930002384F8383063690BB17A
:103BB0002046984772070BD56B0509D523681A680C
:103BC00022F480621A6004229A602046FFF7A2FF66
:103BD000B00714D5A90512D523681A6822F400721B
:103BE0001A6002229A60E36BE363012384F83930A0
:103BF000002384F8383023690BB120469847F20639
:103C000013D5EB0411D523681A6822F480521A6088
:103C100010229A60E36BE363012384F839300023B8
:103C200084F838302046FFF776FF70BDF0B590F885
:103C30003830012B4FF002032BD0012280F83930AD
:103C400080F8382000EB0113D3E907425D6A184F72
:103C500044EA0242093C012C9CBF05F07F431A4311
:103C60004FEA0116036888BF42EA056299B9596AAA
:103C700039400A435A62012C82699A6103D8426A28
:103C800022F07F429A62012380F83930002380F8C5
:103C900038301846F0BDD96939400A43DA618219D3
:103CA000012C92691A619CBF25F07F451D62EAE7ED
:103CB000F0FFFC002DE9F74FDFF8C0916D4A0023BB
:103CC0000D6801249C4004EA050CAC4340F0B98027
:103CD0004D6805F003044FEA43080326671E06FA01
:103CE00008F6012F6FEA060634D8876807EA060E41
:103CF000CF6807FA08F747EA0E078760476827EAA0
:103D00000C0EC5F300179F4047EA0E074760C768CF
:103D100007EA060E8F6807FA08F747EA0E07022C33
:103D2000C76019D14FEAD30A00EB8A0A03F0070BE8
:103D3000DAF820704FEA8B0B4FF00F0E0EFA0BFEE5
:103D400027EA0E0E0F6907FA0BF747EA0E07CAF8C3
:103D5000207001E0032CDAD1076804FA08F43E4031
:103D6000264315F4403F06606BD04FF0000ACDF8B3
:103D700004A0D9F84460404C46F48046C9F8446039
:103D8000D9F8446006F480460196019E23F00306AC
:103D900006F1804606F59C3603F0030ED6F808803F
:103DA0004FEA8E0E0F2707FA0EF7A04228EA070700
:103DB0004ED004F58064A0424CD004F58064A0424B
:103DC0004AD004F58064A04248D004F58064A04243
:103DD00046D004F58064A04244D004F58064A0423B
:103DE00042D004F58064A04240D004F58064A04233
:103DF0003ED004F58064A0420CBF09240A2404FAD2
:103E00000EF43C43B46094686FEA0C06EF0254BFB2
:103E100034404CEA04049460D468AF0254BF344088
:103E20004CEA0404D4605468AF0354BF34404CEAF5
:103E3000040454601468ED0354BF34404CEA040495
:103E400014600133102B7FF43BAF03B0BDE8F08F5B
:103E50005446D4E70124D2E70224D0E70324CEE776
:103E60000424CCE70524CAE70624C8E70724C6E7EC
:103E70000824C4E7003C0140000002400038024032
:103E80000369194214BF0120002070470AB1816103
:103E900070470904FBE7436901EA030221EA0301D1
:103EA00041EA02418161704701684B6913F4806304
:103EB0004FF0000210D06FF480634B612023026347
:103EC00080F83D3080F83E20036C80F83C2043F0C1
:103ED0000403036401207047184670472DE9F84633
:103EE00006460F4691461D464FEA114A3368BAF11D
:103EF000010F0CBF5C699C6927EA0404A4B2B4FA00
:103F000084F46409A14501D0002017E06A1CEED0BA
:103F1000FFF758FD089BC01AA84201D8002DE5D133
:103F200000232022336386F83D2086F83E30326C31
:103F300086F83C3042F0200232640120BDE8F88669
:103F40002DE9F04104460F461646984625686869F3
:103F500027EA000080B2B8B16B695A0516D52B6804
:103F600043F400732B606FF480636B6120220023A5
:103F7000236384F83D2084F83E30226C42F0040232
:103F8000226484F83C300120BDE8F081731CDED04F
:103F9000FFF718FDA0EB0800B04201D8002ED5D1E4
:103FA00000232022236384F83D2084F83E30226CD5
:103FB00042F02002E4E770B504460D46164621683B
:103FC0004B6913F0400301D0002010E04A69D2068B
:103FD0000ED56FF010024A612022236384F83D2041
:103FE00084F83E30226C226484F83C30012070BD9D
:103FF000FFF7E8FC801BA84201D8002DDFD1002389
:104000002022236384F83D2084F83E30226C42F065
:104010002002E8E770B504460D46164623685B6942
:104020005B0701D5002070BD2046FFF73DFFA8B912
:104030006A1CF3D0FFF7C6FC801BA84201D8002DF4
:10404000ECD100232022236384F83D2084F83E3005
:10405000226C84F83C3042F0200222640120E2E726
:1040600070B504460D46164623685B691B0601D5EC
:10407000002070BD2046FFF717FFA8B96A1CF3D0D7
:10408000FFF7A0FC801BA84201D8002DECD1002333
:104090002022236384F83D2084F83E30226C84F88B
:1040A0003C3042F0200222640120E2E72DE9F04397
:1040B0001546026885B0DDE90C789946136843F42B
:1040C000807313600E463B46CDF8008000224FF00F
:1040D00001110446FFF702FF236838B11B68DB05B6
:1040E00002D54FF40073236403200AE006F0FE06B5
:1040F0001E61194943463A462046FFF721FF18B191
:10410000012005B0BDE8F083236803905A6903924B
:104110009B690393424639462046039BFFF7A0FF65
:1041200040B1236C042B01BF2268136843F4007371
:104130001360E5E7B9F1010F236802D1EDB21D610B
:10414000DFE72A0A1A61394642462046FFF788FF10
:104150000028E6D12368F1E7020001002DE9FF47BE
:104160009A46036815461A6842F480621A601A6813
:10417000DDE90C7842F480721A600E463B46CDF8B9
:10418000008000224FF001110446FFF7A7FE2368CC
:1041900048B11B68DB0502D54FF40073236403208C
:1041A00004B0BDE8F0875FFA86F906F0FE061E61EE
:1041B0002A4943463A462046FFF7C2FE08B101208D
:1041C000EEE7236803905A6903929B690393424682
:1041D00039462046039BFFF743FF40B1236C042B75
:1041E00001BF2268136843F400731360E7E7BAF174
:1041F000010F23681AD1EDB21D61424639462046AF
:10420000FFF72EFF0028E9D12268136843F480737A
:1042100013604FF001110246CDF800803B46204666
:10422000FFF75CFE226860B11368B3E72A0A1A61DF
:10423000394642462046FFF713FF0028CED12368B7
:10424000D9E749F001031361044943463A46204641
:10425000FFF776FE003818BF0120A1E70200010039
:1042600070B5044608B9012070BD90F83D3003F0E8
:10427000FF021BB980F83C20FDF778FB242384F86B
:104280003D3023681A6822F001021A601A6842F46D
:1042900000421A601A6822F400421A6000F074FEAC
:1042A0003F4B65689D4294BF3E4B3F4B98428CBF4D
:1042B00000230123002BD6D12268394E53683B4995
:1042C000B0FBF1F123F03F030B43B542536088BFCD
:1042D0004FF49676136A88BF714323F03F0384BF7F
:1042E0004FF47A76B1FBF6F1013119431162D169CD
:1042F000431E2B4821F44F41854221F0FF0132D863
:104300006D0040F6FC70B3FBF5F30133034242D07D
:10431000C3F30B030B43D361D4E9073011680343A4
:1043200021F0C0010B4313609168D4E9030321F429
:104330000341034321F0FF010B439360D4E90530AF
:10434000D168034321F0FF010B43D360136843F0AE
:104350000103136000202023206484F83D30206393
:1043600084F83E0080E7A06850B905EB4505B3FB33
:10437000F5F30133C3F30B037BB143F40043C9E707
:1043800019204543B3FBF5F30133C3F30B0323B10A
:1043900043F44043BEE70423BCE70123BAE700BF70
:1043A000A08601007F841E00FF083D0040420F00F0
:1043B0002DE9F743044699460C9E0F469046FFF7B9
:1043C00001FB94F83D30202B054603D0022003B0BA
:1043D000BDE8F08300903C49192301222046FFF7F5
:1043E0007DFD0028F2D194F83C30012BEED02068FE
:1043F000012384F83C300368D9075EBF036843F0AB
:1044000001030360036823F400630360212384F83D
:104410003D30402384F83E30002323640A9B6362CE
:10442000BDF82C306385638D2385284BE362CDE98D
:1044300000654B46424639462046FFF737FE0028C6
:104440002AD00120C3E7FFF70BFE40B1236C042BF9
:1044500001BF2268136843F400731360F1E7636AD5
:1044600027681A4612F8011B39616262628D218D3C
:10447000013A92B262857A69481E80B2520720855D
:104480000AD548B15A783A6102336362638D013BC1
:1044900002399BB221856385238D2A463146204609
:1044A000002BD0D1FFF7B6FD0028CFD122681368CA
:1044B00043F400731360202384F83D3084F83C00FB
:1044C00084F83E0083E700BF020010000000FFFFF9
:1044D0002DE9F043044687B09946109F0D4690465B
:1044E000FFF770FA94F83D30202B064604D00225E1
:1044F000284607B0BDE8F0830090764919230122D1
:104500002046FFF7EBFC0028F1D194F83C30012B5A
:10451000EDD02068012384F83C300368DB075EBFE0
:10452000036843F001030360036823F4006303603E
:10453000222384F83D30402384F83E300023236456
:104540000E9B6362BDF83C306385638D2385624BAF
:10455000E3622946CDE900764B4642462046FFF706
:10456000FDFD054608B10125C2E7228D2368B2B9D9
:1045700002905A6902929A690292029A1A6842F467
:1045800000721A60DFF85481238D002B2CD1202279
:1045900084F83D2084F83C3084F83E30A8E7012AB6
:1045A0000AD11A6822F480621A6003905A69039251
:1045B0009A690392039AE1E7022A0ED11A6822F45B
:1045C00080621A601A6842F400621A6004905A69A4
:1045D00004929B690493049BD4E705905A69059261
:1045E0009B690593059BCDE7032B56D8012B15D16D
:1045F000324639462046FFF7DEFC0028B3D1236857
:104600001A69636A1A70636A01336362238D013B1E
:104610002385638D013B9BB26385B5E7022B009632
:104620003B464FF000024146204619D1FFF756FCA9
:10463000002898D123681A6842F400721A601A6937
:10464000636A1A70626A531C6362238D013B23857F
:10465000638D013B9BB2638523681B695370D2E76E
:10466000FFF73CFC00287FF47EAF23681A6822F431
:1046700080621A601A69636A1A70636A009601336D
:104680006362238D013B2385638D013B9BB2638570
:1046900002463B4641462046C8E732463946204658
:1046A000FFF789FC00287FF45EAF23681A69636A0C
:1046B0001A70626A531C6362238D013B2385638DEC
:1046C000013B9BB263852368596949077FF55CAF5D
:1046D000C3E700BF020010000000FFFF040001005C
:1046E00010B590F83D30202BDCB216D1242380F891
:1046F0003D3003681A6822F001021A605A6A22F0FB
:1047000010025A625A6A114359621A6842F0010251
:104710001A6080F83D40002010BD0220FCE730B553
:1047200090F83D30202BDCB216D10268242380F8AB
:104730003D30136823F001031360556A4FF6F073A0
:104740002B400B439BB25362136843F00103136089
:1047500080F83D40002030BD0220FCE70068D1F821
:1047600000C0D201843283182DE9F043C6685D6829
:104770004C68D1F8189005F470455D60C5680CF17F
:104780000107C5F30B45C6F30B463D44264445EAF5
:1047900006455D60C568CE68C5F30A052E449D6870
:1047A00005F470459D60C7688D68C7F30A07013539
:1047B0003D4445EA06459D601D690E6925F00705E3
:1047C0001D614FF0000E1E619D6991F8327091F8E5
:1047D0003180C3F818E091F8305045EA096545EAA0
:1047E000082545EA07459D615D6925F0FF055D6186
:1047F0004D695D61DD6925F4E06525F00705DD6142
:10480000D1E907573D43DD619D6A4D6AC3F828E051
:104810009D621EB3012E23D0B51E022D22D9072E74
:104820000CBF02250125DE6A06F0E026DE62A4EB5D
:104830000C048E6AC96A6C436E43033444EA06442E
:10484000DC621C6B24F4FF6424F007041C6319630E
:10485000835843F001038350BDE8F0830425E2E769
:104860000325E0E70225DEE738B50446002863D0DB
:1048700090F8A13003F0FF021BB980F8A020FDF7EB
:10488000D1F8022384F8A13023689A6922F070429B
:104890009A61D4E901200243E068996902432069E2
:1048A00002430A439A619A68244960690A409A60FF
:1048B0009A6842EA0042A06902439A60DA68E069B5
:1048C0000A40DA60DA6842EA0042206A0243DA60AB
:1048D0001A69606A0A401A611A6942EA0042A06ACB
:1048E00002431A615A69114059615A69E16A42EA00
:1048F0000142216B0A435A61D96A94F8360094F850
:10490000355001F07F41D962D96A94F834200A43C6
:1049100042EA052242EA0042DA625A6B42F006029B
:104920005A639A6942F001029A6100200123C4F897
:10493000A40084F8A13038BD0120FCE700F800F0A5
:1049400070477047036870B59E6B5D6B72070446D5
:1049500014D5690712D55A6B22F004025A63042257
:10496000DA63D0F8A43043F00103C0F8A430002388
:1049700080F8A12080F8A030FFF7E2FFB20716D53B
:10498000AB0714D523685A6B22F002025A63022245
:10499000DA63D4F8A4301343C4F8A430042384F8B1
:1049A000A130002384F8A0302046FFF7C9FFF007AC
:1049B00010D5E9070ED523685A6B22F001025A631D
:1049C0000122DA63002384F8A12084F8A030204675
:1049D000FCF748FC320711D52B070FD523685A6B1B
:1049E00022F008025A630822DA63012384F8A13016
:1049F000002384F8A0302046FFF7A3FF70BD2DE907
:104A0000F04190F8A030012B06460F4694464FF037
:104A100002001FD04FF0010886F8A08086F8A100A0
:104A200034240D4604FB02640FCD38340FC40FCD7F
:104A30000FC40FCD0FC42B68236030466246394641
:104A4000FFF78CFE33680020C3F8248086F8A1802D
:104A500086F8A000BDE8F08190F8A030012B4FF05F
:104A6000020312D080F8A13003685A6B22F00102D1
:104A70005A63074A11645A6B42F001025A630123D8
:104A800080F8A130002380F8A0301846704700BF9E
:104A9000006801402DE9F341044640B30368DD0797
:104AA00010D4236898075ED423681A0700F1A08009
:104AB00023685B0700F1C080A069002840F02881CE
:104AC00000202BE08F4B9A6802F00C02042A07D0DA
:104AD0009A6802F00C02082A0BD15A68510208D5D4
:104AE000884B1B689A03DCD56368002BD9D1012061
:104AF00014E06268B2F5803F13D11A6842F4803244
:104B00001A60FEF75FFF7F4E054633689B03C8D4EB
:104B1000FEF758FF401B6428F7D9032002B0BDE818
:104B2000F081784DB2F5A02F2B6807D143F4802394
:104B30002B602B6843F480332B60E2E723F480334F
:104B40002B602B6823F480232B60002AD9D1FEF739
:104B500039FF06462B689F03A3D5FEF733FF801B62
:104B60006428F7D9D9E7674B9A6812F00C0F07D081
:104B70009A6802F00C02082A11D15B685E020ED41A
:104B8000604A13689D0702D5E368012BAFD1136813
:104B9000216923F0F80343EAC103136084E7E26864
:104BA000594BB2B101221A60FEF70CFF554D064673
:104BB0002B68980707D52B68226923F0F80343EA8E
:104BC000C2032B6070E7FEF7FDFE801B0228EFD9C1
:104BD000A3E71A60FEF7F6FE4A4E054633689907CA
:104BE0007FF562AFFEF7EEFE401B0228F6D994E790
:104BF0006269454B82B10122C3F8802EFEF7E2FEC6
:104C0000404E0546736F9F073FF552AFFEF7DAFE41
:104C1000401B0228F6D980E7C3F8802EFEF7D2FEAB
:104C2000384E0546736F98077FF542AFFEF7CAFE10
:104C3000401B0228F6D970E7324B1A6C12F08052F2
:104C400028D101921A6C42F080521A641B6C03F056
:104C500080530193019B01272C4D2B68D9051BD54F
:104C6000A368284D012B27D12B6F43F001032B673D
:104C7000FEF7A8FE234E054641F28838336F9B07A6
:104C800039D5002F3FF418AF1E4A136C23F0805320
:104C9000136411E70027DFE72B6843F480732B6070
:104CA000FEF790FE06462B68DA05D9D4FEF78AFE99
:104CB000801B0228F7D930E7052B04D12B6F43F076
:104CC00004032B67D0E72A6F22F001022A672A6FBC
:104CD00022F004022A67002BCAD1FEF773FE41F2CC
:104CE000883806462B6F9807CBD5FEF76BFE801BE6
:104CF0004045F7D911E7FEF765FE401B4045BDD999
:104D00000BE700BF0038024000004742007000403F
:104D1000364DAB6803F00C03082B3DD0344B00221A
:104D200002281A662BD1FEF74DFE06462B68990124
:104D30001FD4D4E907321343626A43EA8213E26A5A
:104D400043EA0263A26A5208013A43EA02436B60F3
:104D5000274B264D01221A66FEF734FE04462B68C7
:104D60009A013FF5ADAEFEF72DFE001B0228F6D9E5
:104D7000D3E6FEF727FE801B0228D7D9CDE6FEF743
:104D800021FE04462B689B017FF59AAEFEF71AFEC2
:104D9000001B0228F6D9C0E601283FF4BFAE6B68BD
:104DA000E26903F4800191427FF4A1AE216A03F02D
:104DB0003F028A427FF49BAE616A47F6C0721A4096
:104DC000B2EB811F7FF493AEA26A520803F4403124
:104DD000013AB1EB024F7FF48AAEE26A03F07063EE
:104DE000B3EB026F3FF46CAE81E600BF00380240C7
:104DF00000004742134908B58B6803F00C03042BED
:104E00001CD0082B1CD14A684B68496813F48003F6
:104E100014BF0D480D48C1F3881118BF002302F0DC
:104E20003F02A1FB0001FBF733FA064B5B68C3F3BB
:104E3000014301335B00B0FBF3F008BD0248FCE71F
:104E40000248FAE70038024000127A000024F40019
:104E50002DE9F0410D46044610B90120BDE8F0816E
:104E6000444B1A6802F00F028A4228D3226897073F
:104E70002DD4D00741D43F4B1A6802F00F02AA424A
:104E800066D8226851076CD4130707D53A4A2169BE
:104E9000936823F4604343EAC1039360FFF7AAFFDA
:104EA000354B364A9B68C3F30313D35CD840344B6D
:104EB0001860344B1868FCF733FF0020CEE7CAB205
:104EC0001A701B6803F00F038B42C6D1CEE72A4B42
:104ED00012F0040F1EBF996841F4E0519960160763
:104EE00042BF996841F4604199602349A0688B688A
:104EF00023F0F00303438B60BBE762681E4B012A7B
:104F00001CD11B6813F4003FA7D01B4EB36823F0DD
:104F100003031343B360FEF755FD41F2883807469B
:104F2000B368626803F00C03B3EB820FA3D0FEF703
:104F300049FDC01B4045F3D903208FE7911E01298D
:104F40001B6802D813F0007FDEE713F0020FDBE7E7
:104F5000EAB21A701B6803F00F03AB427FF47DAF17
:104F60008FE70549E0688B6823F4E05303438B60C7
:104F70008AE700BF003C02400038024080C60108BA
:104F8000740000207C000020044B054A9B68C3F39A
:104F90008223D35C034A1068D8407047003802402F
:104FA00090C60108740000200F2303600B4B9A6821
:104FB00002F0030242609A6802F0F00282609A688E
:104FC00002F4E052C2609B68DB0803F4E053036123
:104FD000034B1B6803F00F030B607047003802405F
:104FE000003C0240036813F0430FF7B5044640F05D
:104FF0008C80236813F00C0F45D08B4B8B4D002217
:105000001A67FEF7DFFC06462B689F0000F1CF8091
:1050100021684E0715D5D4E90403D5F888201B066E
:1050200002F0E04243EA80131343C5F88830D5F814
:105030008C30226A23F4F853013A43EA0223C5F87C
:105040008C300D0714D5794AA369D2F888102069ED
:105050001B0701F0706143EA80130B43C2F88830EC
:10506000D2F88C30616A23F440330B43C2F88C30A1
:105070006D4B6E4E01221A67FEF7A4FC054633689D
:10508000980040F19B8023689B0633D50023019351
:10509000664B674D1A6C42F080521A641B6C03F029
:1050A00080530193019B2B6843F480732B60FEF7C0
:1050B00089FC06462B68D90540F187805B4D2B6F34
:1050C00013F4407340F08880A36A03F44072B2F591
:1050D000407F564A40F0A480916823F0704021F44C
:1050E000F81120F4407001439160116FC3F30B037A
:1050F0000B431367206810F010001FBF4D4B94F84E
:105100002C20C3F8E02100204FE0474B474E0022FF
:105110009A66FEF757FC054633681F013FD42168A5
:10512000CD0741BFD4E901231B0743EA8213C6F828
:105130008430880715D53D4AE368D2F88400656855
:105140001B0600F0E04043EA85130343C2F88430B5
:10515000D2F88C00E36920F01F00013B0343C2F842
:105160008C3049060AD5E36862681B0643EA82135D
:10517000A26843EA02732D4AC2F884302A4B2B4EB0
:1051800001229A66FEF71EFC054633681A013FF5B8
:1051900030AFFEF717FC401B0228F6D904E0FEF7FB
:1051A00011FC401B0228B7D9032003B0F0BDFEF765
:1051B00009FC801B02287FF627AFF5E7FEF702FC0B
:1051C000401B02287FF65BAFEEE7FEF7FBFB801B80
:1051D00002287FF66FAFE7E7A26A02F440729342BB
:1051E0003FF472AF2B6F104A0121C2F8401E23F426
:1051F00040730021C2F8401E2B672B6FDA077FF542
:1052000063AFFEF7DFFB41F2883706462B6F9B0743
:105210003FF55AAFFEF7D6FB801BB842F6D9C3E77D
:10522000916821F4F8115FE700004742003802401E
:10523000007000400010474238B50D460446C8B122
:1052400090F82C3003F0FF021BB980F82D20FCF7FA
:10525000FBFC022384F82C30211D206800F004FDA3
:1052600062682068294600F03AFD012384F82C305A
:10527000002038BD0120FCE770B590F82C30022BDF
:1052800005460E46D8B212D000F0FB04012C0FD117
:10529000022385F82C30286800F057FD3368022B74
:1052A00006BF052385F82C3085F82C40002070BD02
:1052B0000120FCE738B590F82C30022B0446D8B218
:1052C0000DD094F82C30012BDDB209D102232068D7
:1052D00084F82C3000F05FFD84F82C50002038BD9D
:1052E0000120FCE72DE9F3411D4617468846064696
:1052F000FEF768FB3D442C1AFEF764FB224B1B684B
:10530000C3F3CB330546634332680193936838EAAD
:10531000030301D000202DE07B1CF7D0FEF752FBE9
:10532000401BA04229D333685A6822F0E0025A6039
:105330007268B2F5827F0AD1B268B2F5004F02D02E
:10534000B2F5806F03D11A6822F040021A60B26A87
:10535000B2F5005F07D11A6822F400521A601A6889
:1053600042F400521A60012386F85130002386F877
:105370005030032002B0BDE8F081019B002B019B5F
:1053800008BF0024013BBFE77400002038B5134676
:105390004268B2F5827F04461FD18268B2F5004FA1
:1053A00002D0B2F5806F07D125682868B2F5806F0A
:1053B00020F04000286007D00A4680212046FFF7F1
:1053C00091FF20B9002038BD0A460121F6E7636D40
:1053D00043F0200363650320F5E70A460121EEE769
:1053E00037B51346124A1568124AB5FBF2F54FF469
:1053F0007A72554342680195B2F5827F04460BD11B
:105400000A468021FFF76EFF78B1636D43F02003F9
:105410006365032003B030BD019B33B1019B013BA9
:10542000019323689B681B06F6D40020F2E700BFB7
:105430007400002000366E0110B50446002855D0D7
:10544000436A002B4ED14268B2F5827F00D0C3611F
:105450000023A36294F8513003F0FF0223B984F8CB
:1054600050202046FCF7BAFB2168A068A2690223FD
:1054700084F851300B6823F040030B60636800F43C
:10548000044003F482730343E06800F400600343C4
:10549000206900F002000343606900F0010003434B
:1054A00002F400700343E06900F038000343206A0F
:1054B00000F080000343A06A00F4005003430B6037
:1054C000636A120C03F0100302F004021A434A60EC
:1054D000CB6923F40063CB6100200123606584F86D
:1054E000513010BD0023C0E90433B1E70120F8E7D3
:1054F0002DE9F3411E4690F85030012B04460D462D
:10550000174600F0A180012380F85030FEF75AFAC8
:1055100094F85130012B8046D8B240F09380002D92
:105520005ED0002F5CD0A2682563032384F851303D
:10553000B2F5004F4FF000036365C4E91033E7860E
:10554000A363A387E387A786236807D11A6822F09D
:1055500040021A601A6842F480421A601A68E168D0
:1055600052065EBF1A6842F040021A60B1F5006F41
:10557000626841D10AB1012F07D135F8022BDA60F8
:105580002563E38E013B9BB2E386E38E9BB2A3B916
:10559000424631462046FFF723FF00284FD1A3683B
:1055A00033B901932368DA6801929B680193019BE8
:1055B000606D003818BF012012E0226893689807D8
:1055C00005D5236B33F8021BD1602363D9E7FEF7BF
:1055D000F9F9A0EB0800B0420BD3711CD5D0032021
:1055E000012384F85130002384F8503002B0BDE824
:1055F000F081002EC9D1F2E70AB1012F08D12A7833
:105600001A73236B01332363E38E013B9BB2E38662
:10561000E38E9BB2002BBBD023689A68920702D519
:10562000226B1278ECE7FEF7CDF9A0EB0800B04250
:1056300002D3731CECD0D2E7002EE9D1CFE72023B0
:105640006365ACE70220CBE70220CFE72DE9F74303
:105650001E4690F850300A9F012B04460D46914695
:1056600000F0E680012380F85030FEF7ABF994F8A3
:1056700051306268012B8046D9B20AD0B2F5827FE0
:1056800040F0D480A368002B40F0D080042940F083
:10569000CD80002D40D0B9F1000F3DD0002E3BD081
:1056A00094F85130C4F83890042B1CBF052384F8BB
:1056B000513000236365C4E910332368E687E6862A
:1056C0001968A687490658BF1968256358BF41F075
:1056D0004001A68658BF1960E168B1F5006F52D14C
:1056E0000AB1012E07D135F8022BDA60E38E25636B
:1056F000013B9BB2E3860125E38E9BB273B9E38F36
:105700009BB25BB9424639462046FFF769FE002846
:1057100000F081802023636501202BE021688B68E5
:105720009E070DD5E38E9BB253B14DB1236B33F879
:10573000022BCA602363E38E013B9BB2E386002504
:105740008A6812F001020CD0E38F9BB24BB1A36BBD
:10575000C96823F8021BA363E38F013B9BB2E38775
:105760001546FEF72FF9A0EB0800B842C4D3781C09
:10577000C2D00320012384F85130002384F8503034
:1057800003B0BDE8F0830AB1012E08D12A781A735C
:10579000236B01332363E38E013B9BB2E386012538
:1057A0002DE02268936899070ED5E38E9BB25BB11A
:1057B00055B1236B1B781373236B01332363E38E83
:1057C000013B9BB2E38600252268916811F001013C
:1057D0000DD0E38F9BB253B1A36BD2681A70A36B49
:1057E0000133A363E38F013B9BB2E3870D46FEF7D2
:1057F000E9F8A0EB0800B8420AD37B1CB9D1E38ECC
:105800009BB2002BCDD1E38F9BB2002BC9D179E79E
:10581000002FF4D1ADE7A368002BABD12368019032
:10582000DA6801929B680193019BA3E70220A1E73C
:105830000220A5E72DE9F7431D464368B3F5827FB3
:105840000446894617460CD1836853B9042380F86F
:105850005130134600950A46FFF7F8FE03B0BDE845
:10586000F08394F85030012B00F08680012384F8F7
:105870005030FEF7A7F894F85130012B8046D8B28B
:1058800078D1B9F1000F5CD0002F5AD0A268C4F8CB
:10589000389000260423B2F5004F84F85130C4E953
:1058A000106666652368E787A7872663A686E6866F
:1058B00007D11A6822F040021A601A6822F4804266
:1058C0001A601A6856065EBF1A6842F040021A60F3
:1058D000E368F3B1E38F9BB2FBB123689A68D20708
:1058E00039D5DA68A36B23F8022BA363E38F013B5E
:1058F0009BB2E387EEE723689A68D00718D5A26BBE
:105900001B7B1370A36B0133A363E38F013B9BB23B
:10591000E387E38F9BB2002BEDD142462946204618
:10592000FFF734FD18BB606D003818BF012008E098
:10593000FEF748F8A0EB0800A84209D3691CE8D09C
:105940000320012384F85130002384F8503085E788
:10595000002DDED1F4E7FEF735F8A0EB0800A842F1
:1059600002D36B1CB6D0EBE7002DB3D1E8E72023C0
:105970006365D8E70220E4E702206FE77047000084
:1059800090F83D30012B30D1022380F83D30036880
:10599000DA6842F00102DA60154A93421AD0B3F194
:1059A000804F17D0A2F57C42934213D002F580625B
:1059B00093420FD002F5806293420BD002F57842F9
:1059C000934207D002F57052934203D0A2F594326D
:1059D000934204D19A6802F00702062A03D01A689B
:1059E00042F001021A60002070470120704700BF9A
:1059F00000000140704770477047704703681A699C
:105A0000910710B504460ED5DA6892070BD56FF0F2
:105A100002021A61012202779B699B0777D0FFF788
:105A2000EAFF0023237723681A69500710D5DA6844
:105A300051070DD56FF004021A61022222779B698B
:105A400013F4407F204668D0FFF7D5FF002323776B
:105A500023681A6912070FD5DA6810070CD56FF0A2
:105A600008021A6104222277DB69990720465AD07E
:105A7000FFF7C1FF0023237723681A69D20610D5E8
:105A8000DA68D0060DD56FF010021A61082222776D
:105A9000DB6913F4407F20464BD0FFF7ACFF0023B7
:105AA000237723681A69D10708D5DA68D20705D5A4
:105AB0006FF001021A612046FBF7F2FE23681A69B3
:105AC000100608D5DA68110605D56FF080021A6154
:105AD000204600F0C8F823681A69520608D5DA682B
